:100000000C945C000C9482000C9482000C944001CF
:100010000C9482000C9418010C9482000C948200C1
:100020000C9482000C9482000C9482000C94820048
:100030000C9482000C9482000C9482000C94820038
:100040000C94B7050C9482000C9491070C948200D8
:100050000C9482000C9482000C9482000C94820018
:100060000C9482000C948200DF04B60500000007A7
:100070000002010000030406000000000000000070
:10008000010204081020408001020408102001022F
:1000900004081020040404040404040402020202FC
:1000A00002020303030303030000232629000025A3
:1000B000282B000024272A0011241FBECFEFD4E0F4
:1000C000DEBFCDBF11E0A0E0B1E0EAE1F2E102C0A5
:1000D00005900D92AE32B107D9F712E0AEE2B1E071
:1000E00001C01D92A131B107E1F710E0CCE6D0E0EC
:1000F00004C02297FE010E940909C836D107C9F73A
:100100000C94C8040C94000020E001972FEF8F3F5F
:100110009207D9F70895FC01609372014093300172
:1001200010821182128213820895FC016093720181
:1001300040933001108211821282138208956093DD
:1001400030010895609372010895209131012223B6
:1001500019F48FEF9FEF08959091320130E0E32F73
:10016000FF27EE5CFE4F818180833F5F3217B9F736
:10017000215020933101892F9927089580913101D1
:10018000992708950F931F93CF93DF938091720166
:100190000E948306892B09F046C080912E01909120
:1001A0002F01089720E001972FEF8F3F9207D9F793
:1001B00000E0C0E0D0E080912E0190912F01880FE7
:1001C000991F069710E0212F01972FEF8F3F92077D
:1001D000D9F7809172010E948306892B49F081E052
:1001E00090E00C2E02C0880F991F0A94E2F7082BAA
:1001F0002196C830D105F9F680912E0190912F01FA
:10020000880F991F01971FEF8F3F9107D9F78091B2
:100210003101803440F4E82FFF27EE5CFE4F00836D
:100220008F5F80933101DF91CF911F910F910895DE
:100230001F920F920FB60F9211242F933F934F935B
:100240005F936F937F938F939F93AF93BF93EF933E
:10025000FF9380917201883010F40E94C200FF91D8
:10026000EF91BF91AF919F918F917F916F915F912E
:100270004F913F912F910F900FBE0F901F901895A7
:100280001F920F920FB60F9211242F933F934F930B
:100290005F936F937F938F939F93AF93BF93EF93EE
:1002A000FF93809172018850863010F40E94C20042
:1002B000FF91EF91BF91AF919F918F917F916F913E
:1002C0005F914F913F912F910F900FBE0F901F9014
:1002D0001895CF92DF92EF92FF920F931F938C01AC
:1002E0006A017B0161E0809130010E94650661E056
:1002F000809130010E94CC0660E0809172010E94E2
:10030000650661E0809172010E94CC06F801C0820E
:10031000D182E282F382F0E0CF16FBE4DF06F0E068
:10032000EF06F0E0FF0609F466C081E0C8168BE432
:10033000D80680E0E80680E0F806FCF4E0ECCE1693
:10034000E2E1DE06E0E0EE06E0E0FE0609F459C078
:10035000F0E8CF16F5E2DF06F0E0EF06F0E0FF068A
:1003600009F44CC080E6C81689E0D80680E0E806AB
:1003700080E0F80609F04BC047C0E0E0CE16E6E9A1
:10038000DE06E0E0EE06E0E0FE0679F1F1E0CF16F1
:10039000F6E9DF06F0E0EF06F0E0FF0654F482E154
:1003A000C8168AE7D80680E0E80680E0F80679F506
:1003B0001FC0E0E0CE16E1EEDE06E0E0EE06E0E093
:1003C000FE0661F0F0E0CF16F2ECDF06F1E0EF069A
:1003D000F0E0FF06E1F484E090E002C08EE090E0FF
:1003E00090932F0180932E0116C088E190E0F8CF02
:1003F0008FE190E0F5CF86E390E0F2CF81E790E0E7
:10040000EFCF88EE90E0ECCF86ED91E0E9CF10924F
:100410002F0110922E0190917201983090F48091EA
:100420006D0021E030E002C0220F331F9A95E2F701
:10043000822B80936D0080916800846080936800B7
:1004400017C09E30A8F48091680081608093680096
:1004500040916B00292F33272850304081E090E0F5
:1004600002C0880F991F2A95E2F7482B40936B0032
:1004700080912E0190912F01880F991F20E0019704
:100480002FEF8F3F9207D9F71F910F91FF90EF90B9
:10049000DF90CF9008950F931F93CF93DF93FC01CC
:1004A000062F80819181A281B3810097A105B105BA
:1004B00009F445C0F89460E0809130010E94CC06B8
:1004C00080912E0190912F01880F991F20E00197B4
:1004D0002FEF8F3F9207D9F711E0C8E0D0E0802FCF
:1004E0009927212F332782239323892B11F061E051
:1004F00001C060E0809130010E94CC0680912E0105
:1005000090912F01880F991F20E001972FEF8F3FC7
:100510009207D9F7110F219711F761E0809130010F
:100520000E94CC06789480912E0190912F01880F23
:10053000991F20E001972FEF8F3F9207D9F7DF91A6
:10054000CF911F910F9108950E944B0208952F9211
:100550003F924F925F926F927F928F929F92AF9253
:10056000BF92CF92DF92EF92FF920F931F93CF93A0
:10057000DF93CDB7DEB7A2970FB6F894DEBF0FBEFC
:10058000CDBF9AA389A36A017B014115510561057D
:10059000710521F460E30E94A40251C04424552453
:1005A0003201822E9924AA24BB241E010894211C06
:1005B000311C8101040D151DC701B601A50194016F
:1005C0000E94B608F80160830894411C511C611C0C
:1005D000711CC701B601A50194010E94B60869010A
:1005E0007A01211531054105510519F77201089469
:1005F000E108F108E20CF31CAA24BB24650113C036
:10060000F70160816A3010F4605D01C0695C89A106
:100610009AA10E94A4020894A108B108C108D108B7
:100620000894E108F10888279927DC0184199509C5
:10063000A609B709A816B906CA06DB0609F7A296E5
:100640000FB6F894DEBF0FBECDBFDF91CF911F91E3
:100650000F91FF90EF90DF90CF90BF90AF909F9061
:100660008F907F906F905F904F903F902F90089564
:100670002AE00E94A7020895AB01662777270E940F
:10068000380308950F931F938C016DE00E94A4021C
:100690006AE0C8010E94A4021F910F9108950F9370
:1006A0001F938C010E943803C8010E9442031F91CE
:1006B0000F9108950F931F938C010E944B02C80164
:1006C0000E9442031F910F9108950F931F938C0175
:1006D0000E94A402C8010E9442031F910F91089535
:1006E000EF92FF920F931F93CF93DF93EC017A0168
:1006F0008B0177FF0BC06DE20E94A402109500955C
:10070000F094E094E11CF11C011D111D2AE0B801D8
:10071000A701CE010E94A702DF91CF911F910F91F7
:10072000FF90EF9008950F931F938C010E94700328
:10073000C8010E9442031F910F91089521153105B0
:1007400021F4642F0E94A40208952A30310519F47F
:100750000E94700308950E94A70208950F931F93AB
:100760008C010E949E03C8010E9442031F910F91B9
:100770000895AB01662757FD6095762F0E947003A0
:1007800008950F931F938C010E94B903C8010E9422
:1007900042031F910F9108950F931F93CF93DF93FF
:1007A0008C01EB0104C02196C8010E94A40268815B
:1007B0006623C9F7DF91CF911F910F9108950F9391
:1007C0001F938C010E94CC03C8010E9442031F9119
:1007D0000F9108950F931F9340E855E260E070E099
:1007E00088E891E00E94E80403E711E040E855E260
:1007F00060E070E0C8010E94690162E071E0C80138
:100800000E94CC0320E030E04DE050E060E070E07A
:10081000C8010E949E0360E177E280E090E00E94C0
:10082000F4051F910F910895EF92FF920F931F937C
:1008300003E711E066E071E0C8010E94CC0360911B
:10084000000170910101C8010E94B9038FE0E82EF8
:1008500081E0F82EB701C8010E94CC0320E030E00F
:100860004DE050E060E070E0C8010E949E0368EE39
:1008700073E080E090E00E94F40564E171E0C8015B
:100880000E94CC0366E070E0C8010E94B90320E03A
:1008900030E04DE050E060E070E0C8010E949E034F
:1008A00069E171E0C8010E94CC0320E030E04DE036
:1008B00050E060E070E0C8010E949E0368EE73E0C3
:1008C00080E090E00E94F40560E271E0C8010E94BF
:1008D000CC036091000170910101C8010E94B9032D
:1008E000B701C8010E94CC0320E030E04DE050E0A9
:1008F00060E070E0C8010E949E0380910001909129
:1009000001010196909301018093000160E177E27B
:1009100080E090E00E94F4051F910F91FF90EF900E
:1009200008951F9369E271E083E791E00E94CC0390
:1009300020E030E04DE050E060E070E083E791E0DF
:100940000E949E0368EE73E080E090E00E94F40550
:1009500083E791E00E94A500182F882389F0682F73
:1009600088E891E00E94F704153291F783E791E05F
:100970000E94A50001969093010180930001E8CFA9
:1009800060E177E280E090E00E94F4051F91089515
:10099000CFEFD4E0DEBFCDBF0E9423060E94EA0362
:1009A0000E941404FDCF6F5F7F4F41F4019731F433
:1009B00043E062E083E791E00E94950008956FEFC5
:1009C0007FEF81E090E00E94D30408950895089598
:1009D000CB01BA010E94170708950E945807992772
:1009E00008950E94690708950E9488070895862F38
:1009F0000E94CF070895CB010E94D6070895862F45
:100A00000E94CF0708950F931F938C016DE00E9401
:100A1000F7046AE0C8010E94F7041F910F9108953E
:100A20000F931F938C010E94F704C8010E940305D5
:100A30001F910F9108950F931F938C010E94FB0447
:100A4000C8010E9403051F910F9108950F931F93F2
:100A50008C010E94FF04C8010E9403051F910F91A1
:100A60000895CB01BA013327442755270E94E30795
:100A700008952AE00E94310508950F931F938C0179
:100A80000E943905C8010E9403051F910F91089526
:100A9000AB01662777270E94390508950F931F93AE
:100AA0008C010E944805C8010E9403051F910F9107
:100AB0000895EF92FF920F931F93CF93DF93EC0172
:100AC0007A018B0177FF0BC06DE20E94F70410954D
:100AD0000095F094E094E11CF11C011D111D2AE029
:100AE000B801A701CE010E943105DF91CF911F917E
:100AF0000F91FF90EF9008950F931F938C010E9428
:100B00005905C8010E9403051F910F9108952115F1
:100B1000310521F4642F0E94F70408952A3031052D
:100B200019F40E94590508950E94310508950F9304
:100B30001F938C010E948705C8010E9403051F9125
:100B40000F910895AB01662757FD6095762F0E949F
:100B5000590508950F931F938C010E94A205C801A7
:100B60000E9403051F910F910895089508951F9203
:100B70000F920FB60F9211248F939F93AF93BF9351
:100B800080918D0190918E01A0918F01B091900183
:100B90000196A11DB11D80938D0190938E01A093AC
:100BA0008F01B0939001BF91AF919F918F910F9062
:100BB0000FBE0F901F90189560918D0170918E015E
:100BC00080918F019091900127E0660F771F881F19
:100BD000991F2A95D1F72DE730E040E050E00E94C0
:100BE000B608CA01B9010895AF92BF92CF92DF92C1
:100BF000EF92FF920F931F935B016C010E94DC0543
:100C00007B018C010E94DC056E197F09800B910B22
:100C10006A157B058C059D05A8F31F910F91FF9028
:100C2000EF90DF90CF90BF90AF900895019751F073
:100C3000880F991F880F991F02972FB7F894019773
:100C4000F1F72FBF0895789410928D0110928E01C4
:100C500010928F011092900184B5826084BD84B59A
:100C6000816084BD85B5826085BD85B5816085BDA7
:100C7000EEE6F0E0808181608083E1E8F0E0808151
:100C800082608083808181608083E0E8F0E0808101
:100C900081608083E1EBF0E0808184608083E0EB21
:100CA000F0E0808181608083EAE7F0E08081846009
:100CB0008083808182608083808181608083808165
:100CC000806880831092C1000895282F3327C901BE
:100CD00080589F4FFC0194912C563F4FF90184910D
:100CE000882381F0E82FFF27EE54FF4FE491FF2780
:100CF000662329F4808190958923808308958081DB
:100D0000892B80830895482F5527CA0184599F4F06
:100D1000FC012491CA0180589F4FFC0194914C56CC
:100D20005F4FFA0134913323A1F1222331F12330B3
:100D300021F4809180008F7705C0243031F48091B8
:100D400080008F7D8093800018C0213019F484B515
:100D50008F7704C0223021F484B58F7D84BD0DC00F
:100D6000263021F48091B0008F7705C0273029F418
:100D70008091B0008F7D8093B000E32FFF27E8556E
:100D8000FF4FE491FF278081892319F081E090E0F3
:100D9000089580E090E00895482F5527CA018459AE
:100DA0009F4FFC012491CA0180589F4FFC019491F0
:100DB0004C565F4FFA0134913323C1F1222331F1B4
:100DC000233021F4809180008F7705C0243031F4E6
:100DD000809180008F7D8093800018C0213019F4AD
:100DE00084B58F7704C0223021F484B58F7D84BD13
:100DF0000DC0263021F48091B0008F7705C02730D8
:100E000029F48091B0008F7D8093B000E32FFF27FD
:100E1000E355FF4FE491FF27662329F480819095E5
:100E20008923808308958081892B80830895EF92A0
:100E3000FF920F931F937B018C0122E030E040E092
:100E400050E00E94D808205C3D4B404F5F4FCA01E4
:100E5000B901A80197010E94D808215030404040B4
:100E60005040BB2757FDBA95A52F942F832F2F5F96
:100E70003F4F4F4F5F4F8093C50021502093C400D8
:100E8000E1ECF0E0808180618083808188608083F4
:100E90008081806880831F910F91FF90EF9008956B
:100EA000982F8091C00085FFFCCF9093C6000895D5
:100EB00080918B0190918C012091890130918A0160
:100EC000821B930B80589F4F60E870E00E94A3083C
:100ED00008954091890150918A0180918B019091F0
:100EE0008C018417950719F48FEF9FEF0895FA018D
:100EF000EF56FE4F2081CA01019660E870E00E9423
:100F0000A30890938A0180938901822F99270895DD
:100F10008091890190918A0190938C0180938B013B
:100F200008951F920F920FB60F9211242F933F93A3
:100F30004F935F936F937F938F939F93AF93BF93E1
:100F4000EF93FF934091C600E0918B01F0918C01EB
:100F5000CF01019660E870E00E94A3089C01809197
:100F6000890190918A012817390739F0EF56FE4F11
:100F7000408330938C0120938B01FF91EF91BF91BF
:100F8000AF919F918F917F916F915F914F913F9121
:100F90002F910F900FBE0F901F90189508950E94EB
:100FA000500708958AE00E94CF070895CF93DF93FA
:100FB000EC0103C021960E94CF0788818823D1F7D6
:100FC000DF91CF9108952F923F924F925F926F924F
:100FD0007F928F929F92AF92BF92CF92DF92EF92C9
:100FE000FF920F931F93CF93DF93CDB7DEB7A097F8
:100FF0000FB6F894DEBF0FBECDBF6B017C011901A7
:101000002A01611571058105910521F480E30E9493
:10101000CF074BC06624772443015E010894A11CCE
:10102000B11C8501060D171DC701B601A201910172
:101030000E94B608F80160830894611C711C811C31
:10104000911CC701B601A20191010E94B608690175
:101050007A01211531054105510519F773010894ED
:10106000E108F108EA0CFB1CAA24BB24650111C0AD
:10107000F70180818A3010F4805D01C0895C0E9494
:10108000CF070894A108B108C108D1080894E10865
:10109000F10888279927DC0186199709A809B90959
:1010A000A816B906CA06DB0619F7A0960FB6F8947B
:1010B000DEBF0FBECDBFDF91CF911F910F91FF908B
:1010C000EF90DF90CF90BF90AF909F908F907F90E8
:1010D0006F905F904F903F902F900895EF92FF9206
:1010E0000F931F937B018C0197FF0BC08DE20E9431
:1010F000CF0710950095F094E094E11CF11C011DC0
:10110000111D2AE030E040E050E0C801B7010E9424
:10111000E3071F910F91FF90EF90089520E130E0D9
:1011200040E050E00E94E307089528E030E040E00E
:1011300050E00E94E307089522E030E040E050E0F4
:101140000E94E307089597FB092E07260AD077FD32
:1011500004D049D006D000201AF4709561957F4FD5
:101160000895F6F7909581959F4F0895A1E21A2E64
:10117000AA1BBB1BFD010DC0AA1FBB1FEE1FFF1F3B
:10118000A217B307E407F50720F0A21BB30BE40B8B
:10119000F50B661F771F881F991F1A9469F76095D2
:1011A0007095809590959B01AC01BD01CF0108958C
:1011B00097FB092E05260ED057FD04D0D7DF0AD0A5
:1011C000001C38F450954095309521953F4F4F4F76
:1011D0005F4F0895F6F790958095709561957F4FD4
:1011E0008F4F9F4F0895AA1BBB1B51E107C0AA1F39
:1011F000BB1FA617B70710F0A61BB70B881F991FB8
:101200005A95A9F780959095BC01CD010895EE0FF0
:0A121000FF1F0590F491E02D0994F2
:10121A000100495041004F5057204C4F4725002E9E
:10122A005458540057524620003132333435360070
:0E123A00434C46204C4F4725004449520000CB
:00000001FF
