:100000000C9443120C946B120C946B120C946B12A4
:100010000C946B120C946B120C946B120C946B126C
:100020000C946B120C946B120C946B120C94CE37D4
:100030000C946B120C946B120C946B120C946B124C
:100040000C946B120C946B120C946B120C949C37E6
:100050000C946B120C946B120C946B12007F00C00A
:10006000FF01F0FF07F8FF0FF8C10F7C001F3C00F5
:100070001E1E003C1E003C1E003C0E00380F007887
:100080000F00780F00780F00780F00780F00780FBE
:1000900000780F00780F00780F00780F00780F00BD
:1000A000780F00780E00381E003C1E003C1E003CFD
:1000B0003C001E7C001FF8800FF8FF0FF0FF07C008
:1000C000FF01007F00000000001C00001C00001E5B
:1000D00000001E00801F00FC1F00F81F00FC1F0016
:1000E000FC1F00001E00001E00001E00001E00007D
:1000F0001E00001E00001E00001E00001E00001E4C
:1001000000001E00001E00001E00001E00001E0059
:10011000001E00001E00001E00001E00001E00FC4D
:10012000FF0FF8FF0FFCFF0FFCFF0F000000C03FA8
:1001300000FCFF00FEFF03FFFF073EE00706800F05
:1001400001800F00000F00001F00000F00001F00C3
:10015000000F00000F00800F00800700C00700E0C4
:100160000300F00100F001007C00007C00001F0093
:10017000001F00C00700E00300F00300F800007C4F
:1001800000003F00001F0000FFFF3FFFFF3FFFFF99
:100190003FFFFF3F000000807F00F8FF03FCFF07E8
:1001A000FCFF0F7C801F0C001F04003E00003E007F
:1001B000003C00003C00001E00001E00000F00C0BC
:1001C0000700FE03007F0000FE0100FF0700800F14
:1001D00000001E00003E00003C00003C00003C000F
:1001E000007C00003C00003C00003C00003E0C0095
:1001F0001F7CC01FFCFF0FFCFF03F8FF01C07F0046
:1002000000000000000F00800F00C00F00E00F0092
:10021000F00F00F80F007C0F003C0F001E0F000FC6
:100220000F80070FC0830FE0030FF0010F70000F66
:1002300078000F3C000F1E800F0F000F07000FFF0C
:10024000FF7FFFFF7FFFFF7FFFFF7F00000F0000AA
:100250000F00000F00800F00000F00000F00000FC4
:1002600000000F00000F000000FCFF1FFCFF3FFC20
:10027000FF1FFCFF1F3C00003C00003C00003C0056
:10028000003C00003C00003C00003C00003C000042
:10029000FC3F00FCFF01FCFF03FCFF0F0CE00F0024
:1002A000801F00001F00001E00003E00001C000018
:1002B0003C00001E00001E00001E00001E00001F6B
:1002C00006800F3EE007FEFF07FEFF03FCFF00E095
:1002D0003F0000F00F00FE0F80FF0FC0FF0FE00F88
:1002E00008F00300F00000F800007C00003C000073
:1002F0003E00001E00001E00001EFE01DEFF07FF84
:10030000FF0FFFFF1FFE803F1F003E0F007C1F00FE
:10031000780F00781F00781E00781E00781E007885
:100320001E00783C007C3C003CFC003EF8811FF045
:10033000FF1FE0FF07C0FF0300FE00000000FEFFFC
:100340007FFFFF7FFEFF7FFFFF7F00007800003808
:1003500000003C00001E00001E00000F00000F0007
:10036000800700800700C00300C00300E00100F028
:100370000100F000007800007800007C00003C00E4
:10038000001E00001E00000F00800F00800700808C
:100390000700C00300E00300E00100F00100F000EE
:1003A00000000000807F00F0FF01F8FF03FCFF0762
:1003B0007EC00F1E001F1F001F0F001E0F001E0F0C
:1003C000001E0F001E1F001E3E000FFC000FFC83CE
:1003D00007F0FF01E0FF0078FF033CF8071EC00FA5
:1003E0000F001F0F003E07003C07003C07003C07C2
:1003F000003C0F003C0F003C1F003E3F001F7EC032
:100400000FFEFF0FF8FF03F0FF01803F00007F00A9
:10041000E0FF01F0FF03F8FF07FCC00F3E001F1EC6
:10042000001E1F003E0F003C0F003C0F007C0F0021
:10043000780F00780F00780F00781F00783E007C5E
:10044000FE807FFCFF7FF8FF7FF0FF39803F3C009C
:10045000003C00003C00003C00001E00001F0000AB
:100460000F00800F00E00708F803F8FF01F8FF0015
:10047000F83F00F807000000000000000000000046
:10048000000000000000000000000000000000006C
:10049000000000000000000000000000000000005C
:1004A000000000000000000000000000000000004C
:1004B000000000000000000000000000000000003C
:1004C00000000000F80000F80000FC0000F8000048
:1004D000FC0000F800000000000000000000000028
:1004E000000000000000000000000000000000000C
:1004F00000000000000000000000000000000000FC
:1005000000000000000000000000000000000000EB
:1005100000000000000000000000000000000000DB
:1005200000000000000000000000000000000000CB
:1005300000000000000000000000000000000000BB
:1005400000000000000000000000000000000000AB
:10055000000000000000000000000000000000009B
:10056000000000000000000000000000000000008B
:100570000000000000E0FF03F0FF03E0FF03F0FFD6
:100580000300000000000000000000000000000068
:10059000000000000000000000000000000000005B
:1005A000000000000000000000000000000000004B
:1005B000000000000000000000000000000000003B
:1005C000000000003E00003E00003F00003E000032
:1005D0003F00003E0000000000000000000000009E
:1005E000000000000000000000000000000000000B
:1005F000000000000000000000000000003E0000BD
:100600003F00003E00003F00003E00003F000000B1
:1006100000000000000000000000C0FFFFFFFF001E
:10062000F0FFFFFFFF03F0FFFFFFFF03F0FFFFFFFF
:10063000FF03FCFFFFFFFF1FFCFFFFFFFF1FFCFF8F
:10064000FFFFFF1FFFFFFFFFFF3FFFFFFFFFFF3F1A
:10065000FFFFFFFFFF3FFF070000F03FFF07000025
:10066000F03FFF070000F03FFF070000F03FFF07EB
:100670000000F03FFF070000F03FFF070000F03FE1
:10068000FF070000F03FFF070000F03FFF070000FA
:10069000F03FFF070000F03FFF070000F03FFF07BB
:1006A0000000F03FFF070000F03FFF070000F03FB1
:1006B000FF070000F03FFF070000F03FFF070000CA
:1006C000F03FFF070000F03FFF070000F03FFF078B
:1006D0000000F03FFF070000F03FFF070000F03F81
:1006E000FF070000F03FFF070000F03FFF0700009A
:1006F000F03FFF070000F03FFF070000F03FFF075B
:100700000000F03FFF070000F03FFF070000F03F50
:10071000FF070000F03FFF070000F03FFF07000069
:10072000F03FFF070000F03FFF070000F03FFF072A
:100730000000F03FFF070000F03FFF070000F03F20
:10074000FF070000F03FFF070000F03FFF07000039
:10075000F03FFF070000F03FFF070000F03FFF07FA
:100760000000F03FFF070000F03FFF070000F03FF0
:10077000FF070000F03FFF070000F03FFF07000009
:10078000F03FFF070000F03FFF070000F03FFF07CA
:100790000000F03FFF070000F03FFF070000F03FC0
:1007A000FF070000F03FFF070000F03FFF070000D9
:1007B000F03FFF070000F03FFF070000F03FFF079A
:1007C0000000F03FFF070000F03FFFFFFFFFFF3F8B
:1007D000FFFFFFFFFF3FFFFFFFFFFF3FFCFFFFFFAC
:1007E000FF1FFCFFFFFFFF1FFCFFFFFFFF1FF0FFCE
:1007F000FFFFFF03F0FFFFFFFF03F0FFFFFFFF031B
:10080000C0FFFFFFFF00F8FFFF0F0000F8FFFF0F22
:100810000000FFFFFF0F0000FFFFFF0F0000FFFFC2
:10082000FF0F0000FFFFFF0F0000FFFFFF0F0000A2
:10083000FFFFFF0F0000FFFFFF0F0000FFFFFF0F94
:100840000000F8FFFF0F00000000FC0F0000000098
:10085000FC0F00000000FC0F00000000FC0F000077
:100860000000FC0F00000000FC0F00000000FC0F67
:1008700000000000FC0F00000000FC0F0000000062
:10088000FC0F00000000FC0F00000000FC0F000047
:100890000000FC0F00000000FC0F00000000FC0F37
:1008A00000000000FC0F00000000FC0F0000000032
:1008B000FC0F00000000FC0F00000000FC0F000017
:1008C0000000FC0F00000000FC0F00000000FC0F07
:1008D00000000000FC0F00000000FC0F0000000002
:1008E000FC0F00000000FC0F00000000FC0F0000E7
:1008F0000000FC0F00000000FC0F00000000FC0FD7
:1009000000000000FC0F00000000FC0F00000000D1
:10091000FC0F00000000FC0F800F0000FC0F800F98
:100920000000FC0FC00F0000FC0FC00F0000FC0F08
:10093000E01F0000FC0FE01F0000FC0FE01F0000A4
:10094000FC0FE01F0000FC0FE01F0000FC0FE01F89
:100950000000FC0FE01F0000FC0FE01F0000FC0F78
:10096000E01F0000FC0FE01F0000FC0FE01F000074
:10097000FC0FE01F0000FC0FE01F0000FC0FE01F59
:100980000000FC0FE01F0000FC0FE01F0000FC0F48
:10099000E01F0000FC0FE01F0000FC0FE01F000044
:1009A000FC0FE01F0000FC0FE01F0000FC0FE01F29
:1009B0000000FC0FE01F0000FC0FE01F0000FC0F18
:1009C000E01FFFFFFFFFFF1FFFFFFFFFFF1FFFFFF6
:1009D000FFFFFF1FFFFFFFFFFF1FFFFFFFFFFF1FC7
:1009E000FFFFFFFFFF1FFFFFFFFFFF1FFFFFFFFFD7
:1009F000FF0FFCFFFFFF7F00FEFFFFFFFF03FEFF77
:100A0000FFFFFF03FFFFFFFFFF07FFFFFFFFFF07E2
:100A1000FFFFFFFFFF0FFFFFFFFFFF0FFFFFFFFFC6
:100A2000FF3FFEFFFFFFFF3FFEFFFFFFFF3FFCFF1B
:100A3000FFFFFF3F00000000E03F00000000E03F3C
:100A400000000000E03F00000000E03F0000000068
:100A5000E03F00000000E03F00000000E03F000039
:100A60000000E03F00000000E03F00000000E03F29
:100A700000000000E03F00000000E03F0000000038
:100A8000E03F00000000E03F00000000E03F000009
:100A90000000E03F00000000E03F00000000E03FF9
:100AA00000000000E03F00000000E03F0000000008
:100AB000E03F00000000E03F00000000E03F0000D9
:100AC0000000E03FE0FFFFFFFF3FE0FFFFFFFF3FD1
:100AD000E0FFFFFFFF3FFCFFFFFFFF3FFCFFFFFFCB
:100AE000FF3FFEFFFFFFFF0FFEFFFFFFFF0FFFFFB8
:100AF000FFFFFF07FFFFFFFFFF03FFFFFFFFFF03F6
:100B0000FFFFFFFFFF03FFFFFFFF7F00FF0300006A
:100B10000000FF0300000000FF0300000000FF03CF
:100B200000000000FF0300000000FF0300000000C1
:100B3000FF0300000000FF0300000000FF030000AF
:100B40000000FF0300000000FF0300000000FF039F
:100B500000000000FF0300000000FF030000000091
:100B6000FF0300000000FF0300000000FF0300007F
:100B70000000FF0300000000FF0300000000FF036F
:100B800000000000FF0300000000FF030000000061
:100B9000FF0300000000FF0300000000FFFFFFFF55
:100BA000FF07FFFFFFFFFF07FFFFFFFFFF0FFFFF35
:100BB000FFFFFF3FFFFFFFFFFF3FFFFFFFFFFF3F85
:100BC000FFFFFFFFFF3FFFFFFFFFFF3FFFFFFFFFB5
:100BD000FF3FFFFFFFFFFF0FFFFFFFFFFF07FCFFD0
:100BE000FFFFFF01FEFFFFFFFF0FFEFFFFFFFF0FF5
:100BF000FFFFFFFFFF1FFFFFFFFFFF3FFFFFFFFFA5
:100C0000FF3FFFFFFFFFFF3FFFFFFFFFFF3FFEFF35
:100C1000FFFFFF3FFEFFFFFFFF3FFCFFFFFFFF3F28
:100C200000000000C03F00000000C03F00000000C6
:100C3000C03F00000000C03F00000000C03F0000B7
:100C40000000C03F00000000C03F00000000C03FA7
:100C500000000000C03F00000000C03F0000000096
:100C6000C03F00000000C03F00000000C03F000087
:100C70000000C03F00000000C03F00000000C03F77
:100C800000000000C03F00000000C03F0000000066
:100C9000C03F00000000C03F00000000C03F000057
:100CA0000000C03F00000000E03F00000000F03FF7
:100CB00000F8FFFFFF3F00F8FFFFFF3F00FCFFFFD2
:100CC000FF3F00FEFFFFFF1F00FEFFFFFF0F00FEC4
:100CD000FFFFFF0F00FEFFFFFF0F00FEFFFFFF1FE4
:100CE00000FEFFFFFF1F00FCFFFFFF3F00F8FFFFBC
:100CF000FF3F00000000F03F00000000F03F000058
:100D00000000E03F00000000C03F00000000C03FC6
:100D100000000000C03F00000000C03F00000000D5
:100D2000C03F00000000C03F00000000C03F0000C6
:100D30000000C03F00000000C03F00000000C03FB6
:100D400000000000C03F00000000C03F00000000A5
:100D5000C03F00000000C03F00000000C03F000096
:100D60000000C03F00000000C03F00000000C03F86
:100D700000000000C03F00000000C03F0000000075
:100D8000C03F00000000C03FFCFFFFFFFF3FFEFF31
:100D9000FFFFFF3FFFFFFFFFFF3FFFFFFFFFFF3FA3
:100DA000FFFFFFFFFF3FFFFFFFFFFF3FFFFFFFFFD3
:100DB000FF3FFFFFFFFFFF1FFEFFFFFFFF0FFCFFD7
:100DC000FFFFFF01FCFFFFFFFF01FC000000000030
:100DD000FC0000000000FE0100000000FF07000012
:100DE0000000FF0700000000FF0700000000FF07F1
:100DF00000000000FF0700000000FF0700000000E7
:100E0000FF0700000000FF0700001F00FF07008031
:100E10007F00FF0700807F00FF0700C0FF01FF0782
:100E200000C0FF01FF0700C0FF01FF0700C0FF0176
:100E3000FF0700C0FF01FF0700C0FF01FF0700C060
:100E4000FF01FF0700C0FF01FF0700C0FF01FF0710
:100E500000C0FF01FF0700C0FF01FF0700C0FF0146
:100E6000FF0700C0FF01FF0700C0FF01FF0700C030
:100E7000FF01FF0700C0FF01FF0700C0FF01FF07E0
:100E800000C0FF01FF0700C0FF01FF0700C0FF0116
:100E9000FF0700C0FF01FF0700C0FF01FF0700C000
:100EA000FF01FF0700C0FF01FF0700C0FF01FF07B0
:100EB00000C0FF01FF0700C0FF01FF0700C0FF01E6
:100EC000FF0700C0FF01FF0700C0FF01FF0700C0D0
:100ED000FF01FF0700C0FF01FFFFFFFFFF07FFFF4C
:100EE000FFFFFF0FFFFFFFFFFF0FFFFFFFFFFF3FB2
:100EF000FFFFFFFFFF3FFFFFFFFFFF3FFFFFFFFF82
:100F0000FF3FFFFFFFFFFF3FFFFFFFFFFF0FFFFF61
:100F1000FFFFFF0FFFFFFFFFFF07000000C0FF0103
:100F2000000000C0FF01000000C0FF01000000C081
:100F3000FF01000000C0FF01000000C0FF01000031
:100F400000C0FF01000000C0FF01000000C0FF0161
:100F5000000000C0FF01000000C0FF01000000C051
:100F6000FF01000000C0FF01000000C0FF01000001
:100F700000C0FF01000000C0FF01000000C0FF0131
:100F8000000000C0FF01000000C0FF01000000C021
:100F9000FF01000000C0FF01000000C0FF010000D1
:100FA00000C0FF01000000807F00000000001F0063
:100FB000000000001F0000FEFFFFFF0700FEFFFF14
:100FC000FF0F00FEFFFFFF0F00FEFFFFFF3F00FED1
:100FD000FFFFFF3F00FEFFFFFF3F00FEFFFFFF3F61
:100FE00000FEFFFFFF3F00FEFFFFFF0F00FEFFFFC1
:100FF000FF0700FEFFFFFF0700FE0300000000FEEA
:101000000300000000FE0300000000FE03000000DB
:1010100000FE0300000000FE0300000000FE0300CD
:10102000000000FE0300000000FE0300000000FEC0
:101030000300000000FE0300000000FE03000000AB
:1010400000FE0300000000FE0300000000FE03009D
:10105000000000FE0300000000FE0300000000FE90
:101060000300000000FE0300000000FE030000007B
:1010700000FE0300000000FE0300000000FE03006D
:10108000000000FE0300000000FEFFFF3F0000FE26
:10109000FFFFFF0100FEFFFFFF0100FEFFFFFF0754
:1010A00000FEFFFFFF0F00FEFFFFFF0F00FEFFFF30
:1010B000FF0F00FEFFFFFF3F00FEFFFFFF3F00FEB0
:1010C000FFFFFF3F00FEFFFFFF3F00000000F83F73
:1010D00000000000F83F00000000F83F00000000A2
:1010E000F83F00000000F83F00000000F83F00005B
:1010F0000000F83F00000000F83F00000000F83F4B
:1011000000000000F83F00000000F83F0000000071
:10111000F83F00000000F83F00000000F83F00002A
:101120000000F83F00000000F83F00000000F83F1A
:1011300000000000F83F00000000F83F0000000041
:10114000F83F7E000000F83FFF010000F83FFF017C
:101150000000F83FFF0F0000F83FFFFFFFFFFF3FD9
:10116000FFFFFFFFFF3FFFFFFFFFFF3FFFFFFFFF0F
:10117000FF3FFFFFFFFFFF0FFEFFFFFFFF0FFEFF21
:10118000FFFFFF0FF0FFFFFFFF0700FFFFFFFF0163
:1011900000F8FFFF3F0000F8FFFF3F0000F8FFFFEF
:1011A0003F00FC1F00000000FE1F00000000FE1FAB
:1011B00000000000FF7F00000000FF7F0000000033
:1011C000FF7F00000000FF7F00000000FF7F0000A5
:1011D0000000FF1F00000000FF1F00000000FF1FB5
:1011E00000000000FF0300000000FF0300000000FB
:1011F000FF0300000000FF0300000000FF030000E9
:101200000000FF0300000000FF0300000000FF03D8
:1012100000000000FF0300000000FF0300000000CA
:10122000FF0300000000FF0300000000FF030000B8
:101230000000FF0300000000FF0300000000FF03A8
:1012400000000000FF0300000000FF03000000009A
:10125000FF0300000000FF0300000000FF03000088
:101260000000FF0300000000FF0300000000FF0378
:1012700000000000FF0300000000FF03000000006A
:10128000FF0300000000FF0300000000FF03000058
:101290000000FF0300000000FF0300000000FF0348
:1012A00000000000FF0300000000FF03000000003A
:1012B000FFFFFFFFFF0FFFFFFFFFFF1FFFFFFFFF0E
:1012C000FF1FFFFFFFFFFF3FFFFFFFFFFF3FFFFF8E
:1012D000FFFFFF3FFFFFFFFFFF3FFFFFFFFFFF3F5E
:1012E000FFFFFFFFFF3FFFFFFFFFFF3FFFFFFFFF8E
:1012F000FF3FFF030000F03FFF030000F03FFF034C
:101300000000F03FFF030000F03FFF030000F03F4C
:10131000FF030000F03FFF030000F03FFF03000069
:10132000F03FFF030000F03FFF030000F03FFF032A
:101330000000F03FFF030000F03FFF030000F03F1C
:10134000FF030000F03FFF030000F03FFFFFFFFF3F
:10135000FF3FFFFFFFFFFF3FFFFFFFFFFF3FFFFFDD
:10136000FFFFFF3FFFFFFFFFFF3FFFFFFFFFFF3FCD
:10137000FFFFFFFFFF3FFFFFFFFFFF3FFEFFFFFFFE
:10138000FF1FFEFFFFFFFF1FFCFFFFFFFF0FFEFF22
:10139000FFFFFF3FFFFFFFFFFF3FFFFFFFFFFF3F9D
:1013A000FFFFFFFFFF3FFFFFFFFFFF3FFFFFFFFFCD
:1013B000FF3FFFFFFFFFFF3FFFFFFFFFFF3FFFFF7D
:1013C000FFFFFF3FFFFFFFFFFF3FFFFFFFFFFF3F6D
:1013D000FF010000F03F7F000000F03F7F000000B1
:1013E000F03F7E000000F03F00000000F03F0000F2
:1013F0000000F03F00000000F03F00000000F03F60
:1014000000000000F03F00000000F03F000000007E
:10141000F03F00000000F03F00000000F03F00003F
:101420000000F03F00000000F03F00000000F03F2F
:1014300000000000F03F00000000F03F000000004E
:10144000F03F00000000FC3F00000000FC3F0000F7
:101450000000FC3F00000000FF3F00000080FF1F75
:1014600000000080FF1F000000E0FF07000000F008
:10147000FF03000000F0FF03000000F8FF01000080
:1014800000FE7F00000080FF7F00000080FF7F00E3
:101490000000C0FF0F000000E0FF0F000000F0FFA1
:1014A00003000000F0FF03000000F8FF0000000050
:1014B000FC7F00000000FC7F00000000FC1F00001B
:1014C0000000FC0F00000000FC0700000000FC070B
:1014D00000000000FC0700000000FC070000000006
:1014E000FC0700000000FC0700000000FC070000F3
:1014F0000000FC0700000000FC0700000000FC07E3
:1015000000000000FC0700000000FC0700000000D5
:10151000FC0700000000FC0700000000FC070000C2
:101520000000FC0700000000FC0700000000FC07B2
:1015300000000000FC0700000000FC0700000000A5
:10154000FC0700000000FC0700000000FC07000092
:101550000000FC0700000000FC0700000000FC0782
:1015600000000000FC0700000000FC070000000075
:10157000F80300000000F001000000F0FFFF03008E
:1015800000F8FFFF070000F8FFFF070000FCFFFF67
:101590000F0000FCFFFF0F0000FCFFFF0F0000FC2E
:1015A000FFFF0F0000FCFFFF0F0000FCFFFF0F001C
:1015B00000FCFFFF0F0000FCFFFF0F0000FC0FFC12
:1015C0000F0000FC0FFC0F0000FC0FFC0F0000FCE4
:1015D0000FFC0F0000FC0FFC0F0000FC0FFC0F00C5
:1015E00000FC0FFC0F0000FC0FFC0F0000FC0FFCC8
:1015F0000F0000FC0FFC0F0000FC0FFC0F0000FCB4
:101600000FFC0F0000FC0FFC0F0000FC0FFC0F0094
:1016100000FC0FFC0F0000FC0FFC0F0000FC0FFC97
:101620000F0000FC0FFC0F0000FC0FFC0F0000FC83
:101630000FFC0F0000FC0FFC0F0000FC0FFC0F0064
:1016400000FC0FFC0F0000FC0FFC0F0000FC0FFC67
:101650000F00E0FFFFFFFF01F8FFFFFFFF07FCFFA8
:10166000FFFFFF0FFCFFFFFFFF0FFEFFFFFFFF1F4E
:10167000FEFFFFFFFF1FFFFFFFFFFF3FFFFFFFFF1B
:10168000FF3FFFFFFFFFFF3FFFFFFFFFFF3FFF03A6
:101690000000F03FFF030000F03FFF030000F03FB9
:1016A000FF030000F03FFF030000F03FFF030000D6
:1016B000F03FFF030000F03FFF030000F03FFF0397
:1016C0000000F03FFF030000F03FFF030000F03F89
:1016D000FF030000F03FFF030000F03FFF030000A6
:1016E000F03FFF030000F03FFF030000F03FFF0367
:1016F0000000F03FFF030000F03FFF030000F03F59
:10170000FF030000F03FFF030000F03FFF03000075
:10171000F03FFF030000F03FFF030000F03FFF0336
:101720000000F03FFFFFFFFFFF3FFFFFFFFFFF3F16
:10173000FFFFFFFFFF3FFFFFFFFFFF3FFEFFFFFF3A
:10174000FF1FFEFFFFFFFF1FFEFFFFFFFF1FFCFF4E
:10175000FFFFFF0FF8FFFFFFFF07F8FFFFFFFF0787
:10176000E0FFFFFFFF01FCFFFFFFFF1FFEFFFFFF8A
:10177000FF1FFEFFFFFFFF1FFFFFFFFFFF3FFFFFFA
:10178000FFFFFF3FFFFFFFFFFF3FFFFFFFFFFF3FA9
:10179000FFFFFFFFFF3FFFFFFFFFFF3FFFFFFFFFD9
:1017A000FF3FFFFFFFFFFF3FFF030000E03FFF039E
:1017B0000000E03FFF030000E03FFF030000E03FC8
:1017C000FF030000E03FFF030000E03FFF030000D5
:1017D000E03FFF030000E03FFF030000E03FFF03A6
:1017E0000000E03FFF030000E03FFF030000E03F98
:1017F000FF030000E03FFF030000E03FFF030000A5
:10180000E03FFFFFFFFFFF3FFFFFFFFFFF3FFFFF47
:10181000FFFFFF3FFFFFFFFFFF3FFFFFFFFFFF3F18
:10182000FFFFFFFFFF3FFFFFFFFFFF3FFFFFFFFF48
:10183000FF3FFEFFFFFFFF3FFEFFFFFFFF3FFCFFFD
:10184000FFFFFF3F00000000E03F00000000E03F1E
:1018500000000000E03F00000000E03F000000004A
:10186000E03F00000000E03F00000000E03F00001B
:101870000000E03F00000000E03F00000000E03F0B
:1018800000000000E03F00000000E03F000000001A
:10189000E03F00000000E03F00000000E03F0000EB
:1018A0000000E03F00000000E03F00000000E03FDB
:1018B00000000000E03F00000000E03F00000000EA
:1018C000E03F00000000E03F00000000E03F0000BB
:1018D0000000E03F00000000E03F00000000E03FAB
:1018E00000000000E03F00000000E03F00000000BA
:1018F000E03F00000000E03F00000000E03F00008B
:101900000000E03F00000000E03F00000000E03F7A
:1019100000000000FC3F00000000FE3F000000004F
:10192000FE3F00000000FF3F00000000FF3F0000FE
:101930000000FF3F00000000FF3F00000000FF3FED
:1019400000000000FE1F00000000FE1F000000005D
:10195000FC1F00000000000000000000000000006C
:101960000000000000000000000000000000000077
:101970000000000000000000000000000000000067
:101980000000000000000000000000000000000057
:101990000000000000000000000000000000000047
:1019A0000000000000000000000000000000000037
:1019B0000000000000000000000000000000000027
:1019C0000000000000000000000000000000000017
:1019D0000000000000000000000000000000000007
:1019E00000000000000000000000000000000000F7
:1019F00000000000000000000000000000000000E7
:101A000000000000000000000000000000000000D6
:101A100000000000000000000000000000000000C6
:101A200000000000000000000000000000000000B6
:101A300000000000000000000000000000000000A6
:101A40000000000000000000000000000000000096
:101A50000000000000000000000000000000000086
:101A60000000000000000000000000000000000076
:101A70000000000000000000000000000000000066
:101A80000000000000000000000000000000000056
:101A90000000000000000000000000000000000046
:101AA0000000000000000000000000000000000036
:101AB0000000000000000000000000000000000026
:101AC000000000FCFF00000000FCFF00000000FE22
:101AD000FF01000080FFFF03000080FFFF03000004
:101AE00080FFFF03000080FFFF03000080FFFF0373
:101AF000000080FFFF03000080FFFF03000080FF65
:101B0000FF03000080FFFF03000080FFFF030000D1
:101B100080FFFF03000080FFFF03000000FEFF01C5
:101B2000000000FEFF01000000FCFF0000000000BC
:101B300000000000000000000000000000000000A5
:101B40000000000000000000000000000000000095
:101B50000000000000000000000000000000000085
:101B60000000000000000000000000000000000075
:101E00000000000000000000000000000000F0FFE3
:101E1000FFFFFF01F0FFFFFFFF01FCFFFFFFFF1FC0
:101E2000FCFFFFFFFF1FFCFFFFFFFF1FFCFFFFFF8B
:101E3000FF1FFCFFFFFFFF1FFCFFFFFFFF1FFCFF5B
:101E4000FFFFFF1FFCFFFFFFFF1FF8FFFFFFFF0764
:101E5000F0FFFFFFFF010000000000000000000095
:101E60000000000000000000000000000000000072
:101E70000000000000000000000000000000000062
:101E80000000000000000000000000000000000052
:101E90000000000000000000000000000000000042
:101EA0000000000000000000000000000000000032
:101EB0000000000000000000000000000000000022
:101EC0000000000000000000000000000000000012
:101ED0000000000000000000000000000000000002
:101EE00000000000000000000000000000000000F2
:101EF00000000000000000000000000000000000E2
:101F000000000000000000000000000000000000D1
:101F1000000000000000E001FC0FFE1F0E1C07384F
:101F2000073803300330033003300330033003300D
:101F30000330033003300330073807380E1CFE1F10
:101F4000FC0FE001000600078007C007E0077807E4
:101F50003C070C0700070007000700070007000701
:101F60000007000700070007000700070007000739
:101F70000007E003F80FFC1F0E3C063807700070E6
:101F80000070003000300018001C000E00078003B5
:101F9000C001600038001C000E00FE7FFF7FFF7F45
:101FA000C003F80FFC3F1E38067007700070003049
:101FB0000038800FC00F403E00700060006000607D
:101FC0000060076006700E78FC3FF80FC003001831
:101FD000001C001E001E001F801F801DC01CE01C76
:101FE000701C301C181C1C1C0E1C061CFF7FFF7F65
:101FF000FF7F001C001C001C001C001CFC7FFC7FE1
:10200000FC7F0C000C000E000E00C603F61FFE3F06
:102010000E7807700060006000600060006007607C
:1020200006700E38FC3FF80FC0038007F01FF83F22
:102030003C701C600E60060006008607E71FF73F35
:102040001F780F70076007600660066006600E70FC
:102050001C78F83FF01FC003FF7FFF7FFF7F003039
:102060000018000C000E0006000380038001C00170
:10207000C000C000E0006000700070003000300060
:10208000300038003800C003F80FFC3F1C380E70D9
:102090000E700E700C301C38F81FF00FF81F1E3831
:1020A0000E70076007600760076006701E78FC3FCF
:1020B000F81FC003C003F80FFC1F1E380E70066027
:1020C00007600760076007600E701E78FC6FF86796
:1020D000E06100600060077006300E38FC1FF80FEA
:1020E000E00100000000000000000000000000000F
:1020F00000000000000000000000000000000000E0
:10210000000000000000000000001C001C001C007B
:1021100000000000000000000000000000000000BF
:1021200000000000000000000000000000000000AF
:10213000000000000000000000000000000000009F
:10214000000000000000000000000000000000008F
:1021500000000000FC3F0000000000000000000044
:10216000000000000000000000000000000000006F
:1021700000000020202020200020505000000000FF
:10218000005050F850F850502078A070283020C0EF
:10219000C8102040981840A040A0908870101020CF
:1021A000000000002040404040402010080808087F
:1021B0000810008850F8508800002020F8202000E7
:1021C00000000000404080000000F8000000000017
:1021D000000000C0C000081020408000708898A84F
:1021E000C8887020602020202070700808708080CF
:1021F000F8F00808700808F008182848F80808F8E7
:102200008080F0088870708080F0888870F80808F6
:102210001020408070888870888870708888781056
:1022200020400000606000606000006060002040AE
:10223000102040804020100000F800F800004020EE
:10224000100810204070880830400040202070F0B6
:10225000F0F8F8205888F8888888F08888F088880E
:10226000F070888080808870F08888888888F0F88E
:102270008080F08080F8F88080F080808070888096
:1022800080988878888888F888888870202020201E
:102290002070F81010109090608890A0C0A09088D6
:1022A000808080808080F888D8A88888888888C8BE
:1022B000A89888888870888888888870F08888F0CE
:1022C00080808070888888A89878F08888F0A090AE
:1022D00088788080700808F0F8202020202020884E
:1022E0008888888888708888888888502088888826
:1022F00088A8D88888885020508888888888502066
:102300002020F80810204080F8E08080808080E065
:1023100000804020100800380808080808382050BD
:102320008800000000000000000000F81010080005
:10233000000000000070888898688080F088888895
:10234000F000007880808078080878888888780095
:10235000007088F8807810287020202020000070FD
:10236000887808708080F088888888200020202065
:1023700020202000202020A04080808890A0D088AD
:10238000202020202020200000D0A8A8A8A80000FD
:10239000B0C8888888000070888888700000F0883D
:1023A000F08080000078887808080000B0C880803D
:1023B00080000078807008F02020702020203000FD
:1023C00000888888986800008888885020000088E5
:1023D00088A8A8500000885020508800008888F8FD
:1023E00008700000F8102040F82040408040402055
:1023F000202020002020202010100810102050A0A5
:1024000000000000000000000000000000000000CC
:1024100000000000000000000000000000000000BC
:1024200000000000000000000000000000000000AC
:10243000000000000000000000000000000000009C
:10244000000000000000000000000000000000008C
:10245000000000000000000000000000506C6561FA
:10246000736520706F7765726379636C6500546F74
:1024700075636873637265656E2052657365742E4B
:102480000000EA149E3B11241FBECFEFD0E1DEBF57
:10249000CDBF13E0A0E0B1E0EEEBF1E802C00590A3
:1024A0000D92AE39B107D9F718E0AEE9B3E001C03B
:1024B0001D92AD33B107E1F714E2C6E8D4E204C0DF
:1024C0002297FE010E94A240C238D107C9F70E949C
:1024D000A91B0C94DD400C9400002FEFFC0122831B
:1024E00008952FEFFC0122830895CF93DF93CDB79A
:1024F000DEB723970FB6F894DEBF0FBECDBF49837A
:102500005A836B83FC01DE01119683E00D900192EA
:102510008150E1F723960FB6F894DEBF0FBECDBF12
:10252000DF91CF910895CF93DF93CDB7DEB7239797
:102530000FB6F894DEBF0FBECDBF49835A836B83BD
:10254000FC013396DE01119683E00D9001928150DB
:10255000E1F723960FB6F894DEBF0FBECDBFDF9133
:10256000CF9108952F923F924F925F926F927F92F8
:102570008F929F92AF92BF92CF92DF92EF92FF9293
:102580000F931F93CF93DF93CDB7DEB726970FB688
:10259000F894DEBF0FBECDBF2C01242E642E77240D
:1025A000C22EDD246E3219F46AE174E01DC060327F
:1025B00019F463E874E018C06D3219F46CEE74E03D
:1025C00013C06A3319F465E575E00EC0862F9927AC
:1025D00087FD9095C09729E630E0829FB001839FE8
:1025E000700D929F700D11249CE5E92E90E0F92E5C
:1025F000E60EF71E830189E6882E912CF7010894D8
:10260000E11CF11C3490AA24BB24832D99270A2CA9
:1026100002C0959587950A94E2F780FF0CC0DE0111
:102620001496F20183E001900D928150E1F72C8124
:102630003D814E810CC0DE011196F201339683E09C
:1026400001900D928150E1F729813A814B816C2DE7
:10265000802F0E9436260F5F1F4F0894A11CB11CCB
:1026600088E0A816B10489F6822D992747960817A5
:10267000190720F00894C11CD11C8301089481081B
:1026800091088114910409F0B9CF26960FB6F894F9
:10269000DEBF0FBECDBFDF91CF911F910F91FF9095
:1026A000EF90DF90CF90BF90AF909F908F907F90F2
:1026B0006F905F904F903F902F900895EF92FF9210
:1026C0000F931F93CF93DF937C01142F022FEB0105
:1026D00006C0202F412FC7010E94B212175E6991D8
:1026E0006623B9F7DF91CF911F910F91FF90EF9083
:1026F00008952F923F925F926F927F928F929F9256
:10270000AF92BF92CF92DF92EF92FF920F931F93FF
:10271000DF93CF93CDB7DEB72A970FB6F894DEBF1D
:102720000FBECDBF6B017C013A014901502E41150E
:10273000510509F45FC02115310509F45BC0AA24D5
:10274000BB241E010894211C311C81010A0D1B1D94
:10275000C701B6012AE030E040E050E00E944F405F
:10276000605DD8016C930894A11CB11CC701B6012F
:102770002AE030E040E050E00E944F40C901DA0119
:102780006C017D01C114D104E104F10421F0BAE02F
:10279000AB16B104D1F69501852D90E0A816B906C7
:1027A00010F000E002C0052D0A1940E050E0E0E31F
:1027B000CE0101960DC0015006C021503040FC01F1
:1027C000E20FF31FE081D301ED933D014F5F5F4FB7
:1027D0000894810891088114910449F0211531056C
:1027E00019F4002341F703C0002339F3E4CFF301C8
:1027F000108202C040E050E0CA012A960FB6F89459
:10280000DEBF0FBECDBFCF91DF911F910F91FF9023
:10281000EF90DF90CF90BF90AF909F908F907F9080
:102820006F905F903F902F9008952F923F924F921C
:102830005F926F927F928F929F92AF92BF92CF9250
:10284000DF92EF92FF920F931F93CF93DF935B0181
:102850006C0149012115310509F48AC001151105E2
:1028600009F486C0242E86E0841710F496E0292E01
:10287000E801219709F47AC0C601B50120E030E0F3
:1028800040E050E00E94023E882344F4D7FAD094FE
:10289000D7F8D0948DE2F401808321970F2EF0E0D9
:1028A000EF2EF0E0FF2EF0E00F2FFFE31F2FF02DB3
:1028B00081E0482E512C612C712C332415C0C801A5
:1028C000B70120E030E040E251E40E94063E7B0187
:1028D0008C01C301B2012AE030E040E050E00E94E8
:1028E0001D402B013C013394321448F3209799F09A
:1028F000C601B501A80197010E949E3D5B016C01D4
:102900000E94733EA4019E0100E00E947913880E8C
:10291000991EC81BD90B222049F1209739F18EE26C
:10292000F40181934F01219709F1C601B5010E947D
:10293000733E0E949F3E9B01AC01C601B5010E94FF
:102940009D3D7B018C01C301B2010E949F3E9B0112
:10295000AC01C801B7010E94553F0E94733EA4011B
:102960009E01022D0E947913880E991EF401108297
:10297000DF91CF911F910F91FF90EF90DF90CF905B
:10298000BF90AF909F908F907F906F905F904F908F
:102990003F902F900895FC01EE0FFF1FEE0FFF1FD9
:1029A000EC57FE4F2081318142815381B901CA0128
:1029B0000895EAE5F0E0E81BF90BEE0FFF1FEE0FBC
:1029C000FF1FE058FE4F2081318142815381B901C0
:1029D000CA01089585EA93E00E9471120895EF926A
:1029E000FF920F931F93CF93DF93EB017C0100279E
:1029F000F7FC0095102F08C08C2F0E94C322C8013D
:102A0000B7010E947D3721971C161D06ACF3739801
:102A1000DF91CF911F910F91FF90EF900895CF928A
:102A2000DF92EF92FF920F931F93CF93DF936B018F
:102A3000739AC0E0D0E07C010027F7FC0095102FCE
:102A400008C08C2F0E94C322C801B7010E947D37A5
:102A50002196CC16DD06ACF7DF91CF911F910F9137
:102A6000FF90EF90DF90CF9008958AE090E065E0CE
:102A700070E00E940F1580E091E060E040E00E946D
:102A8000D81F60ED77E080E090E00E947D378AE01B
:102A900090E065E070E00E94EF1464E670E080E092
:102AA00090E00E947D378AE090E065E070E00E944F
:102AB0000F1588E091E060E040E00E94D81F8AE0B6
:102AC00090E065E070E00E94EF148AE090E065E03D
:102AD00070E00E940F1508952F923F924F925F92DF
:102AE0006F927F928F929F92AF92BF92CF92DF921E
:102AF000EF92FF920F931F93DF93CF93CDB7DEB783
:102B000063970FB6F894DEBF0FBECDBF81E191E0B1
:102B100060E040E00E94D81F0F2EF0E06F2EF0E042
:102B20007F2EF0E08F2EF0E09F2EF02DD0C1C4015B
:102B3000B30120E030E040E85FE30E949E3D3B01AE
:102B40004C010E946E3E209170013091710162171C
:102B5000730754F18BE090E06AE070E049E050E0E8
:102B6000009148011091490120914A016801E22E2B
:102B70000E9434236AE570E080E090E00E947D3797
:102B80008BE090E06AE070E049E050E0009148019D
:102B90001091490120914A01C0909E03D0909F035B
:102BA000E090A0030E943423C401B30120E030E090
:102BB00040E050E00E94023E18167CF00F2EF0E03C
:102BC0002F2EF0E03F2EF0E84F2EF2E45F2EF02D96
:102BD00080E090E0A0ECB1E4C1C0C401B30120E00A
:102BE00030E040E050E00E94513F18160CF03EC02B
:102BF000C401B30120E030E040E251E40E94023E13
:102C00008823A4F5C401B30120E030E040E151E4A1
:102C10000E94553F0E946E3E7B018C01EAE5F0E088
:102C2000E61BF70BEE0FFF1FEE0FFF1FE058FE4FE6
:102C3000608171818281938120E030E040E252EC3A
:102C40000E94553F20E030E040E852E40E949E3D63
:102C5000688B798B8A8B9B8BEE0CFF1CEE0CFF1C18
:102C6000A4E8B1E0EA0EFB1EF7014DC0C401B301B8
:102C700020E030E040E251E40E94513F88230CF410
:102C800055C0C401B30120E030E040EA51E40E94A5
:102C9000023E88230CF04AC0C401B30120E030E0BA
:102CA00040E251E40E949D3D20E030E040E151E4EB
:102CB0000E94553F0E946E3E7B018C01FB01EE0F8E
:102CC000FF1FEE0FFF1FEC57FE4F60817181828165
:102CD000938120E030E040E252E40E94553F20E042
:102CE00030E040E852E40E949E3D688B798B8A8BED
:102CF0009B8BEAE5F0E0EE19FF09EE0FFF1FEE0FE8
:102D0000FF1FE058FE4F608171818281938120E036
:102D100030E040E252EC0E94553F20E030E040E8D5
:102D200052E40E949E3D1B012C011CC0C401B30152
:102D300020E030E040EA51E40E94513F882394F0C3
:102D40000F2EF0E02F2EF0E03F2EF0E84F2EF2E4B1
:102D50005F2EF02D80E090E0A0EDB2E4888B998B9F
:102D6000AA8BBB8B60E070E080E090E0A40193014F
:102D70000E949D3D0E946E3ECB0177FF03C090955F
:102D800081959F4F03970CF478C080EE66E249E28C
:102D90000E945429688979898A899B890E946E3E9C
:102DA0005B016C01C201B1010E946E3E7B018C018E
:102DB00080E490E060E470E0A50197010E949A2C05
:102DC00081E490E060E470E0A50197010E949A2CF4
:102DD0008FE390E060E470E0A50197010E949A2CD7
:102DE00080E490E061E470E0A50197010E949A2CD4
:102DF00080E490E06FE370E0A50197010E949A2CB7
:102E000080E060E040E00E945429688579858A85E9
:102E10009B850E946E3E5B016C016C857D858E8575
:102E20009F850E946E3E7B018C0180E490E06FE301
:102E300070E0A50197010E949A2C80E490E061E483
:102E400070E0A50197010E949A2C8FE390E060E466
:102E500070E0A50197010E949A2C81E490E060E463
:102E600070E0A50197010E949A2C80E490E060E454
:102E700070E0A50197010E949A2CC401B30142E0C1
:102E80009E012F5F3F4F07E010E00E941514CE0116
:102E9000019661E470E042E550E000914801109134
:102EA000490120914A01C0909E03D0909F03E09079
:102EB000A0030E94612788899989AA89BB8988878C
:102EC0009987AA87BB872C863D864E865F8681EAD6
:102ED00093E00E94FD33882309F429CE81EA93E030
:102EE0000E94FD338823D1F70E94B01B63960FB672
:102EF000F894DEBF0FBECDBFCF91DF911F910F9130
:102F0000FF90EF90DF90CF90BF90AF909F908F9009
:102F10007F906F905F904F903F902F9008952F92E9
:102F20003F924F925F926F927F928F929F92AF9259
:102F3000BF92CF92DF92EF92FF920F931F93DF9396
:102F4000CF93CDB7DEB763970FB6F894DEBF0FBE51
:102F5000CDBF89E191E060E040E00E94D81F0F2ED4
:102F6000F0E06F2EF0E07F2EF0EF8F2EF2E49F2E38
:102F7000F02DC2C2C401B30120E030E040E85FE3BD
:102F80000E949E3D3B014C018091B003882309F0D3
:102F900082C06091660170916701882777FD8095F6
:102FA000982F0E94A13E9B01AC01C401B3010E9475
:102FB000513F88230CF46FC081E08093B00360918F
:102FC0009E0370919F038091A0030E94FC2381E2E5
:102FD00091E06AE070E04EE150E00091480110910C
:102FE000490120914A01C0909E03D0909F03E09038
:102FF000A0030E94612781E291E064E170E048E271
:1030000050E0009148011091490120914A01C0907F
:103010009E03D0909F03E090A0030E94612781E26D
:1030200091E06EE170E042E350E0009148011091C0
:10303000490120914A01C0909E03D0909F03E090E7
:10304000A0030E94612781E291E068E270E04CE316
:1030500050E0009148011091490120914A01C0902F
:103060009E03D0909F03E090A0030E94612760ED33
:1030700077E080E090E00E947D3760919E03709140
:103080009F038091A0030E94FC2389E191E060E00E
:1030900040E00E94D81FC401B3010E946E3E2091FF
:1030A0007201309173016217730754F18BE090E065
:1030B0006AE070E049E050E0009148011091490158
:1030C00020914A016801E22E0E9434236AE570E0F3
:1030D00080E090E00E947D378BE090E06AE070E055
:1030E00049E050E0009148011091490120914A01C6
:1030F000C0909E03D0909F03E090A0030E943423D1
:10310000C401B30120E030E040EF52E40E94023EEF
:1031100018167CF00F2EF0E02F2EF0E03F2EFCEB87
:103120004F2EF2E45F2EF02D80E090E0A0E8B2E4B4
:103130002AC1C401B30120E030E040EF52E40E9414
:10314000513F18160CF04BC0C401B30120E030E031
:1031500044E353E40E94023E88230CF040C0C401C3
:10316000B30120E030E040EF52E40E949D3D20E0BA
:1031700030E040EC5FE30E94553F0E946E3E7B01D1
:103180008C01FB01EE0FFF1FEE0FFF1FEC57FE4FF0
:10319000608171818281938120E030E040EF51ECC9
:1031A0000E94553F20E030E040E852E40E949E3DFE
:1031B000688B798B8A8B9B8BEAE5F0E0EE19FF092F
:1031C000EE0FFF1FEE0FFF1FE058FE4F6081718171
:1031D0008281938120E030E040EF51E4B1C0C4012E
:1031E000B30120E030E044E353E40E94513F8823E0
:1031F0000CF449C0C401B30120E030E040E753E4DF
:103200000E94023E88230CF03EC0C401B30120E0BE
:1032100030E044E353E40E949D3D20E030E040EC88
:103220005FE30E94553F0E946E3E7B018C01EAE500
:10323000F0E0E61BF70BEE0FFF1FEE0FFF1FE0584D
:10324000FE4F608171818281938120E030E040EF08
:1032500051EC0E94553F20E030E040E852E40E94EB
:103260009E3D688B798B8A8B9B8BEE0CFF1CEE0C42
:10327000FF1CA4E8B1E0EA0EFB1EF701608171813A
:103280008281938159C0C401B30120E030E040E75E
:1032900053E40E94513F88230CF45DC0C401B30184
:1032A00020E030E046E953E40E94023E88230CF01F
:1032B00052C0C401B30120E030E040E753E40E9473
:1032C0009D3D20E030E040EC5FEB0E94553F20E068
:1032D00030E044EB52E40E949E3D0E946E3E7B0132
:1032E0008C01EAE5F0E0E61BF70BEE0FFF1FEE0F97
:1032F000FF1FE058FE4F608171818281938120E041
:1033000030E040EF51E40E94553F20E030E040E8DB
:1033100052E40E949E3D688B798B8A8B9B8BEE0CCE
:10332000FF1CEE0CFF1C84E891E0E80EF91ED701AB
:103330006D917D918D919C9120E030E040EF51ECBA
:103340000E94553F20E030E040E852E40E949E3D5C
:103350001B012C011CC0C401B30120E030E046E990
:1033600053E40E94513F181694F40F2EF0E02F2ED4
:10337000F0E03F2EF0E84F2EF2E45F2EF02D80E0DB
:1033800090E0ACEBB2E4888B998BAA8BBB8B60E0AE
:1033900070E080EF92E4A40193010E949D3D0E94A1
:1033A0006E3ECB0177FF03C0909581959F4F0397A9
:1033B0000CF478C080EE66E249E20E9454296889E4
:1033C00079898A899B890E946E3E5B016C01C201EA
:1033D000B1010E946E3E7B018C0180E490E060E4CC
:1033E00070E0A50197010E949A2C81E490E060E4CE
:1033F00070E0A50197010E949A2C8FE390E060E4B1
:1034000070E0A50197010E949A2C80E490E061E4AD
:1034100070E0A50197010E949A2C80E490E06FE390
:1034200070E0A50197010E949A2C80E060E040E0E6
:103430000E9454296C857D858E859F850E946E3EF5
:103440005B016C01688579858A859B850E946E3E4B
:103450007B018C0180E490E06FE370E0A5019701AF
:103460000E949A2C80E490E061E470E0A50197014D
:103470000E949A2C8FE390E060E470E0A501970130
:103480000E949A2C81E490E060E470E0A50197012D
:103490000E949A2C80E490E060E470E0A50197011E
:1034A0000E949A2CC401B30142E09E012F5F3F4F5E
:1034B00007E010E00E941514CE01019660E570E06F
:1034C00048E450E0009148011091490120914A01DF
:1034D000C0909E03D0909F03E090A0030E946127BC
:1034E000288639864A865B8688899989AA89BB8914
:1034F0008C879D87AE87BF8781EA93E00E94FD336A
:10350000882309F437CD81EA93E00E94FD338823B4
:10351000D1F70E946C1563960FB6F894DEBF0FBE0C
:10352000CDBFCF91DF911F910F91FF90EF90DF9072
:10353000CF90BF90AF909F908F907F906F905F9053
:103540004F903F902F9008951F9360919E0370912C
:103550009F038091A0030E94FC2311E072C0809120
:10356000AB038823B1F581EA93E00E94FD33882301
:10357000D1F381EA93E00E94FD338823D1F7609173
:10358000A1037091A2038091A3039091A40320E072
:103590003EE240E852E40E94A627882311F40E94EC
:1035A0008F176091A1037091A2038091A303909162
:1035B000A40320E03EE240E852E40E94A6278823CC
:1035C00041F00E94CE367093AD036093AC0310932C
:1035D000AB038091AB03813011F581EA93E00E9447
:1035E000FD338823D1F381EA93E00E94FD338823E1
:1035F000D1F76091A1037091A2038091A3039091F0
:10360000A40320E03EE240E852E40E94A62788237B
:1036100031F01092AF031092AE030E94A41A609191
:10362000A1037091A2038091A3039091A40320E0D1
:103630003EE240E852E40E94A627882311F40E944B
:103640008F1781EA93E00E94FD33882309F487CF26
:103650001F91089580E391E060E040E00E94D81F50
:1036600081EA93E00E94FD338823D1F381EA93E05D
:103670000E94FD338823D1F70E94A41A0895CF92A7
:10368000DF92EF92FF920F931F93CF93DF9388E324
:1036900091E060E040E00E94D81FC0E0D0E0CC2480
:1036A000DD243CC060E070E080E090E028EC30E099
:1036B00040E050E00E946838F62EE72E60E070E0AF
:1036C00080E090E028EC30E040E050E00E94683874
:1036D000162F072F8FEF6FEF4FEF0E9454298F2D7A
:1036E0009E2D612F702FAE0196010E949A2C8FEFB4
:1036F0006FEF4FEF0E94542980E090E060E070E0AF
:1037000040E050E020E030E00E949A2C212F302F42
:10371000C9016C012F2D3E2DC901EC0181EA93E016
:103720000E94FD33882309F4BDCF81EA93E00E9413
:10373000FD338823D1F70E942A1BDF91CF911F917F
:103740000F91FF90EF90DF90CF9008950E948F1718
:1037500008950E9490370E9435150E948F17FDCF63
:103760002F923F924F925F926F927F928F929F9291
:10377000AF92BF92CF92DF92EF92FF920F931F937F
:10378000DF93CF93CDB7DEB766970FB6F894DEBF61
:103790000FBECDBF80E491E060E040E00E94D81F02
:1037A00080E090E0A0E0B0E08B8B9C8BAD8BBE8B7B
:1037B0008F87988BA98BBA8B8B879C87AD87BE87A9
:1037C0001C012D01A5C36B897C898D899E8920E010
:1037D00030E040E85FE30E949E3D6B8B7C8B8D8BDD
:1037E0009E8B6F85788989899A8920E030E040E84E
:1037F0005FE30E949E3D6F87788B898B9A8B6B85E8
:103800007C858D859E8520E030E040E85FE30E9466
:103810009E3D6B877C878D879E87C201B10120E02A
:1038200030E040E85FE30E949E3D1B012C01609167
:10383000680170916901882777FD8095982F0E9413
:10384000A13E5B016C016B897C898D899E89A601F3
:1038500095010E94513F882344F080E090E0A0E071
:10386000B0E08B8B9C8BAD8BBE8B60916A017091AD
:103870006B01882777FD8095982F0E94A13E9B01C0
:10388000AC016F85788989899A890E94513F882384
:1038900044F080E090E0A0E0B0E08F87988BA98BA7
:1038A000BA8B60916C0170916D01882777FD8095CE
:1038B000982F0E94A13E7B018C016B857C858D85B4
:1038C0009E85A80197010E94513F882344F080E023
:1038D00090E0A0E0B0E08B879C87AD87BE87C201F7
:1038E000B101A80197010E94513F882354F00F2E87
:1038F000F0E02F2EF0E03F2EF0E04F2EF0E05F2EB4
:10390000F02DDE011196E7E5F1E083E001900D92E4
:103910008150E1F76091780170917901882777FDF6
:103920008095982F0E94A13E9B01AC016B897C89F8
:103930008D899E890E94513F882354F0DE011196A3
:10394000EDE5F1E083E001900D928150E1F727C0B1
:103950006091700170917101882777FD8095982F93
:103960000E94A13E9B01AC016B897C898D899E8957
:103970000E94513F882354F0DE011196E3E6F1E006
:1039800083E001900D928150E1F709C0DE011196AC
:10399000E0E6F1E083E001900D928150E1F76B8960
:1039A0007C898D899E8920E030E04CEA52E40E94B7
:1039B000553F3B014C01A60195010E94063E20E0C7
:1039C00030E04CE152E40E949E3D0E946E3E9B011D
:1039D000AC0187E290E06DE070E0A90121E230E007
:1039E000E980FA800B815701C02E0E941225609158
:1039F000680170916901882777FD8095982F0E9452
:103A0000A13E9B01AC01C401B3010E94063E20E02F
:103A100030E04CE152E40E949E3D0E946E3EDC018B
:103A2000CB016DE070E04DE750E021E230E0E09046
:103A30009E03F0909F030091A0035701C02E0E94A7
:103A4000122560917A0170917B01882777FD80951E
:103A5000982F0E94A13E9B01AC016F8578898989CE
:103A60009A890E94513F882354F0DE011196EDE5BA
:103A7000F1E083E001900D928150E1F727C0609161
:103A8000720170917301882777FD8095982F0E94AD
:103A9000A13E9B01AC016F85788989899A890E9432
:103AA000513F882354F0DE011196E3E6F1E083E014
:103AB00001900D928150E1F709C0DE011196E0E618
:103AC000F1E083E001900D928150E1F76F857889F4
:103AD00089899A8920E030E04CEA52E40E94553FFF
:103AE0003B014C0160916A0170916B01882777FD61
:103AF0008095982F0E94A13E9B01AC01C401B301A7
:103B00000E94063E20E030E04CE152E40E949E3DDF
:103B10000E946E3E9B01AC0187E290E066E270E09D
:103B2000A9012AE330E0E980FA800B815701C02E19
:103B30000E94122560916A0170916B01882777FDC0
:103B40008095982F0E94A13E9B01AC01C401B30156
:103B50000E94063E20E030E04CE152E40E949E3D8F
:103B60000E946E3EDC01CB0166E270E04DE750E062
:103B70002AE330E0E0909E03F0909F030091A003C1
:103B80005701C02E0E94122560917C0170917D0129
:103B9000882777FD8095982F0E94A13E9B01AC015C
:103BA0006B857C858D859E850E94513F882354F0CE
:103BB000DE011196EDE5F1E083E001900D92815078
:103BC000E1F727C06091740170917501882777FD36
:103BD0008095982F0E94A13E9B01AC016B857C854E
:103BE0008D859E850E94513F882354F0DE011196F9
:103BF000E3E6F1E083E001900D928150E1F709C026
:103C0000DE011196E0E6F1E083E001900D92815033
:103C1000E1F76B857C858D859E8520E030E04CEA60
:103C200052E40E94553F3B014C0160916C01709140
:103C30006D01882777FD8095982F0E94A13E9B01FA
:103C4000AC01C401B3010E94063E20E030E04CE12B
:103C500052E40E949E3D0E946E3E9B01AC0187E2B1
:103C600090E060E470E0A90124E530E0E980FA80AA
:103C70000B815701C02E0E94122560916C0170913A
:103C80006D01882777FD8095982F0E94A13E9B01AA
:103C9000AC01C401B3010E94063E20E030E04CE1DB
:103CA00052E40E949E3D0E946E3EDC01CB0160E426
:103CB00070E04DE750E024E530E0E0909E03F090A6
:103CC0009F030091A0035701C02E0E94122560910E
:103CD0007E0170917F01882777FD8095982F0E9443
:103CE000A13E9B01AC01C201B1010E94513F88235A
:103CF00054F0DE011196EDE5F1E083E001900D92C4
:103D00008150E1F725C06091760170917701882795
:103D100077FD8095982F0E94A13E9B01AC01C201C6
:103D2000B1010E94513F882354F0DE011196E3E671
:103D3000F1E083E001900D928150E1F709C0DE01CE
:103D40001196E0E6F1E083E001900D928150E1F7F9
:103D5000C201B10120E030E04CEA52E40E94553F3C
:103D60003B014C0160916E0170916F01882777FDD6
:103D70008095982F0E94A13E9B01AC01C401B30124
:103D80000E94063E20E030E04CE152E40E949E3D5D
:103D90000E946E3E9B01AC0187E290E06AE570E014
:103DA000A9012EE630E0E980FA800B815701C02E90
:103DB0000E94122560916E0170916F01882777FD36
:103DC0008095982F0E94A13E9B01AC01C401B301D4
:103DD0000E94063E20E030E04CE152E40E949E3D0D
:103DE0000E946E3EDC01CB016AE570E04DE750E0D9
:103DF0002EE630E0E0909E03F0909F030091A00338
:103E00005701C02E0E9412256B897C898D899E895D
:103E100042E09E012C5F3F4F07E010E00E94151426
:103E2000CE0104966FE570E042E150E000915A0146
:103E300010915B0120915C01C0909E03D0909F0384
:103E4000E090A0030E9461276F85788989899A890B
:103E500042E09E012C5F3F4F07E010E00E941514E6
:103E6000CE0104966FE570E04BE250E000915A01FC
:103E700010915B0120915C01C0909E03D0909F0344
:103E8000E090A0030E9461276B857C858D859E85CF
:103E900042E09E012C5F3F4F07E010E00E941514A6
:103EA000CE0104966FE570E045E450E000915A01C0
:103EB00010915B0120915C01C0909E03D0909F0304
:103EC000E090A0030E946127C201B10142E09E017F
:103ED0002C5F3F4F07E010E00E941514CE010496BE
:103EE0006FE570E04DE550E000915A0110915B01E3
:103EF00020915C01C0909E03D0909F03E090A003AE
:103F00000E94612764E670E080E090E00E947D37C7
:103F100081EA93E00E94FD33882309F454CC24C045
:103F20006091A1037091A2038091A3039091A403D7
:103F300020E03BE040E852E20E94A627882311F0EF
:103F40000E946C156091A1037091A2038091A3035C
:103F50009091A40320E034E240E85BE30E94A627AE
:103F6000882311F00E948F1781EA93E00E94FD33AD
:103F70008823B1F60E943F1B66960FB6F894DEBF09
:103F80000FBECDBFCF91DF911F910F91FF90EF90AA
:103F9000DF90CF90BF90AF909F908F907F906F9069
:103FA0005F904F903F902F9008958091B1030895B6
:103FB0004F925F927F928F929F92AF92BF92CF92D9
:103FC000DF92EF92FF920F931F93DF93CF93CDB7C2
:103FD000DEB7C451D2400FB6F894DEBF0FBECDBFDE
:103FE0006C01962E842EF89404EF13E0C601B801FC
:103FF00047E050E00E94573D009759F5D8011796C9
:104000008C9190E0A0E0B0E0D82ECC24BB24AA2470
:10401000F801808590E0A0E0B0E0DC0199278827D6
:10402000A82AB92ACA2ADB2A828590E0A0E0B0E05B
:10403000A82AB92ACA2ADB2A818590E0A0E0B0E04C
:10404000BA2FA92F982F8827A82AB92ACA2ADB2A8B
:104050000AC0F5E00D3C1F0719F0055F1F4FC6CFE2
:10406000AA24BB2465017E010894E11CF11CC70150
:10407000B601A50123E132E00E948921698170E047
:104080000A8110E0069F2001079F500C169F500CDC
:104090001124892D90E061507040680F791F0E94B3
:1040A000AC23882D90E001501040080F191FB80173
:1040B0000E94D423882499248E010C5F1F4F90E026
:1040C0007E2CEF2C36C0D8018C9180931608119667
:1040D0008C9111978093150812968C9180931408F7
:1040E000CC5EDD4F9883C451D2400E949122CC5EB9
:1040F000DD4F9881C451D2409F5F903B18F40D5F13
:104100001F4F14C080E192E0A0E0B0E0A80EB91EFD
:10411000CA1EDB1E872D9E2DB601A50123E132E0CC
:104120000E948921872D9E2D8C0190E00894811C8E
:10413000911C8414950438F27894CC5EDD4F0FB650
:10414000F894DEBF0FBECDBFCF91DF911F910F91CD
:10415000FF90EF90DF90CF90BF90AF909F908F90A7
:104160007F905F904F90089584EF93E060E070E05F
:1041700040E254E00E940D2281E08093B103089553
:104180002398259A249A229A219A209A2D98000001
:1041900000002D9A289A2C9A8CE58CBD81E08DBD6B
:1041A0000895AC012C9884E88EBD0DB407FEFDCFB8
:1041B0001EBC0DB407FEFDCF1EBC0DB407FEFDCF27
:1041C0001EBC0DB407FEFDCF20E030E0FA01E20F87
:1041D000F31F80818EBD0DB407FEFDCF2F5F3F4FD3
:1041E00082E02031380791F72C9A0895AC012C9881
:1041F00084ED8EBD0DB407FEFDCF1EBC0DB407FED1
:10420000FDCF1EBC0DB407FEFDCF1EBC0DB407FED6
:10421000FDCF8FEF8EBD0DB407FEFDCF20E030E067
:104220009FEF9EBD0DB407FEFDCF8EB5FA01E20FE4
:10423000F31F80832F5F3F4F82E02031380789F7DB
:104240002C9A08952C9884E88EBD0DB407FEFDCFFE
:104250001EBC0DB407FEFDCF1EBC0DB407FEFDCF86
:104260001EBC0DB407FEFDCF80E090E02FEF2EBD09
:104270000DB407FEFDCF019632E080319307B9F708
:104280002C9A089508958EBD0DB407FEFDCF0895B4
:104290002C9A2C9887E58EBD0DB407FEFDCF1EBC71
:1042A0000DB407FEFDCF8EB52C9A881F8827881F76
:1042B00008950F931F93CF93DF938C01EB010E941E
:1042C0002221C8010E94D1202C9883E88EBD0DB414
:1042D00007FEFDCFCE0126E0969587952A95E1F75A
:1042E0008EBD0DB407FEFDCF9E01220F220F2EBD05
:1042F0000DB407FEFDCF1EBC0DB407FEFDCF2C9AFA
:104300000E9448218823E1F3DF91CF911F910F9103
:1043100008958F929F92AF92BF92CF92DF92EF92C9
:10432000FF920F931F93CF93DF934C017A018B0180
:10433000E901CB01BA0120E132E040E050E00E9407
:104340004F4059016A01C601B50120E132E040E069
:1043500050E00E941D40E61AF70A080B190B0E9454
:1043600022212C9888E68EBD0DB407FEFDCFD60124
:10437000C50146E0B695A795979587954A95D1F7DB
:104380008EBD0DB407FEFDCFBB27A12F902F8F2D23
:104390002A2D220F220F282B2EBD0DB407FEFDCF94
:1043A000EEBC0DB407FEFDCF8FEF8EBD0DB407FE42
:1043B000FDCF8EB58FEF8EBD0DB407FEFDCF8EB550
:1043C0008FEF8EBD0DB407FEFDCF8EB58FEF8EBD86
:1043D0000DB407FEFDCF8EB520E030E09FEF0CC09E
:1043E0009EBD0DB407FEFDCF8EB5F401E20FF31FA5
:1043F000808300002F5F3F4F2C173D0788F32C9AD6
:10440000DF91CF911F910F91FF90EF90DF90CF90B0
:10441000BF90AF909F908F900895EF92FF920F936F
:104420001F93CF93DF937C01EB018A010E9422212D
:104430002C9888E68EBD0DB407FEFDCFCE0156E068
:10444000969587955A95E1F78EBD0DB407FEFDCF81
:104450009E01220F220F2EBD0DB407FEFDCF1EBC04
:104460000DB407FEFDCF8FEF8EBD0DB407FEFDCF5F
:104470008EB58FEF8EBD0DB407FEFDCF8EB58FEFDD
:104480008EBD0DB407FEFDCF8EB58FEF8EBD0DB482
:1044900007FEFDCF8EB520E030E09FEF0CC09EBD43
:1044A0000DB407FEFDCF8EB5F701E20FF31F808339
:1044B00000002F5F3F4F2017310788F32C9ADF91C0
:1044C000CF911F910F91FF90EF90089518B81BB8EE
:1044D00017B81AB8A498A098A298A19A0000000052
:1044E000000000000000000086B1A09AA49AA29AE1
:1044F0009FEF97B99AB98C708295807F0895A498A0
:10450000A098A29AA19888B998B192959F7098B9ED
:104510008BB98BB1880F880F8BB9A19AA09AA49AF6
:1045200008958CE50E947F22A49AA098A19880917A
:10453000140882B98091150888B9809116088BB942
:10454000A19AA09AA49A0895A49AA098A29AA19830
:1045500088B998B192959F7098B98BB98BB1880F33
:10456000880F8BB9A19AA09AA49A089581EC0E9411
:104570007F2285E50E94A42282E50E94A42281EA8E
:104580000E94A42208951F93182F87EC0E947F2277
:104590001F3010F4812F01C08FE00E94A4221F91D0
:1045A0000895EF92FF920F931F93182F062FF42E6A
:1045B000E22E8CE80E947F22812F0E94A422802F6D
:1045C0000E94A4228F2D0E94A4228E2D0E94A4223C
:1045D0001F910F91FF90EF900895AF92BF92CF92ED
:1045E000DF92EF92FF920F931F93DF93CF9300D050
:1045F0000F92CDB7DEB7D82EC62EB42EA22EE982EA
:104600001F2DFA820B8383E80E947F228D2D0E944A
:10461000A4228C2D0E94A4228B2D0E94A4228A2DDC
:104620000E94A4228F2D8295869587709981987F0C
:10463000892B0E94A422110F110F110F107E8B8164
:10464000869586958695812B0E94A4220F900F90C7
:104650000F90CF91DF911F910F91FF90EF90DF901E
:10466000CF90BF90AF9008958F929F92BF92CF92BC
:10467000DF92EF92FF920F931F93DF93CF93CDB70B
:10468000DEB728970FB6F894DEBF0FBECDBFF82E69
:10469000B62E4A010B83012F1C832D83CE821D2D44
:1046A000DF82E88686E80E947F228F2D0E94A42266
:1046B0008B2D0E94A422882D0E94A422802F8295F7
:1046C000869587709B81987F892B0E94A422000F7A
:1046D000000F000F007E8D81869586958695802B34
:1046E0000E94A4228D2D8295869587709E81987F49
:1046F000892B0E94A422110F110F110F107E8885A3
:10470000869586958695812B0E94A42219820DC0DC
:104710001A8203C08A818F5F8A838A8190E088151C
:104720009905C4F389818F5F8983898190E0881519
:10473000990574F328960FB6F894DEBF0FBECDBF6F
:10474000CF91DF911F910F91FF90EF90DF90CF906D
:10475000BF909F908F9008950F931F93CF93DF93F7
:10476000EC018B0197FF03C0C0E0D0E005C08038AA
:10477000910514F0CFE7D0E017FF03C000E010E090
:1047800005C00038110514F00FE710E085E10E9424
:104790007F228C2F0E94A422802F0E94A422DF91CE
:1047A000CF911F910F9108950F931F93CF93DF9394
:1047B000EC018B0197FF03C0C0E0D0E005C080385A
:1047C000910514F0CFE7D0E017FF03C000E010E040
:1047D00005C00038110514F00FE710E085E70E94CE
:1047E0007F228C2F0E94A422802F0E94A422DF917E
:1047F000CF911F910F910895FF920F931F93DF9315
:10480000CF9300D00F92CDB7DEB7162F6983072F55
:104810007A838B83F82E80E090E06FE770E00E944F
:10482000AC2380E090E06FE770E00E94D4238CE539
:104830000E947F22A49AA098A198FBB808B912B947
:1048400080E092E040C0909A909A909A909A909AC4
:10485000909A909A909A909A909A909A909A909A08
:10486000909A909A909A909A909A909A909A909AF8
:10487000909A909A909A909A909A909A909A909AE8
:10488000909A909A909A909A909A909A909A909AD8
:10489000909A909A909A909A909A909A909A909AC8
:1048A000909A909A909A909A909A909A909A909AB8
:1048B000909A909A909A909A909A909A909A909AA8
:1048C000909A909A909A01972FEF8F3F920709F054
:1048D000BACFA09A0F900F900F90CF91DF911F91B8
:1048E0000F91FF900895DF93CF9300D00F92CDB733
:1048F000DEB7A49AA09AA19AA29A1BB818B812B8C7
:104900009C9A989A999A9A9A9B9A8FEF8AB987B9A2
:1049100081B9A39800000000000000000000000022
:1049200000000000A39A8EEA0E947F228AEC0E9477
:104930007F228FE70E94A42281EA0E947F2280E0EA
:104940000E94A42282EA0E947F2280E80E94A42280
:1049500080EA0E947F228CEB0E94A42287EC0E94B6
:104960007F228AE00E94A42281EC0E947F2285E5BA
:104970000E94A42282E50E94A42281EA0E94A4222D
:1049800081EB0E947F2282E20E94A42283EB0E949C
:104990007F2280EF0E94A4228BEB0E947F2280E086
:1049A0000E94A42280E00E94A42280E00E94A4220F
:1049B0008DEA0E947F228EE80E94A42280EB0E9452
:1049C0007F2280E00E94A4228EEB0E947F228CE155
:1049D0000E94A42286EA0E947F2281ED0E947F220B
:1049E00082E00E94A4228FEA0E947F2282E90E9434
:1049F0007F2281E00E94A4226B9A739ADE011196B5
:104A0000E8EEF2E083E001900D928150E1F76981D8
:104A10007A818B810E94FC230F900F900F90CF9191
:104A2000DF9108952F923F924F925F926F927F9203
:104A30008F929F92AF92BF92CF92EF92FF920F937D
:104A40001F93DF93CF9300D000D000D0CDB7DEB757
:104A50001C012B013A014901E982FA820B83AC82E5
:104A6000BD82CE82BA010E94AC23C201B4010E9471
:104A7000D4238CE50E947F22A49AA098A198CBB859
:104A8000B8B8A2B88418950862187308869CC0014B
:104A9000879C900D969C900D1124AA2797FDA095B8
:104AA000BA2F0F96A11DB11D9C01AD0164E0559573
:104AB0004795379527956A95D1F70F97A109B109C1
:104AC00087709070A070B07087309105A105B10516
:104AD00009F44AC083309105A105B10509F454C019
:104AE00084309105A105B1058CF481309105A105B3
:104AF000B10509F451C082309105A105B1050CF052
:104B000047C00097A105B10559F054C08530910503
:104B1000A105B10589F10697A105B1054CF530C095
:104B2000909A909A909A909A909A909A909A909A35
:104B3000909A909A909A909A909A909A909A909A25
:104B4000909A909A909A909A909A909A909A909A15
:104B5000909A909A909A909A909A909A909A909A05
:104B6000909A909A909A909A909A909A909A909AF5
:104B7000909A909A909A909A909A909A909A909AE5
:104B8000909A909A909A909A909A909A909A909AD5
:104B9000909A909A909A909A909A909A909A909AC5
:104BA000215030404040504012161306140615069E
:104BB0000CF4B6CFA09A80E090E06FE770E00E941E
:104BC000AC2380E090E06FE770E00E94D42326964B
:104BD0000FB6F894DEBF0FBECDBFCF91DF911F910E
:104BE0000F91FF90EF90CF90BF90AF909F908F90DC
:104BF0007F906F905F904F903F902F900895AF926D
:104C0000BF92CF92EF92FF920F93DF93CF9300D09A
:104C100000D000D0CDB7DEB7582FF92FB22F29839F
:104C2000A32F3A83E42F4B83AE2CEC82BF2CFD8262
:104C3000C02E0E83862F90E0672F70E0452F50E046
:104C40002F2F30E0EB2EFA2E0E2F0E9412252696E3
:104C50000FB6F894DEBF0FBECDBFCF91DF910F919D
:104C6000FF90EF90CF90BF90AF900895DF92EF92BA
:104C7000FF920F931F93DF93CF9300D00F92CDB786
:104C8000DEB7FC018B0129833A834B83D22EE32EBE
:104C9000F42EE038F105B8F477FD15C060387105E1
:104CA00094F4CF016FE770E00E94AC23C8016FE776
:104CB00070E00E94D423D0921408E0921508F0927C
:104CC00016080E9491220F900F900F90CF91DF91C4
:104CD0001F910F91FF90EF90DF9008958F929F9218
:104CE000AF92BF92CF92DF92EF92FF920F931F93FA
:104CF000CF93DF93C62EE22E882E9924A42EBB24B8
:104D0000C401B5010E94AC23DD24FF24C601B70114
:104D10000E94D423F80180818093140881818093BC
:104D2000150882818093160881E090E09C012C197F
:104D30003D092E0D3F1D881999098A0D9B1D289F3D
:104D4000E001299FD00D389FD00D11248CE50E94E1
:104D50007F2200E010E004C00E9491220F5F1F4FED
:104D60000C171D07C8F380E090E06FE770E00E9429
:104D7000AC2380E090E06FE770E00E94D423DF91E5
:104D8000CF911F910F91FF90EF90DF90CF90BF9048
:104D9000AF909F908F9008952F923F924F925F9285
:104DA0006F927F928F929F92AF92BF92CF92DF923B
:104DB000EF92FF920F931F93DF93CF93CDB7DEB7A0
:104DC0002A970FB6F894DEBF0FBECDBF69877A87EA
:104DD00009831A83622F2B83CC82DD82EE820887BF
:104DE0001F83262E3C2C4D2C5E2C90E080976C016E
:104DF000A3E0CC0CDD1CAA95E1F7C81AD90A8CE611
:104E000091E2C80ED91E5A01F7E06F2E712C640E84
:104E1000751EF601849149855A8530E0932F7C01F7
:104E2000CA018C01E5E08E2E912C880E991EC801D6
:104E30006FE770E00E94AC23C5016FE770E00E944D
:104E4000D423C70180789070EE0CFF1C892B49F0A9
:104E5000F885F09314088F81809315082092160826
:104E600006C03092140840921508509216080E940D
:104E700091220F5F1F4F08151905C9F60894C11C30
:104E8000D11C0894A11CB11CA614B70409F0C1CF11
:104E90002A960FB6F894DEBF0FBECDBFCF91DF913B
:104EA0001F910F91FF90EF90DF90CF90BF90AF9048
:104EB0009F908F907F906F905F904F903F902F903A
:104EC00008956F927F928F929F92AF92BF92CF92EE
:104ED000DF92EF920F931F93DF93CF9300D000D018
:104EE00000D0CDB7DEB74C015B013A0109831A83CC
:104EF0002B83CC82DD82EE8211C00894811C911C30
:104F0000B501A30109811A812B81CC80DD80EE805F
:104F10000E94CC2686E090E0A80EB91EF4018081A4
:104F2000882359F726960FB6F894DEBF0FBECDBF83
:104F3000CF91DF911F910F91EF90DF90CF90BF90B5
:104F4000AF909F908F907F906F900895DC01E22F3B
:104F5000F0E06E177F0794F0842F90E08617970794
:104F60006CF0832F90E0A817B90744F020E0852F5C
:104F700090E08A179B071CF021E001C020E0822FFF
:104F80000895DF93CF9300D00F92CDB7DEB7609333
:104F9000140870931508809316080F900F900F90C7
:104FA000CF91DF9108956091140870911508809158
:104FB00016080E94FC2308952091140830911508CA
:104FC000409116080E9436260895AF92BF92CF9264
:104FD000EF92FF920F93480F591F260F371FE09053
:104FE0001408F0901508009116085701C02E0E9471
:104FF00012250F91FF90EF90CF90BF90AF90089542
:10500000CF92DF92EF920F931F93DF93CF9300D055
:1050100000D000D0CDB7DEB709831A832B83CC82B2
:10502000DD82EE820E94CC2626960FB6F894DEBF73
:105030000FBECDBFCF91DF911F910F91EF90DF9009
:10504000CF900895CF92DF92EF92FF920F931F932C
:10505000DF93CF9300D000D000D0CDB7DEB7098367
:105060001A832B83CC82DD82EE820E9461272696F2
:105070000FB6F894DEBF0FBECDBFCF91DF911F9169
:105080000F91FF90EF90DF90CF9008958F929F92B5
:10509000AF92BF92CF92DF92EF92FF920F931F9346
:1050A000CF93DF93EC0149012E193F09841B950B27
:1050B000289FF001299FF00D389FF00D11249801D1
:1050C000241B350BCB0188199909DC012A9FC001EB
:1050D0002B9F900D3A9F900D1124E80FF91F1E167B
:1050E0001F061CF4A1E0B0E007C0EF2B19F4A0E00C
:1050F000B0E002C0AFEFBFEF97012A193B09CE0124
:10510000801B910B289FF001299FF00D389FF00D17
:1051100011249601201B310BCB018E199F098C01A4
:10512000209FC001219F900D309F900D1124E80F0A
:10513000F91F1E161F061CF421E030E007C0EF2BFC
:1051400019F420E030E002C02FEF3FEFC5018819CD
:105150009909CC19DD098C9FF0018D9FF00D9C9F62
:10516000F00D11246A197B094C195D09649FC00177
:10517000659F900D749F900D1124E80FF91F1E1666
:105180001F061CF441E050E007C0EF2B19F440E08B
:1051900050E002C04FEF5FEFA217B30719F4A41756
:1051A000B507A1F0AB2B49F4232B19F080E0452B78
:1051B00009F481E0282F30E00BC0232B19F020E008
:1051C00030E006C020E030E0452B11F421E030E073
:1051D000C901DF91CF911F910F91FF90EF90DF9068
:1051E000CF90BF90AF909F908F900895EF92FF92D5
:1051F0000F931F93E61AF70A481B590BE49EF00120
:10520000E59EF00DF49EF00D1124081B190B621B96
:10521000730B069FC001079F900D169F900D1124E0
:10522000E80FF91F1E161F061CF421E030E007C02E
:10523000EF2B19F420E030E002C02FEF3FEFC9015F
:105240001F910F91FF90EF90089591E090930E03BE
:105250008093B4038093B5038093B603089591E0DF
:1052600090930E038093B4036093B5034093B60309
:10527000089510920E03089510920D0308958093DF
:10528000B4036093B5034093B60308958093EB0293
:105290006093EC024093ED0208958093EB028093BB
:1052A000EC028093ED0208958093EB026093EC0290
:1052B0004093ED020895EF92FF920F931F93CF93C7
:1052C000DF937C018B0183EF93E060E00E949F3BC2
:1052D000C0E0D0E0015010400EC083EF93E00E9488
:1052E000E03CF701EC0FFD1F8083882319F4CA30DE
:1052F000D10524F42196C017D1077CF3CE0DDF1D14
:105300001882DF91CF911F910F91FF90EF90089538
:105310000F931F93182F092F0E94C322109303038A
:10532000009304031F910F910895EF92FF920F9342
:105330001F93CF93DF93C0910303D09104037C01AB
:105340000027F7FC0095102F08C08C2F0E94C32265
:10535000C801B7010E947D3721971C161D06ACF3CA
:105360007398DF91CF911F910F91FF90EF90089567
:10537000EF92FF920F931F93CF93DF93739AC0E046
:10538000D0E07C010027F7FC0095102F08C08C2F7F
:105390000E94C322C801B7010E947D3721968091E7
:1053A0000303909104038C179D078CF7DF91CF9135
:1053B0001F910F91FF90EF9008952F923F924F927F
:1053C0005F926F927F928F929F92AF92BF92CF9295
:1053D000DF92EF92FF920F931F93DF93CF93CDB79E
:1053E000DEB7E0970FB6F894DEBF0FBECDBF98A32F
:1053F0008F8F7AA369A35CA34BA33EA32DA3CA01FD
:105400009C01442737FD4095542FCA01B9010E94E1
:105410001D406D8B7E8B8F8B988FADA1BEA17D01C2
:105420000027F7FC0095102FC801B701A8019701CC
:105430000E941D40698B7A8B8B8B9C8B6D897E893A
:105440008F89988D24E030E040E050E00E94714068
:1054500088279927DC01821B930BA40BB50B8D8742
:105460009E87AF87B88B8BA19CA162E070E00E9401
:105470003C40AA2797FDA095BA2F2D853E854F85E4
:105480005889281B390B4A0B5B0B89899A89AB8990
:10549000BC89281B390B4A0B5B0B2D873E874F8736
:1054A000588BBC01CD0124E030E040E050E00E9488
:1054B000714088279927DC01821B930BA40BB50B45
:1054C0008B8F9C8FAD8FBE8F8DA19EA162E070E00F
:1054D0000E943C40AA2797FDA095BA2F2B8D3C8DAA
:1054E0004D8D5E8D281B390B4A0B5B0B2B8F3C8F30
:1054F0004D8F5E8F8D899E89AF89B88D281B390BA2
:105500004A0B5B0B29873A874B875C87BC01CD012F
:1055100090958095709561957F4F8F4F9F4FA80113
:1055200097010E941D405B016C016D897E898F8906
:10553000988D0E941D402EEF3FEF4FEF5FEF0E94CE
:105540001D401B012C0129893A894B895C89220F56
:10555000331F441F551F2D833E834F8358878D89EA
:105560009E89AF89B88D880F991FAA1FBB1F898399
:105570009A83AB83BC830DA11EA11A8E198EA1E064
:10558000B0E0B8A7AFA3662477244301C7C0E98D74
:10559000FA8DBF01882777FD8095982F29893A8950
:1055A0004B895C890E941D406A0D7B1D8C1D9D1DD1
:1055B0002D853E854F855889261737074807590797
:1055C000F4F4B801882777FD8095982F2D893E89BE
:1055D0004F89588D0E941D406DA77EA78FA798AB5D
:1055E000DC01CB018A0D9B1DAC1DBD1D2B8D3C8D9F
:1055F0004D8D5E8D281739074A075B079CF0498D52
:105600005A8D4F5F5F4F5A8F498F8D819E81AF8139
:10561000B885680E791E8A1E9B1EA60CB71CC81C76
:10562000D91C77C0D601C5012DA53EA54FA558A907
:10563000821B930BA40BB50BEF8CF8A0498D5A8DF0
:10564000E41AF50A69A17AA1601B710B29853A85D4
:105650004B855C85281739074A075B0724F5C70186
:105660004FA158A521E030E00E94E5270115110562
:1056700059F069A17AA1600F711FC7014FA158A508
:1056800021E030E00E94E5270150104089819A8195
:10569000AB81BC81280E391E4A1E5B1EA20CB31CB6
:1056A000C41CD51C3BC0C7014FA158A521E030E068
:1056B0000E94E5270115110559F069A17AA1600F33
:1056C000711FC7014FA158A521E030E00E94E527D6
:1056D000A98DBA8D1196BA8FA98F2D813E814F81E8
:1056E0005885620E731E841E951E015010408981DC
:1056F0009A81AB81BC81280E391E4A1E5B1ED401E3
:10570000C301820D931DA41DB51DA80EB91ECA1E8E
:10571000DB1EAFA1B8A51296B8A7AFA317FD08C0AE
:10572000E98DFA8D2BA13CA12E173F070CF02FCF4E
:105730004DA15EA1452B91F44BA15CA1440F551FD7
:105740004F5F5F4F8F8D98A1ABA1BCA18A1B9B0BB4
:1057500069A17AA121E030E00E94E527E0960FB62A
:10576000F894DEBF0FBECDBFCF91DF911F910F9197
:10577000FF90EF90DF90CF90BF90AF909F908F9071
:105780007F906F905F904F903F902F900895EF9291
:10579000FF920F931F938C017B016091EB0270913C
:1057A000EC028091ED020E94C127C801B7010E945E
:1057B000DC271F910F91FF90EF9008952F923F9259
:1057C0004F925F926F927F928F929F92AF92BF9211
:1057D000CF92DF92EF92FF920F931F93CF93DF93BD
:1057E0004C015B011A0139012617370724F4140113
:1057F0004A013B015901C401B5010E94DC27E101C6
:10580000C819D909D7FD04C0F1E04F2E512C06C0AC
:10581000D095C195DF4F44244A94542C83010A1932
:105820001B0939F00CC0840C951CC401B5010E9401
:10583000DC2721978FEFCF3FD807A9F768C02097C3
:1058400059F40894A11CB11CC401B5010E94DC27C5
:1058500001501040B1F75BC0C017D10769F4840C48
:10586000951C0894A11CB11CC401B5010E94DC2741
:1058700001501040A1F74BC06E01EE24D7FCE0941C
:10588000FE2C9801442737FD4095542FC017D107AF
:10589000ECF4C601772766270E944F40790180E02B
:1058A00090E010C0EC01CE0DDF1D8C179D0710F0AD
:1058B000840C951C0894A11CB11CC401B5010E9464
:1058C000DC27CE010150104069F71DC0C9017727C0
:1058D0006627A70196010E944F40790180E090E081
:1058E00010C08C010E0D1F1D8017910718F0089431
:1058F000A11CB11C840C951CC401B5010E94DC27BD
:10590000C801219771F7C101B3010E94DC27DF9123
:10591000CF911F910F91FF90EF90DF90CF90BF90AC
:10592000AF909F908F907F906F905F904F903F903F
:105930002F900895AF92BF92CF92DF92EF92FF9295
:105940000F931F938C017B016A0159016091EB0257
:105950007091EC028091ED020E94C127C801B7014D
:10596000A60195010E94DE2B1F910F91FF90EF90F1
:10597000DF90CF90BF90AF9008958F929F92AF929B
:10598000BF92CF92DF92EF92FF920F931F93CF932C
:10599000DF935C01EB016A010894C108D1081C1473
:1059A0001D040CF04CC0490108948108910818149A
:1059B00019040CF044C080910D03882331F16091EB
:1059C000EB027091EC028091ED020E94C1277601FA
:1059D000EA0CFB1CC501BE01A7019E010E949A2C86
:1059E00084010C0F1D1FC501BE01A50198010E9475
:1059F0009A2CC501B801A70198010E949A2CC701F1
:105A0000BE01A70198010E949A2C80910E03882361
:105A1000B1F06091B4037091B5038091B6030E9418
:105A2000C12721968EEF9FEFC80ED91E880E991EB2
:105A3000C5010196BE01A60194010E94E527DF91F0
:105A4000CF911F910F91FF90EF90DF90CF90BF907B
:105A5000AF909F908F9008950E94BD2C08952F9233
:105A60003F924F925F926F927F928F929F92AF92EE
:105A7000BF92CF92DF92EF92FF920F931F93DF932B
:105A8000CF93CDB7DEB728970FB6F894DEBF0FBE21
:105A9000CDBF9A8389837C836B835E834D83190199
:105AA0002801370180910D03882301F16091EB02F9
:105AB0007091EC028091ED020E94C12789819A8148
:105AC0006B817C814D815E8191010E94DE2B8D81F5
:105AD0009E81B101A80197010E94DE2BC801B70188
:105AE00049815A812B813C810E94DE2B80910E03DB
:105AF000882309F476C06091B4037091B503809156
:105B0000B6030E94C12729813A818D819E81281781
:105B100039072CF42415350514F449014DC0420110
:105B2000ED81FE81E415F5050CF046C04F0144C03F
:105B30002B813C812215330534F4261537051CF4DE
:105B400038872F8322C078866F8226143704ECF4BE
:105B500038862F821AC0C4016F81788549815A81A5
:105B60002B813C810D811E817101620153010E94D4
:105B70004628892B29F0C4016F8178850E94DC2793
:105B80008F819885019698878F83EB81FC812E16F3
:105B90003F062CF46E167F0614F4CF0105C0C30136
:105BA000621473040CF4C1012F813885281739075A
:105BB00094F20894811C911C89819A81ED81FE8167
:105BC000E817F9071CF4481659063CF0C2012D816C
:105BD0003E81421653060CF4C901881699060CF44E
:105BE000A7CF28960FB6F894DEBF0FBECDBFCF91DA
:105BF000DF911F910F91FF90EF90DF90CF90BF90BA
:105C0000AF909F908F907F906F905F904F903F905C
:105C10002F900895EF92FF920F931F930E942F2DC4
:105C20001F910F91FF90EF9008952F923F924F9206
:105C30005F926F927F928F929F92AF92BF92CF921C
:105C4000DF92EF92FF920F931F93DF93CF9300D0D9
:105C500000D00F92CDB7DEB71C017B836A833A0177
:105C600029011D830C83470180910D038983809155
:105C70000E038823E1F010920D03C1010E942F2D25
:105C8000C301B2014C815D819401860175010E94BE
:105C90002F2DC1016A817B814C815D8194010E941D
:105CA0002F2DE981EE2319F081E080930D0380917F
:105CB0000D038823E1F0C1016A817B81A301920178
:105CC0000E949A2CC301B2014C815D8194010E9413
:105CD0009A2C8C819D81B401A60195010E949A2C79
:105CE000C601B501A1012A813B810E949A2C0F9027
:105CF0000F900F900F900F90CF91DF911F910F9108
:105D0000FF90EF90DF90CF90BF90AF909F908F90DB
:105D10007F906F905F904F903F902F9008952F92BB
:105D20003F924F925F926F927F928F929F92AF922B
:105D3000BF92CF92DF92EF92FF920F931F93DF9368
:105D4000CF93CDB7DEB7E2970FB6F894DEBF0FBEA4
:105D5000CDBF9CA38BA37EA36DA358A74FA36901BE
:105D60002A019201442737FD4095542FCA01B901F9
