:100000000C945B000C9483000C9483000C9483008C
:100010000C9483000C9483000C9483000C94830054
:100020000C9483000C9483000C9483000C94830044
:100030000C9483000C9483000C9483000C94830034
:100040000C94CC020C9483000C944E050C94830009
:100050000C9483000C9483000C9483000C94830014
:100060000C9483000C948300000024272A000025B0
:10007000282B000023262904040404040404040299
:100080000202020202030303030303010204081035
:100090002040800102040810200102040810200002
:1000A0000000070002010000030406000000000039
:1000B00000000000240111241FBECFEFD4E0DEBFFA
:1000C000CDBF11E0A0E0B1E0E2E0FFE002C00590AA
:1000D0000D92AE31B107D9F711E0AEE1B1E001C048
:1000E0001D92AC3AB107E1F710E0C6EBD0E004C0D6
:1000F0002297FE010E947B07C43BD107C9F70E94EB
:100100001D010C947F070C94000020E032E0281BB6
:10011000390B442737FD4095542FCA01B9010E947D
:10012000260620E030E04AE153E40E948B0520E0FF
:1001300030E048EC52E40E94B2060E94F305CB0185
:100140000895AF92BF92CF92DF92EF92FF920F93FA
:100150001F93809112010E94AC037C0180911401D5
:100160000E94AC035C010EE111E0C80160E071E0A7
:100170000E944D01C801B7010E94940294E0C92E6B
:1001800091E0D92EC801B6010E944D01C7010E941D
:100190008500BC01C8010E94940286E0E82E81E03F
:1001A000F82EC801B7010E944D01C80168E071E056
:1001B0000E944D01C801B5010E949402C801B60118
:1001C0000E944D01C5010E948500BC01C8010E942A
:1001D0009402C801B7010E944D016CE271E080E019
:1001E00090E00E9437031F910F91FF90EF90DF90F6
:1001F000CF90BF90AF9008950F931F930EE111E041
:10020000C80140E855E260E070E00E94380184E0F7
:1002100060E00E941F0485E060E00E941F0464E625
:1002200070E080E090E00E943703C8016CE071E06C
:100230000E944D011F910F9108950E946F030E942B
:10024000FC000E94A100FDCF8AE191E090931F0184
:1002500080931E010895862F0E940D0508950E9427
:10026000450508950E94260508950E9415050895E4
:10027000CB01BA010E94D4040895DC01ED91FC91F8
:100280000190F081E02D09950895DC01ED91FC913C
:100290000190F081E02D099508950F931F93CF935E
:1002A000DF938C01EB0109C02196D801ED91FC91FF
:1002B0000190F081E02DC801099568816623A1F7BE
:1002C000DF91CF911F910F9108950F931F938C0190
:1002D000DC01ED91FC910190F081E02D6DE009953C
:1002E000D801ED91FC910190F081E02DC8016AE008
:1002F00009951F910F9108950F931F938C01DC01B5
:10030000ED91FC910190F081E02D0995C8010E94CA
:1003100065011F910F9108950F931F938C010E9407
:100320004D01C8010E9465011F910F9108950F931F
:100330001F938C01DC01ED91FC910190F081E02D87
:100340000995C8010E9465011F910F9108952F9290
:100350003F924F925F926F927F928F929F92AF9255
:10036000BF92CF92DF92EF92FF920F931F93DF9392
:10037000CF93CDB7DEB7A0970FB6F894DEBF0FBE10
:10038000CDBF1C016A017B01411551056105710555
:1003900049F4DC01ED91FC910190F081E02D60E3E6
:1003A000099554C0882499245401422E552466246A
:1003B000772401E010E00C0F1D1F080D191DC70167
:1003C000B601A30192010E942807F80160830894F6
:1003D000811C911CA11CB11CC701B601A301920193
:1003E0000E942807C901DA016C017D01C114D10402
:1003F000E104F104F1F681E0E82EF12CEC0EFD1E93
:10040000E80CF91C3E010894611C711CD501C40163
:100410000197A109B1096C01C818D90814C0F601E7
:10042000EE0DFF1D60816A3010F4605D01C0695CF3
:10043000D101ED91FC910190F081E02DC101099570
:100440000894E108F1086E147F0449F7A0960FB6EE
:10045000F894DEBF0FBECDBFCF91DF911F910F91FA
:10046000FF90EF90DF90CF90BF90AF909F908F90D4
:100470007F906F905F904F903F902F9008952AE06B
:100480000E94A70108950F931F938C010E943F02C1
:10049000C8010E9465011F910F910895AB0160E0B2
:1004A00070E00E943F0208950F931F938C01AB01EF
:1004B00060E070E00E943F02C8010E9465011F9148
:1004C0000F910895EF92FF920F931F93CF93DF93B5
:1004D000EC017A018B0177FF0FC0E881F98101906F
:1004E000F081E02D6DE2099510950095F094E0946F
:1004F000E11CF11C011D111DCE01B801A7012AE06C
:100500000E94A701DF91CF911F910F91FF90EF9073
:1005100008950F931F938C010E946202C8010E94EC
:1005200065011F910F910895AB01662757FD6095F6
:10053000762F0E94620208950F931F938C01AB01E6
:10054000662757FD6095762F0E946202C8010E94BF
:1005500065011F910F910895DC012115310541F4CA
:10056000ED91FC910190F081E02D642F09950895A3
:100570002A30310519F40E94620208950E94A701F1
:1005800008950F931F938C010E94AC02C8010E9432
:1005900065011F910F9108951F920F920FB60F9250
:1005A00011242F938F939F93AF93BF93809120013A
:1005B00090912101A0912201B09123018050904C93
:1005C000AF4FBF4F8093200190932101A093220150
:1005D000B093230127C08091200190912101A09127
:1005E0002201B091230180589E43A040B0408093E7
:1005F000200190932101A0932201B09323018091C7
:10060000240190912501A0912601B0912701019626
:10061000A11DB11D8093240190932501A093260173
:10062000B09327018091200190912101A091220196
:10063000B091230181589E43A040B04060F6BF9125
:10064000AF919F918F912F910F900FBE0F901F90A0
:1006500018958FB7F894209124013091250140918D
:100660002601509127018FBFB901CA010895EF9269
:10067000FF920F931F937B018C018FB7F8944091E9
:1006800024015091250160912601709127018FBFAF
:100690002FB7F8948091240190912501A091260113
:1006A000B09127012FBF841B950BA60BB70B8E159E
:1006B0009F05A007B10760F31F910F91FF90EF9086
:1006C0000895019759F0FC01EE0FFF1FEE0FFF1F79
:1006D00032978FB7F8943197F1F78FBF08957894D8
:1006E00084B5826084BD84B5816084BD85B5826037
:1006F00085BD85B5816085BDEEE6F0E080818160D5
:100700008083E1E8F0E08081826080838081816085
:100710008083E0E8F0E0808181608083E1EBF0E0BD
:10072000808184608083E0EBF0E080818160808361
:10073000EAE7F0E08081846080838081826080834A
:100740008081816080838081806880831092C10075
:10075000089580931C0108958F7090911C019295CB
:10076000990F990F907C982B90937C0080917A0040
:10077000806480937A0080917A0086FDFCCF20917E
:10078000780040917900942F80E030E0282B392BBD
:10079000C90108951F93CF93DF93182FEB0161E0F8
:1007A0000E941F04E12FF0E0E156FF4F8491833057
:1007B00051F480918000806880938000D0938900FC
:1007C000C093880038C0843051F4809180008062EA
:1007D00080938000D0938B00C0938A002CC081301E
:1007E00029F484B5806884BDC7BD25C0823029F452
:1007F00084B5806284BDC8BD1EC0863041F480913E
:10080000B00080688093B000C093B30014C08730FC
:1008100041F48091B00080628093B000C093B40036
:100820000AC0C038D1051CF4812F60E002C0812FBE
:1008300061E00E943D04DF91CF911F910895282F20
:1008400030E0C90185579F4FFC01949129583F4FD3
:10085000F9018491882381F0E82FF0E0E859FF4FF7
:10086000E491F0E0662329F48081909589238083C8
:1008700008958081892B80830895482F50E0CA0114
:1008800081569F4FFC012491CA0185579F4FFC015F
:10089000949149585F4FFA0134913323C1F12223D7
:1008A00031F1233021F4809180008F7705C024300E
:1008B00031F4809180008F7D8093800018C02130BA
:1008C00019F484B58F7704C0223021F484B58F7D6C
:1008D00084BD0DC0263021F48091B0008F7705C013
:1008E000273029F48091B0008F7D8093B000E32FF2
:1008F000F0E0E359FF4FE491F0E0662329F48081B2
:1009000090958923808308958081892B8083089521
:10091000482F50E0CA0181569F4FFC012491CA0123
:1009200085579F4FFC01949149585F4FFA013491CC
:10093000332319F420E030E035C0222331F1233095
:1009400021F4809180008F7705C0243031F48091AC
:1009500080008F7D8093800018C0213019F484B509
:100960008F7704C0223021F484B58F7D84BD0DC003
:10097000263021F48091B0008F7705C0273029F40C
:100980008091B0008F7D8093B000E32FF0E0EE58AF
:10099000FF4FE491F0E0808120E030E0892311F006
:1009A00021E030E0C9010895EF92FF920F931F9369
:1009B0007B018C0122E030E040E050E00E944A07D9
:1009C000205C3D4B404F5F4FCA01B901A801970120
:1009D0000E944A07C901DA010197A109B109292F2B
:1009E0003A2F4B2F552747FD5A950196A11DB11D52
:1009F0002093C50081508093C400E1ECF0E0808139
:100A0000806180838081886080838081806880832A
:100A10001F910F91FF90EF900895982F8091C00043
:100A200085FFFCCF9093C600089580912801909196
:100A3000290180589F4F20912A0130912B01821B60
:100A4000930B60E870E00E941507089540912A0119
:100A500050912B01809128019091290184179507CD
:100A600019F42FEF3FEF0FC0FA01E45DFE4F208134
:100A7000CA01019660E870E00E94150790932B016F
:100A800080932A0130E0C901089580912A01909154
:100A90002B01909329018093280108951F920F92B2
:100AA0000FB60F9211242F933F934F935F936F9341
:100AB0007F938F939F93AF93BF93EF93FF93409157
:100AC000C600E0912801F0912901CF01019660E86C
:100AD00070E00E9415079C0180912A0190912B01E2
:100AE0002817390739F0E45DFE4F40833093290120
:100AF00020932801FF91EF91BF91AF919F918F912A
:100B00007F916F915F914F913F912F910F900FBE09
:100B10000F901F9018950CD0EBC0E3D040F0DAD0C6
:100B200030F021F45F3F19F0CCC0511115C1CFC096
:100B3000F0D098F39923C9F35523B1F3951B550BC6
:100B4000BB27AA2762177307840738F09F5F5F4FA0
:100B5000220F331F441FAA1FA9F333D00E2E3AF0E1
:100B6000E0E830D091505040E695001CCAF729D0FB
:100B7000FE2F27D0660F771F881FBB1F261737074A
:100B80004807AB07B0E809F0BB0B802DBF01FF277A
:100B900093585F4F2AF09E3F510568F092C0DCC029
:100BA0005F3FECF3983EDCF3869577956795B795B4
:100BB000F7959F5FC9F7880F911D9695879597F9CF
:100BC0000895E1E0660F771F881FBB1F6217730748
:100BD0008407BA0720F0621B730B840BBA0BEE1F5D
:100BE00088F7E095089504D06894B111B5C00895D0
:100BF00098D088F09F5790F0B92F9927B751A0F05F
:100C0000D1F0660F771F881F991F1AF0BA95C9F7A0
:100C100012C0B13081F09FD0B1E008959CC0672F21
:100C2000782F8827B85F39F0B93FCCF38695779550
:100C30006795B395D9F73EF4909580957095619539
:100C40007F4F8F4F9F4F0895E89409C097FB3EF464
:100C500090958095709561957F4F8F4F9F4F992309
:100C6000A9F0F92F96E9BB279395F6958795779587
:100C70006795B795F111F8CFFAF4BB0F11F460FF47
:100C80001BC06F5F7F4F8F4F9F4F16C0882311F09F
:100C900096E911C0772321F09EE8872F762F05C0B3
:100CA000662371F096E8862F70E060E02AF09A954E
:100CB000660F771F881FDAF7880F9695879597F943
:100CC000089597F99F6780E870E060E008959FEFCE
:100CD00080EC089500240A941616170618060906D3
:100CE000089500240A9412161306140605060895A2
:100CF000092E0394000C11F4882352F0BB0F40F42A
:100D0000BF2B11F460FF04C06F5F7F4F8F4F9F4F69
:100D1000089557FD9058440F551F59F05F3F71F0EB
:100D20004795880F97FB991F61F09F3F79F0879552
:100D30000895121613061406551FF2CF4695F1DFDB
:100D400008C0161617061806991FF1CF869571056B
:100D5000610508940895E894BB2766277727CB019F
:100D600097F908950BD0C4CFB5DF28F0BADF18F09B
:100D7000952309F0A6CFABCF1124EECFCADFA0F3A5
:100D8000959FD1F3950F50E0551F629FF001729F20
:100D9000BB27F00DB11D639FAA27F00DB11DAA1F3F
:100DA000649F6627B00DA11D661F829F2227B00D8C
:100DB000A11D621F739FB00DA11D621F839FA00D17
:100DC000611D221F749F3327A00D611D231F849F67
:100DD000600D211D822F762F6A2F11249F575040BE
:100DE0008AF0E1F088234AF0EE0FFF1FBB1F661F59
:100DF000771F881F91505040A9F79E3F510570F012
:100E000060CFAACF5F3FECF3983EDCF386957795F1
:100E10006795B795F795E7959F5FC1F7FE2B880F0C
:100E2000911D9695879597F9089597FB092E0726AA
:100E30000AD077FD04D049D006D000201AF470956E
:100E400061957F4F0895F6F7909581959F4F08958E
:100E5000A1E21A2EAA1BBB1BFD010DC0AA1FBB1FBE
:100E6000EE1FFF1FA217B307E407F50720F0A21B30
:100E7000B30BE40BF50B661F771F881F991F1A949D
:100E800069F760957095809590959B01AC01BD01C7
:100E9000CF01089597FB092E05260ED057FD04D0EB
:100EA000D7DF0AD0001C38F4509540953095219535
:100EB0003F4F4F4F5F4F0895F6F79095809570958F
:100EC00061957F4F8F4F9F4F0895AA1BBB1B51E128
:100ED00007C0AA1FBB1FA617B70710F0A61BB70BAA
:100EE000881F991F5A95A9F780959095BC01CD014F
:100EF0000895EE0FFF1F0590F491E02D0994F894EA
:020F0000FFCF21
:100F0200583A20002F000A00593A200062656769AA
:0E0F12006E0004000500000000002B0101002D
:00000001FF
