:100000000C947A020C94A7020C94A7020C94A702F9
:100010000C94A7020C94A7020C94A7020C94A702BC
:100020000C94A7020C94A7020C94A7020C94A702AC
:100030000C94A7020C94A7020C94A7020C94A7029C
:100040000C94A7020C94A7020C94A7020C94A7028C
:100050000C94A7020C94A7020C94A7020C94CC2534
:100060000C94A7020C94A7020C94A7020C94A7026C
:100070000C94A7020C94A7020C94A7020C94A7025C
:100080000C94A7020C94A7020C94A7020C94A7024C
:100090000C9469260C94A7020C94A7020C94A70256
:1000A0000C94A7020C94A7020C94A7020C94A7022C
:1000B0000C94A7020C94A7020C94A7020C94A7021C
:1000C0000C94A7020C94A7020C94A7020C94A7020C
:1000D0000C94A7020C94A7020C94A7020C94A702FC
:1000E0000C94A7027C208920962099209F20A9208B
:1000F000B320C420DB20FA2019212C213F219E218E
:10010000BD21EA217C210000000000000020202009
:1001100020200020505000000000005050F850F8FF
:1001200050502078A070283020C0C8102040981867
:1001300040A040A0908870101020000000002040D7
:10014000404040402010080808080810008850F877
:10015000508800002020F8202000000000004040CF
:1001600080000000F80000000000000000C0C00097
:10017000081020408000708898A8C88870206020EF
:1001800020202070700808708080F8F0080870083F
:1001900008F008182848F80808F88080F0088870E7
:1001A000708080F0888870F808081020408070887F
:1001B000887088887070888878102040000060609F
:1001C00000606000006060002040102040804020FF
:1001D000100000F800F800004020100810204070C7
:1001E000880830400040202070F0F0F8F82058884F
:1001F000F8888888F08888F08888F0708880808007
:100200008870F08888888888F0F88080F08080F88E
:10021000F88080F0808080708880809888788888D6
:1002200088F888888870202020202070F81010100E
:100230009090608890A0C0A090888080808080800E
:10024000F888D8A88888888888C8A89888888870F6
:10025000888888888870F08888F080808070888896
:1002600088A89878F08888F0A090887880807008B6
:1002700008F0F8202020202020888888888888702E
:100280008888888888502088888888A8D88888881E
:10029000502050888888888850202020F808102016
:1002A0004080F8E08080808080E00080402010085E
:1002B00000380808080808382050880000000000AE
:1002C0000000000000F8101008000000000000709E
:1002D000888898688080F0888888F000007880801E
:1002E00080780808788888887800007088F8807896
:1002F00010287020202020000070887808708080EE
:10030000F0888888882000202020202020002020BD
:1003100020A04080808890A0D0882020202020200D
:10032000200000D0A8A8A8A80000B0C8888888002D
:100330000070888888700000F088F0808000007865
:10034000887808080000B0C880808000007880703D
:1003500008F02020702020203000008888889868CD
:100360000000888888502000008888A8A8500000D5
:10037000885020508800008888F808700000F81025
:100380002040F820404080404020202020002020B5
:10039000202010100810102050A0000000000000C5
:1003A000000000000000000000000000000000004D
:1003B000000000000000000000000000000000003D
:1003C000000000000000000000000000000000002D
:1003D000000000000000000000000000000000001D
:1003E000000000000000000000000000000000000D
:1003F00000000000000000407A10F35A00A0724E86
:1004000018090010A5D4E80000E87648170000E4B9
:100410000B54020000CA9A3B000000E1F505000001
:1004200080969800000040420F000000A086010066
:100430000000102700000000E80300000000640036
:10044000000000000A0000000000010000000000A1
:100450002C76D888DC674F0823DFC1DFAE59E1B1C5
:10046000B796E5E3E453C63AE651997696E8E6C2D4
:100470008426EB898C9B62ED407C6FFCEFBC9C9FDB
:1004800040F2BAA56FA5F490055A2AF75C936B6CFD
:10049000F9676DC11BFCE0E40D47FEF520E6B500F1
:1004A000D0ED902E0300943577050080841E08005F
:1004B00000204E0A000000C80C333333330F986E0F
:1004C00012831141EF8D2114893BE65516CFFEE6CC
:1004D000DB18D1844B381BF77C1D901DA4BBE42492
:1004E000203284725E228100C9F124ECA1E53D270F
:1004F000620F7D1311241FBECFEFD1E2DEBFCDBF4F
:1005000000E00CBF14E0A0E0B2E0E0E6F8E600E0B6
:100510000BBF02C007900D92AE30B107D9F71BBEDA
:1005200015E0AEE0B4E001C01D92A130B107E1F7E3
:1005300014E0C4EFD4E004C02297FE010E94F3331C
:10054000C03FD107C9F70E947E040C942E340C944E
:1005500000008F929F92AF92BF92CF92DF92EF9264
:100560000F931F93DF93CF93CDB7DEB7C658D0401C
:100570000FB6F894DEBF0FBECDBF19821A821B8260
:100580001C828FEF8D831E8297E0A92EB12CAC0EBA
:10059000BD1EC50160E072E00E947E2C8BE0882EBB
:1005A00082E0982EC501B4010E94732CC5016DE054
:1005B00072E00E94732CC50165E070E04AE050E0F3
:1005C0000C811D812E81C980DA80EB800E94FF0999
:1005D000C50164E172E00E947E2CC5016FE272E009
:1005E0000E94732CC501B4010E94732CC5016CE3F9
:1005F00072E00E94732CC5016FE372E00E94732CBD
:10060000C50165E070E045E150E00C811D812E815F
:10061000C980DA80EB800E94FF0919821A821B824E
:1006200060E070E080E00E94A50ACA57DF4F0FB675
:10063000F894DEBF0FBECDBFCF91DF911F910F9118
:10064000EF90DF90CF90BF90AF909F908F900895E4
:100650004091DA025091DB0265E070E00E94081FD1
:100660008091DA029091DB020F969093DB028093E7
:10067000DA02813F910534F08FE090E09093DB0245
:100680008093DA020895CF92DF92EF92FF920F9358
:100690001F932CE2C22E24E0D22EC6010E94A41089
:1006A000F82EEE24C6010E94A4106C0164E170E0F3
:1006B00080E090E00E94A825EC0CFD1C0027F7FCD0
:1006C0000095102FC801B7010E947D3220E030E074
:1006D00040E251E40E94E2311F910F91FF90EF90B0
:1006E000DF90CF90089580E060E040E00E945B1BC7
:1006F00082E492E060E070E045E050E00E94081F74
:1007000088E792E062E170E04AE350E00E94081F4F
:100710008AE892E062E170E04EE450E00E94081F37
:100720008CE992E062E170E042E150E00E94081F33
:100730008EEA92E062E170E046E250E00E94081F1B
:1007400080EC92E062E170E042E650E00E94081F17
:1007500088C08CE294E066E40E94670F0E94430325
:1007600060931604709317048093180490931904EF
:100770000E94430360931A0470931B0480931C042B
:1007800090931D040E94430360930E0470930F0422
:1007900080931004909311040E9443036093120409
:1007A0007093130480931404909315048CE294E0E6
:1007B00068E50E94670F0E944303609322047093D0
:1007C000230480932404909325046091160470916F
:1007D0001704809118049091190448E750E02AE327
:1007E00030E00E94211F60911A0470911B048091D7
:1007F0001C0490911D0448E750E02EE430E00E9474
:10080000211F60910E0470910F048091100490914B
:10081000110448E750E022E130E00E94211F60917E
:10082000120470911304809114049091150448E708
:1008300050E026E230E00E94211F60912204709176
:100840002304809124049091250448E750E022E697
:1008500030E00E94211F64E670E080E090E00E949A
:10086000A82586E294E00E943123882309F471CF01
:1008700086E294E00E9431238823D1F760E040E0D3
:100880000E945B1B82ED92E060E070E040E050E08F
:100890000E941C0686E294E00E9431238823D1F353
:1008A00086E294E00E9431238823D1F708950F93C4
:1008B0001F930CE214E0C80140E855E260E070E0EC
:1008C0000E94A71068EB7BE080E090E00E94A825E2
:1008D000C80165E50E94670F80E060E040E00E948B
:1008E0005B1B8FEF6FEF4FEF0E94E6128FEF6FEF02
:1008F0004FEF0E949D121F910F9108950E94C325F2
:100900000E94A9020E9457040E947303FDCF08951C
:1009100081E008952BE030E0A901849F9001859F3C
:10092000300D949F300D1124442737FD4095542FEE
:10093000CB01BA01A9012BE030E00E94A60808957E
:100940002F923F924F925F926F927F928F929F92DF
:10095000AF92BF92CF92DF92EF92FF920F931F93CD
:10096000DF93CF93CDB7DEB7C152D2400FB6F89424
:10097000DEBF0FBECDBF1B01C05EDD4F5983488374
:10098000C052D240F8942BE030E0829FA001839FB8
:10099000500D929F500D1124662757FD6095762FBC
:1009A000CE0101960E94A6088981803214F480E06D
:1009B00028C18885482F50E060E070E0F42EEE24D6
:1009C000DD24CC24898590E0A0E0B0E0DC0199270B
:1009D0008827C82AD92AEA2AFB2A8B8590E0A0E03A
:1009E000B0E0C82AD92AEA2AFB2A8A8590E0A0E04A
:1009F000B0E0BA2FA92F982F8827C82AD92AEA2A27
:100A0000FB2A8E01045F1F4FC801B701A60122E037
:100A100030E00E94A6088C85282F30E0C25EDD4FB2
:100A200039832883CE51D2408D85A82FB0E0C45E93
:100A3000DD4FB983A883CC51D24022E0422E512C05
:100A4000612C712C4C0C5D1C6E1C7F1CC801B30109
:100A5000A20120E132E00E94A608BFEF2B16BFEFF3
:100A60003B0609F043C0C05EDD4FE881F981C0520A
:100A7000D240EF5FFF4FD1F590E4292E91E0392E5F
:100A8000C25EDD4F88819981CE51D240281A390A41
:100A90003594279480EF90E0C45EDD4FA881B98142
:100AA000CC51D2408A1B9B0B62E070E00E94A133C4
:100AB000C05EDD4F79836883C052D24077FF06C0A5
:100AC000C05EDD4F19821882C052D24010929D0440
:100AD00010929F0410929E0480E090E060E070E02D
:100AE0004FE351E02FEE30E00E94DA0BC45EDD4FA1
:100AF000E881F981CC51D240BF01882777FD8095EC
:100B0000982FC25EDD4FA881B981CE51D2409D01A0
:100B1000442737FD4095542F0E946E336B017C01B2
:100B200000E010E0AA24BB24882499245AC0ECE0F9
:100B3000F0E0EC0FFD1FE00FF11F808180939D041A
:100B4000C8010196ECE0F0E0EC0FFD1FE80FF91F83
:100B5000208120939F040196ECE0F0E0EC0FFD1F54
:100B6000E80FF91F208120939E048C010F5F1F4F17
:100B7000C05EDD4F68817981C052D240680D791D19
:100B8000C501820D931D0E94480B0894A11CB11C45
:100B9000C25EDD4FE881F981CE51D240AE16BF066C
:100BA0002CF00894811C911CAA24BB24F2E0003193
:100BB0001F0794F080E192E0A0E0B0E0480E591EDB
:100BC0006A1E7B1ECE010C96B301A20120E132E029
:100BD0000E94A60800E010E00894C108D108E108CE
:100BE000F108C45EDD4FA881B981CC51D2408A168C
:100BF0009B0634F4C114D104E104F10409F097CF49
:100C000081E07894CF5DDD4F0FB6F894DEBF0FBE64
:100C1000CDBFCF91DF911F910F91FF90EF90DF90AB
:100C2000CF90BF90AF909F908F907F906F905F908C
:100C30004F903F902F9008954F925F926F927F92C6
:100C40008F929F92AF92BF92CF92DF92EF92FF92DC
:100C50000F931F93DF93CF93CDB7DEB72B970FB6CC
:100C6000F894DEBF0FBECDBF5C013B012A01F894B2
:100C7000CC24DD24EE24FF2487014E010894811C3E
:100C8000911CC401B801A7012BE030E00E94A60826
:100C9000C501B40147E050E00E94852C009731F473
:100CA000C601B301A2010E94A00410C00894C11C97
:100CB000D11C8BE090E0A0E0B0E0E80EF91E0A1F26
:100CC0001B1F9CE2C916D104E1F680E078942B96B4
:100CD0000FB6F894DEBF0FBECDBFCF91DF911F914D
:100CE0000F91FF90EF90DF90CF90BF90AF909F90CB
:100CF0008F907F906F905F904F9008956F927F924A
:100D00008F929F92AF92BF92CF92DF92EF92FF921B
:100D10000F931F93DF93CF93CDB7DEB76B970FB6CB
:100D2000F894DEBF0FBECDBF5B014A0139019BE0E5
:100D3000899FA0011124662757FD6095762F8E01AB
:100D40000F5F1F4FC8012BE030E00E94A608C501CD
:100D5000B80147E050E00E94932CD5018C9180327D
:100D60000CF49EC080E217968C93179718968C937C
:100D7000189719968C9319971A961C928CE0E82E66
:100D8000F12CEC0EFD1EEDB7FEB73C970FB6F894B4
:100D9000FEBF0FBEEDBF3196ADB7BEB71296FC9247
:100DA000EE9211978CED92E0938382838885848301
:100DB00015828985868317828A85808711868B852F
:100DC000828713860E94A22CEDB7FEB73C960FB621
:100DD000F894FEBF0FBEEDBFC501B7010E94732C92
:100DE000488550E060E070E0742F6627552744275F
:100DF000898590E0A0E0B0E0DC0199278827482BA6
:100E0000592B6A2B7B2B8B8590E0A0E0B0E0482B20
:100E1000592B6A2B7B2B8A8590E0A0E0B0E0BA2F9B
:100E2000A92F982F8827482B592B6A2B7B2BC7017A
:100E300022E030E00E94A6080C85CC241D85DD242C
:100E40008DB79EB708970FB6F8949EBF0FBE8DBFA3
:100E5000EDB7FEB73196ADB7BEB71296FC92EE92E3
:100E600011978EEE92E0938382830483C58216836A
:100E7000D7820E94A22CEDB7FEB738960FB6F89431
:100E8000FEBF0FBEEDBFC501B7010E94732CD40198
:100E90000C931196CC92F3011083D18281E003C0B0
:100EA000D5011C9280E06B960FB6F894DEBF0FBEA2
:100EB000CDBFCF91DF911F910F91FF90EF90DF9009
:100EC000CF90BF90AF909F908F907F906F9008953C
:100ED0004F925F926F927F928F929F92AF92BF924A
:100EE000CF92DF92EF92FF920F931F93DF93CF93F6
:100EF000CDB7DEB7AF970FB6F894DEBF0FBECDBF4C
:100F00005C013B012A01F894CC24DD24EE24FF246B
:100F1000870195E0892E912C8C0E9D1EC401B8018D
:100F2000A7012BE030E00E94A608C501B40147E00C
:100F300050E00E94852C0097C1F48C2DBE01605FAB
:100F40007F4FAE014F5F5F4F9E012D5F3F4F0E946D
:100F50007E0689819A81D3018D939C938B819C819C
:100F6000F2019183808381E010C00894C11CD11CE0
:100F70008BE090E0A0E0B0E0E80EF91E0A1F1B1F16
:100F80009CE2C916D10451F680E07894AF960FB672
:100F9000F894DEBF0FBECDBFCF91DF911F910F91AF
:100FA000FF90EF90DF90CF90BF90AF909F908F9089
:100FB0007F906F905F904F9008952398259A249A80
:100FC000229A219A209A2D98000000002D9A289AA2
:100FD0002C9A8CE58CBD81E08DBD0895AC012C98D8
:100FE00084E88EBD0DB407FEFDCF1EBC0DB407FE18
:100FF000FDCF1EBC0DB407FEFDCF1EBC0DB407FE19
:10100000FDCF20E030E0FA01E20FF31F80818EBDBA
:101010000DB407FEFDCF2F5F3F4F82E02031380730
:1010200091F72C9A0895AC012C9884ED8EBD0DB4E7
:1010300007FEFDCF1EBC0DB407FEFDCF1EBC0DB4D8
:1010400007FEFDCF1EBC0DB407FEFDCF8FEF8EBD9A
:101050000DB407FEFDCF20E030E09FEF9EBD0DB444
:1010600007FEFDCF8EB5FA01E20FF31F80832F5FDD
:101070003F4F82E02031380789F72C9A08952C9849
:1010800084E88EBD0DB407FEFDCF1EBC0DB407FE77
:10109000FDCF1EBC0DB407FEFDCF1EBC0DB407FE78
:1010A000FDCF80E090E02FEF2EBD0DB407FEFDCF09
:1010B000019632E080319307B9F72C9A089508958C
:1010C0008EBD0DB407FEFDCF08952C9A2C9887E5B0
:1010D0008EBD0DB407FEFDCF1EBC0DB407FEFDCFC7
:1010E0008EB52C9A881F8827881F08950F931F9309
:1010F000CF93DF938C01EB010E943F08C8010E944F
:10110000EE072C9883E88EBD0DB407FEFDCFCE010F
:1011100026E0969587952A95E1F78EBD0DB407FEDA
:10112000FDCF9E01220F220F2EBD0DB407FEFDCF75
:101130001EBC0DB407FEFDCF2C9A0E9465088823C3
:10114000E1F3DF91CF911F910F9108958F929F92BC
:10115000AF92BF92CF92DF92EF92FF920F931F93C5
:10116000CF93DF934C017A018B01E901CB01BA01E6
:1011700020E132E040E050E00E94B43359016A01BE
:10118000C601B50120E132E040E050E00E946E333C
:10119000E61AF70A080B190B0E943F082C9888E6FC
:1011A0008EBD0DB407FEFDCFD601C50146E0B69554
:1011B000A795979587954A95D1F78EBD0DB407FEF3
:1011C000FDCFBB27A12F902F8F2D2A2D220F220F6D
:1011D000282B2EBD0DB407FEFDCFEEBC0DB407FECF
:1011E000FDCF8FEF8EBD0DB407FEFDCF8EB58FEF17
:1011F0008EBD0DB407FEFDCF8EB58FEF8EBD0DB445
:1012000007FEFDCF8EB58FEF8EBD0DB407FEFDCF6F
:101210008EB520E030E09FEF0CC09EBD0DB407FE00
:10122000FDCF8EB5F401E20FF31F808300002F5F26
:101230003F4F2C173D0788F32C9ADF91CF911F91D8
:101240000F91FF90EF90DF90CF90BF90AF909F9065
:101250008F900895EF92FF920F931F93CF93DF9398
:101260007C01EB018A010E943F082C9888E68EBD24
:101270000DB407FEFDCFCE0156E0969587955A95A1
:10128000E1F78EBD0DB407FEFDCF9E01220F220FA8
:101290002EBD0DB407FEFDCF1EBC0DB407FEFDCF65
:1012A0008FEF8EBD0DB407FEFDCF8EB58FEF8EBDD7
:1012B0000DB407FEFDCF8EB58FEF8EBD0DB407FECA
:1012C000FDCF8EB58FEF8EBD0DB407FEFDCF8EB571
:1012D00020E030E09FEF0CC09EBD0DB407FEFDCFB7
:1012E0008EB5F701E20FF31F808300002F5F3F4FA1
:1012F0002017310788F32C9ADF91CF911F910F911E
:10130000FF90EF9008954F925F926F927F928F922D
:101310009F92AF92BF92CF92DF92EF92FF920F9384
:101320001F93DF93CF9300D000D0CDB7DEB72B0152
:101330003A01602F0983712F1A832B83CC82DD82BF
:10134000EE82082F10E000521040822F0E94A50A62
:10135000680133E0CC0CDD1C3A95E1F7C01AD10AE4
:1013600086E091E0C80ED91E88249924F601849164
:1013700030E0932F5C018201EE24FF24C5018078C8
:101380009070AA0CBB1C892B21F069817A818B811A
:1013900003C06C817D818E810E94A50AC801B301C2
:1013A0000E94480B0894E11CF11C0F5F1F4FF5E0F1
:1013B000EF16F10419F70894811C911C0894C11CC4
:1013C000D11C0894611C711C87E08816910471F689
:1013D00026960FB6F894DEBF0FBECDBFCF91DF913A
:1013E0001F910F91FF90EF90DF90CF90BF90AF9043
:1013F0009F908F907F906F905F904F9008956F9225
:101400007F928F929F92AF92BF92CF92DF92EF9294
:101410000F931F93DF93CF9300D000D0CDB7DEB7EB
:101420004C015B013A0109831A832B83CC82DD8254
:10143000EE8211C00894811C911CB501A3010981A1
:101440001A812B81CC80DD80EE800E94830986E0AA
:1014500090E0A80EB91EF4018081882359F72696E2
:101460000FB6F894DEBF0FBECDBFCF91DF911F91B5
:101470000F91EF90DF90CF90BF90AF909F908F90A3
:101480007F906F900895DF93CF930F92CDB7DEB723
:101490008983EBE0F1E080818F77808380818B7F8F
:1014A000808380818061808380818F7D808318B874
:1014B0008981829586958770880F880F82B9898186
:1014C000880F880F880F8093050180818062808358
:1014D0008081846080838081806880830F90CF9139
:1014E000DF910895DF93CF930F920F92CDB7DEB7C0
:1014F00089839A83EBE0F1E080818068808380813A
:101500008B7F808380818F7D80838981880F880F86
:10151000880F80930501898186958695869582B985
:1015200092B18A818295880F880F807C892B82B93D
:101530008A8188B980818062808380818460808391
:101540000F900F90CF91DF910895DF93CF9300D04C
:10155000CDB7DEB760939D0470939E0480939F0483
:101560000F900F900F90CF91DF910895EBE0F1E095
:1015700080818B7F8083808180688083808180618F
:10158000808380818F7D808380919F04809305017B
:1015900080919E0482B980919D0488B98081806287
:1015A00080838081846080830895CF92DF92EF9260
:1015B000FF920F931F93CF93DF936A017901141663
:1015C00015060CF05CC0121613060CF058C097FFFD
:1015D00004C0C80ED91E80E090E077FF04C0E60E7C
:1015E000F71E60E070E08C0121E08034920714F077
:1015F0000FE311E0EB01603F710514F0CFEED0E096
:10160000C8018C0D9D1D8054914034F02FE3C22EF3
:1016100021E0D22EC01AD10ACE018E0D9F1D803F2F
:1016200091052CF09FEEE92EF12CEC1AFD0A85E3D2
:101630000E94430AC8010E94720A86E30E94430A7C
:10164000C601800F911F0E94720A87E30E94430A1D
:10165000EC0EFD1E9C2F88278E299F290E94720A5E
:1016600080E20E94430ACE010E94720A81E20E9437
:10167000430AC8010E94720A82E20E94430ADF9173
:10168000CF911F910F91FF90EF90DF90CF90089531
:101690000F931F93CF93DF938C01EB0181E0003414
:1016A0001807B4F5603F71059CF517FD31C077FD53
:1016B0002FC080E20E94430ACE0190700E94720AFD
:1016C00081E20E94430AC80191700E94720A82E27C
:1016D0000E94430A80910B018B7F80930B018091C4
:1016E0000B018F7D80930B0180919F0480930501F6
:1016F00080919E0482B980919D0488B980910B01EC
:10170000806280930B0180910B01846080930B01B8
:10171000DF91CF911F910F910895CF92DF92EF92B9
:10172000FF920F931F93CF93DF936C017B018A018C
:1017300080E20E94430AC80190700E94720A81E20E
:101740000E94430AC70191700E94720A82E20E94BD
:10175000430AA4E0B1E01C9211B817B8EBE0F1E045
:1017600080818062808380818B7F808380818F7E77
:10177000808380818F7E808380818F7E8083809133
:101780000301E6018A8380B1898386B188838081E1
:10179000806180838081846080838FEF8C9381B9A6
:1017A00087B9DF91CF911F910F91FF90EF90DF905C
:1017B000CF900895AF92BF92CF92DF92EF92FF92B7
:1017C0000F931F93FC0181E0E034F8070CF0C2C2D4
:1017D000603F71050CF0BEC2141615060CF0BAC2BB
:1017E000121613060CF0B6C25A01CC24B7FCC094F2
:1017F000DC2CCF01AA2797FDA095BA2F8A0D9B1D3F
:10180000AC1DBD1D80549140A040B0404CF08FE312
:1018100091E08E1B9F0B5C01CC24B7FCC094DC2CA8
:1018200079010027F7FC0095102FCB01AA2797FD1F
:10183000A095BA2F8E0D9F1DA01FB11F803F91054F
:10184000A105B1054CF08FEE90E0861B970B7C0153
:101850000027F7FC0095102FCF01A50197010E94EA
:10186000D50A80910B018B7F80930B0180919F049F
:101870008093050180919E0482B980919D0488B96E
:10188000C801B701A60195010E946E33615F7F4FC9
:101890008F4F9F4F9B01AC01E4E0559547953795DD
:1018A0002795EA95D1F76F5070408040904067705F
:1018B000707080709070673071058105910509F432
:1018C00053C1633071058105910509F4D1C16430BC
:1018D00071058105910594F46130710581059105CB
:1018E00009F408C262307105810591050CF0E1C16F
:1018F000611571058105910571F027C2653071058B
:101900008105910509F472C1663071058105910563
:101910000CF04BC18CC180E28093090180930901D6
:101920008093090180930901809309018093090143
:101930008093090180930901809309018093090133
:101940008093090180930901809309018093090123
:10195000809309018093090180E2809309018093BB
:101960000901809309018093090180930901809303
:1019700009018093090180930901809309018093F3
:1019800009018093090180930901809309018093E3
:101990000901809309018093090180E28093090184
:1019A00080930901809309018093090180930901C3
:1019B00080930901809309018093090180930901B3
:1019C00080930901809309018093090180930901A3
:1019D00080930901809309018093090180E280933B
:1019E0000901809309018093090180930901809383
:1019F0000901809309018093090180930901809373
:101A00000901809309018093090180930901809362
:101A1000090180930901809309018093090180E203
:101A20008093090180930901809309018093090142
:101A30008093090180930901809309018093090132
:101A40008093090180930901809309018093090122
:101A50008093090180930901809309018093090112
:101A600080E28093090180930901809309018093AA
:101A700009018093090180930901809309018093F2
:101A800009018093090180930901809309018093E2
:101A900009018093090180930901809309018093D2
:101AA000090180E280930901809309018093090173
:101AB00080930901809309018093090180930901B2
:101AC00080930901809309018093090180930901A2
:101AD0008093090180930901809309018093090192
:101AE0008093090180E2809309018093090180932A
:101AF0000901809309018093090180930901809372
:101B00000901809309018093090180930901809361
:101B10000901809309018093090180930901809351
:101B200009018093090180E28093090180930901F2
:101B30008093090180930901809309018093090131
:101B40008093090180930901809309018093090121
:101B50008093090180930901809309018093090111
:101B6000809309018093090180E2809309018093A9
:101B700009018093090180930901809309018093F1
:101B800009018093090180930901809309018093E1
:101B900009018093090180930901809309018093D1
:101BA0000901809309018093090180E28093090172
:101BB00080930901809309018093090180930901B1
:101BC00080930901809309018093090180930901A1
:101BD0008093090180930901809309018093090191
:101BE00080930901809309018093090180E2809329
:101BF0000901809309018093090180930901809371
:101C00000901809309018093090180930901809360
:101C10000901809309018093090180930901809350
:101C2000090180930901809309018093090180E2F1
:101C30008093090180930901809309018093090130
:101C40008093090180930901809309018093090120
:101C50008093090180930901809309018093090110
:101C60008093090180930901809309018093090100
:101C700080E2809309018093090180930901809398
:101C800009018093090180930901809309018093E0
:101C900009018093090180930901809309018093D0
:101CA00009018093090180930901809309018093C0
:101CB000090180E280930901809309018093090161
:101CC00080930901809309018093090180930901A0
:101CD0008093090180930901809309018093090190
:101CE0008093090180930901809309018093090180
:101CF0008093090180E28093090180930901809318
:101D0000090180930901809309018093090180935F
:101D1000090180930901809309018093090180934F
:101D2000090180930901809309018093090180933F
:101D30000901809309012150304040405040121663
:101D40001306140615060CF4E6CD80910B01846091
:101D500080930B011F910F91FF90EF90DF90CF9038
:101D6000BF90AF90089580E20E94430A80E090E027
:101D70000E94720A81E20E94430A80E090E00E9481
:101D8000720A82E20E94430A80910B018B7F80934A
:101D90000B0180919F048093050180919E0482B97C
:101DA00080919D0488B920E639E081C080E280936B
:101DB00009018093090180930901809309018093AF
:101DC000090180930901809309018093090180939F
:101DD000090180930901809309018093090180938F
:101DE000090180930901809309018093090180937F
:101DF000090180930901809309018093090180936F
:101E0000090180930901809309018093090180935E
:101E1000090180930901809309018093090180934E
:101E2000090180930901809309018093090180933E
:101E3000090180930901809309018093090180932E
:101E4000090180930901809309018093090180931E
:101E5000090180930901809309018093090180930E
:101E600009018093090180930901809309018093FE
:101E700009018093090180930901809309018093EE
:101E800009018093090180930901809309018093DE
:101E900009018093090180930901809309018093CE
:101EA0000901809309018093090180930901215060
:101EB00030408FEF2F3F380709F078CF089508950D
:101EC000089508950895862F0E94D2260895862F9A
:101ED0000E94D22608952F923F924F925F926F9266
:101EE0007F928F929F92AF92BF92CF92DF92EF92AA
:101EF000FF920F931F93DF93CF93CDB7DEB7A097D9
:101F00000FB6F894DEBF0FBECDBF6A017B0122235E
:101F100009F42AE0C114D104E104F10421F480E3BE
:101F20000E94D2264BC0882499245401422E552465
:101F3000662477241E010894211C311C8101080DA0
:101F4000191DC701B601A30192010E94B433F80123
:101F500060830894811C911CA11CB11CC701B601AF
:101F6000A30192010E94B433C901DA016C017D0121
:101F7000C114D104E104F10409F77101E80CF91C62
:101F80003E010894611C711CD501C4010197A1098F
:101F9000B1096C01C818D9080EC0F601EE0DFF1D7D
:101FA00080818A3010F4805D01C0895C0E94D22655
:101FB0000894E108F1086E147F0479F7A0960FB633
:101FC000F894DEBF0FBECDBFCF91DF911F910F916F
:101FD000FF90EF90DF90CF90BF90AF909F908F9049
:101FE0007F906F905F904F903F902F9008952AE0E0
:101FF0000E946B0F0895AB0160E070E00E94F70F44
:1020000008958DE00E94D2268AE00E94D22608958B
:102010000F931F938C010E94F70FC8010E940110BB
:102020001F910F9108950F931F938C01862F0E948B
:10203000D226C8010E9401101F910F9108950F939D
:102040001F938C01862F0E94D226C8010E94011086
:102050001F910F910895EF92FF920F931F93CF93CB
:10206000DF93EC017A018B0177FF0BC08DE20E94B8
:10207000D22610950095F094E094E11CF11C011D0E
:10208000111DCE01B801A7012AE00E946B0FDF915C
:10209000CF911F910F91FF90EF9008950F931F9391
:1020A0008C010E942B10C8010E9401101F910F91FA
:1020B0000895AB01662757FD6095762F0E942B107F
:1020C00008950F931F938C01AB01662757FD609510
:1020D000762F0E942B10C8010E9401101F910F91B2
:1020E00008952115310521F4842F0E94D2260895E8
:1020F0002A30310519F40E942B1008950E946B0FAD
:1021000008950F931F938C010E947110C8010E94C3
:1021100001101F910F910895CF93DF93EB0103C03E
:1021200021960E94D22688818823D1F7DF91CF9112
:1021300008950F931F938C010E948C10C8010E9478
:1021400001101F910F9108950E94EB260895CB0175
:10215000BA010E94CF2608952F923F924F925F922C
:102160006F927F928F929F92AF92BF92CF92DF92A7
:10217000EF92FF920F931F93DF93CF93CDB7DEB70C
:102180006A970FB6F894DEBF0FBECDBF3A01882420
:1021900077FC8094982C6F8A788E898E9A8E39017C
:1021A000882477FC8094982C6B8A7C8A8D8A9E8AFE
:1021B0009801442737FD4095542F2F87388B498B42
:1021C0005A8B3701882477FC8094982C6B867C8608
:1021D0008D869E867C010027F7FC0095102FEF82EC
:1021E000F88609871A878B01222717FD2095322F41
:1021F0000B831C832D833E836B897C898D899E890B
:1022000066197709880999092F81388549855A8582
:102210006F88788C898C9A8C261937094809590956
:102220000E946E337B018C016F85788989899A8938
:1022300066197709880999092B813C814D815E8156
:102240006B887C888D889E8826193709480959092A
:102250000E946E33E60EF71E081F191F1E141F047E
:10226000100611062CF401E010E01A8309830CC05B
:10227000E114F1040105110519F41A82198204C050
:102280002FEF3FEF3A8329831601442437FC409413
:10229000542C3501882477FC8094982C6B857C85A0
:1022A0008D859E8566197709880999092F8138855A
:1022B00049855A85EF84F88809891A892E193F09BA
:1022C000400B510B0E946E335B016C01C201B101E6
:1022D0006E197F09800B910B2B813C814D815E81B2
:1022E000EB84FC840D851E852E193F09400B510B94
:1022F0000E946E33A60EB71EC81ED91E1A141B04E8
:102300001C041D0424F481E0C82ED12C0BC0A114A0
:10231000B104C104D10419F4CC24DD2403C0CC24BD
:10232000CA94DC2CC401B3010B891C892D893E8918
:10233000601B710B820B930B2F81388549855A8561
:1023400022193309440955092F83388749875A8749
:102350000E946E337B018C018B819C81AD81BE819B
:1023600086199709A809B9098B839C83AD83BE831D
:102370006F88788C898C9A8C621873088408950809
:102380006F8A788E898E9A8EBC01CD01A40193014B
:102390000E946E33E60EF71E081F191F1E141F043D
:1023A000100611061CF441E050E00AC0E114F104EB
:1023B0000105110519F440E050E002C04FEF5FEF56
:1023C00089809A808C149D0419F484169506B1F0C6
:1023D000E980FA80EF2849F4CD2819F080E0452BF8
:1023E00009F481E0282F30E00BC0CD2819F020E05F
:1023F00030E006C020E030E0452B11F421E030E071
:10240000C9016A960FB6F894DEBF0FBECDBFCF915B
:10241000DF911F910F91FF90EF90DF90CF90BF90D1
:10242000AF909F908F907F906F905F904F903F9074
:102430002F9008952F923F924F925F926F927F92CA
:102440008F929F92AF92BF92CF92DF92EF92FF92C4
:102450000F931F93DF93CF9300D00F92CDB7DEB7CA
:102460001B012C0139014A01A8019701EA8CFB8C60
:102470000C8D1D8D6E8D7F8D88A199A166197709B0
:102480008809990922193309440955090E946E33B4
:1024900069837A838B839C83E218F3080409150906
:1024A0006A187B088C089D08C801B701A401930134
:1024B0000E946E3329813A814B815C81260F371F40
:1024C000481F591F29833A834B835C8312161306D6
:1024D000140615061CF421E030E00DC089819A81B4
:1024E000AB81BC810097A105B10519F420E030E073
:1024F00002C02FEF3FEFC9010F900F900F900F9088
:10250000CF91DF911F910F91FF90EF90DF90CF90CF
:10251000BF90AF909F908F907F906F905F904F9003
:102520003F902F90089591E09093090380932D049C
:1025300080932E0480932F04089591E090930903D3
:1025400080932D0460932E0440932F0408951092DD
:1025500009030895109208031092070310920603CE
:10256000089580932D0460932E0440932F040895C2
:102570008093FD026093FE024093FF0208959B0149
:102580009093030380930203709305036093040305
:1025900062E070E00E94A1337093410460934004B4
:1025A000C90162E070E00E94A1337093430460931C
:1025B000420408958093FD028093FE028093FF02FF
:1025C0000895909307038093060308958093FD0276
:1025D0006093FE024093FF020895FC0191812281E5
:1025E00080818093FD029093FE022093FF02089564
:1025F000FC0191812281808180932D0490932E048F
:1026000020932F040895FA019C018081918128175D
:10261000390790F0848195818217930768F0828151
:1026200093816817790740F040E08681978186178B
:10263000970718F041E001C040E0842F0895FA01A7
:10264000AC01808191816817790790F08481958130
:102650008617970768F0828193814817590740F0E1
:1026600020E0868197818417950718F021E001C04A
:1026700020E0822F0895FC0180819181860F971FB1
:102680009183808384819581861B970B95838483B6
:1026900082819381860F971F93838283868197819E
:1026A000861B970B978386830895FC018081918117
:1026B000860F971F9183808384819581860F971F52
:1026C0009583848382819381840F951F9383828372
:1026D00086819781840F951F9783868308950F9332
:1026E0001F93FC017183608353834283358324836A
:1026F000178306831F910F9108958091F90290919D
:10270000FA0262E070E00E94A1337093410460938A
:1027100040048091FB029091FC0262E070E00E9414
:10272000A13370934304609342040895EF92FF92A3
:102730000F931F93DF93CF9300D0CDB7DEB78C01FB
:102740007B01622F2983732F3A83842F4B830E944E
:10275000A50AC801B7010E94480B0F900F900F9077
:10276000CF91DF911F910F91FF90EF9008952F92DD
:102770003F924F925F926F927F928F929F92AF9211
:10278000BF92CF92DF92EF92FF920F931F93DF934E
:10279000CF93CDB7DEB72F970FB6F894DEBF0FBE3D
:1027A000CDBF9D878C877F876E872A01FA01808144
:1027B000282F30E03B872A878181482F50E05987B6
:1027C0004887429FC001439F900D529F900D112456
:1027D00002969F838E83CC24DD246624772462E0D6
:1027E000A62EB12C5FEFE52EF12C8AC0F201EA0D86
:1027F000FB1D7081072F10E00894A11CB11C0F3F36
:10280000110509F470C0C801807C90708038910572
:1028100009F046C0F801EF73F070FD83EC83F2011C
:10282000EA0DFB1D7081272E3324672F6073660F1E
:10283000660F615C69837C707295707F715C7A83CE
:10284000C10146E0880F991F4A95E1F7815C8B83AF
:102850000E94A50AEC84FD84EC0CFD1C0C811D81FA
:102860008E849F84860C971C0DC0FFEF2F163104B9
:1028700021F0C701B4010E94480B01501040089498
:10288000E11CF11C0115110581F72C813D81C20E5F
:10289000D31E0894A11CB11C3FEFE32EF12C26C0DF
:1028A0000E151F05B1F0672F6073660F660F615C30
:1028B00069837C707295707F715C7A83C80126E0B1
:1028C000880F991F2A95E1F7815C8B830E94A50AE6
:1028D00078016E857F85660D771D8C859D858C0DB5
:1028E0009D1D0E94480B0894C11CD11C4A855B8524
:1028F000C416D5062CF00894611C711CCC24DD2470
:102900008E819F81A816B90634F4E885F9856E1684
:102910007F060CF46BCF2F960FB6F894DEBF0FBE78
:10292000CDBFCF91DF911F910F91FF90EF90DF907E
:10293000CF90BF90AF909F908F907F906F905F905F
:102940004F903F902F900895EF92FF920F931F9317
:102950008C017B016091FD027091FE028091FF026B
:102960000E94A50AC801B7010E94480B1F910F9150
:10297000FF90EF9008952F923F924F925F926F9247
:102980007F928F929F92AF92BF92CF92DF92EF92FF
:10299000FF920F931F93CF93DF934C015B011A01BA
:1029A00039012617370724F414014A013B01590164
:1029B000C401B5010E94480BE101C819D909D7FD2E
:1029C00004C0F1E04F2E512C06C0D095C195DF4FC9
:1029D00044244A94542C83010A191B0939F00CC071
:1029E000840C951CC401B5010E94480B21978FEF00
:1029F000CF3FD807A9F768C0209759F40894A11CC5
:102A0000B11CC401B5010E94480B01501040B1F740
:102A10005BC0C017D10769F4840C951C0894A11CF5
:102A2000B11CC401B5010E94480B01501040A1F730
:102A30004BC06E01EE24D7FCE094FE2C9801442795
:102A400037FD4095542FC017D107ECF4C601772706
:102A500066270E94B433790180E090E010C0EC0159
:102A6000CE0DDF1D8C179D0710F0840C951C08946B
:102A7000A11CB11CC401B5010E94480BCE0101503C
:102A8000104069F71DC0C90177276627A701960185
:102A90000E94B433790180E090E010C08C010E0DEB
:102AA0001F1D8017910718F00894A11CB11C840CFD
:102AB000951CC401B5010E94480BC801219771F70C
:102AC000C101B3010E94480BDF91CF911F910F917B
:102AD000FF90EF90DF90CF90BF90AF909F908F903E
:102AE0007F906F905F904F903F902F900895AF929E
:102AF000BF92CF92DF92EF92FF920F931F938C01C0
:102B00007B016A0159016091FD027091FE02809182
:102B1000FF020E94A50AC801B701A60195010E9403
:102B2000BB141F910F91FF90EF90DF90CF90BF905B
:102B3000AF9008956F927F928F929F92AF92BF92C3
:102B4000CF92DF92EF92FF920F931F93CF93DF9379
:102B5000EC018B017A016901141615060CF06AC0AC
:102B6000121613060CF066C06091FD027091FE0211
:102B70008091FF020E94A50A8091060390910703AD
:102B800047018C0E9D1E3601600E711E0297D4F116
:102B90006E010894C108D10878010894E108F10891
:102BA000AA24BB2421C0C601B701AE0197010E942F
:102BB0007715C601B701A60198010E947715C601D5
:102BC000B801AE0198010E947715CE01B701AE01A0
:102BD00098010E9477150894C108D1080894E1086B
:102BE000F1080894A11CB11C8501060D171DE50113
:102BF000C80DD91D8091060390910703A816B90648
:102C000094F218C0CE01B801A40198010E94771572
:102C1000CE01B301A40193010E947715CE01B80142
:102C2000AE0193010E947715C401B801A40193017C
:102C30000E947715DF91CF911F910F91FF90EF9038
:102C4000DF90CF90BF90AF909F908F907F906F90CC
:102C50000895FC0180819181628173814481558155
:102C6000481B590B26813781261B370B0E949A156A
:102C700008952F923F924F925F926F927F928F9220
:102C80009F92AF92BF92CF92DF92EF92FF920F93FB
:102C90001F93DF93CF93CDB7DEB72E970FB6F8947F
:102CA000DEBF0FBECDBF9E838D8378876F835A872B
:102CB000498719012801370180910803882301F110
:102CC0006091FD027091FE028091FF020E94A50AB0
:102CD0008D819E816F81788549855A8591010E94F9
:102CE000BB1489859A85B101A80197010E94BB1484
:102CF000C801B7014D815E812F8138850E94BB14C8
:102D000080910903882309F489C02D813E8189853A
:102D10009A85281739072CF42415350514F48901F0
:102D200011C08201E985FA85E415F5050CF48F01DF
:102D30002D813E8189859A85821793071CF442165E
:102D4000530654F0E985FA854E165F061CF05C8246
:102D50004B8204C029853A853C832B838F819885DB
:102D60008215930534F4861597051CF48B879C8790
:102D700014C0C3016B869C87261437041CF4C10160
:102D80002B869C87EF81F8852E163F0634F46E164D
:102D90007F061CF4FA83E98308C0621473041CF0F4
:102DA0007A82698202C03A82298260912D047091F0
:102DB0002E0480912F040E94A50A480125C0C40159
:102DC0006D857E854D815E812F81388509851A85C7
:102DD0007101620153010E94AC10892B29F0C401DA
:102DE0006D857E850E94480B2D853E852F5F3F4F68
:102DF0003E872D878D859E85E981FA818E179F07F5
:102E0000F4F20894811C911C2B813C81821693065C
:102E10002CF48B859C859E878D87ECCF2E960FB6E4
:102E2000F894DEBF0FBECDBFCF91DF911F910F9100
:102E3000FF90EF90DF90CF90BF90AF909F908F90DA
:102E40007F906F905F904F903F902F900895EF92FA
:102E5000FF920F931F930E9439161F910F91FF90BD
:102E6000EF9008952F923F924F925F926F927F92D0
:102E70008F929F92AF92BF92CF92DF92EF92FF928A
:102E80000F931F93DF93CF9300D00F920F92CDB784
:102E9000DEB71C017B836A833A0129011D830C8301
:102EA000470180910803898380910903882301F1F8
:102EB000109208031092070310920603C1010E94AA
:102EC0003916C301B2014C815D81940186017501FF
:102ED0000E943916C1016A817B814C815D81940118
:102EE0000E943916E981EE2319F081E080930803EE
:102EF000809108038823E1F0C1016A817B81A301ED
:102F000092010E947715C301B2014C815D81940149
:102F10000E9477158C819D81B401A60195010E94C4
:102F20007715C601B501A1012A813B810E94771561
:102F30000F900F900F900F900F90CF91DF911F91F6
:102F40000F91FF90EF90DF90CF90BF90AF909F9048
:102F50008F907F906F905F904F903F902F9008954B
:102F60002F923F924F925F926F927F928F929F9299
:102F7000AF92BF92CF92DF92EF92FF920F931F9387
:102F8000DF93CF93CDB7DEB7E2970FB6F894DEBFED
:102F90000FBECDBF9CA38BA37EA36DA358A74FA349
:102FA00069012A019201442737FD4095542FCA0137
:102FB000B9010E946E336D8B7E8B8F8B988F76015B
:102FC0000027F7FC0095102FC801B701A801970151
:102FD0000E946E33698B7A8B8B8B9C8B6D897E897B
:102FE0008F89988D24E030E040E050E00E94D63395
:102FF00088279927DC01821B930BA40BB50B8D87C7
:103000009E87AF87B88BC20162E070E00E94A13357
:10301000AA2797FDA095BA2F4D845E846F84788887
:10302000481A590A6A0A7B0A29893A894B895C89B4
:10303000421A530A640A750A4D865E866F86788A3C
:10304000CA01B90124E030E040E050E00E94D633EC
:1030500088279927DC01821B930BA40BB50B8F8F5C
:1030600098A3A9A3BAA3C60162E070E00E94A133AD
:10307000AA2797FDA095BA2F4F8C58A069A07AA0D7
:10308000481A590A6A0A7B0A4F8E58A269A27AA284
:103090002D893E894F89588D421A530A640A750A50
:1030A00049865A866B867C86CA01B90190958095BF
:1030B000709561957F4F8F4F9F4FA80197010E9498
:1030C0006E334B015C016D897E898F89988D0E94DA
:1030D0006E332EEF3FEF4FEF5FEF0E946E332B0109
:1030E0003C0189899A89AB89BC89880F991FAA1FDD
:1030F000BB1F8D839E83AF83B8872D893E894F89FF
:10310000588D220F331F441F551F29833A834B8349
:103110005C83EE24FF2487011AA619A6C4C04BA124
:103120005CA189A59AA5480F591F5E8F4D8FADA14F
:10313000BEA1AC0DBD1DBC8FAB8FCA01BD010E94ED
:10314000480BE9A5FAA5EF2B19F4C114D10411F12C
:103150002BA13CA149A55AA5241B350B3A8F298FD9
:103160002DA03EA02C183D08C901B1010E94480BBA
:1031700089A59AA5892B71F0C114D10459F08D8DC0
:103180009E8DB1010E94480B898D9A8D6B8D7C8D2F
:103190000E94480BA9A5BAA5BD01882777FD809597
:1031A000982F29893A894B895C890E946E33680D72
:1031B000791D8A1D9B1D2D853E854F8558892617B3
:1031C000370748075907F4F4B601882777FD80953B
:1031D000982F2D893E894F89588D0E946E336FA795
:1031E00078AB89AB9AABDC01CB01880D991DAA1D88
:1031F000BB1D2F8D38A149A15AA1281739074A07AD
:103200005B079CF049A55AA54F5F5F4F5AA749A796
:103210008D819E81AF81B885E80EF91E0A1F1B1FA4
:103220008E0C9F1CA01EB11E3EC0D501C4012FA54F
:1032300038A949A95AA9821B930BA40BB50B089472
:10324000C108D10829813A814B815C81240D351D4B
:10325000461D571D49845A846B847C844816590640
:103260006A067B063CF429013A01820E931EA41ED5
:10327000B51E19C089A59AA501969AA789A74D8060
:103280005E806F807884E40CF51C061D171D2901F3
:103290003A01D801C701820F931FA41FB51F880EE2
:1032A000991EAA1EBB1ED7FC08C029A53AA54FA18E
:1032B00058A5421753070CF032CFE2960FB6F89498
:1032C000DEBF0FBECDBFCF91DF911F910F91FF9059
:1032D000EF90DF90CF90BF90AF909F908F907F90B6
:1032E0006F905F904F903F902F900895CF92DF9214
:1032F000EF92FF920F931F938C01FC01C480D58045
:1033000080819181C81AD90AE680F78082819381F1
:10331000E81AF90A60912D0470912E0480912F040F
:103320000E94A50AF8016281738180819181A601C2
:1033300097010E94DA0B1F910F91FF90EF90DF90A1
:10334000CF9008952F923F924F925F926F927F920B
:103350008F929F92AF92BF92CF92DF92EF92FF92A5
:103360000F931F93DF93CF93CDB7DEB72F970FB691
:10337000F894DEBF0FBECDBF3C014B01042F122FCE
:1033800001979E878D879A838983822F992787FD4E
:1033900090959C878B872C01460C571CC201019687
:1033A0009A8789879E838D836B010894C108D10811
:1033B000DC82CB821B010894211C311C8B859C85EF
:1033C000880F991F820D931D98878F83CE010196D8
:1033D0000E947619193024F431E0A32EB12C03C0D9
:1033E00022E0A22EB12CE02FFF27E7FDF095EF7130
:1033F000F070EE0FFF1FE65FFC4F90819F8796FFF6
:1034000018C0C301B401A20194010E94771585017F
:10341000060D171D7201EA18FB08C801B601A701C5
:1034200096010E947715C801B101A70191010E9480
:1034300077158F8585FF1EC00B851C85080D191D0E
:10344000C301B401A30198010E9477157501E80C2E
:10345000F91C0A191B098D859E85B701AC019801DD
:103460000E947715A3014F5F5F4FCA01B701980112
:103470000E9477159F8594FF1EC00B851C85080D43
:10348000191DC201B401A20198010E9477157501AE
:10349000E80CF91CA201415050400A191B09CA014D
:1034A000B70198010E94771589859A85B701AC010B
:1034B00098010E9477158F8583FF20C00B851C859E
:1034C000080D191DC301B801A20198010E947715CA
:1034D0007501E60CF71C6201CA18DB08980121503F
:1034E0003040C701B901A6010E9477150F5F1F4F39
:1034F000C701B801A60198010E9477159F8592FF28
:1035000021C00B851C85080D191DEB84FC84E00E81
:10351000F11EC301B801A30197010E9477150A0D9E
:103520001B1DEA18FB088D859E85B801AC0197012B
:103530000E947715A3014F5F5F4FCA01B801970141
:103540000E9477158F8581FF21C00B851C85080D92
:10355000191DEB84FC84E00EF11EC201B801A2012A
:1035600097010E9477150A0D1B1DA2014150504082
:10357000EA18FB08CA01B80197010E9477158985EE
:103580009A85B801AC0197010E9477159F8590FF3D
:1035900022C00B851C85000F111F080D191DC301CA
:1035A000B801A20198010E9477157501E60CF71C7D
:1035B0006201CA18DB08980121503040C701B901E7
:1035C000A6010E9477150F5F1F4FC701B801A60122
:1035D00098010E9477152F960FB6F894DEBF0FBEA4
:1035E000CDBFCF91DF911F910F91FF90EF90DF90B2
:1035F000CF90BF90AF909F908F907F906F905F9093
:103600004F903F902F900895CF92DF92EF92FF92CC
:103610000F931F93CF93DF937C016B01EA01890124
:1036200014161506DCF412161306C4F4809109036F
:10363000882371F060912D0470912E0480912F04E5
:103640000E94A50AC701B601AE0198010E94DA0BDB
:10365000C701B601AE0198010E949A15DF91CF9182
:103660001F910F91FF90EF90DF90CF9008956091A0
:103670002D0470912E0480912F040E94A50A409180
:103680000203509103034F5F5F4F20910403309179
:1036900005032F5F3F4F8FEF9FEF6FEF7FEF0E948C
:1036A000041B089510922D0410922E0410922F04E2
:1036B0000E94371B089580932D0460932E0440933D
:1036C0002F040E94371B089580932D0480932E04AD
:1036D00080932F040E94371B08950E94041B0895B5
:1036E0008F929F92AF92BF92CF92EF92FF920F93E1
:1036F000DF93CF9300D000D0CDB7DEB79C014B0154
:10370000E982FA820B83AC82BD82CE82ADE2B4E064
:10371000FE01349683E001900D928150E1F7ADEF08
:10372000B2E0FE01319683E001900D928150E1F705
:1037300081E080930903421B530BC901B40194013A
:103740000E94041B26960FB6F894DEBF0FBECDBFB5
:10375000CF91DF910F91FF90EF90CF90BF90AF90FE
:103760009F908F9008952F923F924F925F926F9209
:103770007F928F929F92AF92BF92CF92DF92EF9201
:10378000FF920F931F93DF93CF93CDB7DEB7E097F0
:103790000FB6F894DEBF0FBECDBF98A38F8F7AA36C
:1037A00069A35CA34BA33EA32DA3CA019C0144279C
:1037B00037FD4095542FCA01B9010E946E336D8BBD
:1037C0007E8B8F8B988FADA1BEA17D010027F7FC6A
:1037D0000095102FC801B701A80197010E946E3310
:1037E000698B7A8B8B8B9C8B6D897E898F89988D69
:1037F00024E030E040E050E00E94D633882799274B
:10380000DC01821B930BA40BB50B8D879E87AF87C2
:10381000B88B8BA19CA162E070E00E94A133AA2723
:1038200097FDA095BA2F2D853E854F855889281B79
:10383000390B4A0B5B0B89899A89AB89BC89281B98
:10384000390B4A0B5B0B2D873E874F87588BBC018A
:10385000CD0124E030E040E050E00E94D6338827DC
:103860009927DC01821B930BA40BB50B8B8F9C8FCC
:10387000AD8FBE8F8DA19EA162E070E00E94A1334A
:10388000AA2797FDA095BA2F2B8D3C8D4D8D5E8D6F
:10389000281B390B4A0B5B0B2B8F3C8F4D8F5E8F98
:1038A0008D899E89AF89B88D281B390B4A0B5B0B1C
:1038B00029873A874B875C87BC01CD01909580951D
:1038C000709561957F4F8F4F9F4FA80197010E9480
:1038D0006E335B016C016D897E898F89988D0E94A2
:1038E0006E332EEF3FEF4FEF5FEF0E946E331B0101
:1038F0002C0129893A894B895C89220F331F441F87
:10390000551F2D833E834F8358878D899E89AF89AC
:10391000B88D880F991FAA1FBB1F89839A83AB8319
:10392000BC830DA11EA11A8E198EA1E0B0E0B8A72C
:10393000AFA3662477244301C7C0E98DFA8DBF0188
:10394000882777FD8095982F29893A894B895C894A
:103950000E946E336A0D7B1D8C1D9D1D2D853E853D
:103960004F8558892617370748075907F4F4B801D7
:10397000882777FD8095982F2D893E894F89588D0E
:103980000E946E336DA77EA78FA798ABDC01CB0199
:103990008A0D9B1DAC1DBD1D2B8D3C8D4D8D5E8DEF
:1039A000281739074A075B079CF0498D5A8D4F5FEE
:1039B0005F4F5A8F498F8D819E81AF81B885680E88
:1039C000791E8A1E9B1EA60CB71CC81CD91C77C06A
:1039D000D601C5012DA53EA54FA558A9821B930B65
:1039E000A40BB50BEF8CF8A0498D5A8DE41AF50A9B
:1039F00069A17AA1601B710B29853A854B855C858D
:103A0000281739074A075B0724F5C7014FA158A5B6
:103A100021E030E00E94DA0B0115110559F069A18F
:103A20007AA1600F711FC7014FA158A521E030E0B6
:103A30000E94DA0B0150104089819A81AB81BC81D0
:103A4000280E391E4A1E5B1EA20CB31CC41CD51CBA
:103A50003BC0C7014FA158A521E030E00E94DA0B1E
:103A60000115110559F069A17AA1600F711FC701F5
:103A70004FA158A521E030E00E94DA0BA98DBA8D44
:103A80001196BA8FA98F2D813E814F815885620E84
:103A9000731E841E951E0150104089819A81AB814E
:103AA000BC81280E391E4A1E5B1ED401C301820D43
:103AB000931DA41DB51DA80EB91ECA1EDB1EAFA105
:103AC000B8A51296B8A7AFA317FD08C0E98DFA8D67
:103AD0002BA13CA12E173F070CF02FCF4DA15EA1CB
:103AE000452B91F44BA15CA1440F551F4F5F5F4FD5
:103AF0008F8D98A1ABA1BCA18A1B9B0B69A17AA158
:103B000021E030E00E94DA0BE0960FB6F894DEBFB9
:103B10000FBECDBFCF91DF911F910F91FF90EF901E
:103B2000DF90CF90BF90AF909F908F907F906F90DD
:103B30005F904F903F902F900895AF92BF92CF9299
:103B4000DF92EF92FF920F931F93CF93DF935C016D
:103B50006B017A01890180910903882391F06091BA
:103B60002D0470912E0480912F040E94A50AA701B4
:103B700041505040980121503040C501B6010E948B
:103B8000B31B6091FD027091FE028091FF020E94C2
:103B9000A50AC0E0D0E00BC0AE014E0D5F1D9E0136
:103BA000200F311FC501B6010E94B01721968091E8
:103BB000060390910703C817D90774F3DF91CF91DB
:103BC0001F910F91FF90EF90DF90CF90BF90AF903B
:103BD00008959A010E949D1D0895EF92FF920F9300
:103BE0001F93CF93DF937C018B01C0E0D0E00DC029
:103BF00062E070E080E090E00E94A825F701EC0F01
:103C0000FD1F80810E94D2262196C017D10784F320
:103C1000DF91CF911F910F91FF90EF900895EF9258
:103C2000FF920F931F93CF93DF937C018B0180E072
:103C30000E94D226C0E0D0E00150104010C00E9487
:103C4000DA26892BE1F30E94EB26F701EC0FFD1F2A
:103C50008083882319F4CA30D10524F42196C01733
:103C6000D1076CF3CE0DDF1D1882DF91CF911F912C
:103C70000F91FF90EF900895CF92DF92EF920F9304
:103C80001F930091FD021091FE022091FF02C0904F
:103C90002D04D0902E04E0902F040E9483091F91E0
:103CA0000F91EF90DF90CF900895CF92DF92EF9237
:103CB0000F931F939C01FB01842FB901AF01009169
:103CC000FD021091FE022091FF02C0902D04D090C1
:103CD0002E04E0902F040E9483091F910F91EF9012
:103CE000DF90CF900895FC0140314CF0842F805339
:103CF0008A3028F0842F81548F3020F447504F7041
:103D0000CF0104C04D3229F4CF0140E10E94A21935
:103D10000895CF010E94551E0895CF92DF92EF9231
:103D2000FF920F931F938C010E947619C8010E9485
:103D30002916D801CD90DC9011971496ED91FC9145
:103D40001597EC19FD09CF0163E070E00E94A133E3
:103D50009B017F01F594E794F594E794CF01A3E0EC
:103D600095958795AA95E1F7E80EF91ECF0166E0D3
:103D700070E00E94A133CB01F80162817381680F6A
:103D8000791F21503040C7018C0D9D1D45850E9433
:103D9000731E1F910F91FF90EF90DF90CF900895C9
:103DA000AF92BF92DF92EF92FF920F931F93CF9348
:103DB000DF93FC015B01D22E822F27FD8F5F85955B
:103DC000E82EFF24E7FCF0948D2D992787FD909530
:103DD000E80EF91E8A01EF0107C0CE01B5012D2DB5
:103DE0000E94731ECE0DDF1DF8014081141634F4BD
:103DF0000F5F1F4FF1E0C034DF077CF3DF91CF91FD
:103E00001F910F91FF90EF90DF90BF90AF900895BA
:103E1000CF92DF92EF920F931F930091FD021091CA
:103E2000FE022091FF02C0902D04D0902E04E0905D
:103E30002F040E94FF091F910F91EF90DF90CF9008
:103E40000895AF92BF92CF92DF92EF92FF920F93BD
:103E50001F93DF93CF93CDB7DEB72C970FB6F894AF
:103E6000DEBF0FBECDBF6A01590144E023E07E01F1
:103E70000894E11CF11C87010E94522CC701B60175
:103E8000A5010E94081F2C960FB6F894DEBF0FBE46
:103E9000CDBFCF91DF911F910F91FF90EF90DF90F9
:103EA000CF90BF90AF900895AF92BF92CF92DF9224
:103EB000EF92FF920F931F93DF93CF93CDB7DEB7AF
:103EC0002A970FB6F894DEBF0FBECDBF6A01590125
:103ED0000E947D3244E020E07E010894E11CF11C48
:103EE00087010E94522CC701B601A5010E94081F3C
:103EF0002A960FB6F894DEBF0FBECDBFCF91DF91EB
:103F00001F910F91FF90EF90DF90CF90BF90AF90F7
:103F10000895AF92BF92CF92DF92EF92FF920F93EC
:103F20001F93DF93CF93CDB7DEB72A970FB6F894E0
:103F3000DEBF0FBECDBF6B015A01AA2797FDA0952A
:103F4000BA2FBC01CD010E947D3244E020E07E0109
:103F50000894E11CF11C87010E94522CC701B60194
:103F6000A5010E94081F2A960FB6F894DEBF0FBE67
:103F7000CDBFCF91DF911F910F91FF90EF90DF9018
:103F8000CF90BF90AF9008950E94891F0895CF925F
:103F9000DF92EF920F931F939C01FB01CA01B901BD
:103FA000AF010091FD021091FE022091FF02C0902E
:103FB0002D04D0902E04E0902F040E94FF091F9141
:103FC0000F91EF90DF90CF9008950F931F93182FCC
:103FD000092F0E94392B10930003009301031F91B6
:103FE0000F9108951F93CF93DF93EC01109100037D
:103FF00011C0812F0E94392B609100037091010341
:10400000CE010E94A133882777FD8095982F0E94CA
:10401000A8251150112369F7DF91CF911F910895C1
:104020001F93CF93DF93EC0110E011C0812F0E940A
:10403000392B6091000370910103CE010E94A133DE
:10404000882777FD8095982F0E94A8251F5F212F34
:1040500030E080910003909101038217930734F7B9
:10406000DF91CF911F91089580E394E00E94312366
:10407000882389F080913004909131049093410419
:1040800080934004809132049091330490934304D0
:104090008093420481E00895EF92FF920F931F9363
:1040A00080916504882349F460E875E280E090E03F
:1040B0000E94AA2681E08093650485E494E060E292
:1040C00070E00E940F1E81E08093440480914504BB
:1040D0008C3709F0A8C18091460490E0FC0131972B
:1040E000E131F10508F09FC1EE58FF4FEE0FFF1FC1
:1040F0000590F491E02D1994809148042091490491
:10410000909147049093FD028093FE022093FF025A
:104110008AC180914804209149049091470490936A
:104120002D0480932E0420932F047DC10E94371B01
:104130007AC18091470490E00E94E51F74C190917C
:10414000480480E020914704820F911D0E94F21FD5
:104150006AC19091480480E020914704820F911D2C
:104160000E94102060C19091480480E03091470483
:1041700070914A0460E020914904620F711D830F21
:10418000911D0E94A4144FC130914C0420E08091F5
:104190004B04280F311D9091480480E05091470452
:1041A00070914A0460E040914904640F711D850FCD
:1041B000911DA901DFC09091480480E0F09147046F
:1041C00070914A0460E020914904620F711D509182
:1041D0004C0440E020914B04420F511D30914E049D
:1041E00020E0E0914D042E0F311D8F0F911D0E9494
:1041F000041B19C19091480480E0F091470470912C
:104200004A0460E020914904620F711D50914C04F2
:1042100040E020914B04420F511D30914E0420E0AC
:10422000E0914D042E0F311D8F0F911D0E947715C7
:10423000FAC09091480480E03091470470914A049C
:1042400060E020914904620F711D830F911D409120
:104250004B040E94551EE7C09091480480E03091C5
:10426000470470914A0460E020914904620F711D77
:10427000830F911D4EE454E00E94C71FD4C00E94DA
:10428000342062E070E080E090E00E94A8258CE796
:104290000E94D22662E070E080E090E00E94A825B3
:1042A000809140040E94D22662E070E080E090E0BD
:1042B0000E94A825809141040E94D22662E070E00D
:1042C00080E090E00E94A825809142040E94D226BE
:1042D00062E070E080E090E00E94A82580914304B5
:1042E0000E94D22662E070E080E090E00E94A82563
:1042F00080E00E94D22697C08CE78093660481E11B
:104300008093670480E48093680481E0809369046B
:1043100080EF80936A0410926B0410926C041092E8
:104320006D0410926E0410926F041092700486E671
:1043300094E06BE070E00E94ED1D75C09091480420
:1043400080E0F091470470914A0460E020914904B4
:10435000620F711D50914C0440E020914B04420FBC
:10436000511D30914E0420E0E0914D042E0F311D7F
:104370008F0F911D0E949D1D56C09091480480E0B2
:1043800020914704820F911D90933504809334044B
:1043900090914A0480E020914904820F911D9093EE
:1043A00037048093360490914C0480E020914B04B4
:1043B000820F911D909339048093380490914E049C
:1043C00080E020914D04820F911D90933B048093D7
:1043D0003A0429C01091480400E080914704080F76
:1043E000111D10933D0400933C04F0914A04E0E059
:1043F00080914904E80FF11DF0933F04E0933E04DF
:10440000609136047091370440913804509139041A
:1044100020913A0430913B0480913404909135040A
:104420007F010E9439161F910F91FF90EF90089520
:104430002F923F924F925F926F927F928F929F92B4
:10444000AF92BF92CF92DF92EF92FF920F931F93A2
:104450003B014C0119012A01C801B701A4019301D4
:104460000E947D310E944A327B018C01C601B50158
:10447000A20191010E947D310E944A32CB01889FA6
:10448000B001899F700D989F700D1124EE9C9001D2
:10449000EF9C300DFE9C300D1124620F731F882796
:1044A00077FD8095982F0E947D320E940D331F91D9
:1044B0000F91FF90EF90DF90CF90BF90AF909F90C3
:1044C0008F907F906F905F904F903F902F900895C6
:1044D0002FEF33E0281B390B30938504209384049D
:1044E00010BA11BA8FEF80BB10BA08952FEF33E0E6
:1044F000281B390B309387042093860410BA11BA15
:104500008FEF80BB10BA089590938904809388043C
:1045100010BA11BA8FEF80BB10BA089590938B0434
:1045200080938A0410BA11BA8FEF80BB10BA089535
:10453000809188049091890490937D0480937C04F9
:1045400080918A0490918B0490937F0480937E04E1
:1045500080917C0490917D04892B09F180917E04E7
:1045600090917F0460917C0470917D040E948D3352
:1045700064317105A0F481E0809376048091860413
:1045800090918704909379048093780480918404B7
:104590009091850490937B0480937A0408952091F0
:1045A0007604213091F4809178049091790490936D
:1045B00081048093800480917A0490917B0490938D
:1045C00083048093820420937704109276041092DF
:1045D00079041092780410927B0410927A04089562
:1045E00086E480937C008E988D988F9A8C9886981C
:1045F0008598879A849A089587E480937C008E9AA0
:104600008D988F988C98869A859A87988498089523
:1046100087E480937C008E9A8D988F988C98869AE8
:1046200085988798849A089585E480937C008E9A73
:104630008D988F988C98869A85988798849A0895F3
:1046400030E00AC000009F5F9F3FE1F72F5F2D30F1
:1046500011F090E0F7CF3F5F381710F420E0F9CF6A
:1046600008950F931F93DF93CF93CDB7DEB7609775
:104670000FB6F894DEBF0FBECDBF8C0180917604DB
:10468000882339F18091780490917904A0E0B0E01A
:1046900089839A83AB83BC8380917A0490917B0455
:1046A000A0E0B0E08D839E83AF83B887CE010996EA
:1046B000BE016F5F7F4F40EA54E00E94712A8985F6
:1046C0009A85F801918380838D859E85938382836B
:1046D00081E060960FB6F894DEBF0FBECDBFCF91DC
:1046E000DF911F910F9108950F931F93DF93CF9345
:1046F000CDB7DEB760970FB6F894DEBF0FBECDBF63
:104700008C0180917704882349F1809180049091F5
:104710008104A0E0B0E089839A83AB83BC8380915D
:10472000820490918304A0E0B0E08D839E83AF83E8
:10473000B887CE010996BE016F5F7F4F40EA54E013
:104740000E94712A89859A85F801918380838D85DD
:104750009E85938382831092770481E060960FB6E2
:10476000F894DEBF0FBECDBFCF91DF911F910F91A7
:104770000895CF92DF92EF920F931F93DF93CF9321
:10478000CDB7DEB7CA56D0400FB6F894DEBF0FBE25
:10479000CDBFDE011196EEEAF3E083E001900D92C9
:1047A0008150E1F7DE011496EBEAF3E083E001903B
:1047B0000D928150E1F7DE019396E3E9F3E088E1A1
:1047C00001900D928150E1F7DE01DB96EBE7F3E01B
:1047D00088E101900D928150E1F7DE01AD5ABF4FA3
:1047E000E3E6F3E088E101900D928150E1F7CE011C
:1047F0008D5A9F4FBE01655C7F4F40EA54E00E9496
:10480000EE278CE293E06EE170E045E050E00C8131
:104810001D812E81C980DA80EB800E94FF091092F1
:1048200077046C817D818E810E94A50A80E290E0F0
:1048300068E170E046E050E026E030E00E94DA0BEC
:104840008E01095F1F4FC8010E9474238823D9F38A
:104850008F819885A0E0B0E08B879C87AD87BE876D
:1048600089859A85A0E0B0E08F87988BA98BBA8B59
:1048700069817A818B810E94A50A80E290E068E1DB
:1048800070E046E050E026E030E00E94DA0B20E0E5
:104890000CC000008F5F8F3FE1F79F5F9D3011F0EC
:1048A00080E0F7CF2F5F2A3F11F090E0F9CF6C81C5
:1048B0007D818E810E94A50A80EA90E068ED70E01B
:1048C00046E050E026E030E00E94DA0B8E01095FFE
:1048D0001F4FC8010E9474238823D9F38F819885C4
:1048E000A0E0B0E08B8B9C8BAD8BBE8B89859A85CD
:1048F000A0E0B0E08F8B988FA98FBA8F69817A8101
:104900008B810E94A50A80EA90E068ED70E046E0A5
:1049100050E026E030E00E94DA0B20E00CC00000FE
:104920008F5F8F3FE1F79F5F9D3011F080E0F7CF01
:104930002F5F2A3F11F090E0F9CF6C817D818E814D
:104940000E94A50A80E291E068E770E046E050E04E
:1049500026E030E00E94DA0B8E01095F1F4FC8018C
:104960000E9474238823D9F38F819885A0E0B0E05A
:104970008B8F9C8FAD8FBE8F89859A85A0E0B0E02C
:104980008F8F98A3A9A3BAA369817A818B810E9492
:10499000A50A80E291E068E770E046E050E026E09A
:1049A00030E00E94DA0B20E00CC000008F5F8F3FE8
:1049B000E1F79F5F9D3011F080E0F7CF2F5F2A3F36
:1049C00011F090E0F9CF69817A818B810E94A50A6C
:1049D0000E94B30E86E493E06FE070E04FE050E099
:1049E0000C811D812E81C980DA80EB800E94FF0935
:1049F00086E593E064E170E049E150E00C811D81BF
:104A00002E81C980DA80EB800E94FF09CE01839657
:104A1000BE01655F7F4F40EA54E00E94EE27F9999E
:104A2000FECF1FBA8CE190E092BD81BD84E180BDD4
:104A30000FB6F894FA9AF99A0FBEE0EAF4E080E033
:104A400090E00EC02081F999FECF31961FBA92BD39
:104A500081BD20BD0FB6F894FA9AF99A0FBE01965F
:104A600024E0EC3BF20771F720E00EC000008F5FFE
:104A70008F3FE1F79F5F9D3011F080E0F7CF2F5F10
:104A80002A3F11F420E010C090E0F7CF00008F5FC4
:104A90008F3FE1F79F5F9D3011F080E0F7CF2F5FF0
:104AA0002A3F11F420E00EC090E0F7CF00008F5FA6
:104AB0008F3FE1F79F5F9D3011F080E0F7CF2F5FD0
:104AC0002A3F11F090E0F9CF80E0C659DF4F0FB6D2
:104AD000F894DEBF0FBECDBFCF91DF911F910F9134
:104AE000EF90DF90CF90089583E880937A0082E082
:104AF00085BD81E080936E007894F999FECF8CE1BA
:104B000090E092BD81BDF89A80B5843129F4E0EA45
:104B1000F4E020E030E00CC00E94B9230895F99938
:104B2000FECF32BD21BDF89A80B581932F5F3F4FF4
:104B300084E0EC3BF80799F70895209191043091B7
:104B400092044091930450919404B901CA010895CC
:104B50009B01AC010AC01092C0048091C004873050
:104B6000E1F72150304040405040211531054105CA
:104B7000510589F708951092C100749A6C980895B0
:104B80006C9A749808950E94542B0E94DD070E942D
:104B900074250E94870408951F920F920FB60F92FA
:104BA0000BB60F9211242F933F934F935F936F9304
:104BB0007F938F939F93AF93BF93EF93FF938091D6
:104BC00095048730B1F48091910490919204A09162
:104BD0009304B09194040196A11DB11D809391049A
:104BE00090939204A0939304B0939404109295042C
:104BF00005C0809195048F5F809395048091C004D7
:104C0000873028F48091C0048F5F8093C004809126
:104C1000960490919704009719F40E94F0220FC017
:104C20008130910539F480917800909179000E944B
:104C300068222DC08230910541F40E94FC228091AF
:104C40007A00806480937A0022C08330910549F411
:104C500080917800909179000E9476220E9408232A
:104C6000EECF8430910549F48091780090917900DD
:104C70000E9484220E941423E2CF059741F4809180
:104C80007800909179000E948E220E949822809153
:104C900096049091970401969093970480939604BC
:104CA000889721F41092970410929604FF91EF9147
:104CB000BF91AF919F918F917F916F915F914F9134
:104CC0003F912F910F900BBE0F900FBE0F901F9032
:104CD00018951F920F920FB60F920BB60F921124D8
:104CE0002F933F934F935F936F937F938F939F93F4
:104CF000AF93BF93EF93FF934091CE00E09199045F
:104D0000F0919A04CF01019660E470E00E94A13313
:104D10009C0180919B0490919C042817390739F0DD
:104D2000EF53FB4F408330939A0420939904FF91F3
:104D3000EF91BF91AF919F918F917F916F915F9113
:104D40004F913F912F910F900BBE0F900FBE0F9080
:104D50001F9018959B01AC0193E0220F331F441F55
:104D6000551F9A95D1F760E074E284EF90E00E94BD
:104D7000B4332150304040405040BB27A52F942FE2
:104D8000832F8093CD002093CC0088E98093C900C5
:104D9000E8ECF0E0808182608083789408950E943E
:104DA000AA260895982F8091C80085FFFCCF909384
:104DB000CE0008958091990490919A04805C9F4F51
:104DC00020919B0430919C04821B930B60E470E063
:104DD0000E94A133089540919B0450919C048091BE
:104DE000990490919A048417950719F42FEF3FEFD7
:104DF0000FC0FA01EF53FB4F2081CA01019660E416
:104E000070E00E94A13390939C0480939B0430E057
:104E1000C901089580919B0490919C0490939A04F9
:104E20008093990408950895982F8091C80085FF74
:104E3000FCCF9093CE0008958091C80085FFFCCFF1
:104E40008AE08093CE000895FC0107C08091C800DD
:104E500085FFFCCF31969093CE0090819923B1F7D6
:104E600008952F923F924F925F926F927F928F920E
:104E70009F92AF92BF92CF92DF92EF92FF920F93E9
:104E80001F93DF93CF93CDB7DEB7A0970FB6F894FB
:104E9000DEBF0FBECDBF6B017C0129013A01611558
:104EA00071058105910541F48091C80085FFFCCF13
:104EB00080E38093CE0049C08824992454011E01C8
:104EC0000894211C311C8101080D191DC701B60170
:104ED000A30192010E94B433F80160830894811CFD
:104EE000911CA11CB11CC701B601A30192010E9433
:104EF000B433C901DA016C017D01C114D104E104AC
:104F0000F10409F79101280D391DBE016F5F7F4F34
:104F1000D501C4010197A109B109AC01481959098A
:104F200011C0FA01E20FF31FE081EA3010F4E05DF6
:104F300001C0E95C8091C80085FFFCCFE093CE0002
:104F4000215030406217730761F7A0960FB6F894AE
:104F5000DEBF0FBECDBFCF91DF911F910F91FF90AC
:104F6000EF90DF90CF90BF90AF909F908F907F9009
:104F70006F905F904F903F902F9008959B01AC01F0
:104F800097FF0EC08091C80085FFFCCF8DE2809313
:104F9000CE0050954095309521953F4F4F4F5F4F34
:104FA000CA01B9012AE030E040E050E00E94312718
:104FB000089520E130E040E050E00E94312708955C
:104FC00028E030E040E050E00E943127089522E0E0
:104FD00030E040E050E00E94312708952F923F9248
:104FE0004F925F926F927F928F929F92AF92BF92F9
:104FF000CF92DF92EF92FF920F931F93DF93CF93A5
:10500000CDB7DEB7EC970FB6F894DEBF0FBECDBFBD
:105010009AAF89AF5CAF4BAFDB012D913D914D91C4
:105020005C9113972DAB3EAB4FAB58AF50962D9183
:105030003D914D915C91539729AB3AAB4BAB5CAB37
:105040008DA99EA9AFA9B8AD821B930BA40BB50B7C
:105050008DA79EA7AFA7B8ABDB011C962D913D9104
:105060004D915C911F9729A73AA74BA75CA754962F
:105070002D913D914D915C9157972DA33EA34FA348
:1050800058A789A59AA5ABA5BCA5821B930BA40B19
:10509000B50B89A39AA3ABA3BCA3DB0118962D91F2
:1050A0003D914D915C911B972D8F3E8F4F8F58A353
:1050B00014962D913D914D915C911797298F3A8FC0
:1050C0004B8F5C8F8DA19EA1AFA1B8A5821B930BC6
:1050D000A40BB50B8D8B9E8BAF8BB88F2D8D3E8D1A
:1050E0004F8D58A189A99AA9ABA9BCA9281B390B36
:1050F0004A0B5B0B6D897E898F89988D0E946E3378
:105100007B018C0169A17AA18BA19CA12DA53EA553
:105110004FA558A90E946E33E60EF71E081F191FEF
:10512000ABADBCAD5896ED92FD920D931C935B9781
:10513000E114F1040105110519F42FEF3FEFB7C198
:10514000A9ADBAAD2D913D914D915C911397298BED
:105150003A8B4B8B5C8B50966D907D908D909C9094
:10516000539759016A01A618B708C808D9081896B4
:105170002D913D914D915C911B972D873E874F87D7
:10518000588B19012A012618370848085908C20106
:10519000B1012D893E894F89588D0E946E337B0164
:1051A0008C01C601B50129A13AA14BA15CA10E94C5
:1051B0006E33E60EF71E081F191FEBADFCADE08243
:1051C000F1820283138329A93AA94BA95CA98D8D89
:1051D0009E8DAF8DB8A1281B390B4A0B5B0B29871D
:1051E0003A874B875C87CA01B901A60195010E94E5
:1051F0006E337B018C01C201B1012DA53EA54FA5E7
:1052000058A90E946E33E60EF71E081F191FABAD9A
:10521000BCAD1496ED92FD920D931C931797C401AB
:10522000B3012DA93EA94FA958AD0E946E337B0151
:105230008C0169897A898B899C8929A93AA94BA90A
:105240005CA90E946E33E61AF70A080B190BC80115
:10525000B70129A53AA54BA55CA50E946E335B0159
:105260006C016D857E858F85988929A93AA94BA9FE
:105270005CA90E946E337B018C01C401B3012D8DAA
:105280003E8D4F8D58A10E946E33E61AF70A080B27
:10529000190BC801B701298D3A8D4B8D5C8D0E9489
:1052A0006E33A60EB71EC81ED91E69897A898B89EE
:1052B0009C892D8D3E8D4F8D58A10E946E337B01B0
:1052C0008C016D857E858F8598892DA93EA94FA972
:1052D00058AD0E946E33E61AF70A080B190BC80185
:1052E000B7012DA13EA14FA158A50E946E33A60E75
:1052F000B71EC81ED91EEBADFCADA086B186C28616
:10530000D386A9ADBAAD14962D913D914D915C9186
:1053100017972D833E834F83588754966D907D90C9
:105320008D909C90579759016A01A618B708C80834
:10533000D9081C962D913D914D915C911F97298321
:105340003A834B835C8319012A01261837084808E1
:105350005908C201B1012D893E894F89588D0E949B
:105360006E337B018C01C601B50129A13AA14BA185
:105370005CA10E946E33E60EF71E081F191FEBADED
:10538000FCADE486F58606871787C601B501298539
:105390003A854B855C850E946E337B018C01C2018E
:1053A000B1012DA53EA54FA558A90E946E33E60E6A
:1053B000F71E081F191FABADBCAD5096ED92FD92C4
:1053C0000D931C935397C401B3012DA93EA94FA976
:1053D00058AD0E946E337B018C016D817E818F817F
:1053E000988529A93AA94BA95CA90E946E33E61AAF
:1053F000F70A080B190BC801B70129A53AA54BA557
:105400005CA50E946E335B016C0169817A818B819E
:105410009C8129A93AA94BA95CA90E946E337B0102
:105420008C01C401B3012D8D3E8D4F8D58A10E947A
:105430006E33E61AF70A080B190BC801B701298D5C
:105440003A8D4B8D5C8D0E946E33A60EB71EC81E22
:10545000D91E6D817E818F8198852D8D3E8D4F8DDA
:1054600058A10E946E337B018C0169817A818B8106
:105470009C812DA93EA94FA958AD0E946E33E61A12
:10548000F70A080B190BC801B7012DA13EA14FA1C6
:1054900058A50E946E33A60EB71EC81ED91EEBADCE
:1054A000FCADA48AB58AC68AD78A20E030E0C9015B
:1054B000EC960FB6F894DEBF0FBECDBFCF91DF9153
:1054C0001F910F91FF90EF90DF90CF90BF90AF9022
:1054D0009F908F907F906F905F904F903F902F9014
:1054E00008952F923F924F925F926F927F928F9288
:1054F0009F92AF92BF92CF92DF92EF92FF920F9363
:105500001F93CF93DF931C012B01EA01688C798CE8
:105510008A8C9B8C611471048104910411F48FEFC7
:105520005AC0FB0160817181828193812881398118
:105530004A815B810E946E337B018C01F201A48061
:10554000B580C680D7802C813D814E815F81C601A8
:10555000B5010E946E33E60EF71E081F191F6885FD
:1055600079858A859B856E0D7F1D801F911FA40103
:1055700093010E94D633F101208331834283538308
:10558000F20160817181828193812C853D854E85F8
:105590005F850E946E337B018C01288939894A8995
:1055A0005B89C601B5010E946E33E60EF71E081F27
:1055B000191F6C897D898E899F896E0D7F1D801FC3
:1055C000911FA40193010E94D633F10124833583F6
:1055D0004683578380E0DF91CF911F910F91FF9019
:1055E000EF90DF90CF90BF90AF909F908F907F9083
:1055F0006F905F904F903F902F900895DF93CF93DF
:105600000F920F92CDB7DEB7A4E0B1E01C9211B8B3
:1056100017B8EBE0F1E080818F77808380818B7F0A
:10562000808380818F7E80838091030120B12695C5
:1056300026952295220F220F207C869586958695A9
:10564000282B808180618083808184608083808139
:10565000806880838FEF8C9381B987B930E03A837B
:10566000298329813A81C9010F900F90CF91DF9151
:1056700008951F93CF93DF93982F853088F482E1AC
:10568000989FE0011124CF54DC4F10E7812F0E9436
:10569000430A899199910E94720A1F5F1937B1F7E5
:1056A000DF91CF911F910895DF93CF93CDB7DEB7F0
:1056B0002B970FB6F894DEBF0FBECDBFDE0111965B
:1056C000EBE0F4E083E001900D928150E1F76D9AF8
:1056D00075988FEF8093040181B987B980910A0191
:1056E000846F80930A011C821D821E821F8210C05B
:1056F00080910B018F7B80930B018C819D81AE810A
:10570000BF810196A11DB11D8C839D83AE83BF8394
:105710008C819D81AE81BF8184369105A105B10543
:1057200038F31C821D821E821F8210C080910B01E3
:10573000806480930B018C819D81AE81BF81019635
:10574000A11DB11D8C839D83AE83BF838C819D8100
:10575000AE81BF8184369105A105B10538F383E29E
:105760000E94430A82E00E94430A80E090E00E9487
:10577000720A83E00E94430A81E390E80E94720A61
:1057800080E10E94430A80E090E00E94720A18863D
:1057900019861A861B8624C01C821D821E821F82C7
:1057A0000CC000008C819D81AE81BF810196A11D3E
:1057B000B11D8C839D83AE83BF838C819D81AE811F
:1057C000BF810A97A105B10560F388859985AA85EF
:1057D000BB850196A11DB11D88879987AA87BB87C4
:1057E00088859985AA85BB8588589341A040B0409B
:1057F00098F280910B01826080930B0180910A01E5
:10580000826080930A01188619861A861B8624C036
:105810001C821D821E821F820CC000008C819D8113
:10582000AE81BF810196A11DB11D8C839D83AE8386
:10583000BF838C819D81AE81BF810A97A105B1058F
:1058400060F388859985AA85BB850196A11DB11D48
:1058500088879987AA87BB8788859985AA85BB850C
:1058600088589341A040B04098F285E00E94430AD6
:1058700081E090E00E94720A81E00E94392B82E26E
:105880000E94430A69817A818B810E94A50A0E9445
:10589000B30E2B960FB6F894DEBF0FBECDBFCF91DF
:1058A000DF910895EF92FF920F931F93F22FF02E46
:1058B00047FD02C0E4E001C0E4E1242F332727FDC7
:1058C000309537FF03C0309521953F4F4F2D512F15
:1058D0000F2FEE2E0E94A32E8F2D912F1F910F912F
:1058E000FF90EF900895FB01DC010D900020E9F797
:1058F000119701900D920020E1F70895FB01DC0162
:1059000001900D920020E1F70895FB01DC01415068
:10591000504030F08D910190801919F40020B9F7B2
:10592000881B990B0895FB01DC014150504048F061
:1059300001900D920020C9F701C01D9241505040C6
:10594000E0F70895AEE0B0E0E8EAFCE20C9405343C
:105950000E891F8986E08C831A8309838FEF9FE766
:105960009E838D839E01265E3F4FCE010196688DFA
:10597000798DA9010E94C62C2F813885020F131F33
:10598000F80110822E96E4E00C942134ABE0B0E0F4
:10599000ECECFCE20C94F7333C012B015A01FC01C6
:1059A00017821682838181FD03C06FEF7FEFC6C12E
:1059B0009AE0892E1E010894211C311CF3012381D9
:1059C000F20123FD859123FF81912F01882309F4A2
:1059D000B2C1853239F423FD859123FF81912F01D6
:1059E000853229F490E0B3010E94F330E7CF982F7D
:1059F000FF24EE249924FFE1FF15D0F09B3269F0DB
:105A00009C3228F4903259F0933291F40EC09D32BA
:105A100049F0903369F441E024C052E0F52A84E073
:105A2000F82A28C098E0F92A25C0E0E1FE2A22C021
:105A3000F7FC29C0892F80538A3070F4F6FE05C028
:105A4000989C902C1124980E15C0E89CE02C1124F1
:105A5000E80EF0E2FF2A0EC09E3229F4F6FC6BC17C
:105A600040E4F42A07C09C3619F450E8F52A02C035
:105A7000983649F4F20123FD959123FF91912F016E
:105A8000992309F0B8CF892F8554833018F08052BC
:105A9000833038F444E050E0A40EB51E5FE3598330
:105AA0000FC0933631F0933779F0933509F056C033
:105AB00020C0F5018081898342E050E0A40EB51E2C
:105AC000610101E010E012C0F501C080D180F6FC58
:105AD00003C06FEF7FEF02C0692D70E042E050E03D
