:100000000C945C000C9482000C9482000C9482008E
:100010000C9482000C9482000C9482000C94820058
:100020000C9482000C9482000C9482000C94820048
:100030000C9482000C9482000C9482000C94820038
:100040000C94D0150C9482000C9421180C9482000E
:100050000C9482000C9482000C9482000C94820018
:100060000C9482000C9482000315CF150000000749
:100070000002010000030406000000000000000070
:10008000010204081020408001020408102001022F
:1000900004081020040404040404040402020202FC
:1000A00002020303030303030000232629000025A3
:1000B000282B000024272A0011241FBECFEFD4E0F4
:1000C000DEBFCDBF12E0A0E0B1E0EEE7F5E302C095
:1000D00005900D92A831B107D9F712E0A8E1B2E07E
:1000E00001C01D92A73DB107E1F710E0CCE6D0E0DA
:1000F00004C02297FE010E94BB1AC836D107C9F777
:100100000C94EC140C940000FC0160834183128277
:100110001382148215820895FC0160834183128248
:1001200013821482158208950F931F938C019A01F4
:10013000AB01FC01228333834483558360E472E482
:100140008FE090E00E948A1AF8013783268361E0ED
:1001500081810E945C17F801868197810E942F1689
:100160001F910F910895CF92DF92EF92FF920F931C
:100170001F93CF93DF938C01FC01E680F7808DEF16
:100180009FEFE80EF91EF80180810E941317892B5A
:10019000D1F7F80180810E941317892B21F08FEF8E
:1001A000C82ED82E25C0C70162E070E00E94551A03
:1001B000CB0103970E942F16CC24DD24C0E0D0E0B1
:1001C000C7010E942F16F80180810E9413170C2E80
:1001D00002C0880F991F0A94E2F7C82AD92A2196EB
:1001E000C830D10569F7F801868197810E942F16E2
:1001F000C601DF91CF911F910F91FF90EF90DF909B
:10020000CF900895CF92DF92EF92FF920F931F93BA
:10021000CF93DF93EC01C62E8A819B81AC81BD8197
:100220000097A105B10579F10E811F81035010409F
:1002300060E089810E945C17C8010E942F1621E0AE
:10024000D22E98E0E92EF12C8C2D99272D2D3327D5
:1002500082239323892B11F061E001C060E0898142
:100260000E945C17C8010E942F16DD0C0894E1085B
:10027000F108E114F10441F761E089810E945C1703
:10028000C8010E942F16DF91CF911F910F91FF900F
:10029000EF90DF90CF9008950E94020108950F9390
:1002A0001F93CF93DF938C01EB0104C02196C8010B
:1002B0000E944C0168816623C9F7DF91CF911F919D
:1002C0000F9108952F923F924F925F926F927F927B
:1002D0008F929F92AF92BF92CF92DF92EF92FF9256
:1002E0000F931F93CF93DF93CDB7DEB7A2970FB6CF
:1002F000F894DEBF0FBECDBF9AA389A36A017B012C
:10030000411551056105710521F460E30E944C011E
:1003100051C0442455243201822E9924AA24BB249E
:100320001E010894211C311C8101040D151DC701FB
:10033000B601A50194010E94681AF801608308942F
:10034000411C511C611C711CC701B601A50194011F
:100350000E94681A69017A0121153105410551058C
:1003600019F772010894E108F108E20CF31CAA24C1
:10037000BB24650113C0F70160816A3010F4605D31
:1003800001C0695C89A19AA10E944C010894A1084E
:10039000B108C108D1080894E108F1088827992715
:1003A000DC0184199509A609B709A816B906CA0679
:1003B000DB0609F7A2960FB6F894DEBF0FBECDBFDD
:1003C000DF91CF911F910F91FF90EF90DF90CF9031
:1003D000BF90AF909F908F907F906F905F904F9065
:1003E0003F902F9008952AE00E9462010895AB018A
:1003F000662777270E94F3010895EF92FF920F93EB
:100400001F93CF93DF93EC017A018B0177FF0BC031
:100410006DE20E944C0110950095F094E094E11C6F
:10042000F11C011D111D2AE0B801A701CE010E9497
:100430006201DF91CF911F910F91FF90EF9008958E
:10044000AB01662757FD6095762F0E94FD01089548
:100450002115310521F4642F0E944C0108952A30A2
:10046000310519F40E94FD0108950E94620108956A
:100470000F931F938C016DE00E944C016AE0C8014C
:100480000E944C011F910F9108950F931F938C01AF
:100490000E944C01C8010E9438021F910F910895DB
:1004A0000F931F938C010E944F01C8010E943802D4
:1004B0001F910F9108950F931F938C010E940201C9
:1004C000C8010E9438021F910F9108950F931F9346
:1004D0008C010E942002C8010E9438021F910F91D6
:1004E00008950F931F938C010E94FD01C8010E9483
:1004F00038021F910F9108950F931F938C010E9452
:10050000F301C8010E9438021F910F9108950F93C3
:100510001F938C010E942802C8010E9438021F917B
:100520000F91089560E084E00E94F51661E085E097
:100530000E94F51661E0809106010E94F51660E0C8
:10054000809106010E945C1740E855E260E070E08F
:1005500086E492E00E94940020E030E04EEF50E00C
:1005600060E070E086E492E00E94280220E030E043
:1005700040EC50E060E070E086E492E00E942802E7
:1005800066E171E086E492E00E944F0168EE73E05C
:1005900080E090E00E940D1620E030E04CE750E053
:1005A00060E070E086E492E00E94280220E030E003
:1005B0004DE950E060E070E086E492E00E9428029D
:1005C000809112010E9486169C0181599140873CBE
:1005D000910538F4309311012093100160E271E02D
:1005E00008C080E092E0909311018093100162E2D4
:1005F00071E086E492E00E944F01809114010E9414
:1006000086169C0181599140873C910528F43093CE
:100610000F0120930E0106C080E092E090930F013D
:1006200080930E0160E080910A010E94F51660E05F
:10063000809108010E94F51608952AE731E040E014
:1006400050E00E94361A28EE33E040E050E00E946D
:100650008A1A2450304040405040CA01B9010895E0
:1006600061E0809106010E945C1768EB7BE080E00E
:1006700090E00E940D1660E0809106010E945C17D8
:100680000895CF93DF938530910529F4C09110012F
:10069000D09111010AC08330910519F0C0E0D2E079
:1006A00004C0C0910E01D0910F010E948616C81B94
:1006B000D90BBE01882777FD8095982F0E94961947
:1006C00020E030E04EE153E40E94331920E030E0B6
:1006D00048EC52E40E94EE190E947919DC01CB012A
:1006E000DF91CF9108959C011816190684F480912A
:1006F00041029091420282179307DCF43093420248
:10070000209341021092400210923F0212C0892BA6
:1007100081F08091430290914402281739074CF4EC
:10072000309344022093430210923E0210923D0205
:10073000089580913F0290914002449744F01092B6
:10074000400210923F0210924202109241028091A8
:100750003D0290913E02449744F010923E02109266
:100760003D0210924402109243020895EF92FF92CC
:100770000F931F93CF93DF93EC0197FF0BC060E1C2
:1007800070E00E94551A7B018B01085F1F4FC1E08A
:10079000D0E036C064E271E086E492E00E944F014E
:1007A000CE0160E170E00E94551A8B01C1E0D0E0FB
:1007B0000BC020E030E04FEF50E060E070E086E4F6
:1007C00092E00E94280221960C171D0794F7C1E0C1
:1007D000D0E007C06DE271E086E492E00E944F0134
:1007E000219688E090E0801B910B8C179D0794F771
:1007F00029C06DE271E086E492E00E944F012196EB
:100800000C171D07B4F7C1E0D0E00BC020E030E0CA
:100810004FEF50E060E070E086E492E00E94280232
:100820002196882799278E199F098C179D0774F7A1
:10083000C8E0D0E06DE271E086E492E00E944F01F2
:100840002197C1F720E030E04EEF50E060E070E02B
:1008500086E492E00E94280220E030E040E850E088
:1008600060E070E086E492E00E94280280914302FA
:1008700090914402815F9F4FBCF520E030E04EEF45
:1008800050E060E070E086E492E00E9428028091EF
:100890004302909144028031910554F024E09595F3
:1008A00087952A95E1F768E870E0681B790B06C028
:1008B00060E170E00E94551A68577F4FCB01AC0190
:1008C000662757FD6095762F20E030E086E492E0C1
:1008D0000E94280220E030E04FEF50E060E070E03E
:1008E00086E492E00E9428028091410290914202A7
:1008F00040974CF120E030E04EEF50E060E070E0D7
:1009000086E492E00E942802809141029091420286
:1009100060E170E00E94551AAB0148575F4F6627AF
:1009200057FD6095762F20E030E086E492E00E944B
:10093000280220E030E04FEF50E060E070E086E415
:1009400092E00E942802DF91CF911F910F91FF90BA
:10095000EF9008950F931F93CF93DF93EC0197FDD2
:1009600003C06FE271E002C061E371E086E492E0EF
:100970000E944F01CE0164E670E00E94551A8C017E
:10098000C436D10534F0CE0164E670E00E94551AF9
:1009900008C0CE0164E670E00E94551A709561951A
:1009A0007F4F86E492E00E942002C8010996439797
:1009B00018F063E371E002C065E371E086E492E061
:1009C0000E944F01B80117FF03C0709561957F4FDA
:1009D00086E492E00E942002DF91CF911F910F9157
:1009E0000895CF93DF93EC010A9734F468E371E044
:1009F00086E492E00E944F01BE0186E492E00E94EC
:100A00002002DF91CF910895AF92BF92CF92DF92F3
:100A1000EF92FF920F931F9346E4C42E42E0D42E30
:100A200020E030E04EEF50E060E070E0C6010E9450
:100A3000280220E030E040EC50E060E070E0C601C9
:100A40000E942802E0903502F090360200913702B1
:100A5000109138026AE371E0C6010E944F01C8019B
:100A6000B70120E83EEE46E350E00E94681ADA0142
:100A7000C9010E94F1043FE3A32E31E0B32EB5017A
:100A8000C6010E944F01C801B70120E83EEE46E3CF
:100A900050E00E94681A20E63AEE40E050E00E94E2
:100AA000681ADA01C9010E94F104B501C6010E9469
:100AB0004F01C801B70120E63AEE40E050E00E9445
:100AC000681A28EE33E040E050E00E94681ADA012C
:100AD000C9010E94F10463E371E0C6010E944F0165
:100AE000C801B70128EE33E040E050E00E94681AE8
:100AF0002AE030E040E050E00E94681ADA01C901C3
:100B00000E94F1041F910F91FF90EF90DF90CF9022
:100B1000BF90AF900895AF92BF92CF92DF92EF92C5
:100B2000FF920F931F9366E4C62E62E0D62E20E05C
:100B300030E04EEF50E060E070E0C6010E94280215
:100B400020E030E040E850E060E070E0C6010E9444
:100B50002802E0903902F0903A0200913B02109195
:100B60003C0261E471E0C6010E944F01C801B70177
:100B700020E83EEE46E350E00E94681ADA01C9011F
:100B80000E94F1045FE3A52E51E0B52EB501C60128
:100B90000E944F01C801B70120E83EEE46E350E055
:100BA0000E94681A20E63AEE40E050E00E94681A7F
:100BB000DA01C9010E94F104B501C6010E944F018A
:100BC000C801B70120E63AEE40E050E00E94681A02
:100BD00028EE33E040E050E00E94681ADA01C901D3
:100BE0000E94F10463E371E0C6010E944F01C80155
:100BF000B70128EE33E040E050E00E94681A2AE096
:100C000030E040E050E00E94681ADA01C9010E9419
:100C1000F1041F910F91FF90EF90DF90CF90BF9064
:100C2000AF900895CF92DF92EF92FF920F931F93B0
:100C30008C016B0176E4E72E72E0F72E20E030E0C5
:100C40004EEF50E060E070E0C7010E94280220E013
:100C500030E041E050E060E070E0C7010E9428020F
:100C600020E030E04EEF50E060E070E0C7010E940D
:100C7000280220E030E040E850E060E070E0C7018A
:100C80000E942802B801C7010E944F0120E030E015
:100C90004EEF50E060E070E0C7010E94280220E0C3
:100CA00030E040EC50E060E070E0C7010E942802B4
:100CB000B601C7010E944F0168EE73E080E090E04A
:100CC0000E940D1620E030E04EEF50E060E070E052
:100CD000C7010E94280220E030E041E050E060E0DF
:100CE00070E0C7010E9428021F910F91FF90EF90C2
:100CF000DF90CF900895EF92FF920F931F937B01A7
:100D00008C0128EE33E040E050E00E94361A9B014F
:100D1000AC012D3E6CE2360760E0460760E0560706
:100D20000CF47FC024308AE0380781E0480780E077
:100D300058072CF020E030E040E050E076C0DA01C7
:100D4000C901815B9A49A040B040805F9E46A040A7
:100D5000B04088F4C801B70120E137E240E050E03C
:100D60000E94361A645C7C478441904027E23EEF43
:100D70004FEF5FEF1BC0DA01C90189529E46A040C8
:100D8000B04088589C42A040B04098F4C801B701D8
:100D900020E137E240E050E00E94361A605A734A80
:100DA0008141904024E83EEF4FEF5FEF0E948A1AA6
:100DB0003CC0DA01C901855F9C44A040B040845327
:100DC0009142A040B04088F4C801B70120E137E269
:100DD00040E050E00E94361A6C517F438E409040B4
:100DE00025EE3EEF4FEF5FEFE1CFDA01C90181550C
:100DF0009D42A040B040845A9F41A040B040A8F41A
:100E0000C801B70120E137E240E050E00E94361A05
:100E1000605A7C458840904029E73FEF4FEF5FEFF5
:100E2000C5CF2FE037E240E050E0CA01B9011F9181
:100E30000F91FF90EF900895EF92FF920F931F9301
:100E40007B018C0124E630E040E050E00E94361A3D
:100E50009B01AC01243C62E2360760E0460760E09B
:100E600056070CF4B3C1213087E7380781E0480703
:100E700080E058072CF020E030E040E050E0AAC1CC
:100E8000DA01C90186529C46A140B0408B5D9A4070
:100E9000A040B04088F4C801B70128EE33E040E03C
:100EA00050E00E94361A6A5D7F478F40904024E5EB
:100EB0003FEF4FEF5FEF1BC0DA01C9018B509E453A
:100EC000A140B0408B519E40A040B04098F4C80172
:100ED000B70128EE33E040E050E00E94361A6A5530
:100EE000764E8F4090402EE13FEF4FEF5FEF0E9434
:100EF0008A1A70C1DA01C90186589C44A140B040E9
:100F000085589141A040B04088F4C801B70128EE4F
:100F100033E040E050E00E94361A64587047804148
:100F2000904028EE3EEF4FEF5FEFE1CFDA01C901CD
:100F300084529543A140B04082569741A040B040B2
:100F400088F4C801B70128EE33E040E050E00E9489
:100F5000361A605571428141904021EB3EEF4FEFD0
:100F60005FEFC5CFDA01C90180599441A140B0407B
:100F700084599042A040B04088F4C801B70128EEDF
:100F800033E040E050E00E94361A6854714F8141CE
:100F900090402CE73EEF4FEF5FEFA9CFDA01C90198
:100FA0008750944FA040B04089589042A040B04034
:100FB00088F4C801B70128EE33E040E050E00E9419
:100FC000361A6A5C7748824190402BE53EEF4FEF3E
:100FD0005FEF8DCFDA01C9018F5E9F4CA040B0401A
:100FE00088519442A040B04088F4C801B70128EE6F
:100FF00033E040E050E00E94361A665F7B4A82414F
:10100000904024E53EEF4FEF5FEF71CFDA01C90169
:101010008C5B9A4AA040B04083539542A040B040B8
:1010200088F4C801B70128EE33E040E050E00E94A8
:10103000361A6E5C7A41824190402BE63EEF4FEFCC
:101040005FEF55CFDA01C90188579E48A040B040F4
:1010500084549C41A040B04088F4C801B70128EEF8
:1010600033E040E050E00E94361A62597D4F8041E3
:10107000904022E93EEF4FEF5FEF39CFDA01C9012F
:101080008E5D9747A040B0408A599641A040B0403D
:1010900088F4C801B70128EE33E040E050E00E9438
:1010A000361A605779498F4090402FEB3EEF4FEF53
:1010B0005FEF1DCFDA01C901815E9046A040B040CC
:1010C0008D5F9641A040B04088F4C801B70128EE7A
:1010D00033E040E050E00E94361A6C59724681407D
:1010E000904022EF3EEF4FEF5FEF01CFDA01C901F1
:1010F00081529E44A040B040805C9241A040B040EC
:1011000088F4C801B70128EE33E040E050E00E94C7
:10111000361A66557D4F8B40904024E23FEF4FEFEB
:101120005FEFE5CEDA01C9018C5E9D43A040B0407F
:1011300085539041A040B04088F4C801B70128EE23
:1011400033E040E050E00E94361A6E5E75428A40FD
:10115000904021E53FEF4FEF5FEFC9CEDA01C901C3
:101160008D559043A040B0408F589D40A040B04066
:1011700088F4C801B70128EE33E040E050E00E9457
:10118000361A685270478840904027E73FEF4FEF8C
:101190005FEFADCEDA01C9018E579342A040B04057
:1011A0008F5D9C40A040B040A8F4C801B70128EE74
:1011B00033E040E050E00E94361A605F7E45864092
:1011C000904022EA3FEF4FEF5FEF91CE2FE037E202
:1011D00040E050E0CA01B9011F910F91FF90EF90DC
:1011E00008959B01AC01243D82E0380780E0480768
:1011F00080E058070CF085C0213081E0380780E09E
:10120000480780E058072CF42FE037E240E050E038
:101210007CC0DA01C9018C569240A040B0408836AB
:101220009105A105B10598F4CA01B90129E631E09B
:1012300040E050E00E94361A28EE33E040E050E0F3
:101240000E948A1A2C5F3E4F4F4F5F4F5EC0DA01FB
:10125000C90189509240A040B04083369105A10554
:10126000B10598F4CA01B9012BE731E040E050E044
:101270000E94361A28EE33E040E050E00E948A1ABD
:10128000205F3E4F4F4F5F4F40C0DA01C9018C597C
:101290009140A040B0408D369105A105B10598F46C
:1012A000CA01B90128E531E040E050E00E94361A59
:1012B00028EE33E040E050E00E948A1A22503F4F6F
:1012C0004F4F5F4F22C0DA01C90182509140A040C8
:1012D000B0408A399105A105B105B8F4CA01B90138
:1012E00024EF30E040E050E00E94361A28EE33E070
:1012F00040E050E00E948A1A2B523F4F4F4F5F4F01
:1013000004C020E030E040E050E0CA01B901089597
:10131000CF93DF939B01AC01C1E0D0E009C0CA01CB
:10132000B9012AE030E040E050E00E948A1A21969C
:101330002A3031054105510594F757FD2196CE011C
:10134000DF91CF9108950F931F930EE412E020E0F8
:1013500030E04CE750E060E070E0C8010E94A0156A
:1013600020E030E040E850E060E070E0C8010E941A
:10137000A0156CE271E080E090E00E940D1620E084
:1013800030E04CE750E060E070E0C8010E94A0153A
:1013900020E030E04DE950E060E070E0C8010E94DC
:1013A000A0156CE271E080E090E00E940D161F91A4
:1013B0000F9108952F923F924F925F926F927F927A
:1013C0008F929F92AF92BF92CF92DF92EF92FF9255
:1013D0000F931F93CF93DF93CDB7DEB728970FB648
:1013E000F894DEBF0FBECDBF3C0118012901C982B0
:1013F000DA82EB82FC828D829E82AF82B8868D8CEF
:101400009E8CABA0BCA0CDA0DEA020E030E04EEFD3
:1014100050E060E070E086E492E00E94280220E064
:1014200030E040E850E060E070E086E492E00E9446
:101430002802B30186E492E00E944F016DE271E060
:1014400086E492E00E944F01C201B1012AE030E03F
:1014500040E050E00E948A1ABA01A90186E492E0B5
:101460000E94FD0163E371E086E492E00E944F0177
:10147000C201B1012AE030E040E050E00E948A1A47
:10148000AB01BC0186E492E00E94FD01C201B10102
:101490000E9488098C010F5F1F4F033011051CF457
:1014A0008C010E5F1F4FEE24FF2409C06DE271E036
:1014B00086E492E00E944F010894E11CF11C85E053
:1014C00090E0801B910BE816F90684F366E471E066
:1014D00086E492E00E944F0169817A818B819C8130
:1014E0000E9488098C010F5F1F4F033011051CF407
:1014F0008C010E5F1F4FEE24FF2409C06DE271E0E6
:1015000086E492E00E944F010894E11CF11C86E001
:1015100090E0801B910BE816F90684F369817A81CB
:101520008B819C812AE030E040E050E00E948A1AE2
:10153000BA01A90186E492E00E94FD0163E371E033
:1015400086E492E00E944F0169817A818B819C81BF
:101550002AE030E040E050E00E948A1AAB01BC0172
:1015600086E492E00E94FD018D819E81AF81B88565
:1015700082159305A405B50514F40E94A30920E083
:1015800030E04EEF50E060E070E086E492E00E94D0
:10159000280220E030E040EC50E060E070E086E4BB
:1015A00092E00E942802B40186E492E00E944F017A
:1015B0006DE271E086E492E00E944F01C601B50140
:1015C0002AE030E040E050E00E948A1ABA01A90106
:1015D00086E492E00E94FD0163E371E086E492E01C
:1015E0000E944F01C601B5012AE030E040E050E022
:1015F0000E948A1AAB01BC0186E492E00E94FD01C0
:10160000C601B5010E9488098C010F5F1F4F03308E
:1016100011051CF48C010E5F1F4FEE24FF2409C03E
:101620006DE271E086E492E00E944F010894E11CB3
:10163000F11C85E090E0801B910BE816F90684F31D
:1016400066E471E086E492E00E944F016FA178A504
:1016500089A59AA50E9488098C010F5F1F4F03304E
:1016600011051CF48C010E5F1F4FEE24FF2409C0EE
:101670006DE271E086E492E00E944F010894E11C63
:10168000F11C86E090E0801B910BE816F90684F3CC
:101690006FA178A589A59AA52AE030E040E050E046
:1016A0000E948A1ABA01A90186E492E00E94FD0113
:1016B00063E371E086E492E00E944F016FA178A598
:1016C00089A59AA52AE030E040E050E00E948A1AFD
:1016D000AB01BC0186E492E00E94FD018BA59CA5B4
:1016E000ADA5BEA58A159B05AC05BD0514F40E94E9
:1016F000A3096CE370E080E090E00E940D1628964C
:101700000FB6F894DEBF0FBECDBFDF91CF911F9112
:101710000F91FF90EF90DF90CF90BF90AF909F9090
:101720008F907F906F905F904F903F902F90089593
:101730002F923F924F925F926F927F928F929F92E1
:10174000AF92BF92CF92DF92EF92FF920F931F93CF
:10175000CF93DF93CDB7DEB728970FB6F894DEBFEF
:101760000FBECDBF3C0149835A836B837C83180134
:101770002901CD82DE82EF82F88620E030E04EEF54
:1017800050E060E070E086E492E00E94280220E0F1
:1017900030E040E850E060E070E086E492E00E94D3
:1017A0002802B30186E492E00E944F016DE271E0ED
:1017B00086E492E00E944F01C201B1012AE030E0CC
:1017C00040E050E00E948A1ABA01A90186E492E042
:1017D0000E94FD0163E371E086E492E00E944F0104
:1017E000C201B1012AE030E040E050E00E948A1AD4
:1017F000AB01BC0186E492E00E94FD01C201B1018F
:101800000E9488098C010F5F1F4F033011051CF4E3
:101810008C010E5F1F4FEE24FF2409C06DE271E0C2
:1018200086E492E00E944F010894E11CF11C85E0DF
:1018300090E0801B910BE816F90684F366E471E0F2
:1018400086E492E00E944F016D817E818F819885B0
:101850000E9488098C010F5F1F4F033011051CF493
:101860008C010E5F1F4FEE24FF2409C06DE271E072
:1018700086E492E00E944F010894E11CF11C86E08E
:1018800090E0801B910BE816F90684F36D817E8150
:101890008F8198852AE030E040E050E00E948A1A6B
:1018A000BA01A90186E492E00E94FD0163E371E0C0
:1018B00086E492E00E944F016D817E818F81988540
:1018C0002AE030E040E050E00E948A1AAB01BC01FF
:1018D00086E492E00E94FD0182149304A404B504FE
:1018E00014F40E94A30920E030E04EEF50E060E0E5
:1018F00070E086E492E00E94280220E030E040ECB4
:1019000050E060E070E086E492E00E942802698185
:101910007A818B819C8120E130E040E050E00E94A0
:101920008A1AC201B1010E94681A69017A0112146F
:101930001304140415041CF0CC24DD24760101E00A
:1019400010E00CC020E030E04FEF50E060E070E0CD
:1019500086E492E00E9428020F5F1F4FC801AA2769
:1019600097FDA095BA2F8C159D05AE05BF0550F3C8
:1019700001E010E008C06DE271E086E492E00E94B0
:101980004F010F5F1F4F9801442737FD4095542F9B
:1019900080E190E0A0E0B0E08C199D09AE09BF099C
:1019A000281739074A075B0730F36CE370E080E0E3
:1019B00090E00E940D1628960FB6F894DEBF0FBE79
:1019C000CDBFDF91CF911F910F91FF90EF90DF90EE
:1019D000CF90BF90AF909F908F907F906F905F90CF
:1019E0004F903F902F9008958F929F92AF92BF9209
:1019F000CF92DF92EF92FF920F931F9380910A0193
:101A00000E941317892BD1F368E471E083E591E01C
:101A10000E94120620E030E04EEF50E060E070E0FF
:101A200086E492E00E94280220E030E041E050E0AD
:101A300060E070E086E492E00E94280220E030E05E
:101A40004EEF50E060E070E086E492E00E942802F1
:101A500020E030E040E850E060E070E086E492E0B2
:101A60000E94280269E571E086E492E00E944F013D
:101A700068EE73E080E090E00E940D1620E030E018
:101A80004EEF50E060E070E086E492E00E942802B1
:101A900020E030E041E050E060E070E086E492E079
:101AA0000E94280248C00E94AD0D809108010E944A
:101AB0001317892B41F410922402109225021092E0
:101AC000260210922702809133020E948616AA27CE
:101AD00097FDA095BA2FBC01CD010E941D038B017B
:101AE0009C01C0902402D0902502E0902602F09044
:101AF0002702C616D706E806F90614F46B017C0126
:101B0000C0922402D0922502E0922602F09227028F
:101B1000E1E98E2E912CA12CB12C4AEA50E060E034
:101B200070E085E691E00E94980B62E370E080E04F
:101B300090E00E940D1680910A010E9413170197F0
:101B400009F4B1CF1F910F91FF90EF90DF90CF90EC
:101B5000BF90AF909F908F900895809133020E9424
:101B60008616AA2797FDA095BA2FBC01CD010E9429
:101B70001D036D3871058105910524F180910C01DB
:101B800090910D010397F1F083E090E090930D01A7
:101B900080930C01809133020E948616AA2797FD3C
:101BA000A095BA2FBC01CD010E941D0360932402B1
:101BB0007093250280932602909327020E9430039F
:101BC0000E94F40C08954F925F926F927F928F92D1
:101BD0009F92AF92BF92CF92DF92EF92FF920F93BC
:101BE0001F9380910A010E941317892BD1F369E694
:101BF00071E08AE691E00E9412069AC00E94AD0D43
:101C0000809108010E941317892B81F410921C0205
:101C100010921D0210921E0210921F0210921802C2
:101C20001092190210921A0210921B028091020166
:101C30000E948616AA2797FDA095BA2FBC01CD0158
:101C40000E941C072B013C01809104010E94861612
:101C5000AA2797FDA095BA2FBC01CD010E941C07B1
:101C60008B019C01C0901C02D0901D02E0901E02CE
:101C7000F0901F026C157D058E059F0514F06B0119
:101C80007C01C0921C02D0921D02E0921E02F092D2
:101C90001F028090180290901902A0901A02B09032
:101CA0001B02481459046A047B0414F053014201D6
:101CB0008092180290921902A0921A02B0921B020E
:101CC00088EE93E0A0E0B0E0BF93AF939F938F9333
:101CD000BF92AF929F928F927F926F925F924F923C
:101CE0008CEA9DE0A0E0B0E0BF93AF939F938F9309
:101CF0008BE791E09F938F93FFE08F2EF7E29F2E6B
:101D0000A12CB12C40E054E060E070E087E791E066
:101D10000E94DA0964E170E080E090E00E940D1614
:101D20008DB79EB742960FB6F8949EBF0FBE8DBF7B
:101D300080910A010E941317019709F45FCF1F9148
:101D40000F91FF90EF90DF90CF90BF90AF909F905A
:101D50008F907F906F905F904F9008954F925F9219
:101D60006F927F928F929F92AF92BF92CF92DF92AB
:101D7000EF92FF920F931F9380910A010E94131715
:101D8000892BD1F369E671E08FE791E00E9412069A
:101D90009CC00E94AD0D809108010E941317892BF1
:101DA00081F41092200210922102109222021092CD
:101DB0002302109224021092250210922602109201
:101DC0002702809100010E948616AA2797FDA09500
:101DD000BA2FBC01CD010E947B062B013C018091F2
:101DE00033020E948616AA2797FDA095BA2FBC0140
:101DF000CD010E941D034B015C01C0902002D090D8
:101E00002102E0902202F09023024C145D046E0443
:101E10007F0414F073016201C0922002D09221026B
:101E2000E0922202F09223022091240230912502B6
:101E3000409126025091270282169306A406B50609
:101E400014F0A501940120932402309325024093BD
:101E50002602509327028CE890E0A0E0B0E0BF9308
:101E6000AF939F938F935F934F933F932F93BF9223
:101E7000AF929F928F9282ED90E0A0E0B0E0BF938E
:101E8000AF939F938F9385E691E09F938F93A0EDFF
:101E90008A2EA7E09A2EA12CB12C930182014CEA44
:101EA0005DE060E070E080E991E00E94DA0962E3C1
:101EB00070E080E090E00E940D168DB79EB74296CC
:101EC0000FB6F8949EBF0FBE8DBF80910A010E948D
:101ED0001317019709F45DCF1F910F91FF90EF90B9
:101EE000DF90CF90BF90AF909F908F907F906F903A
:101EF0005F904F9008958F929F92AF92BF92CF9232
:101F0000DF92EF92FF920F931F9380912802882314
:101F100031F480910A010E941317892BD1F368E4F0
:101F200071E084E991E00E94120659C00E94AD0D53
:101F3000809108010E941317892B41F4109220020E
:101F4000109221021092220210922302809100012D
:101F50000E948616AA2797FDA095BA2FBC01CD0135
:101F60000E947B068B019C0180912802882361F4EA
:101F700002391105210531053CF082E090E0909393
:101F80000D0180930C0132C0C0902002D09021023C
:101F9000E0902202F09023020C151D052E053F054E
:101FA00014F068017901C0922002D0922102E092DF
:101FB0002202F0922302B8E28B2EBAE09B2EA12CD3
:101FC000B12C4CEA5DE060E070E08DE991E00E94A8
:101FD000980B62E370E080E090E00E940D16809123
:101FE0000A010E941317019709F4A0CF1F910F91C6
:101FF000FF90EF90DF90CF90BF90AF909F908F9029
:10200000089580910A010E941317892BD1F30E9431
:10201000AD0D8091310290913202892B09F083C07D
:1020200020E030E04EEF50E060E070E086E492E0C7
:102030000E94280220E030E041E050E060E070E0E3
:1020400086E492E00E94280220E030E04EEF50E06B
:1020500060E070E086E492E00E94280220E030E038
:1020600040E850E060E070E086E492E00E942802E0
:1020700064E170E080E090E00E940D1661EA71E09A
:1020800086E492E00E944F0120E030E04EEF50E005
:1020900060E070E086E492E00E94280220E030E0F8
:1020A00040EC50E060E070E086E492E00E9428029C
:1020B00061EB71E086E492E00E944F0110923902D8
:1020C00010923A0210923B0210923C02109235029A
:1020D00010923602109237021092380207C0809197
:1020E0000A010E941317892B09F4A1C180910801EC
:1020F0000E941317019799F310C081E090E090932C
:102100003202809331020E94F51560932D02709384
:102110002E0280932F0290933002809108010E943A
:102120001317892B51F3809131029091320201975C
:1021300009F07AC020E030E04EEF50E060E070E05F
:1021400086E492E00E94280220E030E041E050E086
:1021500060E070E086E492E00E94280220E030E037
:102160004EEF50E060E070E086E492E00E942802CA
:1021700020E030E040E850E060E070E086E492E08B
:102180000E9428023BC00E94AD0D80910A010E946E
:102190001317892B09F44BC120E030E04EEF50E0DB
:1021A00060E070E086E492E00E94280220E030E0E7
:1021B00041E050E060E070E086E492E00E94280296
:1021C0000E94F51520912D0230912E0240912F0290
:1021D00050913002621B730B840B950B6093390294
:1021E00070933A0280933B0290933C020E948B05CD
:1021F00062E370E080E090E00E940D16809108019B
:102200000E941317019709F4BECF08C00E94AD0DBC
:1022100082E090E090933202809331028091080135
:102220000E941317892B91F3809131029091320211
:10223000029709F05DC020E030E04EEF50E060E032
:1022400070E086E492E00E94280220E030E041E065
:1022500050E060E070E086E492E00E9428020E9474
:102260008B0562E370E080E090E00E940D1620E0B4
:1022700030E04EEF50E060E070E086E492E00E94D3
:10228000280220E030E040EC50E060E070E086E4BE
:1022900092E00E94280261EB71E086E492E00E94E5
:1022A0004F0109C080910A010E941317892B09F47C
:1022B000BEC00E94AD0D809108010E9413170197C6
:1022C00089F310C083E090E0909332028093310252
:1022D0000E94F5156093290270932A0280932B02C5
:1022E00090932C02809108010E941317892B51F3BF
:1022F0008091310290913202039709F055C020E09D
:1023000030E04EEF50E060E070E086E492E00E9442
:10231000280220E030E041E050E060E070E086E438
:1023200092E00E9428020E948B056AE070E080E043
:1023300090E025C00E94AD0D80910A010E94131704
:10234000892B09F474C00E94F5152091290230915F
:102350002A0240912B0250912C02621B730B840BBA
:10236000950B6093350270933602809337029093F9
:1023700038020E94040562E370E080E090E00E9471
:102380000D16809108010E941317019799F206C05B
:1023900084E090E0909332028093310280910801B2
:1023A0000E941317892BA1F3809131029091320280
:1023B0000497E9F520E030E04EEF50E060E070E097
:1023C00086E492E00E94280220E030E041E050E004
:1023D00060E070E086E492E00E94280218C00E944B
:1023E0008B0562E370E080E090E00E940D160E9491
:1023F000040562E370E080E090E00E940D160E9408
:10240000AD0D80910A010E941317892B81F08091F4
:1024100008010E941317019711F3809108010E948F
:102420001317892BD1F310923202109231020895C2
:10243000EF92FF920F931F9380912802813031F425
:1024400080910A010E941317892BD1F30E94AD0DD0
:1024500081E08093280280911401909115010E94DF
:1024600041037C0180911201909113010E9441036C
:102470008C0180913F02909140020196909340021E
:1024800080933F0280913D0290913E02019690938D
:102490003E0280933D02C8010E94730320E030E0B9
:1024A0004EEF50E060E070E086E492E00E94280287
:1024B00020E030E040E850E060E070E086E492E048
:1024C0000E9428026CE370E080E090E00E940D160C
:1024D000C8010E94B60320E030E04EEF50E060E01B
:1024E00070E086E492E00E94280220E030E040ECB8
:1024F00050E060E070E086E492E00E9428026CE325
:1025000070E080E090E00E940D1661EC71E086E4DE
:1025100092E00E944F01C7010E94AA0464EC71E09E
:1025200086E492E00E944F01C8010E94AA041F9114
:102530000F91FF90EF9008954F925F926F927F926C
:102540008F929F92AF92BF92CF92DF92EF92FF92C3
:102550000F931F93CF93DF93CDB7DEB764970FB67A
:10256000F894DEBF0FBECDBF80910A010E94131701
:10257000892BD1F320E030E04EEF50E060E070E0D6
:1025800086E492E00E94280220E030E041E050E042
:1025900060E070E086E492E00E94280220E030E0F3
:1025A0004EEF50E060E070E086E492E00E94280286
:1025B00020E030E040E850E060E070E086E492E047
:1025C0000E94280269EC71E086E492E00E944F01CB
:1025D00020E030E04EEF50E060E070E086E492E012
:1025E0000E94280220E030E040EC50E060E070E023
:1025F00086E492E00E94280265ED71E086E492E0B4
:102600000E944F0107C080910A010E941317892B75
:1026100009F451C1809108010E941317019799F3A1
:1026200064EF71E080E090E00E940D1620E030E061
:102630004EEF50E060E070E086E492E00E942802F5
:1026400020E030E041E050E060E070E086E492E0BD
:102650000E9428026DED71E086E492E00E944F0135
:1026600065EE71E08EE492E00E941F1520E030E0FC
:102670004DE050E060E070E08EE492E00E94A01532
:10268000809108010E941317892BD1F380910A01D0
:102690000E941317019709F002C1809108010E945E
:1026A0001317019709F0FBC060E172E08EE492E03D
:1026B0000E941F15809104010E948616AA2797FD8B
:1026C000A095BA2FBC01CD010E941C072B013C0133
:1026D000809102010E948616AA2797FDA095BA2F25
:1026E000BC01CD010E941C0769877A878B879C8774
:1026F000809100010E948616AA2797FDA095BA2F07
:10270000BC01CD010E947B066D877E878F87988BE9
:10271000809133020E948616AA2797FDA095BA2FB2
:10272000BC01CD010E941D03698B7A8B8B8B9C8B26
:1027300080911401909115010E9441039C0144274E
:1027400037FD4095542F2D833E834F8358878091CA
:102750001201909113010E9441039C01442737FD0F
:102760004095542F29833A834B835C83C301B20184
:102770000E9488098C0169857A858B859C850E94D9
:1027800088094C016D857E858F8598890E9488090E
:102790005C0169897A898B899C890E9488096C010E
:1027A0006D817E818F8198850E9488097C01698175
:1027B0007A818B819C810E948809080D191D0A0D60
:1027C0001B1D0C0D1D1D0E0D1F1D080F191F0B5F6E
:1027D0001F4FB8018EE492E00E94BB1520E030E06C
:1027E0004DE050E060E070E08EE492E00E94A015C1
:1027F000B301A2018EE492E00E94721565E172E0DD
:102800008EE492E00E941F1549855A856B857C8570
:102810008EE492E00E94721565E172E08EE492E02F
:102820000E941F154D855E856F8578898EE492E044
:102830000E94721565E172E08EE492E00E941F151D
:1028400049895A896B897C898EE492E00E947215CD
:1028500065E172E08EE492E00E941F154D815E8179
:102860006F8178858EE492E00E94721565E172E0D6
:102870008EE492E00E941F1549815A816B817C8110
:102880008EE492E00E94721520E030E04DE050E0CE
:1028900060E070E08EE492E00E94A015F7CE809197
:1028A0000A010E941317892B31F4809108010E94BC
:1028B0001317892BA1F364960FB6F894DEBF0FBEF1
:1028C000CDBFDF91CF911F910F91FF90EF90DF90DF
:1028D000CF90BF90AF909F908F907F906F905F90C0
:1028E0004F90089560910C0170910D0186E492E083
:1028F0000E94200280910A010E941317892B99F5EA
:1029000080910A010E941317892BD1F780910C0145
:1029100090910D018130910519F482E090E01FC083
:102920008230910519F483E090E019C0833091055D
:1029300019F484E090E013C08430910519F485E027
:1029400090E00DC08530910519F486E090E007C055
:10295000069719F487E090E002C081E090E0909340
:102960000D0180930C0180910C0190910D01029753
:1029700011F40E94181280910C0190910D0106979C
:1029800011F40E94011080910C0190910D010197AA
:1029900011F40E947B0F80910C0190910D0103971F
:1029A00011F40E94F40C80910C0190910D01049798
:1029B00011F40E94AE0E80910C0190910D010597CB
:1029C00011F40E94E30D80910C0190910D01079785
:1029D00011F40E949C120895CFEFD4E0DEBFCDBF6A
:1029E0000E943C160E9492020E947214FDCF6F5FFB
:1029F0007F4F41F4019731F445E064E086E492E0D2
:102A00000E948C0008956FEF7FEF81E090E00E94BC
:102A1000F714089508950895CB01BA010E94A717ED
:102A200008950E94E817992708950E94F9170895BC
:102A30000E9418180895862F0E945F180895CB01F0
:102A40000E9466180895862F0E945F1808950F93BC
:102A50001F938C016DE00E941B156AE0C8010E9463
:102A60001B151F910F9108950F931F938C010E94C6
:102A70001B15C8010E9427151F910F9108950F93F0
:102A80001F938C010E941F15C8010E9427151F91DA
:102A90000F9108950F931F938C010E942315C80175
:102AA0000E9427151F910F910895CB01BA0133277A
:102AB000442755270E94731808952AE00E9455154F
:102AC00008950F931F938C010E945D15C8010E9409
:102AD00027151F910F910895AB01662777270E9454
:102AE0005D150895EF92FF920F931F93CF93DF939D
:102AF000EC017A018B0177FF0BC06DE20E941B1580
:102B000010950095F094E094E11CF11C011D111D3D
:102B10002AE0B801A701CE010E945515DF91CF919F
:102B20001F910F91FF90EF9008950F931F938C01C9
:102B30000E947215C8010E9427151F910F910895D8
:102B40002115310521F4642F0E941B1508952A30A8
:102B5000310519F40E94721508950E9455150895C3
:102B60000F931F938C010E94A015C8010E94271586
:102B70001F910F910895AB01662757FD6095762F41
:102B80000E94721508950F931F938C010E94BB152C
:102B9000C8010E9427151F910F9108950895089567
:102BA0001F920F920FB60F9211248F939F93AF93A2
:102BB000BF938091530290915402A0915502B0911D
:102BC00056020196A11DB11D8093530290935402A9
:102BD000A0935502B0935602BF91AF919F918F91F0
:102BE0000F900FBE0F901F90189560915302709137
:102BF0005402809155029091560227E0660F771F8C
:102C0000881F991F2A95D1F72DE730E040E050E06A
:102C10000E94681ACA01B9010895AF92BF92CF927B
:102C2000DF92EF92FF920F931F935B016C010E9462
:102C3000F5157B018C010E94F5156E197F09800B3B
:102C4000910B6A157B058C059D05A8F31F910F91CB
:102C5000FF90EF90DF90CF90BF90AF9008950197D5
:102C600051F0880F991F880F991F02972FB7F8947A
:102C70000197F1F72FBF08957894109253021092A4
:102C80005402109255021092560284B5826084BD9F
:102C900084B5816084BD85B5826085BD85B5816060
:102CA00085BDEEE6F0E0808181608083E1E8F0E0C0
:102CB000808182608083808181608083E0E8F0E0B1
:102CC000808181608083E1EBF0E08081846080839B
:102CD000E0EBF0E0808181608083ECE7F0E08081D0
:102CE0008F778083808180648083EAE7F0E0808151
:102CF0008460808380818260808380818160808322
:102D00008081806880831092C100089590917C003A
:102D1000907F8F70982B90937C0080917A008064D4
:102D200080937A0080917A0086FDFCCF2091780014
:102D3000809179009927982F88273327822B932B0E
:102D400008951F93CF93DF93182FEB0161E00E944A
:102D5000F516E12FFF27E459FF4F8491833051F49A
:102D600080918000806880938000D0938900C09318
:102D7000880037C0843051F4809180008062809355
:102D80008000D0938B00C0938A002BC0813029F43F
:102D900084B5806884BDC7BD24C0823029F484B561
:102DA000806284BDC8BD1DC0863041F48091B000F2
:102DB00080688093B000C093B30013C0873041F4A3
:102DC0008091B00080628093B000C093B40009C0CD
:102DD000C038D10514F460E001C061E0812F0E9489
:102DE0005C17DF91CF911F910895282F3327C901D8
:102DF00080589F4FFC0194912C563F4FF9018491CC
:102E0000882381F0E82FFF27EE54FF4FE491FF273E
:102E1000662329F480819095892380830895808199
:102E2000892B80830895482F5527CA0184599F4FC5
:102E3000FC012491CA0180589F4FFC0194914C568B
:102E40005F4FFA0134913323A1F1222331F1233072
:102E500021F4809180008F7705C0243031F4809177
:102E600080008F7D8093800018C0213019F484B5D4
:102E70008F7704C0223021F484B58F7D84BD0DC0CE
:102E8000263021F48091B0008F7705C0273029F4D7
:102E90008091B0008F7D8093B000E32FFF27E8552D
:102EA000FF4FE491FF278081892319F081E090E0B2
:102EB000089580E090E00895482F5527CA0184596D
:102EC0009F4FFC012491CA0180589F4FFC019491AF
:102ED0004C565F4FFA0134913323C1F1222331F173
:102EE000233021F4809180008F7705C0243031F4A5
:102EF000809180008F7D8093800018C0213019F46C
:102F000084B58F7704C0223021F484B58F7D84BDD1
:102F10000DC0263021F48091B0008F7705C0273096
:102F200029F48091B0008F7D8093B000E32FFF27BC
:102F3000E355FF4FE491FF27662329F480819095A4
:102F40008923808308958081892B80830895EF925F
:102F5000FF920F931F937B018C0122E030E040E051
:102F600050E00E948A1A205C3D4B404F5F4FCA01DF
:102F7000B901A80197010E948A1A215030404040AF
:102F80005040BB2757FDBA95A52F942F832F2F5F55
:102F90003F4F4F4F5F4F8093C50021502093C40097
:102FA000E1ECF0E0808180618083808188608083B3
:102FB0008081806880831F910F91FF90EF9008952A
:102FC000982F8091C00085FFFCCF9093C600089594
:102FD000809151029091520220914F023091500203
:102FE000821B930B80589F4F60E870E00E94551A37
:102FF000089540914F02509150028091510290915A
:1030000052028417950719F48FEF9FEF0895FA0184
:10301000E95AFD4F2081CA01019660E870E00E94E4
:10302000551A9093500280934F02822F992708954A
:1030300080914F02909150029093520280935102DE
:1030400008951F920F920FB60F9211242F933F9362
:103050004F935F936F937F938F939F93AF93BF93A0
:10306000EF93FF934091C600E0915102F09152021C
:10307000CF01019660E870E00E94551A9C01809192
:103080004F02909150022817390739F0E95AFD4F45
:1030900040833093520220935102FF91EF91BF91F0
:1030A000AF919F918F917F916F915F914F913F91E0
:1030B0002F910F900FBE0F901F90189508950E94AA
:1030C000E01708958AE00E945F180895CF93DF9378
:1030D000EC0103C021960E945F1888818823D1F7F4
:1030E000DF91CF9108952F923F924F925F926F920E
:1030F0007F928F929F92AF92BF92CF92DF92EF9288
:10310000FF920F931F93CF93DF93CDB7DEB7A097B6
:103110000FB6F894DEBF0FBECDBF6B017C01190165
:103120002A01611571058105910521F480E30E9452
:103130005F184BC06624772443015E010894A11CEC
:10314000B11C8501060D171DC701B601A201910131
:103150000E94681AF80160830894611C711C811C2C
:10316000911CC701B601A20191010E94681A690170
:103170007A01211531054105510519F773010894AC
:10318000E108F108EA0CFB1CAA24BB24650111C06C
:10319000F70180818A3010F4805D01C0895C0E9453
:1031A0005F180894A108B108C108D1080894E10883
:1031B000F10888279927DC0186199709A809B90918
:1031C000A816B906CA06DB0619F7A0960FB6F8943A
:1031D000DEBF0FBECDBFDF91CF911F910F91FF904A
:1031E000EF90DF90CF90BF90AF909F908F907F90A7
:1031F0006F905F904F903F902F900895EF92FF92C5
:103200000F931F937B018C0197FF0BC08DE20E94EF
:103210005F1810950095F094E094E11CF11C011DDD
:10322000111D2AE030E040E050E0C801B7010E94E3
:1032300073181F910F91FF90EF90089520E130E0F7
:1032400040E050E00E947318089528E030E040E02C
:1032500050E00E947318089522E030E040E050E012
:103260000E94731808958CD001D06FC0552359F077
:10327000992369F09F575F57951B33F442F49038B8
:1032800011F4915805C079C091589F3F09F4A4C02A
:10329000BB27112462177307840730F4660F771F6A
:1032A000881FBB1F915098F311D00F920FD00F922F
:1032B0000DD0A0E82617370748071B0609F0A048DD
:1032C000BA2F602D7F918F9100240895A0E80024EB
:1032D000621773078407B10528F0621B730B840B18
:1032E000B1090A2A660F771F881FBB1FA69581F7B1
:1032F000089597FB51D09F3738F0FEE9F91B982FBE
:10330000872F762F6B2F05C064C09695879577958C
:103310006795F150D0F73EF4909580957095619542
:103320007F4F8F4F9F4F0895E89403C097FB0EF493
:10333000F3DFB62F672F782F892F9EE9002405C071
:103340009A95BB0F661F771F881F11249923A1F040
:103350008823B2F79F3F59F0BB0F48F421F40020B7
:1033600011F460FF04C06F5F7F4F8F4F9F4F881F26
:103370009795879597F908952CC09FEF80EC089555
:10338000052E092607FA440F551F5F3F79F0AA273B
:10339000A51708F051E04795880F991F9F3F31F01E
:1033A000BB27B91708F091E0879508959F919F91E9
:1033B0001124E3CF97FB880F991F9F3F31F0BB2764
:1033C000B91708F091E0879508959F919F91112476
:1033D000D4CF66277727882799270895D1DF01D092
:1033E000B4CF992339F0552329F09F575F57950F94
:1033F00013F49AF1F1CF91589F3FE1F3629FA12D11
:103400000F92BB27639FA00DB11DEE27729FA00DE9
:10341000B11DEE1FAF93AA27649FB00DE11D739FEE
:10342000B00DE11DAA1F6627829FB00DE11DA61FEA
:103430005527749FE00DA11D551F839FE00DA11D11
:10344000561F849FA00D511D852F7A2F6E2F1F9020
:103450000F9088231AF4939539F48FCF000C111C28
:10346000BB1F661F771F881F01280895629FD00128
:10347000739FF001829FE00DF11D649FE00DF11D2F
:10348000929FF00D839FF00D749FF00D659FF00DDE
:103490009927729FB00DE11DF91F639FB00DE11DCB
:1034A000F91FBD01CF011124089597FB092E0726AE
:1034B0000AD077FD04D049D006D000201AF47095C8
:1034C00061957F4F0895F6F7909581959F4F0895E8
:1034D000A1E21A2EAA1BBB1BFD010DC0AA1FBB1F18
:1034E000EE1FFF1FA217B307E407F50720F0A21B8A
:1034F000B30BE40BF50B661F771F881F991F1A94F7
:1035000069F760957095809590959B01AC01BD0120
:10351000CF01089597FB092E05260ED057FD04D044
:10352000D7DF0AD0001C38F450954095309521958E
:103530003F4F4F4F5F4F0895F6F7909580957095E8
:1035400061957F4F8F4F9F4F0895AA1BBB1B51E181
:1035500007C0AA1FBB1FA617B70710F0A61BB70B03
:10356000881F991F5A95A9F780959095BC01CD01A8
:0E3570000895EE0FFF1F0590F491E02D0994D1
:10357E000100030002000B000D000A000100000212
:10358E000002050004004C434420636865636B0031
:10359E003100320020202020202020200020002B6F
:1035AE00002D002E002E3000300054323A20003A0A
:1035BE000054313A20002F0020202020204D657429
:1035CE00657200426F6F737400426F6F7374204D9B
:1035DE0065746572007073690000322054656D70F9
:1035EE00204D65746572004620310046203200542D
:1035FE00656D702F426F6F7374204D657465720028
:10360E00746D70004F696C2054656D70006F696C3D
:10361E000054313A2030303A30303A30302E30309B
:10362E000054323A2030303A30303A30302E30308A
:10363E0000783A0020793A2000555342204C6F67AB
:10364E0067696E670050726573732042004C6F6736
:10365E0067696E670054312C2054322C204F696CF0
:10366E002054656D702C20426F6F73742C2078205F
:10367E00616363656C2C207920616363656C0A005D
:08368E0057524620002C0000F9
:00000001FF
