:100000000C945B000C9481000C9481000C94810092
:100010000C9481000C9481000C9481000C9481005C
:100020000C9481000C9481000C9481000C9481004C
:100030000C9481000C9481000C9481000C9481003C
:100040000C9422120C9481000C9471140C94810075
:100050000C9481000C9481000C9481000C9481001C
:100060000C9481000C948100211200000007000212
:10007000010000030406000000000000000001026F
:100080000408102040800102040810200102040826
:100090001020040404040404040402020202020204
:1000A0000303030303030000232629000025282B54
:1000B000000024272A0011241FBECFEFD4E0DEBFAA
:1000C000CDBF11E0A0E0B1E0EEE1FEE202C005909C
:1000D0000D92A63EB107D9F712E0A6EEB1E001C03D
:1000E0001D92A839B107E1F710E0CAE6D0E004C0DC
:1000F0002297FE010E940B17C836D107C9F70C944E
:10010000E90F0C94000040E855E260E070E08FE0F9
:1001100092E00E94531120E030E04EEF50E060E0AA
:1001200070E08FE092E00E94F21120E030E040ECBD
:1001300050E060E070E08FE092E00E94F21120E079
:1001400030E04CE750E060E070E08FE092E00E9429
:10015000F21120E030E046E950E060E070E08FE02E
:1001600092E00E94F211809114010E94D3129C012E
:1001700081599140873C910528F4309313012093D5
:10018000120106C080E092E0909313018093120167
:10019000809116010E94D3129C0181599140873CA5
:1001A000910528F4309311012093100106C080E0DE
:1001B00092E0909311018093100160E080910C0116
:1001C0000E94451360E080910A010E944513089542
:1001D0000895CF92DF92EF92FF920F931F938C01BD
:1001E0006B018FE0E82E82E0F82E20E030E04EEF49
:1001F00050E060E070E0C7010E94F21120E030E0C2
:1002000041E050E060E070E0C7010E94F21120E0A0
:1002100030E04EEF50E060E070E0C7010E94F21164
:1002200020E030E040E850E060E070E0C7010E946C
:10023000F211B801C7010E94661120E030E04EEFD4
:1002400050E060E070E0C7010E94F21120E030E071
:1002500040EC50E060E070E0C7010E94F211B6018E
:10026000C7010E94661168EE73E080E090E00E9492
:100270005F1220E030E04EEF50E060E070E0C70138
:100280000E94F21120E030E041E050E060E070E0D8
:10029000C7010E94F2111F910F91FF90EF90DF9024
:1002A000CF900895EF92FF920F931F937B018C01E3
:1002B00028EE33E040E050E00E9486169B01AC013E
:1002C0002D3E6CE2360760E0460760E056070CF40E
:1002D0007FC024308AE0380781E0480780E0580773
:1002E0002CF020E030E040E050E076C0DA01C901B7
:1002F000815B9A49A040B040805F9E46A040B040DC
:1003000088F4C801B70120E137E240E050E00E94E4
:100310008616645C7C478441904027E23EEF4FEFB5
:100320005FEF1BC0DA01C90189529E46A040B04070
:1003300088589C42A040B04098F4C801B70120E121
:1003400037E240E050E00E948616605A734A8141CD
:10035000904024E83EEF4FEF5FEF0E94DA163CC07A
:10036000DA01C901855F9C44A040B04084539142AA
:10037000A040B04088F4C801B70120E137E240E076
:1003800050E00E9486166C517F438E40904025EECF
:100390003EEF4FEF5FEFE1CFDA01C90181559D429A
:1003A000A040B040845A9F41A040B040A8F4C8018A
:1003B000B70120E137E240E050E00E948616605A23
:1003C0007C458840904029E73FEF4FEF5FEFC5CF76
:1003D0002FE037E240E050E0CA01B9011F910F91D0
:1003E000FF90EF900895EF92FF920F931F937B0180
:1003F0008C0124E630E040E050E00E9486169B012C
:10040000AC01243C62E2360760E0460760E0560734
:100410000CF4B3C1213087E7380781E0480780E05A
:1004200058072CF020E030E040E050E0AAC1DA01AB
:10043000C90186529C46A140B0408B5D9A40A040C5
:10044000B04088F4C801B70128EE33E040E050E046
:100450000E9486166A5D7F478F40904024E53FEFFB
:100460004FEF5FEF1BC0DA01C9018B509E45A140E1
:10047000B0408B519E40A040B04098F4C801B701F5
:1004800028EE33E040E050E00E9486166A55764E32
:100490008F4090402EE13FEF4FEF5FEF0E94DA1662
:1004A00070C1DA01C90186589C44A140B04085580A
:1004B0009141A040B04088F4C801B70128EE33E074
:1004C00040E050E00E94861664587047804190409A
:1004D00028EE3EEF4FEF5FEFE1CFDA01C901845222
:1004E0009543A140B04082569741A040B04088F467
:1004F000C801B70128EE33E040E050E00E948616C4
:10050000605571428141904021EB3EEF4FEF5FEF2C
:10051000C5CFDA01C90180599441A140B040845946
:100520009042A040B04088F4C801B70128EE33E003
:1005300040E050E00E9486166854714F814190401F
:100540002CE73EEF4FEF5FEFA9CFDA01C9018750EB
:10055000944FA040B04089589042A040B04088F4E9
:10056000C801B70128EE33E040E050E00E94861653
:100570006A5C7748824190402BE53EEF4FEF5FEF9A
:100580008DCFDA01C9018F5E9F4CA040B0408851E9
:100590009442A040B04088F4C801B70128EE33E08F
:1005A00040E050E00E948616665F7B4A82419040A0
:1005B00024E53EEF4FEF5FEF71CFDA01C9018C5BAD
:1005C0009A4AA040B04083539542A040B04088F47E
:1005D000C801B70128EE33E040E050E00E948616E3
:1005E0006E5C7A41824190402BE63EEF4FEF5FEF29
:1005F00055CFDA01C90188579E48A040B0408454C5
:100600009C41A040B04088F4C801B70128EE33E017
:1006100040E050E00E94861662597D4F8041904034
:1006200022E93EEF4FEF5FEF39CFDA01C9018E5D6E
:100630009747A040B0408A599641A040B04088F406
:10064000C801B70128EE33E040E050E00E94861672
:10065000605779498F4090402FEB3EEF4FEF5FEFAF
:100660001DCFDA01C901815E9046A040B0408D5F88
:100670009641A040B04088F4C801B70128EE33E0AD
:1006800040E050E00E9486166C59724681409040CE
:1006900022EF3EEF4FEF5FEF01CFDA01C901815248
:1006A0009E44A040B040805C9241A040B04088F49D
:1006B000C801B70128EE33E040E050E00E94861602
:1006C00066557D4F8B40904024E23FEF4FEF5FEF48
:1006D000E5CEDA01C9018C5E9D43A040B040855350
:1006E0009041A040B04088F4C801B70128EE33E043
:1006F00040E050E00E9486166E5E75428A4090404F
:1007000021E53FEF4FEF5FEFC9CEDA01C9018D550B
:100710009043A040B0408F589D40A040B04088F426
:10072000C801B70128EE33E040E050E00E94861691
:10073000685270478840904027E73FEF4FEF5FEFE8
:10074000ADCEDA01C9018E579342A040B0408F5D13
:100750009C40A040B040A8F4C801B70128EE33E0A7
:1007600040E050E00E948616605F7E4586409040E3
:1007700022EA3FEF4FEF5FEF91CE2FE037E240E00C
:1007800050E0CA01B9011F910F91FF90EF900895B9
:10079000CF93DF93EC010A9734F468E171E08FE0C6
:1007A00092E00E946611BE018FE092E00E940D125D
:1007B000DF91CF910895EF92FF920F931F93CF9304
:1007C000DF936AE171E084E291E00E94E9008091A8
:1007D000F201882309F01EC180910C010E9463136D
:1007E000892B09F017C1F8CF80910A010E94631389
:1007F000892B41F41092EE011092EF011092F0015A
:100800001092F101809100010E94D312AA2797FD56
:10081000A095BA2FBC01CD010E945201EB0180913D
:10082000F201882331F4C239D1051CF082E090E056
:10083000ECC02091EE013091EF014091F001509118
:10084000F101CE01AA2797FDA095BA2F8217930731
:10085000A407B50714F4DA01C9018093EE0190935F
:10086000EF01A093F001B093F10120E030E04EEFF2
:1008700050E060E070E08FE092E00E94F21120E032
:1008800030E040E850E060E070E08FE092E00E94ED
:10089000F2110E9447127B018C0120E030E04EEF04
:1008A00050E060E070E08FE092E00E94F21120E002
:1008B00030E040E850E060E070E08FE092E00E94BD
:1008C000F21162E371E08FE092E00E946611C801CC
:1008D000B70120E83EEE46E350E00E94B816DA0188
:1008E000C9010E94C80365E371E08FE092E00E94B5
:1008F0006611C801B70120E83EEE46E350E00E94D1
:10090000B81620E63AEE40E050E00E94B816DA0150
:10091000C9010E94C80365E371E08FE092E00E9484
:100920006611C801B70120E63AEE40E050E00E94AF
:10093000B81628EE33E040E050E00E94B816DA0125
:10094000C9010E94C80367E371E08FE092E00E9452
:100950006611C801B70128EE33E040E050E00E9484
:10096000B8162AE030E040E050E00E94B816DA0104
:10097000C9010E94C80320E030E04EEF50E060E083
:1009800070E08FE092E00E94F21120E030E040EC55
:1009900050E060E070E08FE092E00E94F21169E3C5
:1009A00071E08FE092E00E946611809100010E9448
:1009B000D312AA2797FDA095BA2FBC01CD010E94A2
:1009C00052017B018C01CB016AE070E00E94A51608
:1009D0008FE092E00E940D1267E371E08FE092E0F9
:1009E0000E946611C7016AE070E00E94A516BC0172
:1009F0008FE092E00E940D128091F201882351F461
:100A0000C239D1053CF081E090E090930F018093D2
:100A10000E0113C080910C010E946313019709F429
:100A2000E3CE80910C010E946313892BD1F364E122
:100A300070E080E090E00E945F12DF91CF911F9103
:100A40000F91FF90EF900895AF92BF92CF92DF92F7
:100A5000EF92FF920F931F932FE0C22E22E0D22E2F
:100A600020E030E04EEF50E060E070E0C6010E9410
:100A7000F21120E030E040EC50E060E070E0C601B0
:100A80000E94F211E090FF01F0900002009101023B
:100A90001091020263E471E0C6010E946611C80170
:100AA000B70120E83EEE46E350E00E94B816DA01B6
:100AB000C9010E94C80395E3A92E91E0B92EB501A2
:100AC000C6010E946611C801B70120E83EEE46E368
:100AD00050E00E94B81620E63AEE40E050E00E9456
:100AE000B816DA01C9010E94C803B501C6010E9407
:100AF0006611C801B70120E63AEE40E050E00E94DE
:100B0000B81628EE33E040E050E00E94B816DA0153
:100B1000C9010E94C80367E371E0C6010E94661123
:100B2000C801B70128EE33E040E050E00E94B8165B
:100B30002AE030E040E050E00E94B816DA01C90136
:100B40000E94C8031F910F91FF90EF90DF90CF900C
:100B5000BF90AF900895AF92BF92CF92DF92EF9285
:100B6000FF920F931F934FE0C42E42E0D42E20E05B
:100B700030E04EEF50E060E070E0C6010E94F211FC
:100B800020E030E040E850E060E070E0C6010E9404
:100B9000F211E0900302F09004020091050210911E
:100BA000060268E471E0C6010E946611C801B7013F
:100BB00020E83EEE46E350E00E94B816DA01C90193
:100BC0000E94C80335E3A32E31E0B32EB501C60160
:100BD0000E946611C801B70120E83EEE46E350E0EE
:100BE0000E94B81620E63AEE40E050E00E94B816A7
:100BF000DA01C9010E94C803B501C6010E9466114D
:100C0000C801B70120E63AEE40E050E00E94B81675
:100C100028EE33E040E050E00E94B816DA01C90146
:100C20000E94C80367E371E0C6010E946611C80113
:100C3000B70128EE33E040E050E00E94B8162AE009
:100C400030E040E050E00E94B816DA01C9010E948D
:100C5000C8031F910F91FF90EF90DF90CF90BF904E
:100C6000AF900895EF92FF920F931F93CF93DF936E
:100C7000EC0197FF0BC060E170E00E94A5167B01BC
:100C80008B01085F1F4FC1E0D0E036C06DE471E01A
:100C90008FE092E00E946611CE0160E170E00E9458
:100CA000A5168B01C1E0D0E00BC020E030E04FEF93
:100CB00050E060E070E08FE092E00E94F211219637
:100CC0000C171D0794F7C1E0D0E007C066E571E09E
:100CD0008FE092E00E946611219688E090E0801BF0
:100CE000910B8C179D0794F729C066E571E08FE0A2
:100CF00092E00E94661121960C171D07B4F7C1E01F
:100D0000D0E00BC020E030E04FEF50E060E070E05A
:100D10008FE092E00E94F2112196882799278E1980
:100D20009F098C179D0774F7C8E0D0E066E571E075
:100D30008FE092E00E9466112197C1F720E030E039
:100D40004EEF50E060E070E08FE092E00E94F21120
:100D500020E030E040E850E060E070E08FE092E0BA
:100D60000E94F21180910D0290910E02815F9F4FBF
:100D7000BCF520E030E04EEF50E060E070E08FE046
:100D800092E00E94F21180910D0290910E0280314A
:100D9000910554F054E0959587955A95E1F768E8E8
:100DA00070E0681B790B06C060E170E00E94A51638
:100DB00068577F4FCB01AC01662757FD6095762FB2
:100DC00020E030E08FE092E00E94F21120E030E07D
:100DD0004FEF50E060E070E08FE092E00E94F2118F
:100DE00080910B0290910C0240974CF120E030E092
:100DF0004EEF50E060E070E08FE092E00E94F21170
:100E000080910B0290910C0260E170E00E94A516A7
:100E1000AB0148575F4F662757FD6095762F20E05E
:100E200030E08FE092E00E94F21120E030E04FEFDE
:100E300050E060E070E08FE092E00E94F211DF91FC
:100E4000CF911F910F91FF90EF9008959B01AC01FE
:100E5000243D82E0380780E0480780E058070CF026
:100E600085C0213081E0380780E0480780E05807DE
:100E70002CF42FE037E240E050E07CC0DA01C901F9
:100E80008C569240A040B04088369105A105B1052E
:100E900098F4CA01B90129E631E040E050E00E942F
:100EA000861628EE33E040E050E00E94DA162C5F10
:100EB0003E4F4F4F5F4F5EC0DA01C90189509240EB
:100EC000A040B04083369105A105B10598F4CA0150
:100ED000B9012BE731E040E050E00E94861628EE91
:100EE00033E040E050E00E94DA16205F3E4F4F4F63
:100EF0005F4F40C0DA01C9018C599140A040B04019
:100F00008D369105A105B10598F4CA01B90128E50E
:100F100031E040E050E00E94861628EE33E040E0E9
:100F200050E00E94DA1622503F4F4F4F5F4F22C0D1
:100F3000DA01C90182509140A040B0408A39910540
:100F4000A105B105B8F4CA01B90124EF30E040E0D1
:100F500050E00E94861628EE33E040E050E00E9408
:100F6000DA162B523F4F4F4F5F4F04C020E030E066
:100F700040E050E0CA01B90108950F931F93CF9349
:100F8000DF93EC0197FD03C068E571E002C06AE5FC
:100F900071E08FE092E00E946611CE0164E670E09D
:100FA0000E94A5168C01C436D10534F0CE0164E64A
:100FB00070E00E94A51608C0CE0164E670E00E94B1
:100FC000A516709561957F4F8FE092E00E940D12FB
:100FD000C8010996439718F067E371E002C06CE519
:100FE00071E08FE092E00E946611B80117FF03C024
:100FF000709561957F4F8FE092E00E940D12DF9116
:10100000CF911F910F910895CF93DF938530910574
:1010100029F4C0911201D09113010AC083309105C7
:1010200019F0C0E0D2E004C0C0911001D0911101CC
:101030000E94D312C81BD90BBE01882777FD80956B
:10104000982F0E94E61520E030E04EE153E40E9424
:10105000831520E030E048EC52E40E943E160E94E6
:10106000C915DC01CB01DF91CF9108959C011816C1
:10107000190684F480910B0290910C028217930759
:10108000DCF430930C0220930B0210920A021092AF
:10109000090212C0892B81F080910D0290910E02FD
:1010A000281739074CF430930E0220930D0210924A
:1010B00008021092070208958091090290910A0295
:1010C000449744F010920A021092090210920C0206
:1010D00010920B028091070290910802449744F00D
:1010E000109208021092070210920E0210920D0246
:1010F0000895CF93DF939B01AC01C1E0D0E009C01C
:10110000CA01B9012AE030E040E050E00E94DA165E
:1011100021962A3031054105510594F757FD219656
:10112000CE01DF91CF9108950F931F930FE012E04E
:1011300020E030E04CE750E060E070E0C8010E9441
:10114000F21120E030E040E850E060E070E0C801DB
:101150000E94F21161E0809106010E94AC136CE2E2
:1011600071E080E090E00E945F1260E080910601F3
:101170000E94AC1320E030E04CE750E060E070E00B
:10118000C8010E94F21120E030E04DE950E060E03B
:1011900070E0C8010E94F2116CE271E080E090E022
:1011A0000E945F121F910F9108958F929F92AF92AC
:1011B000BF92CF92DF92EF92FF920F931F93CF9344
:1011C000DF936FE571E08CE691E00E94E900F1C0E9
:1011D00020E030E04EEF50E060E070E08FE092E021
:1011E0000E94F21120E030E040E850E060E070E062
:1011F0008FE092E00E94F21164E771E08FE092E0EC
:101200000E946611809104010E94D312AA2797FDC3
:10121000A095BA2FBC01CD010E94F3017B018C0186
:10122000CB016AE070E00E94A5168FE092E00E9478
:101230000D1267E371E08FE092E00E946611C70132
:101240006AE070E00E94A516BC018FE092E00E9467
:101250000D1267E771E08FE092E00E9466118091C5
:1012600002010E94D312AA2797FDA095BA2FBC01B4
:10127000CD010E94F3017B018C01CB016AE070E09B
:101280000E94A5168FE092E00E940D1267E371E0C4
:101290008FE092E00E946611C7016AE070E00E9450
:1012A000A516BC018FE092E00E940D1220E030E014
:1012B0004EEF50E060E070E08FE092E00E94F211AB
:1012C00020E030E040EC50E060E070E08FE092E041
:1012D0000E94F2116091000170910101882777FD51
:1012E0008095982F0E9452017B018C014B016091E7
:1012F000FD017091FE01882777FD8095982F0E944F
:1013000026075B016C01EB016BE771E08FE092E077
:101310000E946611C7016AE070E00E94A5168FE086
:1013200092E00E940D1267E371E08FE092E00E946C
:101330006611C7016AE070E00E94A516BC018FE04B
:1013400092E00E940D1266E571E08FE092E00E944B
:1013500066116EE771E08FE092E00E946611C501B0
:101360006AE070E00E94A5168FE092E00E940D12E4
:1013700067E371E08FE092E00E946611C5016AE0C8
:1013800070E00E94A516BC018FE092E00E940D1251
:1013900086EF9FEF880E991E9FE6891695E09906C5
:1013A00010F00E9494082A97CF56D54010F00E9462
:1013B000940880910C010E946313019709F408CFEF
:1013C00080910C010E946313892BD1F3DF91CF919F
:1013D0001F910F91FF90EF90DF90CF90BF90AF9053
:1013E0009F908F9008952F923F924F925F926F92AD
:1013F0007F928F929F92AF92BF92CF92DF92EF92A5
:10140000FF920F931F93CF93DF93CDB7DEB728974B
:101410000FB6F894DEBF0FBECDBF3C011801290105
:10142000C982DA82EB82FC828D829E82AF82B8868C
:1014300089A09AA0AFA0B8A4C9A4DAA420E030E0A3
:101440004EEF50E060E070E08FE092E00E94F21119
:1014500020E030E040E850E060E070E08FE092E0B3
:101460000E94F211B3018FE092E00E94661166E5DE
:1014700071E08FE092E00E946611C201B1012AE0A2
:1014800030E040E050E00E94DA16BA01A9018FE096
:1014900092E00E94C41167E371E08FE092E00E9445
:1014A0006611C201B1012AE030E040E050E00E9444
:1014B000DA16AB01BC018FE092E00E94C411C201B8
:1014C000B1010E9479088C010F5F1F4F0330110595
:1014D0001CF48C010E5F1F4FEE24FF2409C066E54B
:1014E00071E08FE092E00E9466110894E11CF11C0B
:1014F00085E090E0801B910BE816F90684F361E823
:1015000071E08FE092E00E94661169817A818B819F
:101510009C810E9479088C010F5F1F4F03301105D9
:101520001CF48C010E5F1F4FEE24FF2409C066E5FA
:1015300071E08FE092E00E9466110894E11CF11CBA
:1015400086E090E0801B910BE816F90684F3698130
:101550007A818B819C812AE030E040E050E00E945B
:10156000DA16BA01A9018FE092E00E94C41167E384
:1015700071E08FE092E00E94661169817A818B812F
:101580009C812AE030E040E050E00E94DA16AB0196
:10159000BC018FE092E00E94C4118D819E81AF81D9
:1015A000B88582159305A405B5054CF08D8D9E8DEB
:1015B000AF8DB8A1281639064A065B0614F40E94BE
:1015C000940820E030E04EEF50E060E070E08FE003
:1015D00092E00E94F21120E030E040EC50E060E048
:1015E00070E08FE092E00E94F211B4018FE092E08F
:1015F0000E94661166E571E08FE092E00E9466113C
:10160000C601B5012AE030E040E050E00E94DA1661
:10161000BA01A9018FE092E00E94C41167E371E072
:101620008FE092E00E946611C601B5012AE030E029
:1016300040E050E00E94DA16AB01BC018FE092E07E
:101640000E94C411C601B5010E9479088C010F5F88
:101650001F4F033011051CF48C010E5F1F4FEE2449
:10166000FF2409C066E571E08FE092E00E946611F8
:101670000894E11CF11C85E090E0801B910BE816BA
:10168000F90684F361E871E08FE092E00E94661150
:101690006BA57CA58DA59EA50E9479088C010F5F86
:1016A0001F4F033011051CF48C010E5F1F4FEE24F9
:1016B000FF2409C066E571E08FE092E00E946611A8
:1016C0000894E11CF11C86E090E0801B910BE81669
:1016D000F90684F36BA57CA58DA59EA52AE030E0D4
:1016E00040E050E00E94DA16BA01A9018FE092E0D2
:1016F0000E94C41167E371E08FE092E00E946611DE
:101700006BA57CA58DA59EA52AE030E040E050E0C9
:101710000E94DA16AB01BC018FE092E00E94C41176
:101720008FA598A9A9A9BAA98A159B05AC05BD05DD
:101730004CF08BA99CA9ADA9BEA9A816B906CA06EA
:10174000DB0614F40E9494086CE370E080E090E003
:101750000E945F1228960FB6F894DEBF0FBECDBF71
:10176000DF91CF911F910F91FF90EF90DF90CF907D
:10177000BF90AF909F908F907F906F905F904F90B1
:101780003F902F9008952F923F924F925F926F92C9
:101790007F928F929F92AF92BF92CF92DF92EF9201
:1017A000FF920F931F93CF93DF93CDB7DEB72897A8
:1017B0000FB6F894DEBF0FBECDBF3C0149835A83FC
:1017C0006B837C8318012901CD82DE82EF82F8864B
:1017D00020E030E04EEF50E060E070E08FE092E01B
:1017E0000E94F21120E030E040E850E060E070E05C
:1017F0008FE092E00E94F211B3018FE092E00E942C
:10180000661166E571E08FE092E00E946611C20108
:10181000B1012AE030E040E050E00E94DA16BA015F
:10182000A9018FE092E00E94C41167E371E08FE0AC
:1018300092E00E946611C201B1012AE030E040E06E
:1018400050E00E94DA16AB01BC018FE092E00E94EA
:10185000C411C201B1010E9479088C010F5F1F4FB2
:10186000033011051CF48C010E5F1F4FEE24FF2482
:1018700009C066E571E08FE092E00E94661108946D
:10188000E11CF11C85E090E0801B910BE816F90645
:1018900084F361E871E08FE092E00E9466116D814F
:1018A0007E818F8198850E9479088C010F5F1F4F80
:1018B000033011051CF48C010E5F1F4FEE24FF2432
:1018C00009C066E571E08FE092E00E94661108941D
:1018D000E11CF11C86E090E0801B910BE816F906F4
:1018E00084F36D817E818F8198852AE030E040E02D
:1018F00050E00E94DA16BA01A9018FE092E00E943E
:10190000C41167E371E08FE092E00E9466116D817F
:101910007E818F8198852AE030E040E050E00E948F
:10192000DA16AB01BC018FE092E00E94C411821470
:101930009304A404B5044CF08D8D9E8DAF8DB8A199
:10194000281639064A065B0614F40E94940820E023
:1019500030E04EEF50E060E070E08FE092E00E94F7
:10196000F21120E030E040EC50E060E070E08FE009
:1019700092E00E94F21169817A818B819C8120E141
:1019800030E040E050E00E94DA16C201B1010E944E
:10199000B81669017A0112141304140415041CF01A
:1019A000CC24DD24760101E010E00CC020E030E022
:1019B0004FEF50E060E070E08FE092E00E94F211A3
:1019C0000F5F1F4FC801AA2797FDA095BA2F8C154E
:1019D0009D05AE05BF0550F301E010E008C066E5C7
:1019E00071E08FE092E00E9466110F5F1F4F980137
:1019F000442737FD4095542F80E190E0A0E0B0E00F
:101A00008C199D09AE09BF09281739074A075B07DA
:101A100030F36CE370E080E090E00E945F12289663
:101A20000FB6F894DEBF0FBECDBFDF91CF911F91EF
:101A30000F91FF90EF90DF90CF90BF90AF909F906D
:101A40008F907F906F905F904F903F902F90089570
:101A5000EF92FF920F931F9363E871E08CE891E09F
:101A60000E94E9005DC020E030E04EEF50E060E011
:101A700070E08FE092E00E94F21120E030E040E858
:101A800050E060E070E08FE092E00E94F2118091FF
:101A90001401909115010E9404080E94320620E072
:101AA00030E04EEF50E060E070E08FE092E00E94A6
:101AB000F21120E030E040EC50E060E070E08FE0B8
:101AC00092E00E94F2116AE971E08FE092E00E94D8
:101AD0006611809100010E94D312AA2797FDA0955C
:101AE000BA2FBC01CD010E9452017B018C01CB01B8
:101AF0006AE070E00E94A5168FE092E00E940D124D
:101B000067E371E08FE092E00E946611C7016AE02E
:101B100070E00E94A516BC018FE092E00E940D12B9
:101B200080910C010E946313019709F49CCF80916E
:101B30000C010E946313892BD1F31F910F91FF9029
:101B4000EF90089580910C010E946313892BD1F3CB
:101B50008091FB019091FC01892B09F083C020E06A
:101B600030E04EEF50E060E070E08FE092E00E94E5
:101B7000F21120E030E041E050E060E070E08FE002
:101B800092E00E94F21120E030E04EEF50E060E081
:101B900070E08FE092E00E94F21120E030E040E837
:101BA00050E060E070E08FE092E00E94F21164E1AA
:101BB00070E080E090E00E945F126FE971E08FE0DA
:101BC00092E00E94661120E030E04EEF50E060E0CD
:101BD00070E08FE092E00E94F21120E030E040ECF3
:101BE00050E060E070E08FE092E00E94F2116FEA56
:101BF00071E08FE092E00E94661110920302109251
:101C0000040210920502109206021092FF01109237
:101C10000002109201021092020207C080910C0192
:101C20000E946313892B09F497C180910A010E94D5
:101C30006313019799F310C081E090E09093FC0149
:101C40008093FB010E9447126093F7017093F801A3
:101C50008093F9019093FA0180910A010E94631325
:101C6000892B51F38091FB019091FC01019709F0C0
:101C700076C020E030E04EEF50E060E070E08FE0B2
:101C800092E00E94F21120E030E041E050E060E09C
:101C900070E08FE092E00E94F21120E030E04EEF21
:101CA00050E060E070E08FE092E00E94F21120E0EE
:101CB00030E040E850E060E070E08FE092E00E94A9
:101CC000F21139C080910C010E946313892B09F431
:101CD00043C120E030E04EEF50E060E070E08FE084
:101CE00092E00E94F21120E030E041E050E060E03C
:101CF00070E08FE092E00E94F2110E944712209162
:101D0000F7013091F8014091F9015091FA01621BFD
:101D1000730B840B950B6093030270930402809302
:101D20000502909306020E94AB0562E370E080E03A
:101D300090E00E945F1280910A010E946313019754
:101D400009F4C0CF06C082E090E09093FC0180933C
:101D5000FB0180910A010E946313892BA1F38091FA
:101D6000FB019091FC01029709F05BC020E030E09C
:101D70004EEF50E060E070E08FE092E00E94F211E0
:101D800020E030E041E050E060E070E08FE092E081
:101D90000E94F2110E94AB0562E370E080E090E0E7
:101DA0000E945F1220E030E04EEF50E060E070E013
:101DB0008FE092E00E94F21120E030E040EC50E031
:101DC00060E070E08FE092E00E94F2116FEA71E053
:101DD0008FE092E00E94661107C080910C010E9482
:101DE0006313892B09F4B8C080910A010E94631320
:101DF000019799F310C083E090E09093FC018093E9
:101E0000FB010E9447126093F3017093F4018093E9
:101E1000F5019093F60180910A010E946313892BCA
:101E200051F38091FB019091FC01039709F053C09D
:101E300020E030E04EEF50E060E070E08FE092E0B4
:101E40000E94F21120E030E041E050E060E070E0FC
:101E50008FE092E00E94F2110E94AB056AE070E010
:101E600080E090E023C080910C010E946313892BD5
:101E700009F472C00E9447122091F3013091F401DD
:101E80004091F5015091F601621B730B840B950B89
:101E90006093FF017093000280930102909302020D
:101EA0000E94240562E370E080E090E00E945F12EF
:101EB00080910A010E9463130197A9F206C084E091
:101EC00090E09093FC018093FB0180910A010E94B5
:101ED0006313892BA1F38091FB019091FC0104977E
:101EE000D9F520E030E04EEF50E060E070E08FE0A8
:101EF00092E00E94F21120E030E041E050E060E02A
:101F000070E08FE092E00E94F21116C00E94AB05D3
:101F100062E370E080E090E00E945F120E9424057E
:101F200062E370E080E090E00E945F1280910C011B
:101F30000E946313892B81F080910A010E94631330
:101F4000019721F380910A010E946313892BD1F339
:101F50001092FC011092FB01089580910C010E94E7
:101F60006313892BE9F480910C010E946313892B80
:101F7000D1F780910E0190910F01009719F08130F7
:101F8000910519F482E090E007C0029719F483E00C
:101F900090E002C081E090E090930F0180930E01E9
:101FA00080910E0190910F01892B11F40E94DB03A7
:101FB00080910E0190910F01029711F40E94D508B3
:101FC00080910E0190910F01039711F40E94A20DD0
:101FD0000895CFEFD4E0DEBFCDBF0E948E120E94E5
:101FE00083000E94AD0FFDCF8F929F92AF92BF9260
:101FF000CF92DF92EF92FF920F931F938091F201A5
:10200000882331F480910C010E946313892BD1F352
:102010006FEB71E083E891E00E94E9005FC080917E
:102020000A010E946313892B41F41092EE01109271
:10203000EF011092F0011092F101809100010E94D5
:10204000D312AA2797FDA095BA2FBC01CD010E94FB
:1020500052018B019C018091F201882361F40239C5
:102060001105210531053CF082E090E090930F01CD
:1020700080930E013AC0C090EE01D090EF01E09045
:10208000F001F090F1010C151D052E053F0514F02F
:1020900068017901C092EE01D092EF01E092F00167
:1020A000F092F1011F921F921F921F9268E2862EFA
:1020B0006AE0962EA12CB12C4CEA5DE060E070E065
:1020C0008AEC91E00E94C30B62E370E080E090E054
:1020D0000E945F120F900F900F900F9080910C0153
:1020E0000E946313019709F49ACF1F910F91FF90FB
:1020F000EF90DF90CF90BF90AF909F908F9008951A
:102100004F925F926F927F928F929F92AF92BF9207
:10211000CF92DF92EF92FF920F931F9380910C0169
:102120000E946313892BD1F36EEC71E08FEC91E088
:102130000E94E900A0C080910A010E946313892BCC
:1021400081F41092EA011092EB011092EC011092CE
:10215000ED011092E6011092E7011092E801109251
:10216000E901809102010E94D312AA2797FDA09550
:10217000BA2FBC01CD010E94F3012B013C018091DB
:1021800004010E94D312AA2797FDA095BA2FBC0183
:10219000CD010E94F3018B019C01C090EA01D09017
:1021A000EB01E090EC01F090ED016C157D058E05E2
:1021B0009F0514F06B017C01C092EA01D092EB0103
:1021C000E092EC01F092ED018090E6019090E70141
:1021D000A090E801B090E901481459046A047B0416
:1021E00014F0530142018092E6019092E701A0921F
:1021F000E801B092E9011F921F921F921F9288EE90
:1022000093E0A0E0B0E0BF93AF939F938F93BF9212
:10221000AF929F928F927F926F925F924F928CEAD1
:102220009DE0A0E0B0E0BF93AF939F938F9380EECB
:1022300091E09F938F931F921F921F921F927FE0B6
:10224000872E77E2972EA12CB12C40E054E060E07D
:1022500070E08CED91E00E94F30964E170E080E0B1
:1022600090E00E945F128DB79EB74A960FB6F89421
:102270009EBF0FBE8DBF80910C010E94631301971A
:1022800009F459CF1F910F91FF90EF90DF90CF90FD
:10229000BF90AF909F908F907F906F905F904F9086
:1022A000089508950895CB01BA010E94F713089587
:1022B0000E943814992708950E94491408950E9495
:1022C00068140895862F0E94AF140895CB010E94D0
:1022D000B6140895862F0E94AF1408950F931F938C
:1022E0008C016DE00E9462116AE0C8010E946211D7
:1022F0001F910F9108950F931F938C010E946211FB
:10230000C8010E946E111F910F9108950F931F93A2
:102310008C010E946611C8010E946E111F910F91DD
:1023200008950F931F938C010E946A11C8010E94A7
:102330006E111F910F910895CB01BA0133274427E5
:1023400055270E94C31408952AE00E949C11089505
:102350000F931F938C010E94A411C8010E946E115B
:102360001F910F910895AB01662777270E94A41152
:1023700008950F931F938C010E94B311C8010E940E
:102380006E111F910F910895EF92FF920F931F937B
:10239000CF93DF93EC017A018B0177FF0BC06DE2E5
:1023A0000E94621110950095F094E094E11CF11CDC
:1023B000011D111D2AE0B801A701CE010E949C1148
:1023C000DF91CF911F910F91FF90EF9008950F93A0
:1023D0001F938C010E94C411C8010E946E111F91AD
:1023E0000F9108952115310521F4642F0E94621187
:1023F00008952A30310519F40E94C41108950E94ED
:102400009C1108950F931F938C010E94F211C80133
:102410000E946E111F910F910895AB01662757FD21
:102420006095762F0E94C41108950F931F938C011D
:102430000E940D12C8010E946E111F910F91089504
:10244000089508951F920F920FB60F9211248F9343
:102450009F93AF93BF938091140290911502A09126
:102460001602B09117020196A11DB11D80931402AE
:1024700090931502A0931602B0931702BF91AF91EB
:102480009F918F910F900FBE0F901F9018956091A4
:10249000140270911502809116029091170227E0A4
:1024A000660F771F881F991F2A95D1F72DE730E017
:1024B00040E050E00E94B816CA01B9010895AF92F9
:1024C000BF92CF92DF92EF92FF920F931F935B0127
:1024D0006C010E9447127B018C010E9447126E1909
:1024E0007F09800B910B6A157B058C059D05A8F370
:1024F0001F910F91FF90EF90DF90CF90BF90AF9022
:102500000895019751F0880F991F880F991F02971E
:102510002FB7F8940197F1F72FBF08957894109290
:10252000140210921502109216021092170284B52E
:10253000826084BD84B5816084BD85B5826085BDBF
:1025400085B5816085BDEEE6F0E0808181608083A5
:10255000E1E8F0E080818260808380818160808317
:10256000E0E8F0E0808181608083E1EBF0E0808151
:1025700084608083E0EBF0E0808181608083EAE723
:10258000F0E08081846080838081826080838081AC
:10259000816080838081806880831092C10008956B
:1025A0008093E40108959091E4019295990F990F19
:1025B000907C8F70982B90937C0080917A0080643F
:1025C00080937A0080917A0086FDFCCF209178007C
:1025D000809179009927982F88273327822B932B76
:1025E00008951F93CF93DF93182FEB0161E00E94B2
:1025F0004513E12FFF27E659FF4F8491833051F4B3
:1026000080918000806880938000D0938900C0937F
:10261000880037C0843051F48091800080628093BC
:102620008000D0938B00C0938A002BC0813029F4A6
:1026300084B5806884BDC7BD24C0823029F484B5C8
:10264000806284BDC8BD1DC0863041F48091B00059
:1026500080688093B000C093B30013C0873041F40A
:102660008091B00080628093B000C093B40009C034
:10267000C038D10514F460E001C061E0812F0E94F0
:10268000AC13DF91CF911F910895282F3327C901F3
:1026900082589F4FFC0194912E563F4FF90184912F
:1026A000882381F0E82FFF27E055FF4FE491FF27B3
:1026B000662329F480819095892380830895808101
:1026C000892B80830895482F5527CA0186599F4F2B
:1026D000FC012491CA0182589F4FFC0194914E56EF
:1026E0005F4FFA0134913323A1F1222331F12330DA
:1026F00021F4809180008F7705C0243031F48091DF
:1027000080008F7D8093800018C0213019F484B53B
:102710008F7704C0223021F484B58F7D84BD0DC035
:10272000263021F48091B0008F7705C0273029F43E
:102730008091B0008F7D8093B000E32FFF27EA5592
:10274000FF4FE491FF278081892319F081E090E019
:10275000089580E090E00895482F5527CA018659D2
:102760009F4FFC012491CA0182589F4FFC01949114
:102770004E565F4FFA0134913323C1F1222331F1D8
:10278000233021F4809180008F7705C0243031F40C
:10279000809180008F7D8093800018C0213019F4D3
:1027A00084B58F7704C0223021F484B58F7D84BD39
:1027B0000DC0263021F48091B0008F7705C02730FE
:1027C00029F48091B0008F7D8093B000E32FFF2724
:1027D000E555FF4FE491FF27662329F4808190950A
:1027E0008923808308958081892B80830895EF92C7
:1027F000FF920F931F937B018C0122E030E040E0B9
:1028000050E00E94DA16205C3D4B404F5F4FCA01FA
:10281000B901A80197010E94DA16215030404040CA
:102820005040BB2757FDBA95A52F942F832F2F5FBC
:102830003F4F4F4F5F4F8093C50021502093C400FE
:10284000E1ECF0E08081806180838081886080831A
:102850008081806880831F910F91FF90EF90089591
:10286000982F8091C00085FFFCCF9093C6000895FB
:102870008091120290911302209110023091110266
:10288000821B930B80589F4F60E870E00E94A51652
:10289000089540911002509111028091120290917E
:1028A00013028417950719F48FEF9FEF0895FA012B
:1028B000E85EFD4F2081CA01019660E870E00E9449
:1028C000A5169093110280931002822F99270895E4
:1028D0008091100290911102909313028093120242
:1028E00008951F920F920FB60F9211242F933F93CA
:1028F0004F935F936F937F938F939F93AF93BF9308
:10290000EF93FF934091C600E0911202F091130201
:10291000CF01019660E870E00E94A5169C018091AD
:102920001002909111022817390739F0E85EFD4F27
:1029300040833093130220931202FF91EF91BF91D5
:10294000AF919F918F917F916F915F914F913F9147
:102950002F910F900FBE0F901F90189508950E9411
:10296000301408958AE00E94AF140895CF93DF9346
:10297000EC0103C021960E94AF1488818823D1F70F
:10298000DF91CF9108952F923F924F925F926F9275
:102990007F928F929F92AF92BF92CF92DF92EF92EF
:1029A000FF920F931F93CF93DF93CDB7DEB7A0971E
:1029B0000FB6F894DEBF0FBECDBF6B017C011901CD
:1029C0002A01611571058105910521F480E30E94BA
:1029D000AF144BC06624772443015E010894A11C08
:1029E000B11C8501060D171DC701B601A201910199
:1029F0000E94B816F80160830894611C711C811C48
:102A0000911CC701B601A20191010E94B81669018B
:102A10007A01211531054105510519F77301089413
:102A2000E108F108EA0CFB1CAA24BB24650111C0D3
:102A3000F70180818A3010F4805D01C0895C0E94BA
:102A4000AF140894A108B108C108D1080894E1089E
:102A5000F10888279927DC0186199709A809B9097F
:102A6000A816B906CA06DB0619F7A0960FB6F894A1
:102A7000DEBF0FBECDBFDF91CF911F910F91FF90B1
:102A8000EF90DF90CF90BF90AF909F908F907F900E
:102A90006F905F904F903F902F900895EF92FF922C
:102AA0000F931F937B018C0197FF0BC08DE20E9457
:102AB000AF1410950095F094E094E11CF11C011DF9
:102AC000111D2AE030E040E050E0C801B7010E944B
:102AD000C3141F910F91FF90EF90089520E130E013
:102AE00040E050E00E94C314089528E030E040E048
:102AF00050E00E94C314089522E030E040E050E02E
:102B00000E94C31408958CD001D06FC0552359F092
:102B1000992369F09F575F57951B33F442F490381F
:102B200011F4915805C079C091589F3F09F4A4C091
:102B3000BB27112462177307840730F4660F771FD1
:102B4000881FBB1F915098F311D00F920FD00F9296
:102B50000DD0A0E82617370748071B0609F0A04844
:102B6000BA2F602D7F918F9100240895A0E8002452
:102B7000621773078407B10528F0621B730B840B7F
:102B8000B1090A2A660F771F881FBB1FA69581F718
:102B9000089597FB51D09F3738F0FEE9F91B982F25
:102BA000872F762F6B2F05C064C0969587957795F4
:102BB0006795F150D0F73EF49095809570956195AA
:102BC0007F4F8F4F9F4F0895E89403C097FB0EF4FB
:102BD000F3DFB62F672F782F892F9EE9002405C0D9
:102BE0009A95BB0F661F771F881F11249923A1F0A8
:102BF0008823B2F79F3F59F0BB0F48F421F400201F
:102C000011F460FF04C06F5F7F4F8F4F9F4F881F8D
:102C10009795879597F908952CC09FEF80EC0895BC
:102C2000052E092607FA440F551F5F3F79F0AA27A2
:102C3000A51708F051E04795880F991F9F3F31F085
:102C4000BB27B91708F091E0879508959F919F9150
:102C50001124E3CF97FB880F991F9F3F31F0BB27CB
:102C6000B91708F091E0879508959F919F911124DD
:102C7000D4CF66277727882799270895D1DF01D0F9
:102C8000B4CF992339F0552329F09F575F57950FFB
:102C900013F49AF1F1CF91589F3FE1F3629FA12D78
:102CA0000F92BB27639FA00DB11DEE27729FA00D51
:102CB000B11DEE1FAF93AA27649FB00DE11D739F56
:102CC000B00DE11DAA1F6627829FB00DE11DA61F52
:102CD0005527749FE00DA11D551F839FE00DA11D79
:102CE000561F849FA00D511D852F7A2F6E2F1F9088
:102CF0000F9088231AF4939539F48FCF000C111C90
:102D0000BB1F661F771F881F01280895629FD0018F
:102D1000739FF001829FE00DF11D649FE00DF11D96
:102D2000929FF00D839FF00D749FF00D659FF00D45
:102D30009927729FB00DE11DF91F639FB00DE11D32
:102D4000F91FBD01CF011124089597FB092E072615
:102D50000AD077FD04D049D006D000201AF470952F
:102D600061957F4F0895F6F7909581959F4F08954F
:102D7000A1E21A2EAA1BBB1BFD010DC0AA1FBB1F7F
:102D8000EE1FFF1FA217B307E407F50720F0A21BF1
:102D9000B30BE40BF50B661F771F881F991F1A945E
:102DA00069F760957095809590959B01AC01BD0188
:102DB000CF01089597FB092E05260ED057FD04D0AC
:102DC000D7DF0AD0001C38F45095409530952195F6
:102DD0003F4F4F4F5F4F0895F6F790958095709550
:102DE00061957F4F8F4F9F4F0895AA1BBB1B51E1E9
:102DF00007C0AA1FBB1FA617B70710F0A61BB70B6B
:102E0000881F991F5A95A9F780959095BC01CD010F
:0E2E10000895EE0FFF1F0590F491E02D099438
:102E1E000100030002000B0001000D000A0001007A
:102E2E000002000205000400300054696D65722F27
:102E3E004F696C0053746172747570204D657465C2
:102E4E0072002020003A002E004F696C54656D70A0
:102E5E003A200054323A200054313A2000202020EB
:102E6E0020202020200020002B002D002E30004F8F
:102E7E00696C2054656D702F50736900494320545E
:102E8E00656D7000492000204F20004F54004F50B8
:102E9E00002F004F696C2054656D700041636365AF
:102EAE006C65726F6D65746572004F696C54005479
:102EBE00313A2030303A30303A30302E3030005403
:102ECE00323A2030303A30303A30302E3030002026
:102EDE00202020204D65746572006F696C000032F1
:102EEE002054656D70204D6574657200462031006A
:062EFE0046203200010035
:00000001FF
