:100000000C9435000C945B000C945B000C945B002A
:100010000C945B000C945B000C945B000C945B00F4
:100020000C945B000C945B000C945B000C945B00E4
:100030000C945B000C945B000C945B000C945B00D4
:100040000C9408020C945B000C9438030C945B0035
:100050000C945B000C945B000C945B000C945B00B4
:100060000C945B000C945B00070211241FBECFEFC1
:10007000D4E0DEBFCDBF11E0A0E0B1E0E8E6F9E0FA
:1000800002C005900D92A431B107D9F711E0A4E1A7
:10009000B1E001C01D92AD39B107E1F710E0CAE649
:1000A000D0E004C02297FE010E94B004C836D107F8
:1000B000C9F70C9437010C9400000F931F9304E1CF
:1000C00011E020E030E04CE750E060E070E0C80173
:1000D0000E94D80120E030E04DE950E060E070E09F
:1000E000C8010E94D8011F910F9108950F931F938B
:1000F00004E111E020E030E04EEF50E060E070E01D
:10010000C8010E94D80120E030E040E850E060E003
:1001100070E0C8010E94D8011F910F9108950F93BC
:100120001F9304E111E040E855E260E070E0C8018F
:100130000E9444010E945D000E94760062E370E02C
:1001400080E090E00E94450260E071E0C8010E94FA
:10015000570162E370E080E090E00E94450220E0F9
:1001600030E04CE750E060E070E0C8010E94D80148
:1001700020E030E04AE050E060E070E0C8010E941A
:10018000D80164E670E080E090E00E9445021F9193
:100190000F9108950F931F9304E111E020E030E0E8
:1001A0004EEF50E060E070E0C8010E94D80120E00E
:1001B00030E041E050E060E070E0C8010E94D8010A
:1001C0001F910F9108950E94CA0064E670E080E0DC
:1001D00090E00E9445020E9476006DE071E084E1AB
:1001E00091E00E94570164EF71E080E090E00E948E
:1001F000450208950F931F9304E111E020E030E0E1
:100200004EEF50E060E070E0C8010E94D80120E0AD
:1002100030E040EC50E060E070E0C8010E94D8019E
:100220001F910F9108950F931F9304E111E020E0B7
:1002300030E04CE750E060E070E0C8010E94D80177
:1002400020E030E040E850E060E070E0C8010E944B
:10025000D8011F910F91089520E030E04EEF50E05B
:1002600060E070E084E191E00E94D8010895CFEF52
:10027000D4E0DEBFCDBF0E9474020E948F000E94B6
:10028000E300FDCF08950895CB01BA010E94BE029C
:1002900008950E94FF02992708950E94100308956F
:1002A0000E942F030895862F0E9476030895CB01A4
:1002B0000E947D030895862F0E94760308950F9370
:1002C0001F938C016DE00E9453016AE0C8010E94F7
:1002D00053011F910F9108950F931F938C010E945A
:1002E0005301C8010E945F011F910F9108950F9360
:1002F0001F938C010E945701C8010E945F011F914A
:100300000F9108950F931F938C010E945B01C80108
:100310000E945F011F910F910895CB01BA0133270D
:10032000442755270E948A0308952AE00E948D01E0
:1003300008950F931F938C010E949501C8010E949C
:100340005F011F910F910895AB01662777270E94E7
:1003500095010895EF92FF920F931F93CF93DF9330
:10036000EC017A018B0177FF0BC06DE20E94530113
:1003700010950095F094E094E11CF11C011D111DF5
:100380002AE0B801A701CE010E948D01DF91CF9133
:100390001F910F91FF90EF9008950F931F938C0181
:1003A0000E94AA01C8010E945F011F910F91089548
:1003B0002115310521F4642F0E94530108952A303C
:1003C000310519F40E94AA0108950E948D01089533
:1003D0000F931F938C010E94D801C8010E945F01F6
:1003E0001F910F910895AB01662757FD6095762FF9
:1003F0000E94AA0108950F931F938C010E94F3019C
:10040000C8010E945F011F910F91089508950895FA
:100410001F920F920FB60F9211248F939F93AF9359
:10042000BF938091190190911A01A0911B01B09185
:100430001C010196A11DB11D8093190190931A0111
:10044000A0931B01B0931C01BF91AF919F918F911D
:100450000F900FBE0F901F90189560911901709129
:100460001A0180911B0190911C0127E0660F771FF4
:10047000881F991F2A95D1F72DE730E040E050E022
:100480000E945D04CA01B9010895AF92BF92CF9254
:10049000DF92EF92FF920F931F935B016C010E941A
:1004A0002D027B018C010E942D026E197F09800BA9
:1004B000910B6A157B058C059D05A8F31F910F9183
:1004C000FF90EF90DF90CF90BF90AF90089501978D
:1004D00051F0880F991F880F991F02972FB7F89432
:1004E0000197F1F72FBF0895789410921901109297
:1004F0001A0110921B0110921C0184B5826084BD08
:1005000084B5816084BD85B5826085BD85B5816017
:1005100085BDEEE6F0E0808181608083E1E8F0E077
:10052000808182608083808181608083E0E8F0E068
:10053000808181608083E1EBF0E080818460808352
:10054000E0EBF0E0808181608083ECE7F0E0808187
:100550008F778083808180648083EAE7F0E0808108
:1005600084608083808182608083808181608083D9
:100570008081806880831092C1000895EF92FF927D
:100580000F931F937B018C0122E030E040E050E0AC
:100590000E947F04205C3D4B404F5F4FCA01B90170
:1005A000A80197010E947F042150304040405040F4
:1005B000BB2757FDBA95A52F942F832F2F5F3F4F51
:1005C0004F4F5F4F8093C50021502093C400E1EC52
:1005D000F0E0808180618083808188608083808179
:1005E000806880831F910F91FF90EF900895982F5E
:1005F0008091C00085FFFCCF9093C6000895809144
:100600001701909118012091150130911601821B5C
:10061000930B80589F4F60E870E00E944A04089551
:100620004091150150911601809117019091180188
:100630008417950719F48FEF9FEF0895FA01E35E91
:10064000FE4F2081CA01019660E870E00E944A04D2
:100650009093160180931501822F99270895809118
:100660001501909116019093180180931701089538
:100670001F920F920FB60F9211242F933F934F9317
:100680005F936F937F938F939F93AF93BF93EF93FA
:10069000FF934091C600E0911701F0911801CF013E
:1006A000019660E870E00E944A049C018091150167
:1006B000909116012817390739F0E35EFE4F408309
:1006C0003093180120931701FF91EF91BF91AF91E3
:1006D0009F918F917F916F915F914F913F912F915A
:1006E0000F900FBE0F901F90189508950E94F7026B
:1006F00008958AE00E9476030895CF93DF93EC017A
:1007000003C021960E94760388818823D1F7DF9168
:10071000CF9108952F923F924F925F926F927F9266
:100720008F929F92AF92BF92CF92DF92EF92FF9201
:100730000F931F93CF93DF93CDB7DEB7A0970FB67C
:10074000F894DEBF0FBECDBF6B017C0119012A01F9
:10075000611571058105910521F480E30E947603FE
:100760004BC06624772443015E010894A11CB11C90
:100770008501060D171DC701B601A20191010E9456
:100780005D04F80160830894611C711C811C911C3C
:10079000C701B601A20191010E945D0469017A01BD
:1007A000211531054105510519F773010894E10838
:1007B000F108EA0CFB1CAA24BB24650111C0F70157
:1007C00080818A3010F4805D01C0895C0E947603CC
:1007D0000894A108B108C108D1080894E108F108FB
:1007E00088279927DC0186199709A809B909A8164D
:1007F000B906CA06DB0619F7A0960FB6F894DEBF55
:100800000FBECDBFDF91CF911F910F91FF90EF9061
:10081000DF90CF90BF90AF909F908F907F906F9020
:100820005F904F903F902F900895EF92FF920F931B
:100830001F937B018C0197FF0BC08DE20E94760312
:1008400010950095F094E094E11CF11C011D111D20
:100850002AE030E040E050E0C801B7010E948A037E
:100860001F910F91FF90EF90089520E130E040E05C
:1008700050E00E948A03089528E030E040E050E014
:100880000E948A03089522E030E040E050E00E9498
:100890008A03089597FB092E07260AD077FD04D016
:1008A00049D006D000201AF4709561957F4F0895C5
:1008B000F6F7909581959F4F0895A1E21A2EAA1BF5
:1008C000BB1BFD010DC0AA1FBB1FEE1FFF1FA21700
:1008D000B307E407F50720F0A21BB30BE40BF50BFD
:1008E000661F771F881F991F1A9469F76095709586
:1008F000809590959B01AC01BD01CF01089597FBB8
:10090000092E05260ED057FD04D0D7DF0AD0001CD3
:1009100038F450954095309521953F4F4F4F5F4F9C
:100920000895F6F790958095709561957F4F8F4F5C
:100930009F4F0895AA1BBB1B51E107C0AA1FBB1FF5
:10094000A617B70710F0A61BB70B881F991F5A955B
:10095000A9F780959095BC01CD010895EE0FFF1F7A
:080960000590F491E02D0994CB
:1009680057656C636F6D652042656E2100573030A6
:0409780074210000E6
:00000001FF
