:100000000C945B000C9483000C9483000C94D30339
:100010000C9483000C94AB030C9483000C94830029
:100020000C9483000C9483000C9483000C94830044
:100030000C9483000C9483000C9483000C94830034
:100040000C94D4060C9483000C9483000C948300CD
:100050000C9483000C9483000C9483000C94830014
:100060000C9483000C948300000024272A000025B0
:10007000282B000023262904040404040404040299
:100080000202020202030303030303010204081035
:100090002040800102040810200102040810200002
:1000A0000000070002010000030406000000000039
:1000B00000000000C50511241FBECFEFD4E0DEBF55
:1000C000CDBF11E0A0E0B1E0EAEEF5E102C005909D
:1000D0000D92A431B107D9F711E0A4E1B1E001C05C
:1000E0001D92AF37B107E1F710E0C6EBD0E004C0D6
:1000F0002297FE010E94EF0AC43BD107C9F70E9474
:10010000CD060C94F30A0C94000020E001972FEF29
:100110008F3F9207D9F70895FC01609358014093EF
:10012000140110821182128213820895FC016093DF
:100130005801409314011082118212821382089593
:100140006093140108956093580108954091170138
:10015000442319F42FEF3FEF13C090911801E8E109
:10016000F1E0242F30E02E0F3F1F02C081818193E8
:10017000E217F307D9F7415040931701292F30E0D8
:10018000C9010895809117010895EF92FF921F937E
:10019000CF93DF93FC01F62E80819181A281B38100
:1001A0000097A105B10509F449C0F89480911401A4
:1001B00060E00E9445088091150190911601880F1A
:1001C000991F20E001972FEF8F3F9207D9F711E099
:1001D000C0E0D0E0EF2CFF24812F90E08E219F2102
:1001E000892B21F08091140161E003C080911401FA
:1001F00060E00E9445088091150190911601880FDA
:10020000991F20E001972FEF8F3F9207D9F7110F29
:100210002196C830D10501F78091140161E00E9458
:10022000450878948091150190911601880F991FC7
:1002300020E001972FEF8F3F9207D9F7DF91CF9101
:100240001F91FF90EF9008950E94C50008952F928E
:100250003F924F925F926F927F928F929F92AF9256
:10026000BF92CF92DF92EF92FF920F931F93DF9393
:10027000CF93CDB7DEB7A0970FB6F894DEBF0FBE11
:10028000CDBF1C016A017B01411551056105710556
:1002900021F460E30E94C5004FC0882499245401D2
:1002A000422E55246624772401E010E00C0F1D1F18
:1002B000080D191DC701B601A30192010E94CB0AC6
:1002C000F80160830894811C911CA11CB11CC7011A
:1002D000B601A30192010E94CB0AC901DA016C01A7
:1002E0007D01C114D104E104F104F1F651E0E52EE1
:1002F000F12CEC0EFD1EE80CF91C3E010894611C6B
:10030000711CD501C4010197A109B1096C01C8187C
:10031000D9080FC0F601EE0DFF1D60816A3010F4A0
:10032000605D01C0695CC1010E94C5000894E108DC
:10033000F1086E147F0471F7A0960FB6F894DEBF33
:100340000FBECDBFCF91DF911F910F91FF90EF9026
:10035000DF90CF90BF90AF909F908F907F906F90E5
:100360005F904F903F902F9008952AE00E942701C0
:100370000895AB0160E070E00E94B50108950F930D
:100380001F938C016DE00E94C500C8016AE00E94C5
:10039000C5001F910F9108950F931F938C010E9428
:1003A000B501C8010E94BF011F910F9108950F93DD
:1003B0001F938C010E94C500C8010E94BF011F91BC
:1003C0000F9108950F931F938C010E94C500C801DF
:1003D0000E94BF011F910F910895EF92FF920F931A
:1003E0001F93CF93DF93EC017A018B0177FF0BC052
:1003F0006DE20E94C50010950095F094E094E11C18
:10040000F11C011D111DCE01B801A7012AE00E94B7
:100410002701DF91CF911F910F91FF90EF900895E9
:100420000F931F938C010E94ED01C8010E94BF0130
:100430001F910F910895AB01662757FD6095762FA8
:100440000E94ED0108950F931F938C01AB01662765
:1004500057FD6095762F0E94ED01C8010E94BF01F3
:100460001F910F9108952115310521F4642F0E94E9
:10047000C50008952A30310519F40E94ED01089550
:100480000E94270108950F931F938C010E9433024D
:10049000C8010E94BF011F910F9108950F931F93F0
:1004A000CF93DF938C01EB0104C02196C8010E9419
:1004B000C50068816623C9F7DF91CF911F910F9125
:1004C00008950F931F938C010E944E02C8010E9451
:1004D000BF011F910F910895CF92DF92EF92FF928B
:1004E0000F931F938C016A017B018091140161E0DD
:1004F0000E9427088091140161E00E9445088091C4
:10050000580160E00E9427088091580161E00E9434
:100510004508F801C082D182E282F382F0E0CF1672
:10052000FBE4DF06F0E0EF06F0E0FF0609F466C04A
:1005300081E0C8168BE4D80680E0E80680E0F80683
:10054000FCF4E0ECCE16E2E1DE06E0E0EE06E0E0F0
:10055000FE0609F459C0F0E8CF16F5E2DF06F0E038
:10056000EF06F0E0FF0609F44CC080E6C81689E00B
:10057000D80680E0E80680E0F80609F04BC047C0E6
:10058000E0E0CE16E6E9DE06E0E0EE06E0E0FE069C
:1005900079F1F1E0CF16F6E9DF06F0E0EF06F0E0E2
:1005A000FF0654F482E1C8168AE7D80680E0E80620
:1005B00080E0F80679F51FC0E0E0CE16E1EEDE0639
:1005C000E0E0EE06E0E0FE0661F0F0E0CF16F2ECCF
:1005D000DF06F1E0EF06F0E0FF06E1F484E090E0F2
:1005E00002C08EE090E0909316018093150116C032
:1005F00088E190E0F8CF8FE190E0F5CF86E390E0DE
:10060000F2CF81E790E0EFCF88EE90E0ECCF86ED7F
:1006100091E0E9CF109216011092150190915801C6
:10062000983090F480916D0021E030E002C0220FFC
:10063000331F9A95E2F7822B80936D0080916800BA
:1006400084608093680017C09E30A8F48091680091
:1006500081608093680040916B00292F30E0285022
:10066000304081E090E002C0880F991F2A95E2F7A0
:10067000482B40936B008091150190911601880FD3
:10068000991F20E001972FEF8F3F9207D9F71F9115
:100690000F91FF90EF90DF90CF900895EF92FF922F
:1006A0000F931F93CF93DF93809158010E9490087E
:1006B000892B09F049C08091150190911601089786
:1006C00020E001972FEF8F3F9207D9F710E0C0E0AD
:1006D000D0E000E0F1E0EF2EF12C80911501909137
:1006E00016010397880F991F202F01972FEF8F3F37
:1006F0009207D9F7809158010E949008892B41F008
:10070000C7010C2E02C0880F991F0A94E2F7182B1C
:100710002196C830D10509F78091150190911601F5
:10072000880F991F20E001972FEF8F3F9207D9F78D
:1007300080911701803440F4E82FF0E0E85EFE4F2E
:1007400010838F5F80931701DF91CF911F910F91DD
:10075000FF90EF9008951F920F920FB60F92112401
:100760002F933F934F935F936F937F938F939F93B9
:10077000AF93BF93EF93FF9380915801883010F4AB
:100780000E944E03FF91EF91BF91AF919F918F9186
:100790007F916F915F914F913F912F910F900FBE7D
:1007A0000F901F9018951F920F920FB60F92112461
:1007B0002F933F934F935F936F937F938F939F9369
:1007C000AF93BF93EF93FF93809158018850863089
:1007D00010F40E944E03FF91EF91BF91AF919F9152
:1007E0008F917F916F915F914F913F912F910F90DA
:1007F0000FBE0F901F901895AA2797FDA095BA2FAE
:10080000BC01CD010E94DC0920E030E04DEB53E457
:100810000E94680A20E030E04AE754E40E9441095F
:1008200020E030E040E850E40E94DC0820E030E0C6
:1008300040E251E40E9441090895CF93DF93EC0117
:10084000893C91050CF44FC0BE01882777FD809547
:10085000982F0E94DC099B01AC01CE01895C90407D
:100860008337910568F4CA01B90124EA30E74DEBFA
:100870005EE30E94680A23EC35EF4EE352E425C0A4
:10088000CE018C539140823A910568F4CA01B901B6
:1008900029E23CE54FE85EE30E94680A2AE939E96B
:1008A0004EE852E412C0CE018E5D914089539140D2
:1008B00088F4CA01B90123EC35EF48EA5EE30E94EF
:1008C000680A29E23CE54EE052E40E94DD089B0103
:1008D000AC010DC0C751D3402CF02AE939EF49E7EC
:1008E00054E405C008C020E030E040E050E0622F52
:1008F000832F942F752F262F382F492F572FB9016B
:10090000CA01DF91CF910895CF93DF93EC01893530
:1009100091050CF429C183E0C13CD8072CF020E0FC
:1009200030E040E050E024C1BE01882777FD80958B
:10093000982F0E94DC099B01AC01CE01855A93409F
:100940004C9768F4CA01B90128E431EF4DE754E44B
:100950000E94DC0826EF38E24CED5FEBFFC0CE01D1
:1009600081589340849768F4CA01B90122E530E4C4
:1009700042E854E40E94DC0827ED33EA40E150EC01
:10098000EDC0CE01845593408D9768F4CA01B9013A
:1009900029E23CEA46E854E40E94DC0823E333E31E
:1009A00043E350ECDBC0CE0188519340CC9768F410
:1009B000CA01B9012BE734E54CE854E40E94DC0895
:1009C00026E636E646E550ECC9C0CE01845C92408E
:1009D0008435910568F4CA01B90129E23CEF42E986
:1009E00054E40E94DC082CEE31E548E750ECB6C038
:1009F000CE01815792408335910568F4CA01B9014F
:100A00002FE13DEC47E954E40E94DC0822E538EB95
:100A100046E850ECA3C0CE01855192408C3591053B
:100A200068F4CA01B90121E735EF48E954E40E94AE
:100A3000DC0823EC35EF48E850EC90C0CE01865B33
:100A400091408F35910568F4CA01B90122E530E57E
:100A500044E954E40E94DC082AE939E941E850EC11
:100A60007DC0CE018D5691408934910568F4CA014C
:100A7000B9012EEA3FE24BE854E40E94DC0821E78A
:100A80003DE34AE650EC6AC0CE0183539140CA97D9
:100A900068F4CA01B9012BE734E94FE754E40E9436
:100AA000DC0824EA30E74DE450EC58C0CE01895F01
:100AB0009040CA9768F4CA01B9012CE53FE845EBBC
:100AC00052E40E94DC082DEC3CEC4CE250EC46C0B9
:100AD000CE01895C9040C09768F4CA01B90120E05A
:100AE00030E744E454E40E94DC082DEC3CEC4CE09C
:100AF00050EC34C0CE018F5990408A9768F4CA01F7
:100B0000B9012BE734E446E254E40E94DC0820E01B
:100B100030E040EE5FEB22C0CE018C5790408397CF
:100B200068F4CA01B90120E030E44AE054E40E94CC
:100B3000DC0829E23CE54FEA5FEB10C0CB55D04022
:100B4000A19788F4CA01B9012FE832EC40ED53E4D3
:100B50000E94DC0827ED33EA40E75FEB0E94410981
:100B60009B01AC0105C008C02AE939EF49E754E40C
:100B7000622F832F942F752F262F382F492F572F11
:100B8000B901CA01DF91CF91089589E591E063E051
:100B900042E00E9496000895CF93DF938430910540
:100BA00029F4C0910A01D0910B010AC0853091054A
:100BB00019F0C0E0D2E004C0C0910801D091090151
:100BC0000E94B407C81BD90BBE01882777FD80950A
:100BD000982F0E94DC0920E030E04EE153E40E94AF
:100BE0004109DF91CF910895809106010E94B407D9
:100BF0009C01895C90408755924028F4309309010C
:100C00002093080106C080E092E090930901809350
:100C10000801809104010E94B40790930B01809316
:100C20000A010895CF92DF92EF92FF920F931F93E4
:100C300020E030E040E251E40E94680A0E94A909E5
:100C40007B018C0199E5C92E91E0D92E6F2D772774
:100C500067FD7A95C6010E942401C6016E2D0E948F
:100C600024016AE070E080E090E00E943F071F915D
:100C70000F91FF90EF90DF90CF900895EF92FF9249
:100C80000F931F9389E591E00E94A600863409F036
:100C90005BC080915D010E94B4070E94FC036093D9
:100CA0005F01709360018093610190936201809174
:100CB00010010E94B4070E941D04609363017093A9
:100CC0006401809365019093660180910C010E94FC
:100CD000B4070E9484047B018C01609367017093C8
:100CE00068018093690190936A0180910E0190914F
:100CF0000F010E94840460936B0170936C018093D8
:100D00006D0190936E01C801B7010E9412066091B7
:100D10006B0170916C0180916D0190916E010E9448
:100D2000120660915F017091600180916101909164
:100D300062010E94120660916301709164018091CA
:100D400065019091660110C0883581F4809104019D
:100D5000909105010E94CC0560936F017093700122
:100D600080937101909372010E9412061F910F915E
:100D7000FF90EF90089589E591E040E855E260E04A
:100D800070E00E946C0289E591E00E94A600853522
:100D90009105C9F70E94F40508950E9477070E9403
:100DA000BB060E943E06FDCF1F920F920FB60F9218
:100DB00011242F938F939F93AF93BF9380917701CB
:100DC00090917801A0917901B0917A018050904C76
:100DD000AF4FBF4F8093770190937801A093790133
:100DE000B0937A0127C08091770190917801A0910A
:100DF0007901B0917A0180589E43A040B040809321
:100E0000770190937801A0937901B0937A01809152
:100E10007B0190917C01A0917D01B0917E010196B2
:100E2000A11DB11D80937B0190937C01A0937D0156
:100E3000B0937E018091770190917801A091790122
:100E4000B0917A0181589E43A040B04060F6BF91B6
:100E5000AF919F918F912F910F900FBE0F901F9088
:100E600018958FB7F89420917B0130917C014091C7
:100E70007D0150917E018FBFB901CA010895EF92A3
:100E8000FF920F931F937B018C018FB7F8944091D1
:100E90007B0150917C0160917D0170917E018FBF3B
:100EA0002FB7F89480917B0190917C01A0917D01F6
:100EB000B0917E012FBF841B950BA60BB70B8E152F
:100EC0009F05A007B10760F31F910F91FF90EF906E
:100ED0000895019759F0FC01EE0FFF1FEE0FFF1F61
:100EE00032978FB7F8943197F1F78FBF08957894C0
:100EF00084B5826084BD84B5816084BD85B582601F
:100F000085BD85B5816085BDEEE6F0E080818160BC
:100F10008083E1E8F0E0808182608083808181606D
:100F20008083E0E8F0E0808181608083E1EBF0E0A5
:100F3000808184608083E0EBF0E080818160808349
:100F4000EAE7F0E080818460808380818260808332
:100F50008081816080838081806880831092C1005D
:100F600008958093120108958F70909112019295C7
:100F7000990F990F907C982B90937C0080917A0028
:100F8000806480937A0080917A0086FDFCCF209166
:100F9000780040917900942F80E030E0282B392BA5
:100FA000C90108951F93CF93DF93182FEB0161E0E0
:100FB0000E942708E12FF0E0E156FF4F8491833033
:100FC00051F480918000806880938000D0938900E4
:100FD000C093880038C0843051F4809180008062D2
:100FE00080938000D0938B00C0938A002CC0813006
:100FF00029F484B5806884BDC7BD25C0823029F43A
:1010000084B5806284BDC8BD1EC0863041F4809125
:10101000B00080688093B000C093B30014C08730E4
:1010200041F48091B00080628093B000C093B4001E
:101030000AC0C038D1051CF4812F60E002C0812FA6
:1010400061E00E944508DF91CF911F910895282FFC
:1010500030E0C90185579F4FFC01949129583F4FBB
:10106000F9018491882381F0E82FF0E0E859FF4FDF
:10107000E491F0E0662329F48081909589238083B0
:1010800008958081892B80830895482F50E0CA01FC
:1010900081569F4FFC012491CA0185579F4FFC0147
:1010A000949149585F4FFA0134913323C1F12223BF
:1010B00031F1233021F4809180008F7705C02430F6
:1010C00031F4809180008F7D8093800018C02130A2
:1010D00019F484B58F7704C0223021F484B58F7D54
:1010E00084BD0DC0263021F48091B0008F7705C0FB
:1010F000273029F48091B0008F7D8093B000E32FDA
:10110000F0E0E359FF4FE491F0E0662329F4808199
:1011100090958923808308958081892B8083089509
:10112000482F50E0CA0181569F4FFC012491CA010B
:1011300085579F4FFC01949149585F4FFA013491B4
:10114000332319F420E030E035C0222331F123307D
:1011500021F4809180008F7705C0243031F4809194
:1011600080008F7D8093800018C0213019F484B5F1
:101170008F7704C0223021F484B58F7D84BD0DC0EB
:10118000263021F48091B0008F7705C0273029F4F4
:101190008091B0008F7D8093B000E32FF0E0EE5897
:1011A000FF4FE491F0E0808120E030E0892311F0EE
:1011B00021E030E0C90108955058BB27AA270ED07E
:1011C0004DC13ED130F043D120F031F49F3F11F4B6
:1011D0001EF433C10EF4E095E7FB29C1E92F4FD18E
:1011E00080F3BA17620773078407950718F071F444
:1011F0009EF567C10EF4E0950B2EBA2FA02D0B01C2
:10120000B90190010C01CA01A0011124FF27591B4B
:1012100099F0593F50F4503E68F11A16F040A22F51
:10122000232F342F4427585FF3CF469537952795C2
:10123000A795F0405395C9F77EF41F16BA0B620BC1
:10124000730B840BBAF09150A1F0FF0FBB1F661F08
:10125000771F881FC2F70EC0BA0F621F731F841F4B
:1012600048F4879577956795B795F7959E3F08F071
:10127000B3CF9395880F08F09927EE0F9795879530
:1012800008950CD0EBC0E3D040F0DAD030F021F478
:101290005F3F19F0CCC0511115C1CFC0F0D098F309
:1012A0009923C9F35523B1F3951B550BBB27AA27E7
:1012B00062177307840738F09F5F5F4F220F331F59
:1012C000441FAA1FA9F333D00E2E3AF0E0E830D025
:1012D00091505040E695001CCAF729D0FE2F27D028
:1012E000660F771F881FBB1F261737074807AB07F6
:1012F000B0E809F0BB0B802DBF01FF2793585F4F6B
:101300002AF09E3F510568F092C0DCC05F3FECF3CD
:10131000983EDCF3869577956795B795F7959F5F2F
:10132000C9F7880F911D9695879597F90895E1E083
:10133000660F771F881FBB1F621773078407BA07E2
:1013400020F0621B730B840BBA0BEE1F88F7E0953D
:10135000089504D06894B111B5C0089598D088F06C
:101360009F5790F0B92F9927B751A0F0D1F0660F91
:10137000771F881F991F1AF0BA95C9F712C0B130AC
:1013800081F09FD0B1E008959CC0672F782F882707
:10139000B85F39F0B93FCCF3869577956795B395EB
:1013A000D9F73EF490958095709561957F4F8F4F5A
:1013B0009F4F0895E89409C097FB3EF4909580955F
:1013C000709561957F4F8F4F9F4F9923A9F0F92F0B
:1013D00096E9BB279395F695879577956795B79589
:1013E000F111F8CFFAF4BB0F11F460FF1BC06F5F6F
:1013F0007F4F8F4F9F4F16C0882311F096E911C081
:10140000772321F09EE8872F762F05C0662371F0A1
:1014100096E8862F70E060E02AF09A95660F771FB5
:10142000881FDAF7880F9695879597F9089597F9A9
:101430009F6780E870E060E008959FEF80EC08957A
:1014400000240A94161617061806090608950024A3
:101450000A9412161306140605060895092E03941D
:10146000000C11F4882352F0BB0F40F4BF2B11F491
:1014700060FF04C06F5F7F4F8F4F9F4F089557FDF0
:101480009058440F551F59F05F3F71F04795880FF2
:1014900097FB991F61F09F3F79F087950895121689
:1014A00013061406551FF2CF4695F1DF08C0161635
:1014B00017061806991FF1CF8695710561050894E6
:1014C0000895E894BB2766277727CB0197F90895FD
:1014D0000BD0C4CFB5DF28F0BADF18F0952309F0A0
:1014E000A6CFABCF1124EECFCADFA0F3959FD1F3E7
:1014F000950F50E0551F629FF001729FBB27F00DC2
:10150000B11D639FAA27F00DB11DAA1F649F662716
:10151000B00DA11D661F829F2227B00DA11D621F65
:10152000739FB00DA11D621F839FA00D611D221F1F
:10153000749F3327A00D611D231F849F600D211D03
:10154000822F762F6A2F11249F5750408AF0E1F0A6
:1015500088234AF0EE0FFF1FBB1F661F771F881FEF
:1015600091505040A9F79E3F510570F060CFAACF2F
:101570005F3FECF3983EDCF3869577956795B795DA
:10158000F795E7959F5FC1F7FE2B880F911D969504
:10159000879597F90895A1E21A2EAA1BBB1BFD019E
:1015A0000DC0AA1FBB1FEE1FFF1FA217B307E40742
:1015B000F50720F0A21BB30BE40BF50B661F771F9A
:1015C000881F991F1A9469F760957095809590957A
:1015D0009B01AC01BD01CF010895EE0FFF1F0590E7
:0A15E000F491E02D0994F894FFCF78
:1015EA0004000500040005000002000202000300D6
:0415FA0001000100EB
:00000001FF
