:100000000C945B000C9483000C9483000C9483008C
:100010000C9483000C9483000C9483000C94830054
:100020000C9483000C9483000C9483000C94830044
:100030000C9483000C9483000C9483000C94830034
:100040000C9413160C9483000C9495180C94830054
:100050000C9483000C9483000C9483000C94830014
:100060000C9483000C948300000024272A000025B0
:10007000282B000023262904040404040404040299
:100080000202020202030303030303010204081035
:100090002040800102040810200102040810200002
:1000A0000000070002010000030406000000000039
:1000B000000000006B1411241FBECFEFD4E0DEBFA0
:1000C000CDBF12E0A0E0B1E0EEECF5E302C0059098
:1000D0000D92AC32B107D9F712E0ACE2B2E001C048
:1000E0001D92A03FB107E1F710E0C6EBD0E004C0DD
:1000F0002297FE010E94E11AC43BD107C9F70E9472
:1001000064140C94E51A0C9400000895EF92FF9289
:100110000F931F932AE731E040E050E00E945C1A01
:1001200028EE33E040E050E00E94B01A79018A01E5
:100130008CEF9FEFAFEFBFEFE80EF91E0A1F1B1FFA
:10014000B701C8011F910F91FF90EF900895663697
:100150007105810591052CF420E030E040E050E08D
:100160001DC06B3923E0720720E0820720E0920770
:100170002CF02FE037E240E050E010C02EE030E0FD
:1001800040E050E00E945C1A2AE030E040E050E09D
:100190000E94B01A2059304040405040B901CA0175
:1001A000089528EE33E040E050E00E945C1A9B0185
:1001B000AC012D3E6CE2360760E0460760E0560772
:1001C0000CF482C024308AE0380781E0480780E0E0
:1001D00058072CF080E090E0A0E0B0E079C0DA01B0
:1001E000C901815B9A49A040B040805F9E46A04013
:1001F000B04088F4CA01B9012AE030E040E050E0A4
:100200000E945C1A645C7C478441904027E23EEF88
:100210004FEF5FEF53C0DA01C90189529E46A040FB
:10022000B04088589C42A040B04088F4CA01B9014F
:100230002AE030E040E050E00E945C1A605A734AC5
:100240008141904024E83EEF4FEF5FEF37C0DA0185
:10025000C901855F9C44A040B04084539142A040B6
:10026000B04088F4CA01B9012AE030E040E050E033
:100270000E945C1A6C517F438E40904025EE3EEF09
:100280004FEF5FEF1BC0DA01C90181559D42A040CD
:10029000B040845A9F41A040B040A8F4CA01B901BF
:1002A0002AE030E040E050E00E945C1A605A7C4551
:1002B0008840904029E73FEF4FEF5FEF0E94B01A70
:1002C000C901DA0105C007C08FE097E2A0E0B0E005
:1002D000BC012A2F9B2F822F089524E630E040E0B6
:1002E00050E00E945C1A9B01AC01243C62E236079C
:1002F00060E0460760E056070CF4B6C1213087E79E
:10030000380781E0480780E058072CF080E090E053
:10031000A0E0B0E0ADC1DA01C90186529C46A1401F
:10032000B0408B5D9A40A040B04088F4CA01B9014A
:100330002AE030E040E050E00E945C1A6A5D7F47AE
:100340008F40904024E53FEF4FEF5FEF87C1DA0128
:10035000C9018B509E45A140B0408B519E40A040AA
:10036000B04088F4CA01B9012AE030E040E050E032
:100370000E945C1A6A55764E8F4090402EE13FEF06
:100380004FEF5FEF6BC1DA01C90186589C44A14071
:10039000B04085589141A040B04088F4CA01B901ED
:1003A0002AE030E040E050E00E945C1A6458704758
:1003B0008041904028EE3EEF4FEF5FEF4FC1DA01F2
:1003C000C90184529543A140B04082569741A04054
:1003D000B04088F4CA01B9012AE030E040E050E0C2
:1003E0000E945C1A605571428141904021EB3EEFC2
:1003F0004FEF5FEF33C1DA01C90180599441A14049
:10040000B04084599042A040B04088F4CA01B9017C
:100410002AE030E040E050E00E945C1A6854714FDE
:10042000814190402CE73EEF4FEF5FEF17C1DA01BB
:10043000C9018750944FA040B04089589042A040D5
:10044000B04088F4CA01B9012AE030E040E050E051
:100450000E945C1A6A5C7748824190402BE53EEF2F
:100460004FEF5FEFFBC0DA01C9018F5E9F4CA040E8
:10047000B04088519442A040B04088F4CA01B9010C
:100480002AE030E040E050E00E945C1A665F7B4A60
:100490008241904024E53EEF4FEF5FEFDFC0DA018D
:1004A000C9018C5B9A4AA040B04083539542A0405A
:1004B000B04088F4CA01B9012AE030E040E050E0E1
:1004C0000E945C1A6E5C7A41824190402BE63EEFBE
:1004D0004FEF5FEFC3C0DA01C90188579E48A040C3
:1004E000B04084549C41A040B04088F4CA01B90196
:1004F0002AE030E040E050E00E945C1A62597D4FF3
:100500008041904022E93EEF4FEF5FEFA7C0DA0154
:10051000C9018E5D9747A040B0408A599641A040DE
:10052000B04088F4CA01B9012AE030E040E050E070
:100530000E945C1A605779498F4090402FEB3EEF44
:100540004FEF5FEF8BC0DA01C901815E9046A0409A
:10055000B0408D5F9641A040B04088F4CA01B90117
:100560002AE030E040E050E00E945C1A6C5972468C
:100570008140904022EF3EEF4FEF5FEF6FC0DA0116
:10058000C90181529E44A040B040805C9241A0408D
:10059000B04088F4CA01B9012AE030E040E050E000
:1005A0000E945C1A66557D4F8B40904024E23FEFDD
:1005B0004FEF5FEF53C0DA01C9018C5E9D43A0404D
:1005C000B04085539041A040B04088F4CA01B901C1
:1005D0002AE030E040E050E00E945C1A6E5E754216
:1005E0008A40904021E53FEF4FEF5FEF37C0DA01DF
:1005F000C9018D559043A040B0408F589D40A04008
:10060000B04088F4CA01B9012AE030E040E050E08F
:100610000E945C1A685270478840904027E73FEF7D
:100620004FEF5FEF1BC0DA01C9018E579342A04024
:10063000B0408F5D9C40A040B040A8F4CA01B90111
:100640002AE030E040E050E00E945C1A605F7E45A6
:100650008640904022EA3FEF4FEF5FEF0E94B01AD2
:10066000C901DA0105C007C08FE097E2A0E0B0E061
:10067000BC012A2F9B2F822F08959C011816190662
:1006800084F480912F029091300282179307DCF45A
:100690003093300220932F021092320210923102D6
:1006A00012C0009781F080912D0290912E022817A0
:1006B00039074CF430932E0220932D02109234020D
:1006C0001092330208958091310290913202449742
:1006D00044F01092320210923102109230021092C5
:1006E0002F028091330290913402449744F010928B
:1006F00034021092330210922E0210922D020895AD
:10070000CF93DF93C1E0D0E00BC02AE030E040E0BF
:1007100050E00E94B01AC901DA01BC01CD01219656
:100720006A3071058105910584F797FD2196CE0108
:10073000DF91CF910895EF92FF920F931F93CF9384
:10074000DF937C0197FF0AC060E170E00E947B1A92
:100750008B01085F1F4FC1E0D0E03DC082E692E010
:1007600060E071E00E949414870184E0159507957C
:100770008A95E1F7C1E0D0E00BC082E692E04FEF4E
:1007800050E060E070E020E030E00E94F315219638
:100790000C171D0794F7C70160E170E00E947B1AF7
:1007A00000271127061B170B085F1F4FC1E0D0E081
:1007B00007C082E692E069E071E00E9494142196FD
:1007C0000C171D07B4F730C082E692E069E071E0D3
:1007D0000E94941421960C171D07B4F7C70160E11D
:1007E00070E00E947B1A00271127061B170BC1E03F
:1007F000D0E00BC082E692E04FEF50E060E070E0A6
:1008000020E030E00E94F31521960C171D0794F7A5
:10081000C1E0D0E082E692E069E071E00E949414C9
:100820002196C930D105B1F782E692E04EEF50E053
:1008300060E070E020E030E00E94F31582E692E094
:1008400040E850E060E070E020E030E00E94F31506
:1008500080912D0290912E02815F9F4FB4F582E628
:1008600092E04EEF50E060E070E020E030E00E9467
:10087000F31580912D0290912E02803191054CF05C
:1008800060E170E00E947B1A88279927861B970BEE
:1008900005C060E170E00E947B1ACB0188579F4F32
:1008A000AC01662757FD6095762F82E692E020E046
:1008B00030E00E94F31582E692E04FEF50E060E0F6
:1008C00070E020E030E00E94F31580912F029091BB
:1008D000300240974CF182E692E04EEF50E060E04B
:1008E00070E020E030E00E94F31580912F0290919B
:1008F000300260E170E00E947B1AAB0148575F4F05
:10090000662757FD6095762F82E692E020E030E082
:100910000E94F31582E692E04FEF50E060E070E055
:1009200020E030E00E94F315DF91CF911F910F91ED
:10093000FF90EF900895CF92DF92EF92FF920F9386
:100940001F938C016B0192E6E92E92E0F92EC7010C
:100950004EEF50E060E070E020E030E00E94F315E0
:10096000C70141E050E060E070E020E030E00E942C
:10097000F315C7014EEF50E060E070E020E030E09A
:100980000E94F315C70140E850E060E070E020E00D
:1009900030E00E94F315C701B8010E949414C7010A
:1009A0004EEF50E060E070E020E030E00E94F31590
:1009B000C70140EC50E060E070E020E030E00E94D1
:1009C000F315C701B6010E94941468EE73E080E04D
:1009D00090E00E947E16C7014EEF50E060E070E0AC
:1009E00020E030E00E94F315C70141E050E060E0F4
:1009F00070E020E030E00E94F3151F910F91FF900E
:100A0000EF90DF90CF900895CF93DF9385309105DD
:100A100029F4C0911002D09111020AC083309105CF
:100A200019F0C0E0D2E004C0C0911202D0911302CC
:100A30000E94F316C81BD90BBE01882777FD80954D
:100A4000982F0E946D1920E030E04AE153E40E94A3
:100A5000D21820E030E048EC52E40E94F9190E94DC
:100A60003A19CB01DF91CF9108950F931F93CF9344
:100A7000DF93EC0197FD05C082E692E06BE071E048
:100A800004C082E692E06DE071E00E949414CE0111
:100A900064E670E00E947B1A8C01C436D10524F014
:100AA000CE0164E670E003C0CE016CE97FEF0E94E6
:100AB0007B1A82E692E00E94DB15C80109964397F3
:100AC00028F082E692E06FE071E004C082E692E0F6
:100AD00061E171E00E949414B80117FF03C07095A2
:100AE00061957F4F82E692E00E94DB15DF91CF9106
:100AF0001F910F910895EF92FF920F931F93809192
:100B00004D02813031F4809116020E94CF17892B5B
:100B1000D1F381E080934D0280910C0290910D02FF
:100B20000E9404057C0180910E0290910F020E94A8
:100B300004058C01809131029091320201969093CC
:100B400032028093310280913302909134020196F7
:100B50009093340280933302C8010E943D0382E6E1
:100B600092E04EEF50E060E070E020E030E00E9464
:100B7000F31582E692E040E850E060E070E020E0AB
:100B800030E00E94F3156CE370E080E090E00E949A
:100B90007E16C8010E949B0382E692E04EEF50E071
:100BA00060E070E020E030E00E94F31582E692E021
:100BB00040EC50E060E070E020E030E00E94F3158F
:100BC0006CE370E080E090E00E947E1682E692E0A6
:100BD00064E171E00E949414C7010E94350582E629
:100BE00092E067E171E00E949414C8010E9435050B
:100BF0001F910F91FF90EF900895CF93DF93EC0139
:100C00008A30910534F482E692E06CE171E00E9452
:100C1000941482E692E0BE010E94DB15DF91CF9131
:100C20000895AF92BF92CF92DF92EF92FF920F930F
:100C30001F9332E6C32E32E0D32EC6014EEF50E0B2
:100C400060E070E020E030E00E94F315C60140EC67
:100C500050E060E070E020E030E00E94F315E090AA
:100C60003902F0903A0200913B0210913C02C60119
:100C70006EE171E00E949414C801B70120E83EEED5
:100C800046E350E00E948E1ADA01C9010E94FD0578
:100C900023E2A22E21E0B22EC601B5010E949414D7
:100CA000C801B70120E83EEE46E350E00E948E1AEC
:100CB00020E63AEE40E050E00E948E1ADA01C901C7
:100CC0000E94FD05C601B5010E949414C801B70138
:100CD00020E63AEE40E050E00E948E1A28EE33E023
:100CE00040E050E00E948E1ADA01C9010E94FD0521
:100CF000C6016FE071E00E949414C801B70128EEAC
:100D000033E040E050E00E948E1A2AE030E040E0FC
:100D100050E00E948E1ADA01C9010E94FD051F9160
:100D20000F91FF90EF90DF90CF90BF90AF9008951C
:100D3000AF92BF92CF92DF92EF92FF920F931F93E9
:100D400052E6C52E52E0D52EC6014EEF50E060E0CF
:100D500070E020E030E00E94F315C60140E850E06A
:100D600060E070E020E030E00E94F315E090350292
:100D7000F09036020091370210913802C60165E208
:100D800071E00E949414C801B70120E83EEE46E3EA
:100D900050E00E948E1ADA01C9010E94FD0543E26B
:100DA000A42E41E0B42EC601B5010E949414C801DE
:100DB000B70120E83EEE46E350E00E948E1A20E69E
:100DC0003AEE40E050E00E948E1ADA01C9010E941A
:100DD000FD05C601B5010E949414C801B70120E6C3
:100DE0003AEE40E050E00E948E1A28EE33E040E0F8
:100DF00050E00E948E1ADA01C9010E94FD05C60169
:100E00006FE071E00E949414C801B70128EE33E04E
:100E100040E050E00E948E1A2AE030E040E050E0CE
:100E20000E948E1ADA01C9010E94FD051F910F91DF
:100E3000FF90EF90DF90CF90BF90AF9008954F92CA
:100E40005F926F927F928F929F92AF92BF92CF925A
:100E5000DF92EF92FF920F931F93DF93CF93CDB763
:100E6000DEB764970FB6F894DEBF0FBECDBF80919A
:100E700016020E94CF17892BD1F382E692E04EEF43
:100E800050E060E070E020E030E00E94F31582E680
:100E900092E041E050E060E070E020E030E00E944D
:100EA000F31582E692E04EEF50E060E070E020E063
:100EB00030E00E94F31582E692E040E850E060E006
:100EC00070E020E030E00E94F31582E692E06AE2F2
:100ED00071E00E94941482E692E04EEF50E060E0F0
:100EE00070E020E030E00E94F31582E692E040ECF2
:100EF00050E060E070E020E030E00E94F31582E610
:100F000092E066E371E00E94941407C0809116029B
:100F10000E94CF17892B09F463C1809118020E94A7
:100F2000CF17019799F364EF71E080E090E00E94A1
:100F30007E1682E692E04EEF50E060E070E020E046
:100F400030E00E94F31582E692E041E050E060E07C
:100F500070E020E030E00E94F31582E692E06EE35C
:100F600071E00E94941482E692E066E471E00E94CF
:100F7000941482E692E04DE050E060E070E020E002
:100F800030E00E94F315809118020E94CF17892B40
:100F9000D1F3809116020E94CF17019709F014C176
:100FA000809118020E94CF17019709F00DC182E6C7
:100FB00092E061E771E00E94941480911E020E9409
:100FC000F316AA2797FDA095BA2FBC01CD010E9468
:100FD0006D01698B7A8B8B8B9C8B809120020E9498
:100FE000F316AA2797FDA095BA2FBC01CD010E9448
:100FF0006D016D877E878F87988B809122020E947A
:10100000F316AA2797FDA095BA2FBC01CD010E9427
:10101000D10069877A878B879C8780913D020E94E7
:10102000F316AA2797FDA095BA2FBC01CD012AE798
:1010300031E040E050E00E945C1A28EE33E040E0EE
:1010400050E00E94B01A69017A012CEF3FEF4FEF98
:101050005FEFC20ED31EE41EF51E80910C0290912C
:101060000D020E9404059C01442737FD4095542F32
:101070002D833E834F83588780910E0290910F02FB
:101080000E9404059C01442737FD4095542F298375
:101090003A834B835C8369897A898B899C890E9416
:1010A00080038C016D857E858F8598890E948003E1
:1010B0002C0169857A858B859C850E9480033C0183
:1010C000C701B6010E9480034C016D817E818F8132
:1010D00098850E9480035C0169817A818B819C8163
:1010E0000E948003040D151D0B5F1F4F060D171D79
:1010F000080D191D0A0D1B1D080F191F82E692E02D
:10110000B8010E94DB1582E692E04DE050E060E01D
:1011100070E020E030E00E94F31582E692E0498919
:101120005A896B897C890E94A91582E692E066E75C
:1011300071E00E94941482E692E04D855E856F8591
:1011400078890E94A91582E692E066E771E00E9424
:10115000941482E692E049855A856B857C850E94CD
:10116000A91582E692E066E771E00E94941482E697
:1011700092E0B701A6010E94A91582E692E066E717
:1011800071E00E94941482E692E04D815E816F814D
:1011900078850E94A91582E692E066E771E00E94D8
:1011A000941482E692E049815A816B817C810E948D
:1011B000A91582E692E04DE050E060E070E020E0AA
:1011C00030E00E94F315E5CE809116020E94CF1701
:1011D000892B31F4809118020E94CF17892BA1F33B
:1011E00064960FB6F894DEBF0FBECDBFCF91DF91EE
:1011F0001F910F91FF90EF90DF90CF90BF90AF9035
:101200009F908F907F906F905F904F900895CF93B5
:10121000DF93809116020E94CF17892BD1F3809122
:101220003F0290914002892B09F084C082E692E04F
:101230004EEF50E060E070E020E030E00E94F315F7
:1012400082E692E041E050E060E070E020E030E0D3
:101250000E94F31582E692E04EEF50E060E070E00D
:1012600020E030E00E94F31582E692E040E850E092
:1012700060E070E020E030E00E94F31564E170E08F
:1012800080E090E00E947E1682E692E068E771E0DE
:101290000E94941482E692E04EEF50E060E070E02D
:1012A00020E030E00E94F31582E692E040EC50E04E
:1012B00060E070E020E030E00E94F31582E692E00A
:1012C00068E871E00E949414109235021092360280
:1012D00010923702109238021092390210923A029C
:1012E00010923B0210923C0207C0809116020E94AD
:1012F000CF17892B09F49BC1809118020E94CF1748
:10130000019799F30FC0D0934002C0933F020E940F
:101310007016609345027093460280934702909343
:10132000480202C0C1E0D0E0809118020E94CF17AD
:10133000892B49F380913F0290914002019709F077
:1013400077C082E692E04EEF50E060E070E020E08F
:1013500030E00E94F31582E692E041E050E060E068
:1013600070E020E030E00E94F31582E692E04EEF5C
:1013700050E060E070E020E030E00E94F31582E68B
:1013800092E040E850E060E070E020E030E00E9451
:10139000F31539C0809116020E94CF17892B09F4EA
:1013A00046C182E692E04EEF50E060E070E020E05F
:1013B00030E00E94F31582E692E041E050E060E008
:1013C00070E020E030E00E94F3150E94701620913A
:1013D0004502309146024091470250914802621BFB
:1013E000730B840B950B60933502709336028093D8
:1013F0003702909338020E94980662E370E080E022
:1014000090E00E947E16809118020E94CF170197EB
:1014100009F4C0CF05C0D0934002C0933F0202C080
:10142000C2E0D0E0809118020E94CF17892B99F377
:1014300080913F0290914002029709F05CC082E6E1
:1014400092E04EEF50E060E070E020E030E00E947B
:10145000F31582E692E041E050E060E070E020E0C9
:1014600030E00E94F3150E94980662E370E080E08D
:1014700090E00E947E1682E692E04EEF50E060E03F
:1014800070E020E030E00E94F31582E692E040EC4C
:1014900050E060E070E020E030E00E94F31582E66A
:1014A00092E068E871E00E94941407C080911602EF
:1014B0000E94CF17892B09F4BAC0809118020E94AC
:1014C000CF17019799F30FC0D0934002C0933F020A
:1014D0000E9470166093490270934A0280934B02F7
:1014E00090934C0202C0C3E0D0E0809118020E94A9
:1014F000CF17892B49F380913F02909140020397C7
:1015000009F054C082E692E04EEF50E060E070E0F7
:1015100020E030E00E94F31582E692E041E050E0E6
:1015200060E070E020E030E00E94F3150E94980631
:101530006AE070E080E090E023C0809116020E9493
:10154000CF17892B09F473C00E94701620914902AD
:1015500030914A0240914B0250914C02621B730B36
:10156000840B950B6093390270933A0280933B028F
:1015700090933C020E94110662E370E080E090E0EC
:101580000E947E16809118020E94CF170197A9F23F
:1015900005C0D0934002C0933F0202C0C4E0D0E037
:1015A000809118020E94CF17892B99F380913F02F6
:1015B000909140020497D9F582E692E04EEF50E018
:1015C00060E070E020E030E00E94F31582E692E0F7
:1015D00041E050E060E070E020E030E00E94F31570
:1015E00016C00E94980662E370E080E090E00E94DE
:1015F0007E160E94110662E370E080E090E00E9497
:101600007E16809116020E94CF17892B81F080915F
:1016100018020E94CF17019721F3809118020E94AF
:10162000CF17892BD1F31092400210923F02DF9125
:10163000CF910895CF93DF93809116020E94CF1728
:10164000892BD1F382E692E04EEF50E060E070E04B
:1016500020E030E00E94F31582E692E041E050E0A5
:1016600060E070E020E030E00E94F315C1E0D0E0DF
:1016700015C1D0934202C09341020E94701660933C
:1016800045027093460280934702909348020EC031
:1016900020E08091180290911902892B09F421E031
:1016A000822F0E94CF17892B09F013C120E080916F
:1016B000160290911702892B09F421E0822F0E94D3
:1016C000CF17892B29F720E08091180290911902F9
:1016D000892B09F421E0822F0E94CF17892B51F129
:1016E000D0934402C09343020E9470166093490253
:1016F00070934A0280934B0290934C020EC020E0FC
:101700008091160290911702892B09F421E0822F13
:101710000E94CF17892B09F0DCC020E080911802CD
:1017200090911902892B09F421E0822F0E94CF1792
:10173000892B29F78091410290914202892B41F532
:1017400082E692E04EEF50E060E070E020E030E0B2
:101750000E94F31582E692E040E850E060E070E01D
:1017600020E030E00E94F31564E170E080E090E05A
:101770000E947E1682E692E068E771E00E9494146F
:1017800010923502109236021092370210923802EF
:101790008091430290914402892B41F582E692E0C8
:1017A0004EEF50E060E070E020E030E00E94F31582
:1017B00082E692E040EC50E060E070E020E030E053
:1017C0000E94F31564E170E080E090E00E947E16D4
:1017D00082E692E068E871E00E9494141092390267
:1017E00010923A0210923B0210923C028091410208
:1017F000909142020197F1F40E94701620914502E7
:10180000309146024091470250914802621B730B8F
:10181000840B950B609335027093360280933702E8
:10182000909338020E94980662E370E080E090E0B6
:101830000E947E1680914302909144020197F1F438
:101840000E9470162091490230914A0240914B0249
:1018500050914C02621B730B840B950B6093390201
:1018600070933A0280933B0290933C020E941106CF
:1018700062E370E080E090E00E947E168091410279
:1018800090914202029711F40E94980680914302BF
:1018900090914402029711F40E9411068091160261
:1018A0000E94CF170197A9F4809118020E94CF17C8
:1018B000019779F420E08091160290911702892B0C
:1018C00009F421E0822F0E94CF17892B09F0D1CE95
:1018D000FACEDF91CF91089580911A0261E00E94C3
:1018E000841768EB7BE080E090E00E947E16809198
:1018F0001A0260E00E948417089580911C0261E042
:101900000E94841788E995E00E94A81680911C0225
:1019100060E00E94841788E995E00E94A816089567
:10192000CF93DF9382E692E04CE750E060E070E016
:1019300020E030E00E94F31582E692E040E850E0BB
:1019400060E070E020E030E00E94F315C0E0D0E0FD
:101950000E947D0C2196C93CD105D1F782E692E028
:101960004CE750E060E070E020E030E00E94F315CA
:1019700082E692E04DE950E060E070E020E030E087
:101980000E94F3156CE271E080E090E00E947E1608
:10199000DF91CF9108952F923F924F925F926F9275
:1019A0007F928F929F92AF92BF92CF92DF92EF92EF
:1019B000FF920F931F93DF93CF93CDB7DEB7289796
:1019C0000FB6F894DEBF0FBECDBF3C011801290150
:1019D000C982DA82EB82FC828D829E82AF82B886D7
:1019E000A8A4B9A4CAA4DBA482E692E04EEF50E01A
:1019F00060E070E020E030E00E94F31582E692E0C3
:101A000040E850E060E070E020E030E00E94F31534
:101A100082E692E0B3010E94941482E692E069E0CB
:101A200071E00E94941489A18130D1F42114310411
:101A30004104510429F482E692E068E971E00DC0A6
:101A40008FE0281687E2380680E0480680E05806D6
:101A500039F482E692E06EE971E00E9494143EC08F
:101A6000C201B1012AE030E040E050E00E94B01A2B
:101A700082E692E0BA01A9010E94A91582E692E0ED
:101A80006FE071E00E949414C201B1012AE030E0DD
:101A900040E050E00E94B01AAB01BC0182E692E047
:101AA0000E94A915C201B1010E94800301968330F2
:101AB00091050CF40196EE24FF2405E010E0081BCC
:101AC000190B09C082E692E069E071E00E9494146B
:101AD0000894E11CF11CE016F106A4F382E692E002
:101AE00065EA71E00E94941469817A818B819C81FE
:101AF0000E9480030196833091050CF40196EE2438
:101B0000FF2406E010E0081B190B09C082E692E0F2
:101B100069E071E00E9494140894E11CF11CE01645
:101B2000F106A4F369817A818B819C812AE030E0FF
:101B300040E050E00E94B01A82E692E0BA01A901AA
:101B40000E94A91582E692E06FE071E00E94941471
:101B500069817A818B819C812AE030E040E050E00D
:101B60000E94B01AAB01BC0182E692E00E94A91566
:101B70008D819E81AF81B88582159305A405B50539
:101B80004CF08D8D9E8DAF8DB8A1281639064A0672
:101B90005B0614F40E94900C82E692E04EEF50E057
:101BA00060E070E020E030E00E94F31582E692E011
:101BB00040EC50E060E070E020E030E00E94F3157F
:101BC00082E692E06AA17BA10E94941482E692E0F0
:101BD00069E071E00E94941488AD8130D1F4A114C1
:101BE000B104C104D10429F482E692E068E971E00D
:101BF0000DC09FE0A91697E2B90690E0C90690E0F3
:101C0000D90639F482E692E067EA71E00E94941402
:101C10003EC0C601B5012AE030E040E050E00E943D
:101C2000B01A82E692E0BA01A9010E94A91582E6E3
:101C300092E06FE071E00E949414C601B5012AE0C1
:101C400030E040E050E00E94B01AAB01BC0182E6F7
:101C500092E00E94A915C601B5010E948003019679
:101C6000833091050CF40196EE24FF2405E010E08A
:101C7000081B190B09C082E692E069E071E00E943E
:101C800094140894E11CF11CE016F106A4F382E61A
:101C900092E065EA71E00E9494146CA57DA58EA582
:101CA0009FA50E9480030196833091050CF4019654
:101CB000EE24FF2406E010E0081B190B09C082E6A1
:101CC00092E069E071E00E9494140894E11CF11C18
:101CD000E016F106A4F36CA57DA58EA59FA52AE0CC
:101CE00030E040E050E00E94B01A82E692E0BA0193
:101CF000A9010E94A91582E692E06FE071E00E94BE
:101D000094146CA57DA58EA59FA52AE030E040E047
:101D100050E00E94B01AAB01BC0182E692E00E9442
:101D2000A91588A999A9AAA9BBA98A159B05AC05DB
:101D3000BD054CF08CA99DA9AEA9BFA9A816B906EE
:101D4000CA06DB0614F40E94900C64E670E080E0A2
:101D500090E00E947E1628960FB6F894DEBF0FBE64
:101D6000CDBFCF91DF911F910F91FF90EF90DF904A
:101D7000CF90BF90AF909F908F907F906F905F902B
:101D80004F903F902F9008953F924F925F926F92A5
:101D90007F928F929F92AF92BF92CF92DF92EF92FB
:101DA000FF920F931F93CF93DF93809116020E94AF
:101DB000CF17892BD1F38DEA91E06AEB71E00E9495
:101DC0009B0433243394F8EE4F2EF3E05F2E612C06
:101DD000712CA9C0809118020E94CF17892B81F421
:101DE00010925A0210925B0210925C0210925D02F5
:101DF00010925E0210925F021092600210926102D5
:101E0000809120020E94F316AA2797FDA095BA2F71
:101E1000BC01CD010E946D014B015C0180911E024D
:101E20000E94F316AA2797FDA095BA2FBC01CD01F9
:101E30000E946D018B019C01C0905A02D0905B0200
:101E4000E0905C02F0905D02C616D706E806F9063F
:101E500014F46B017C01C0925A02D0925B02E092B2
:101E60005C02F0925D0280915E0290915F02A0910F
:101E70006002B091610288159905AA05BB0514F4AA
:101E8000D501C40180935E0290935F02A09360022B
:101E9000B09361024DB75EB74C5150400FB6F89405
:101EA0005EBF0FBE4DBFEDB7FEB73196CDB7DEB703
:101EB00019821A821B821C8234824FEB51E05683B6
:101EC000458348E755E060E070E0478350876187CD
:101ED000728783869486A586B6868787908BA18B2A
:101EE000B28B438A548A658A768A178A108E118E3D
:101EF000128E338E8BEB91E0EFE08E2EE7E29E2E7A
:101F0000A12CB12C0E94CB0C6DB77EB7645E7F4FC5
:101F10000FB6F8947EBF0FBE6DBF64E170E080E045
:101F200090E00E947E16809116020E94CF170197C2
:101F300009F450CFDF91CF911F910F91FF90EF9057
:101F4000DF90CF90BF90AF909F908F907F906F90D9
:101F50005F904F903F9008953F924F925F926F92A3
:101F60007F928F929F92AF92BF92CF92DF92EF9229
:101F7000FF920F931F93CF93DF93809116020E94DD
:101F8000CF17892BD1F383EC91E06CEC71E00E94C8
:101F90009B0433243394CEEDD1E0AFC0809118027E
:101FA0000E94CF17892B81F410925602109257028B
:101FB000109258021092590210925202109253023B
:101FC0001092540210925502809122020E94F31640
:101FD000AA2797FDA095BA2FBC01CD010E94D10080
:101FE0004B015C0180913D020E94F316AA2797FDE8
:101FF000A095BA2FBC01CD010E94A700C090560247
:10200000D0905702E0905802F0905902C814D904B9
:10201000EA04FB0414F475016401C0925602D092E4
:102020005702E0925802F0925902209152023091E8
:102030005302409154025091550226173707480722
:10204000590714F49B01AC012093520230935302C0
:102050004093540250935502ADB7BEB75C970FB68C
:10206000F894BEBF0FBEADBFEDB7FEB73196119667
:102070001D921D921D921C9214973482D683C583A3
:10208000BCED4B2EB5E05B2E612C712C4782508647
:102090006186728663877487858796872787308BEA
:1020A000418B528B88EE93E0A0E0B0E0838B948B61
:1020B000A58BB68B178A108E118E128E338E8AEDF9
:1020C00091E04CEA5DE060E070E095018401A0EDF4
:1020D0008A2EA7E09A2EA12CB12C0E94CB0CADB772
:1020E000BEB75C960FB6F894BEBF0FBEADBF62E33D
:1020F00070E080E090E00E947E16809116020E94BF
:10210000CF17019709F44ACFDF91CF911F910F911B
:10211000FF90EF90DF90CF90BF90AF909F908F9007
:102120007F906F905F904F903F9008952F923F92D5
:102130004F925F926F927F928F929F92AF92BF92D7
:10214000CF92DF92EF92FF920F931F93DF93CF9383
:1021500000D000D0CDB7DEB73C0149835A836B83F2
:102160007C831801290182E692E04EEF50E060E0A6
:1021700070E020E030E00E94F31582E692E040E853
:1021800050E060E070E020E030E00E94F31582E66D
:1021900092E0B3010E9494148D8D8130A1F421143A
:1021A00031044104510409F027C182E692E062EE55
:1021B00071E00E94941407C082E692E067EA71E041
:1021C0000E94941444C082E692E069E071E00E94AB
:1021D0009414C201B1012AE030E040E050E00E94D6
:1021E000B01A82E692E0BA01A9010E94A91582E61E
:1021F00092E06FE071E00E949414C201B1012AE004
:1022000030E040E050E00E94B01AAB01BC0182E631
:1022100092E00E94A915C201B1010E9480030196BB
:10222000833091050CF401966624772405E010E0D4
:10223000081B190B09C082E692E069E071E00E9478
:1022400094140894611C711C60167106A4F382E654
:1022500092E065EA71E00E949414C701B6010E9401
:1022600080030196833091050CF40196662477244F
:1022700006E010E0081B190B09C082E692E069E055
:1022800071E00E9494140894611C711C6016710620
:10229000A4F3C701B6012AE030E040E050E00E941C
:1022A000B01A82E692E0BA01A9010E94A91582E65D
:1022B00092E06FE071E00E949414C701B6012AE039
:1022C00030E040E050E00E94B01AAB01BC0182E671
:1022D00092E00E94A91582149304A404B5044CF062
:1022E000898D9A8DAB8DBC8D281639064A065B0602
:1022F00014F40E94900C82E692E04EEF50E060E011
:1023000070E020E030E00E94F31582E692E040ECBD
:1023100050E060E070E020E030E00E94F31512141D
:1023200013041404150424F066247724430112C016
:1023300069817A818B819C8120E130E040E050E02E
:102340000E94B01AC201B1010E948E1AC901DA01BD
:102350003C014D01EE24FF2487010AC082E692E091
:102360004FEF50E060E070E020E030E00E94F315B5
:102370000894E11CF11C011D111DE614F704080569
:10238000190560F3AA24BB24650110E1E12EF12CAC
:10239000012D112DE618F7080809190906C082E673
:1023A00092E069E071E00E9494140894A11CB11CB1
:1023B000C11CD11CAE14BF04C006D10680F364E674
:1023C00070E080E090E00E947E160F900F900F90DA
:1023D0000F90CF91DF911F910F91FF90EF90DF90C1
:1023E000CF90BF90AF909F908F907F906F905F90B5
:1023F0004F903F902F9008958FE0281687E238067F
:1024000080E0480680E0580609F0DDCED5CE7F9208
:102410008F929F92AF92BF92CF92DF92EF92FF92F4
:102420000F931F9380914D02882331F480911602FF
:102430000E94CF17892BD1F383EC91E067EE71E016
:102440000E949B047724739466C0809118020E94B6
:10245000CF17892B41F41092560210925702109216
:10246000580210925902809122020E94F316AA2764
:1024700097FDA095BA2FBC01CD010E94D1008B0120
:102480009C0180914D02882361F4023911052105D8
:1024900031053CF082E090E09093150280931402A5
:1024A00041C0C0905602D0905702E0905802F09080
:1024B0005902C016D106E206F30614F46801790148
:1024C000C0925602D0925702E0925802F0925902FE
:1024D00000D000D00F92EDB7FEB7118212821382A6
:1024E0001482758282EF91E04CEA5DE060E070E07A
:1024F000E8E28E2EEAE09E2EA12CB12C0E949610CE
:102500000F900F900F900F900F9062E370E080E0BB
:1025100090E00E947E16809116020E94CF170197CC
:1025200009F493CF1F910F91FF90EF90DF90CF9020
:10253000BF90AF909F908F907F9008957F928F92E1
:102540009F92AF92BF92CF92DF92EF92FF920F9342
:102550001F93809116020E94CF17892BD1F386EF2B
:1025600091E067EE71E00E949B0482E692E04EEFFC
:1025700050E060E070E020E030E00E94F31582E679
:1025800092E041E050E060E070E020E030E00E9446
:10259000F31582E692E04EEF50E060E070E020E05C
:1025A00030E00E94F31582E692E040E850E060E0FF
:1025B00070E020E030E00E94F3157724739456C059
:1025C000809118020E94CF17892B41F41092520279
:1025D00010925302109254021092550280913D02C3
:1025E0000E94F316AA2797FDA095BA2FBC01CD0132
:1025F0000E94A7008B019C01C0905202D090530210
:10260000E0905402F0905502C616D706E806F90687
:1026100014F46B017C01C0925202D0925302E092FA
:102620005402F092550200D000D00F92EDB7FEB7E1
:10263000118212821382148275828EED91E044EA37
:1026400056E060E070E0FAEA8F2EF5E09F2EA12CB4
:10265000B12C0E9496100F900F900F900F900F903A
:1026600062E370E080E090E00E947E1680911602A6
:102670000E94CF17019709F4A3CF1F910F91FF90EC
:10268000EF90DF90CF90BF90AF909F908F907F9012
:102690000895809116020E94CF17892B99F5809199
:1026A00016020E94CF17892BD1F7809114029091C6
:1026B00015028130910519F482E090E01FC082304C
:1026C000910519F483E090E019C08330910519F465
:1026D00084E090E013C08430910519F485E090E027
:1026E0000DC08530910519F486E090E007C006978B
:1026F00019F487E090E002C081E090E09093150229
:10270000809314028091140290911502029711F4A3
:102710000E947B058091140290911502069711F496
:102720000E941A0B8091140290911502019711F4E6
:102730000E9407128091140290911502039711F4E0
:102740000E949E128091140290911502049711F438
:102750000E94AC0F8091140290911502059711F41C
:102760000E94C40E8091140290911502079711F4F3
:102770000E941F070895CF93DF9380911C0261E0B0
:102780000E94661782E692E040E855E260E070E061
:102790000E947F1482E692E04EEF50E060E070E02D
:1027A00020E030E00E94F31582E692E040E850E03D
:1027B00060E070E020E030E00E94F31582E692E0F5
:1027C00063E072E00E94941482E692E04EEF50E0E3
:1027D00060E070E020E030E00E94F31582E692E0D5
:1027E00040EC50E060E070E020E030E00E94F31543
:1027F00082E692E06AEB71E00E949414C0E0D0E0BF
:102800000E947D0C2196C436D105D1F768EE73E0A5
:1028100080E090E00E947E1682E692E04CE750E075
:1028200060E070E020E030E00E94F31582E692E084
:102830004DE950E060E070E020E030E00E94F315E8
:1028400068EE73E080E090E00E947E1680910E02B8
:102850000E94F3169C01895C90408755924028F4B1
:10286000309311022093100206C080E092E0909312
:1028700011028093100280910C020E94F316909333
:102880001302809312028091160260E00E94661784
:102890008091180260E00E94661782E692E04EEF97
:1028A00050E060E070E020E030E00E94F31582E646
:1028B00092E041E050E060E070E020E030E00E9413
:1028C000F315DF91CF9108950E94B6160E94BB13B5
:1028D0000E944913FDCF88E292E0909363028093B7
:1028E00062020895862F0E94541808950E948C1841
:1028F00008950E946D1808950E945C180895CB01F8
:10290000BA010E941B180895DC01ED91FC91019021
:10291000F081E02D09950895DC01ED91FC91019085
:10292000F081E02D099508950F931F93CF93DF93C6
:102930008C01EB0109C02196D801ED91FC91019029
:10294000F081E02DC801099568816623A1F7DF9128
:10295000CF911F910F9108950F931F938C01DC016C
:10296000ED91FC910190F081E02D6DE00995D80189
:10297000ED91FC910190F081E02DC8016AE009958C
:102980001F910F9108950F931F938C01DC01ED911E
:10299000FC910190F081E02D0995C8010E94AC14D2
:1029A0001F910F9108950F931F938C010E9494140F
:1029B000C8010E94AC141F910F9108950F931F93AB
:1029C0008C01DC01ED91FC910190F081E02D0995E5
:1029D000C8010E94AC141F910F9108952F923F924D
:1029E0004F925F926F927F928F929F92AF92BF921F
:1029F000CF92DF92EF92FF920F931F93DF93CF93CB
:102A0000CDB7DEB7A0970FB6F894DEBF0FBECDBF2F
:102A10001C016A017B01411551056105710549F4ED
:102A2000DC01ED91FC910190F081E02D60E30995CE
:102A300054C0882499245401422E552466247724B6
:102A400001E010E00C0F1D1F080D191DC701B60194
:102A5000A30192010E948E1AF80160830894811CE0
:102A6000911CA11CB11CC701B601A30192010E94D7
:102A70008E1AC901DA016C017D01C114D104E1048F
:102A8000F104F1F681E0E82EF12CEC0EFD1EE80CCD
:102A9000F91C3E010894611C711CD501C401019709
:102AA000A109B1096C01C818D90814C0F601EE0DCE
:102AB000FF1D60816A3010F4605D01C0695CD10166
:102AC000ED91FC910190F081E02DC10109950894F0
:102AD000E108F1086E147F0449F7A0960FB6F89448
:102AE000DEBF0FBECDBFCF91DF911F910F91FF9041
:102AF000EF90DF90CF90BF90AF909F908F907F909E
:102B00006F905F904F903F902F9008952AE00E9421
:102B1000EE1408950F931F938C010E948615C8012F
:102B20000E94AC141F910F910895AB0160E070E01A
:102B30000E94861508950F931F938C01AB0160E0EE
:102B400070E00E948615C8010E94AC141F910F917D
:102B50000895EF92FF920F931F93CF93DF93EC01B1
:102B60007A018B0177FF0FC0E881F9810190F08134
:102B7000E02D6DE2099510950095F094E094E11C2C
:102B8000F11C011D111DCE01B801A7012AE00E9410
:102B9000EE14DF91CF911F910F91FF90EF90089568
:102BA0000F931F938C010E94A915C8010E94AC14B9
:102BB0001F910F910895AB01662757FD6095762F01
:102BC0000E94A91508950F931F938C01AB016627EE
:102BD00057FD6095762F0E94A915C8010E94AC147C
:102BE0001F910F910895DC012115310541F4ED91FC
:102BF000FC910190F081E02D642F099508952A3011
:102C0000310519F40E94A91508950E94EE14089543
:102C10000F931F938C010E94F315C8010E94AC14FE
:102C20001F910F9108951F920F920FB60F921124CA
:102C30002F938F939F93AF93BF9380916402909152
:102C40006502A0916602B09167028050904CAF4F30
:102C5000BF4F8093640290936502A0936602B09385
:102C6000670227C08091640290916502A09166027C
:102C7000B091670280589E43A040B04080936402A8
:102C800090936502A0936602B093670280916802F8
:102C900090916902A0916A02B0916B020196A11D08
:102CA000B11D8093680290936902A0936A02B09369
:102CB0006B028091640290916502A0916602B091CE
:102CC000670281589E43A040B04060F6BF91AF912B
:102CD0009F918F912F910F900FBE0F901F9018957D
:102CE0008FB7F894209168023091690240916A028E
:102CF00050916B028FBFB901CA010895EF92FF9204
:102D00000F931F937B018C018FB7F8944091680259
:102D10005091690260916A0270916B028FBF2FB768
:102D2000F8948091680290916902A0916A02B09132
:102D30006B022FBF841B950BA60BB70B8E159F053F
:102D4000A007B10760F31F910F91FF90EF900895D6
:102D5000019759F0FC01EE0FFF1FEE0FFF1F329796
:102D60008FB7F8943197F1F78FBF0895789484B5B1
:102D7000826084BD84B5816084BD85B5826085BD77
:102D800085B5816085BDEEE6F0E08081816080835D
:102D9000E1E8F0E0808182608083808181608083CF
:102DA000E0E8F0E0808181608083E1EBF0E0808109
:102DB00084608083E0EBF0E0808181608083EAE7DB
:102DC000F0E0808184608083808182608083808164
:102DD000816080838081806880831092C100089523
:102DE00080932A0208958F7090912A029295990FEC
:102DF000990F907C982B90937C0080917A0080644E
:102E000080937A0080917A0086FDFCCF2091780033
:102E100040917900942F80E030E0282B392BC901B4
:102E200008951F93CF93DF93182FEB0161E00E9469
:102E30006617E12FF0E0E156FF4F8491833051F4A3
:102E400080918000806880938000D0938900C09337
:102E5000880038C0843051F4809180008062809373
:102E60008000D0938B00C0938A002CC0813029F45D
:102E700084B5806884BDC7BD25C0823029F484B57F
:102E8000806284BDC8BD1EC0863041F48091B00010
:102E900080688093B000C093B30014C0873041F4C1
:102EA0008091B00080628093B000C093B4000AC0EB
:102EB000C038D1051CF4812F60E002C0812F61E091
:102EC0000E948417DF91CF911F910895282F30E041
:102ED000C90185579F4FFC01949129583F4FF90133
:102EE0008491882381F0E82FF0E0E859FF4FE491C6
:102EF000F0E0662329F480819095892380830895EA
:102F00008081892B80830895482F50E0CA01815623
:102F10009F4FFC012491CA0185579F4FFC0194915A
:102F200049585F4FFA0134913323C1F1222331F123
:102F3000233021F4809180008F7705C0243031F454
:102F4000809180008F7D8093800018C0213019F41B
:102F500084B58F7704C0223021F484B58F7D84BD81
:102F60000DC0263021F48091B0008F7705C0273046
:102F700029F48091B0008F7D8093B000E32FF0E0C2
:102F8000E359FF4FE491F0E0662329F480819095A6
:102F90008923808308958081892B80830895482F19
:102FA00050E0CA0181569F4FFC012491CA01855708
:102FB0009F4FFC01949149585F4FFA01349133239C
:102FC00019F420E030E035C0222331F1233021F420
:102FD000809180008F7705C0243031F4809180008B
:102FE0008F7D8093800018C0213019F484B58F77CD
:102FF00004C0223021F484B58F7D84BD0DC02630FD
:1030000021F48091B0008F7705C0273029F480919A
:10301000B0008F7D8093B000E32FF0E0EE58FF4FBB
:10302000E491F0E0808120E030E0892311F021E09C
:1030300030E0C9010895EF92FF920F931F937B0137
:103040008C0122E030E040E050E00E94B01A205CA9
:103050003D4B404F5F4FCA01B901A80197010E9443
:10306000B01AC901DA010197A109B109292F3A2F34
:103070004B2F552747FD5A950196A11DB11D209351
:10308000C50081508093C400E1ECF0E08081806154
:1030900080838081886080838081806880831F91A5
:1030A0000F91FF90EF900895982F8091C00085FFB9
:1030B000FCCF9093C600089580916C0290916D02B0
:1030C00080589F4F20916E0230916F02821B930BAC
:1030D00060E870E00E947B1A089540916E02509162
:1030E0006F0280916C0290916D028417950719F41C
:1030F0002FEF3FEF0FC0FA01E059FD4F2081CA01C9
:10310000019660E870E00E947B1A90936F028093B2
:103110006E0230E0C901089580916E0290916F02B5
:1031200090936D0280936C0208951F920F920FB6D8
:103130000F9211242F933F934F935F936F937F933D
:103140008F939F93AF93BF93EF93FF934091C600EC
:10315000E0916C02F0916D02CF01019660E870E0A1
:103160000E947B1A9C0180916E0290916F02281739
:10317000390739F0E059FD4F408330936D022093B9
:103180006C02FF91EF91BF91AF919F918F917F91D1
:103190006F915F914F913F912F910F900FBE0F90C4
:1031A0001F9018950CD0EBC0E3D040F0DAD030F08F
:1031B00021F45F3F19F0CCC0511115C1CFC0F0D040
:1031C00098F39923C9F35523B1F3951B550BBB27EE
:1031D000AA2762177307840738F09F5F5F4F220F9B
:1031E000331F441FAA1FA9F333D00E2E3AF0E0E894
:1031F00030D091505040E695001CCAF729D0FE2FE0
:1032000027D0660F771F881FBB1F26173707480771
:10321000AB07B0E809F0BB0B802DBF01FF27935827
:103220005F4F2AF09E3F510568F092C0DCC05F3FBF
:10323000ECF3983EDCF3869577956795B795F7950F
:103240009F5FC9F7880F911D9695879597F9089507
:10325000E1E0660F771F881FBB1F621773078407A3
:10326000BA0720F0621B730B840BBA0BEE1F88F7B2
:10327000E095089504D06894B111B5C0089598D030
:1032800088F09F5790F0B92F9927B751A0F0D1F04F
:10329000660F771F881F991F1AF0BA95C9F712C0D9
:1032A000B13081F09FD0B1E008959CC0672F782F96
:1032B0008827B85F39F0B93FCCF386957795679545
:1032C000B395D9F73EF490958095709561957F4FB1
:1032D0008F4F9F4F0895E89409C097FB3EF4909557
:1032E0008095709561957F4F8F4F9F4F9923A9F0DF
:1032F000F92F96E9BB279395F6958795779567956E
:10330000B795F111F8CFFAF4BB0F11F460FF1BC0B1
:103310006F5F7F4F8F4F9F4F16C0882311F096E944
:1033200011C0772321F09EE8872F762F05C06623F2
:1033300071F096E8862F70E060E02AF09A95660FAB
:10334000771F881FDAF7880F9695879597F9089564
:1033500097F99F6780E870E060E008959FEF80EC48
:10336000089500240A9416161706180609060895EB
:1033700000240A9412161306140605060895092E51
:103380000394000C11F4882352F0BB0F40F4BF2BC0
:1033900011F460FF04C06F5F7F4F8F4F9F4F089500
:1033A00057FD9058440F551F59F05F3F71F04795F6
:1033B000880F97FB991F61F09F3F79F087950895DB
:1033C000121613061406551FF2CF4695F1DF08C0FA
:1033D000161617061806991FF1CF86957105610517
:1033E00008940895E894BB2766277727CB0197F9BF
:1033F00008950BD0C4CFB5DF28F0BADF18F09523BD
:1034000009F0A6CFABCF1124EECFCADFA0F3959F72
:10341000D1F3950F50E0551F629FF001729FBB27BB
:10342000F00DB11D639FAA27F00DB11DAA1F649F67
:103430006627B00DA11D661F829F2227B00DA11D1A
:10344000621F739FB00DA11D621F839FA00D611DA0
:10345000221F749F3327A00D611D231F849F600DC1
:10346000211D822F762F6A2F11249F5750408AF0FA
:10347000E1F088234AF0EE0FFF1FBB1F661F771F86
:10348000881F91505040A9F79E3F510570F060CFC2
:10349000AACF5F3FECF3983EDCF38695779567956E
:1034A000B795F795E7959F5FC1F7FE2B880F911DA4
:1034B0009695879597F90895629FD001739FF001C3
:1034C000829FE00DF11D649FE00DF11D929FF00DB4
:1034D000839FF00D749FF00D659FF00D9927729FEB
:1034E000B00DE11DF91F639FB00DE11DF91FBD0176
:1034F000CF011124089597FB092E07260AD077FDE6
:1035000004D049D006D000201AF4709561957F4F01
:103510000895F6F7909581959F4F0895A1E21A2E90
:10352000AA1BBB1BFD010DC0AA1FBB1FEE1FFF1F67
:10353000A217B307E407F50720F0A21BB30BE40BB7
:10354000F50B661F771F881F991F1A9469F76095FE
:103550007095809590959B01AC01BD01CF010895B8
:1035600097FB092E05260ED057FD04D0D7DF0AD0D1
:10357000001C38F450954095309521953F4F4F4FA2
:103580005F4F0895F6F790958095709561957F4F00
:103590008F4F9F4F0895AA1BBB1B51E107C0AA1F65
:1035A000BB1FA617B70710F0A61BB70B881F991FE4
:1035B0005A95A9F780959095BC01CD010895EE0F1D
:0E35C000FF1F0590F491E02D0994F894FFCFC1
:1035CE0020202020202020200020002B002D002E47
:1035DE00002E3000783A0020793A20003000543224
:1035EE003A20003A0054313A2000555342204C6F95
:1035FE006767696E670050726573732042004C6F87
:10360E006767696E670054312C2054322C204F6945
:10361E006C2054656D702C20426F6F73742C207863
:10362E0020616363656C2C207920616363656C0A8D
:10363E000057524620002C0054313A2030303A3098
:10364E00303A30302E30300054323A2030303A306A
:10365E00303A30302E3030004C4F57202000484941
:10366E0047482020002F0048494748200032205468
:10367E00656D70204D657465720000462031004600
:10368E002032004F696C2054656D7000616E6420AD
:10369E00505349204D6574657200746D70007073DF
:1036AE0069004C4F57200020202020204D65746566
:1036BE0072006F696C004F696C2050726573737580
:1036CE0072650057656C636F6D652100040005001F
:1036DE000002000201000C000A000B0009000200AB
:0C36EE0003000100000000007214010045
:00000001FF
