:100000000C9435000C945D000C945D000C945D0024
:100010000C945D000C945D000C945D000C945D00EC
:100020000C945D000C945D000C945D000C945D00DC
:100030000C945D000C945D000C945D000C945D00CC
:100040000C9422020C945D000C9479030C945D00D6
:100050000C945D000C945D000C945D000C945D00AC
:100060000C945D000C945D007A0011241FBECFEF4C
:10007000D4E0DEBFCDBF11E0A0E0B1E0E4E4F8E001
:1000800002C005900D92A630B107D9F711E0A6E0A5
:10009000B1E001C01D92A439B107E1F710E0CAE652
:1000A000D0E004C02297FE010E941C04C836D1078C
:1000B000C9F70E9473000C9420040C94000086E0A1
:1000C00091E042E150E060E070E020E030E00E942A
:1000D0000202089586E091E040E855E260E070E0B9
:1000E0000E948E0008950E94C5020E946A000E942C
:1000F0005F00FDCF84E091E09093070180930601BB
:100100000895862F0E94380308950E947003089571
:100110000E94510308950E9440030895CB01BA0143
:100120000E94FF020895DC01ED91FC910190F081A5
:10013000E02D09950895DC01ED91FC910190F0818D
:10014000E02D099508950F931F93CF93DF938C01B2
:10015000EB0109C02196D801ED91FC910190F0814D
:10016000E02DC801099568816623A1F7DF91CF9141
:100170001F910F9108950F931F938C01DC01ED9156
:10018000FC910190F081E02D6DE00995D801ED9191
:10019000FC910190F081E02DC8016AE009951F9162
:1001A0000F9108950F931F938C01DC01ED91FC9149
:1001B0000190F081E02D0995C8010E94BB001F91BC
:1001C0000F9108950F931F938C010E94A300C80103
:1001D0000E94BB001F910F9108950F931F938C01F4
:1001E000DC01ED91FC910190F081E02D0995C801B1
:1001F0000E94BB001F910F9108952F923F924F9242
:100200005F926F927F928F929F92AF92BF92CF92A6
:10021000DF92EF92FF920F931F93DF93CF93CDB7AF
:10022000DEB7A0970FB6F894DEBF0FBECDBF1C019E
:100230006A017B01411551056105710549F4DC0135
:10024000ED91FC910190F081E02D60E3099554C09F
:10025000882499245401422E55246624772401E0F1
:1002600010E00C0F1D1F080D191DC701B601A301D9
:1002700092010E94C903F80160830894811C911CBB
:10028000A11CB11CC701B601A30192010E94C903C0
:10029000C901DA016C017D01C114D104E104F1044A
:1002A000F1F681E0E82EF12CEC0EFD1EE80CF91CB5
:1002B0003E010894611C711CD501C4010197A1097C
:1002C000B1096C01C818D90814C0F601EE0DFF1D64
:1002D00060816A3010F4605D01C0695CD101ED910C
:1002E000FC910190F081E02DC10109950894E1088D
:1002F000F1086E147F0449F7A0960FB6F894DEBF9C
:100300000FBECDBFCF91DF911F910F91FF90EF9066
:10031000DF90CF90BF90AF909F908F907F906F9025
:100320005F904F903F902F9008952AE00E94FD002B
:1003300008950F931F938C010E949501C8010E949C
:10034000BB001F910F910895AB0160E070E00E9427
:10035000950108950F931F938C01AB0160E070E04D
:100360000E949501C8010E94BB001F910F91089542
:10037000EF92FF920F931F93CF93DF93EC017A01DB
:100380008B0177FF0FC0E881F9810190F081E02DAA
:100390006DE2099510950095F094E094E11CF11C34
:1003A000011D111DCE01B801A7012AE00E94FD0028
:1003B000DF91CF911F910F91FF90EF9008950F93D0
:1003C0001F938C010E94B801C8010E94BB001F91BD
:1003D0000F910895AB01662757FD6095762F0E9417
:1003E000B80108950F931F938C01AB01662757FD49
:1003F0006095762F0E94B801C8010E94BB001F9132
:100400000F910895DC012115310541F4ED91FC9126
:100410000190F081E02D642F099508952A3031056F
:1004200019F40E94B80108950E94FD0008950F93E9
:100430001F938C010E940202C8010E94BB001F9101
:100440000F9108951F920F920FB60F9211242F93C0
:100450008F939F93AF93BF9380910801909109016F
:10046000A0910A01B0910B018050904CAF4FBF4F4B
:100470008093080190930901A0930A01B0930B01A6
:1004800027C08091080190910901A0910A01B091C3
:100490000B0180589E43A040B04080930801909388
:1004A0000901A0930A01B0930B0180910C01909176
:1004B0000D01A0910E01B0910F010196A11DB11D7A
:1004C00080930C0190930D01A0930E01B0930F0146
:1004D0008091080190910901A0910A01B0910B014E
:1004E00081589E43A040B04060F6BF91AF919F916C
:1004F0008F912F910F900FBE0F901F9018958FB76F
:10050000F89420910C0130910D0140910E01509111
:100510000F018FBFB901CA010895EF92FF920F93A7
:100520001F937B018C018FB7F89440910C0150917F
:100530000D0160910E0170910F018FBF2FB7F894DC
:1005400080910C0190910D01A0910E01B0910F01CD
:100550002FBF841B950BA60BB70B8E159F05A0070D
:10056000B10760F31F910F91FF90EF9008950197ED
:1005700059F0FC01EE0FFF1FEE0FFF1F32978FB7F0
:10058000F8943197F1F78FBF0895789484B582601D
:1005900084BD84B5816084BD85B5826085BD85B527
:1005A000816085BDEEE6F0E0808181608083E1E8D6
:1005B000F0E0808182608083808181608083E0E8D8
:1005C000F0E0808181608083E1EBF0E080818460F5
:1005D0008083E0EBF0E0808181608083EAE7F0E0F7
:1005E000808184608083808182608083808181605B
:1005F00080838081806880831092C1000895EF928B
:10060000FF920F931F937B018C0122E030E040E0CA
:1006100050E00E94EB03205C3D4B404F5F4FCA010E
:10062000B901A80197010E94EB03C901DA01019702
:10063000A109B109292F3A2F4B2F552747FD5A956C
:100640000196A11DB11D2093C50081508093C40067
:10065000E1ECF0E08081806180838081886080832C
:100660008081806880831F910F91FF90EF900895A3
:10067000982F8091C00085FFFCCF9093C60008950D
:10068000809110019091110180589F4F209112018B
:1006900030911301821B930B60E870E00E94B60357
:1006A0000895409112015091130180911001909191
:1006B00011018417950719F42FEF3FEF0FC0FA01CE
:1006C000EC5EFE4F2081CA01019660E870E00E9456
:1006D000B603909313018093120130E0C90108958D
:1006E0008091120190911301909311018093100158
:1006F00008951F920F920FB60F9211242F933F93DC
:100700004F935F936F937F938F939F93AF93BF9319
:10071000EF93FF934091C600E0911001F091110119
:10072000CF01019660E870E00E94B6039C018091C1
:100730001201909113012817390739F0EC5EFE4F32
:1007400040833093110120931001FF91EF91BF91ED
:10075000AF919F918F917F916F915F914F913F9159
:100760002F910F900FBE0F901F90189597FB092E99
:1007700007260AD077FD04D049D006D000201AF40D
:10078000709561957F4F0895F6F7909581959F4FED
:100790000895A1E21A2EAA1BBB1BFD010DC0AA1FC2
:1007A000BB1FEE1FFF1FA217B307E407F50720F0DA
:1007B000A21BB30BE40BF50B661F771F881F991F55
:1007C0001A9469F760957095809590959B01AC019E
:1007D000BD01CF01089597FB092E05260ED057FDC8
:1007E00004D0D7DF0AD0001C38F4509540953095DE
:1007F00021953F4F4F4F5F4F0895F6F790958095A5
:10080000709561957F4F8F4F9F4F0895AA1BBB1B1B
:1008100051E107C0AA1FBB1FA617B70710F0A61B00
:10082000B70B881F991F5A95A9F780959095BC0121
:10083000CD010895EE0FFF1F0590F491E02D09946E
:04084000F894FFCF5A
:060844000000000081002D
:00000001FF
