:100000000C9428150C9455150C9455150C945515F5
:100010000C9455150C9455150C9455150C945515B8
:100020000C9455150C9455150C9455150C945515A8
:100030000C9455150C9455150C9455150C94551598
:100040000C9455150C9455150C9455150C94551588
:100050000C9455150C9455150C9455150C94B13AF7
:100060000C9455150C9455150C9455150C94551568
:100070000C9455150C9455150C9455150C94551558
:100080000C9455150C9455150C9455150C94551548
:100090000C944E3B0C9455150C9455150C94551519
:1000A0000C9455150C9455150C9455150C94551528
:1000B0000C9455150C9455150C9455150C94551518
:1000C0000C9455150C9455150C9455150C94551508
:1000D0000C9455150C9455150C9455150C945515F8
:1000E0000C945515C0FFFFFFFF00F0FFFFFFFF035B
:1000F000F0FFFFFFFF03F0FFFFFFFF03FCFFFFFF29
:10010000FF1FFCFFFFFFFF1FFCFFFFFFFF1FFFFFA5
:10011000FFFFFF3FFFFFFFFFFF3FFFFFFFFFFF3F2F
:10012000FF070000F03FFF070000F03FFF0700005F
:10013000F03FFF070000F03FFF070000F03FFF0720
:100140000000F03FFF070000F03FFF070000F03F16
:10015000FF070000F03FFF070000F03FFF0700002F
:10016000F03FFF070000F03FFF070000F03FFF07F0
:100170000000F03FFF070000F03FFF070000F03FE6
:10018000FF070000F03FFF070000F03FFF070000FF
:10019000F03FFF070000F03FFF070000F03FFF07C0
:1001A0000000F03FFF070000F03FFF070000F03FB6
:1001B000FF070000F03FFF070000F03FFF070000CF
:1001C000F03FFF070000F03FFF070000F03FFF0790
:1001D0000000F03FFF070000F03FFF070000F03F86
:1001E000FF070000F03FFF070000F03FFF0700009F
:1001F000F03FFF070000F03FFF070000F03FFF0760
:100200000000F03FFF070000F03FFF070000F03F55
:10021000FF070000F03FFF070000F03FFF0700006E
:10022000F03FFF070000F03FFF070000F03FFF072F
:100230000000F03FFF070000F03FFF070000F03F25
:10024000FF070000F03FFF070000F03FFF0700003E
:10025000F03FFF070000F03FFF070000F03FFF07FF
:100260000000F03FFF070000F03FFF070000F03FF5
:10027000FF070000F03FFF070000F03FFF0700000E
:10028000F03FFF070000F03FFF070000F03FFF07CF
:100290000000F03FFFFFFFFFFF3FFFFFFFFFFF3FBB
:1002A000FFFFFFFFFF3FFCFFFFFFFF1FFCFFFFFF04
:1002B000FF1FFCFFFFFFFF1FF0FFFFFFFF03F0FF2B
:1002C000FFFFFF03F0FFFFFFFF03C0FFFFFFFF0083
:1002D000F8FFFF0F0000F8FFFF0F0000FFFFFF0F08
:1002E0000000FFFFFF0F0000FFFFFF0F0000FFFFF8
:1002F000FF0F0000FFFFFF0F0000FFFFFF0F0000D8
:10030000FFFFFF0F0000FFFFFF0F0000F8FFFF0FD0
:1003100000000000FC0F00000000FC0F00000000C7
:10032000FC0F00000000FC0F00000000FC0F0000AC
:100330000000FC0F00000000FC0F00000000FC0F9C
:1003400000000000FC0F00000000FC0F0000000097
:10035000FC0F00000000FC0F00000000FC0F00007C
:100360000000FC0F00000000FC0F00000000FC0F6C
:1003700000000000FC0F00000000FC0F0000000067
:10038000FC0F00000000FC0F00000000FC0F00004C
:100390000000FC0F00000000FC0F00000000FC0F3C
:1003A00000000000FC0F00000000FC0F0000000037
:1003B000FC0F00000000FC0F00000000FC0F00001C
:1003C0000000FC0F00000000FC0F00000000FC0F0C
:1003D00000000000FC0F00000000FC0F0000000007
:1003E000FC0F800F0000FC0F800F0000FC0FC00FFF
:1003F0000000FC0FC00F0000FC0FE01F0000FC0F0E
:10040000E01F0000FC0FE01F0000FC0FE01F0000D9
:10041000FC0FE01F0000FC0FE01F0000FC0FE01FBE
:100420000000FC0FE01F0000FC0FE01F0000FC0FAD
:10043000E01F0000FC0FE01F0000FC0FE01F0000A9
:10044000FC0FE01F0000FC0FE01F0000FC0FE01F8E
:100450000000FC0FE01F0000FC0FE01F0000FC0F7D
:10046000E01F0000FC0FE01F0000FC0FE01F000079
:10047000FC0FE01F0000FC0FE01F0000FC0FE01F5E
:100480000000FC0FE01F0000FC0FE01FFFFFFFFF5C
:10049000FF1FFFFFFFFFFF1FFFFFFFFFFF1FFFFF0C
:1004A000FFFFFF1FFFFFFFFFFF1FFFFFFFFFFF1FFC
:1004B000FFFFFFFFFF1FFFFFFFFFFF0FFCFFFFFF1F
:1004C0007F00FEFFFFFFFF03FEFFFFFFFF03FFFFB5
:1004D000FFFFFF07FFFFFFFFFF07FFFFFFFFFF0F0C
:1004E000FFFFFFFFFF0FFFFFFFFFFF3FFEFFFFFFCD
:1004F000FF3FFEFFFFFFFF3FFCFFFFFFFF3F00004E
:100500000000E03F00000000E03F00000000E03F8E
:1005100000000000E03F00000000E03F000000009D
:10052000E03F00000000E03F00000000E03F00006E
:100530000000E03F00000000E03F00000000E03F5E
:1005400000000000E03F00000000E03F000000006D
:10055000E03F00000000E03F00000000E03F00003E
:100560000000E03F00000000E03F00000000E03F2E
:1005700000000000E03F00000000E03F000000003D
:10058000E03F00000000E03F00000000E03FE0FF2F
:10059000FFFFFF3FE0FFFFFFFF3FE0FFFFFFFF3FE9
:1005A000FCFFFFFFFF3FFCFFFFFFFF3FFEFFFFFFE2
:1005B000FF0FFEFFFFFFFF0FFFFFFFFFFF07FFFF24
:1005C000FFFFFF03FFFFFFFFFF03FFFFFFFFFF032F
:1005D000FFFFFFFF7F00FF0300000000FF0300009C
:1005E0000000FF0300000000FF0300000000FF0305
:1005F00000000000FF0300000000FF0300000000F7
:10060000FF0300000000FF0300000000FF030000E4
:100610000000FF0300000000FF0300000000FF03D4
:1006200000000000FF0300000000FF0300000000C6
:10063000FF0300000000FF0300000000FF030000B4
:100640000000FF0300000000FF0300000000FF03A4
:1006500000000000FF0300000000FF030000000096
:10066000FF0300000000FFFFFFFFFF07FFFFFFFF8A
:10067000FF07FFFFFFFFFF0FFFFFFFFFFF3FFFFF32
:10068000FFFFFF3FFFFFFFFFFF3FFFFFFFFFFF3FBA
:10069000FFFFFFFFFF3FFFFFFFFFFF3FFFFFFFFFEA
:1006A000FF0FFFFFFFFFFF07FCFFFFFFFF01FEFF44
:1006B000FFFFFF0FFEFFFFFFFF0FFFFFFFFFFF1F0B
:1006C000FFFFFFFFFF3FFFFFFFFFFF3FFFFFFFFFBA
:1006D000FF3FFFFFFFFFFF3FFEFFFFFFFF3FFEFF6C
:1006E000FFFFFF3FFCFFFFFFFF3F00000000C03F98
:1006F00000000000C03F00000000C03F00000000FC
:10070000C03F00000000C03F00000000C03F0000EC
:100710000000C03F00000000C03F00000000C03FDC
:1007200000000000C03F00000000C03F00000000CB
:10073000C03F00000000C03F00000000C03F0000BC
:100740000000C03F00000000C03F00000000C03FAC
:1007500000000000C03F00000000C03F000000009B
:10076000C03F00000000C03F00000000C03F00008C
:100770000000E03F00000000F03F00F8FFFFFF3FF7
:1007800000F8FFFFFF3F00FCFFFFFF3F00FEFFFF01
:10079000FF1F00FEFFFFFF0F00FEFFFFFF0F00FE29
:1007A000FFFFFF0F00FEFFFFFF1F00FEFFFFFF1F09
:1007B00000FCFFFFFF3F00F8FFFFFF3F00000000CD
:1007C000F03F00000000F03F00000000E03F0000AC
:1007D0000000C03F00000000C03F00000000C03F1C
:1007E00000000000C03F00000000C03F000000000B
:1007F000C03F00000000C03F00000000C03F0000FC
:100800000000C03F00000000C03F00000000C03FEB
:1008100000000000C03F00000000C03F00000000DA
:10082000C03F00000000C03F00000000C03F0000CB
:100830000000C03F00000000C03F00000000C03FBB
:1008400000000000C03F00000000C03F00000000AA
:10085000C03FFCFFFFFFFF3FFEFFFFFFFF3FFFFF2B
:10086000FFFFFF3FFFFFFFFFFF3FFFFFFFFFFF3FD8
:10087000FFFFFFFFFF3FFFFFFFFFFF3FFFFFFFFF08
:10088000FF1FFEFFFFFFFF0FFCFFFFFFFF01FCFF4D
:10089000FFFFFF01FC0000000000FC000000000062
:1008A000FE0100000000FF0700000000FF0700003D
:1008B0000000FF0700000000FF0700000000FF0726
:1008C00000000000FF0700000000FF07000000001C
:1008D000FF0700001F00FF0700807F00FF07008068
:1008E0007F00FF0700C0FF01FF0700C0FF01FF07F7
:1008F00000C0FF01FF0700C0FF01FF0700C0FF01AC
:10090000FF0700C0FF01FF0700C0FF01FF0700C095
:10091000FF01FF0700C0FF01FF0700C0FF01FF0745
:1009200000C0FF01FF0700C0FF01FF0700C0FF017B
:10093000FF0700C0FF01FF0700C0FF01FF0700C065
:10094000FF01FF0700C0FF01FF0700C0FF01FF0715
:1009500000C0FF01FF0700C0FF01FF0700C0FF014B
:10096000FF0700C0FF01FF0700C0FF01FF0700C035
:10097000FF01FF0700C0FF01FF0700C0FF01FF07E5
:1009800000C0FF01FF0700C0FF01FF0700C0FF011B
:10099000FF0700C0FF01FF0700C0FF01FF0700C005
:1009A000FF01FFFFFFFFFF07FFFFFFFFFF0FFFFF3D
:1009B000FFFFFF0FFFFFFFFFFF3FFFFFFFFFFF3FB7
:1009C000FFFFFFFFFF3FFFFFFFFFFF3FFFFFFFFFB7
:1009D000FF3FFFFFFFFFFF0FFFFFFFFFFF0FFFFFC7
:1009E000FFFFFF07000000C0FF01000000C0FF0183
:1009F000000000C0FF01000000C0FF01000000C0B7
:100A0000FF01000000C0FF01000000C0FF01000066
:100A100000C0FF01000000C0FF01000000C0FF0196
:100A2000000000C0FF01000000C0FF01000000C086
:100A3000FF01000000C0FF01000000C0FF01000036
:100A400000C0FF01000000C0FF01000000C0FF0166
:100A5000000000C0FF01000000C0FF01000000C056
:100A6000FF01000000C0FF01000000C0FF01000006
:100A700000807F00000000001F00000000001F0039
:100A800000FEFFFFFF0700FEFFFFFF0F00FEFFFF5E
:100A9000FF0F00FEFFFFFF3F00FEFFFFFF3F00FED6
:100AA000FFFFFF3F00FEFFFFFF3F00FEFFFFFF3F96
:100AB00000FEFFFFFF0F00FEFFFFFF0700FEFFFF2E
:100AC000FF0700FE0300000000FE0300000000FE20
:100AD0000300000000FE0300000000FE0300000011
:100AE00000FE0300000000FE0300000000FE030003
:100AF000000000FE0300000000FE0300000000FEF6
:100B00000300000000FE0300000000FE03000000E0
:100B100000FE0300000000FE0300000000FE0300D2
:100B2000000000FE0300000000FE0300000000FEC5
:100B30000300000000FE0300000000FE03000000B0
:100B400000FE0300000000FE0300000000FE0300A2
:100B5000000000FEFFFF3F0000FEFFFFFF0100FE60
:100B6000FFFFFF0100FEFFFFFF0700FEFFFFFF0F7B
:100B700000FEFFFFFF0F00FEFFFFFF0F00FEFFFF65
:100B8000FF3F00FEFFFFFF3F00FEFFFFFF3F00FEB5
:100B9000FFFFFF3F00000000F83F00000000F83FAB
:100BA00000000000F83F00000000F83F00000000D7
:100BB000F83F00000000F83F00000000F83F000090
:100BC0000000F83F00000000F83F00000000F83F80
:100BD00000000000F83F00000000F83F00000000A7
:100BE000F83F00000000F83F00000000F83F000060
:100BF0000000F83F00000000F83F00000000F83F50
:100C000000000000F83F00000000F83F7E000000F8
:100C1000F83FFF010000F83FFF010000F83FFF0F21
:100C20000000F83FFFFFFFFFFF3FFFFFFFFFFF3F19
:100C3000FFFFFFFFFF3FFFFFFFFFFF3FFFFFFFFF44
:100C4000FF0FFEFFFFFFFF0FFEFFFFFFFF0FF0FF95
:100C5000FFFFFF0700FFFFFFFF0100F8FFFF3F005E
:100C600000F8FFFF3F0000F8FFFF3F00FC1F0000FF
:100C70000000FE1F00000000FE1F00000000FF7FBC
:100C800000000000FF7F00000000FF7F0000000068
:100C9000FF7F00000000FF7F00000000FF1F00003A
:100CA0000000FF1F00000000FF1F00000000FF0306
:100CB00000000000FF0300000000FF030000000030
:100CC000FF0300000000FF0300000000FF0300001E
:100CD0000000FF0300000000FF0300000000FF030E
:100CE00000000000FF0300000000FF030000000000
:100CF000FF0300000000FF0300000000FF030000EE
:100D00000000FF0300000000FF0300000000FF03DD
:100D100000000000FF0300000000FF0300000000CF
:100D2000FF0300000000FF0300000000FF030000BD
:100D30000000FF0300000000FF0300000000FF03AD
:100D400000000000FF0300000000FF03000000009F
:100D5000FF0300000000FF0300000000FF0300008D
:100D60000000FF0300000000FF0300000000FF037D
:100D700000000000FF0300000000FFFFFFFFFF0F67
:100D8000FFFFFFFFFF1FFFFFFFFFFF1FFFFFFFFF33
:100D9000FF3FFFFFFFFFFF3FFFFFFFFFFF3FFFFFA3
:100DA000FFFFFF3FFFFFFFFFFF3FFFFFFFFFFF3F93
:100DB000FFFFFFFFFF3FFFFFFFFFFF3FFF030000BD
:100DC000F03FFF030000F03FFF030000F03FFF0390
:100DD0000000F03FFF030000F03FFF030000F03F82
:100DE000FF030000F03FFF030000F03FFF0300009F
:100DF000F03FFF030000F03FFF030000F03FFF0360
:100E00000000F03FFF030000F03FFF030000F03F51
:100E1000FF030000F03FFFFFFFFFFF3FFFFFFFFF6B
:100E2000FF3FFFFFFFFFFF3FFFFFFFFFFF3FFFFF12
:100E3000FFFFFF3FFFFFFFFFFF3FFFFFFFFFFF3F02
:100E4000FFFFFFFFFF3FFEFFFFFFFF1FFEFFFFFF54
:100E5000FF1FFCFFFFFFFF0FFEFFFFFFFF3FFFFF36
:100E6000FFFFFF3FFFFFFFFFFF3FFFFFFFFFFF3FD2
:100E7000FFFFFFFFFF3FFFFFFFFFFF3FFFFFFFFF02
:100E8000FF3FFFFFFFFFFF3FFFFFFFFFFF3FFFFFB2
:100E9000FFFFFF3FFFFFFFFFFF3FFF010000F03FAD
:100EA0007F000000F03F7F000000F03F7E00000068
:100EB000F03F00000000F03F00000000F03F0000A5
:100EC0000000F03F00000000F03F00000000F03F95
:100ED00000000000F03F00000000F03F00000000B4
:100EE000F03F00000000F03F00000000F03F000075
:100EF0000000F03F00000000F03F00000000F03F65
:100F000000000000F03F00000000F03F0000000083
:100F1000FC3F00000000FC3F00000000FC3F000020
:100F20000000FF3F00000080FF1F00000080FF1F47
:100F3000000000E0FF07000000F0FF03000000F0E9
:100F4000FF03000000F8FF01000000FE7F0000002A
:100F500080FF7F00000080FF7F000000C0FF0F00C7
:100F60000000E0FF0F000000F0FF03000000F0FFB2
:100F700003000000F8FF00000000FC7F00000000FC
:100F8000FC7F00000000FC1F00000000FC0F0000C0
:100F90000000FC0700000000FC0700000000FC0748
:100FA00000000000FC0700000000FC07000000003B
:100FB000FC0700000000FC0700000000FC07000028
:100FC0000000FC0700000000FC0700000000FC0718
:100FD00000000000FC0700000000FC07000000000B
:100FE000FC0700000000FC0700000000FC070000F8
:100FF0000000FC0700000000FC0700000000FC07E8
:1010000000000000FC0700000000FC0700000000DA
:10101000FC0700000000FC0700000000FC070000C7
:101020000000FC0700000000FC0700000000FC07B7
:1010300000000000FC0700000000F80300000000B2
:10104000F001000000F0FFFF030000F8FFFF0700C1
:1010500000F8FFFF070000FCFFFF0F0000FCFFFF90
:101060000F0000FCFFFF0F0000FCFFFF0F0000FC63
:10107000FFFF0F0000FCFFFF0F0000FCFFFF0F0051
:1010800000FCFFFF0F0000FC0FFC0F0000FC0FFC3A
:101090000F0000FC0FFC0F0000FC0FFC0F0000FC19
:1010A0000FFC0F0000FC0FFC0F0000FC0FFC0F00FA
:1010B00000FC0FFC0F0000FC0FFC0F0000FC0FFCFD
:1010C0000F0000FC0FFC0F0000FC0FFC0F0000FCE9
:1010D0000FFC0F0000FC0FFC0F0000FC0FFC0F00CA
:1010E00000FC0FFC0F0000FC0FFC0F0000FC0FFCCD
:1010F0000F0000FC0FFC0F0000FC0FFC0F0000FCB9
:101100000FFC0F0000FC0FFC0F0000FC0FFC0F0099
:1011100000FC0FFC0F0000FC0FFC0F00E0FFFFFFC6
:10112000FF01F8FFFFFFFF07FCFFFFFFFF0FFCFFC2
:10113000FFFFFF0FFEFFFFFFFF1FFEFFFFFFFF1F71
:10114000FFFFFFFFFF3FFFFFFFFFFF3FFFFFFFFF2F
:10115000FF3FFFFFFFFFFF3FFF030000F03FFF03E4
:101160000000F03FFF030000F03FFF030000F03FEE
:10117000FF030000F03FFF030000F03FFF0300000B
:10118000F03FFF030000F03FFF030000F03FFF03CC
:101190000000F03FFF030000F03FFF030000F03FBE
:1011A000FF030000F03FFF030000F03FFF030000DB
:1011B000F03FFF030000F03FFF030000F03FFF039C
:1011C0000000F03FFF030000F03FFF030000F03F8E
:1011D000FF030000F03FFF030000F03FFF030000AB
:1011E000F03FFF030000F03FFF030000F03FFFFF70
:1011F000FFFFFF3FFFFFFFFFFF3FFFFFFFFFFF3F3F
:10120000FFFFFFFFFF3FFEFFFFFFFF1FFEFFFFFF90
:10121000FF1FFEFFFFFFFF1FFCFFFFFFFF0FF8FF99
:10122000FFFFFF07F8FFFFFFFF07E0FFFFFFFF01E2
:10123000FCFFFFFFFF1FFEFFFFFFFF1FFEFFFFFF83
:10124000FF1FFFFFFFFFFF3FFFFFFFFFFF3FFFFF0E
:10125000FFFFFF3FFFFFFFFFFF3FFFFFFFFFFF3FDE
:10126000FFFFFFFFFF3FFFFFFFFFFF3FFFFFFFFF0E
:10127000FF3FFF030000E03FFF030000E03FFF03EC
:101280000000E03FFF030000E03FFF030000E03FFD
:10129000FF030000E03FFF030000E03FFF0300000A
:1012A000E03FFF030000E03FFF030000E03FFF03DB
:1012B0000000E03FFF030000E03FFF030000E03FCD
:1012C000FF030000E03FFF030000E03FFFFFFFFFE0
:1012D000FF3FFFFFFFFFFF3FFFFFFFFFFF3FFFFF5E
:1012E000FFFFFF3FFFFFFFFFFF3FFFFFFFFFFF3F4E
:1012F000FFFFFFFFFF3FFFFFFFFFFF3FFEFFFFFF7F
:10130000FF3FFEFFFFFFFF3FFCFFFFFFFF3F00002F
:101310000000E03F00000000E03F00000000E03F70
:1013200000000000E03F00000000E03F000000007F
:10133000E03F00000000E03F00000000E03F000050
:101340000000E03F00000000E03F00000000E03F40
:1013500000000000E03F00000000E03F000000004F
:10136000E03F00000000E03F00000000E03F000020
:101370000000E03F00000000E03F00000000E03F10
:1013800000000000E03F00000000E03F000000001F
:10139000E03F00000000E03F00000000E03F0000F0
:1013A0000000E03F00000000E03F00000000E03FE0
:1013B00000000000E03F00000000E03F00000000EF
:1013C000E03F00000000E03F00000000E03F0000C0
:1013D0000000E03F00000000E03F00000000FC3F94
:1013E00000000000FE3F00000000FE3F0000000083
:1013F000FF3F00000000FF3F00000000FF3F000033
:101400000000FF3F00000000FF3F00000000FE1F43
:1014100000000000FE1F00000000FC1F0000000094
:1014200000000000000000000000000000000000BC
:1014300000000000000000000000000000000000AC
:10144000000000000000000000000000000000009C
:10145000000000000000000000000000000000008C
:10146000000000000000000000000000000000007C
:10147000000000000000000000000000000000006C
:10148000000000000000000000000000000000005C
:10149000000000000000000000000000000000004C
:1014A000000000000000000000000000000000003C
:1014B000000000000000000000000000000000002C
:1014C000000000000000000000000000000000001C
:1014D000000000000000000000000000000000000C
:1014E00000000000000000000000000000000000FC
:1014F00000000000000000000000000000000000EC
:1015000000000000000000000000000000000000DB
:1015100000000000000000000000000000000000CB
:1015200000000000000000000000000000000000BB
:1015300000000000000000000000000000000000AB
:10154000000000000000000000000000000000009B
:10155000000000000000000000000000000000008B
:10156000000000000000000000000000000000007B
:10157000000000000000000000000000000000006B
:1015800000000000000000000000000000FCFF0060
:10159000000000FCFF00000000FEFF01000080FFD3
:1015A000FF03000080FFFF03000080FFFF03000037
:1015B00080FFFF03000080FFFF03000080FFFF03A8
:1015C000000080FFFF03000080FFFF03000080FF9A
:1015D000FF03000080FFFF03000080FFFF03000007
:1015E00080FFFF03000000FEFF01000000FEFF017E
:1015F000000000FCFF0000000000000000000000F0
:1016000000000000000000000000000000000000DA
:1016100000000000000000000000000000000000CA
:1016200000000000000000000000000000000000BA
:1016300000000000000000000000000000000000AA
:1018D0000000000000000000F0FFFFFFFF01F0FF2C
:1018E000FFFFFF01FCFFFFFFFF1FFCFFFFFFFF1FCC
:1018F000FCFFFFFFFF1FFCFFFFFFFF1FFCFFFFFFC1
:10190000FF1FFCFFFFFFFF1FFCFFFFFFFF1FFCFF90
:10191000FFFFFF1FF8FFFFFFFF07F0FFFFFFFF01C3
:1019200000000000000000000000000000000000B7
:1019300000000000000000000000000000000000A7
:101940000000000000000000000000000000000097
:101950000000000000000000000000000000000087
:101960000000000000000000000000000000000077
:101970000000000000000000000000000000000067
:101980000000000000000000000000000000000057
:101990000000000000000000000000000000000047
:1019A0000000000000000000000000000000000037
:1019B0000000000000000000000000000000000027
:1019C0000000000000000000000000000000000017
:1019D0000000000000000000000000000000000007
:1019E000E001FC0FFE1F0E1C0738073803300330E0
:1019F000033003300330033003300330033003304F
:101A00000330073807380E1CFE1FFC0FE0010006EC
:101A100000078007C007E00778073C070C070007AE
:101A2000000700070007000700070007000700077E
:101A3000000700070007000700070007E003F80F92
:101A4000FC1F0E3C0638077000700070003000303C
:101A50000018001C000E00078003C0016000380061
:101A60001C000E00FE7FFF7FFF7FC003F80FFC3FCE
:101A70001E3806700770007000300038800FC00FED
:101A8000403E00700060006000600060076006700B
:101A90000E78FC3FF80FC0030018001C001E001E4B
:101AA000001F801F801DC01CE01C701C301C181CF7
:101AB0001C1C0E1C061CFF7FFF7FFF7F001C001CF0
:101AC000001C001C001CFC7FFC7FFC7F0C000C0039
:101AD0000E000E00C603F61FFE3F0E780770006072
:101AE0000060006000600060076006700E38FC3F18
:101AF000F80FC0038007F01FF83F3C701C600E60B9
:101B0000060006008607E71FF73F1F780F70076083
:101B100007600660066006600E701C78F83FF01FD4
:101B2000C003FF7FFF7FFF7F00300018000C000E16
:101B30000006000380038001C001C000C000E00077
:101B40006000700070003000300030003800380055
:101B5000C003F80FFC3F1C380E700E700E700C3076
:101B60001C38F81FF00FF81F1E380E700760076052
:101B70000760076006701E78FC3FF81FC003C003B3
:101B8000F80FFC1F1E380E700660076007600760C4
:101B900007600E701E78FC6FF867E06100600060FF
:101BA000077006300E38FC1FF80FE001000000003F
:101BB0000000000000000000000000000000000025
:101BC0000000000000000000000000000000000015
:101BD000000000001C001C001C00000000000000B1
:101BE00000000000000000000000000000000000F5
:101BF00000000000000000000000000000000000E5
:101C000000000000000000000000000000000000D4
:101C10000000000000000000000000000000FC3F89
:101C200000000000000000000000000000000000B4
:101C30000000000000000000000000000020202044
:101C400020200020505000000000005050F850F8B4
:101C500050502078A070283020C0C810204098181C
:101C600040A040A09088701010200000000020408C
:101C7000404040402010080808080810008850F82C
:101C8000508800002020F820200000000000404084
:101C900080000000F80000000000000000C0C0004C
:101CA000081020408000708898A8C88870206020A4
:101CB00020202070700808708080F8F008087008F4
:101CC00008F008182848F80808F88080F00888709C
:101CD000708080F0888870F8080810204080708834
:101CE0008870888870708888781020400000606054
:101CF00000606000006060002040102040804020B4
:101D0000100000F800F8000040201008102040707B
:101D1000880830400040202070F0F0F8F820588803
:101D2000F8888888F08888F08888F07088808080BB
:101D30008870F08888888888F0F88080F08080F843
:101D4000F88080F08080807088808098887888888B
:101D500088F888888870202020202070F8101010C3
:101D60009090608890A0C0A09088808080808080C3
:101D7000F888D8A88888888888C8A89888888870AB
:101D8000888888888870F08888F08080807088884B
:101D900088A89878F08888F0A0908878808070086B
:101DA00008F0F820202020202088888888888870E3
:101DB0008888888888502088888888A8D8888888D3
:101DC000502050888888888850202020F8081020CB
:101DD0004080F8E08080808080E000804020100813
:101DE0000038080808080838205088000000000063
:101DF0000000000000F81010080000000000007053
:101E0000888898688080F0888888F00000788080D2
:101E100080780808788888887800007088F880784A
:101E200010287020202020000070887808708080A2
:101E3000F088888888200020202020202000202072
:101E400020A04080808890A0D088202020202020C2
:101E5000200000D0A8A8A8A80000B0C888888800E2
:101E60000070888888700000F088F080800000781A
:101E7000887808080000B0C88080800000788070F2
:101E800008F0202070202020300000888888986882
:101E90000000888888502000008888A8A85000008A
:101EA000885020508800008888F808700000F810DA
:101EB0002040F8204040804040202020200020206A
:101EC0002020101008101020000050A0000000007A
:101ED0000000000000000000000000000000000002
:101EE00000000000000000000000000000000000F2
:101EF00000000000000000000000000000000000E2
:101F000000000000000000000000000000000000D1
:101F100000000000000000000000000000000000C1
:101F200000000000000048657273686579206465F0
:101F30006661756C74004A5A004D575246525420DF
:101F4000525259515A525B535A5259004A5A4E46AC
:101F50004E4D20525646564D00485D53424C62202D
:101F6000525942526220524C4F5A4F20524B5559AF
:101F70005500485C5042505F20525442545F2052FA
:101F800059495747544650464D474B494B4B4C4D8A
:101F90004D4E4F4F55515752585359555958575AFE
:101FA000545B505B4D5A4B5800465E5B46495B2084
:101FB000524E465048504A4F4C4D4D4B4D494B495F
:101FC000494A474C464E4650475348564859475B46
:101FD0004620525754555554575459565B585B5ADE
:101FE0005A5B585B565954575400455F5C4F5C4EE2
:101FF0005B4D5A4D594E585056555458525A505B95
:102000004C5B4A5A49594857485549534A52514ED0
:10201000524D534B5349524750464E474D494D4BF5
:102020004E4E50515558575A595B004D57524851D2
:1020300047524653475349524B514C004B59564215
:1020400054445247504B4F504F545059525D546076
:102050005662004B594E4250445247544B555055CE
:10206000545459525D50604E62004A5A524C525874
:1020700020524D4F57552052574F4D5500455F52F6
:1020800049525B205249525B52004E5653575258A8
:102090005157525653575359515B00455F49525B54
:1020A00052004E56525651575258535752560047A7
:1020B0005D5B42496200485C51464E474C4A4B4F7B
:1020C0004B524C574E5A515B535B565A58575952C4
:1020D000594F584A56475346514600485C4E4A505D
:1020E000495346535B00485C4C4B4C4A4D484E4765
:1020F0005046544656475748584A584C574E5551E3
:102100004B5B595B00485C4D465846524E554E5706
:102110004F5850595359555858565A535B505B4D68
:102120005A4C594B5700485C55464B545A54205210
:102130005546555B00485C57464D464C4F4D4E50FA
:102140004D534D564E5850595359555858565A5349
:102150005B505B4D5A4C594B5700485C58495747A8
:10216000544652464F474D4A4C4F4C544D584F5A87
:10217000525B535B565A5858595559545851564FFB
:10218000534E524E4F4F4D514C5400485C59464FA0
:102190005B20524B46594600485C50464D474C49DF
:1021A0004C4B4D4D4F4E534F565058525954595712
:1021B0005859575A545B505B4D5A4C594B574B54D6
:1021C0004C524E50514F554E574D584B584957470A
:1021D0005446504600485C584D5750555252535142
:1021E000534E524C504B4D4B4C4C494E475146521E
:1021F0004655475749584D58525757555A525B50B4
:102200005B4D5A4C58004E56524F515052515350FC
:10221000524F205252565157525853575256004E11
:1022200056524F515052515350524F2052535752C1
:10223000585157525653575359515B00465E5A49AD
:102240004A525A5B00455F494F5B4F205249555BEC
:102250005500465E4A495A524A5B00495B4C4B4C1A
:102260004A4D484E475046544656475748584A5894
:102270004C574E564F5251525420525259515A5265
:102280005B535A5259004560574E564C544B514B74
:102290004F4C4E4D4D504D534E555056535655552F
:1022A00056532052514B4F4D4E504E534F55505652
:1022B0002052574B5653565558565A565C545D51FA
:1022C0005D4F5C4C5B4A00495B52464A5B20525270
:1022D000465A5B20524D54575400475C4B464B5B6B
:1022E00020524B46544657475848594A594C584E25
:1022F000574F545020524B505450575158525954E4
:1023000059575859575A545B4B5B00485D5A4B59C3
:10231000495747554651464F474D494C4B4B4E4BFD
:10232000534C564D584F5A515B555B575A59585A52
:102330005600475C4B464B5B20524B465246554736
:102340005749584B594E595358565758555A525B3E
:102350004B5B00485B4C464C5B20524C4659462038
:10236000524C50545020524C5B595B00485A4C46DA
:102370004C5B20524C46594620524C505450004819
:102380005D5A4B59495747554651464F474D494C61
:102390004B4B4E4B534C564D584F5A515B555B5718
:1023A0005A59585A565A53205255535A5300475D5A
:1023B0004B464B5B20525946595B20524B5059506B
:1023C000004E565246525B004A5A5646565655598A
:1023D000545A525B505B4E5A4D594C564C54004720
:1023E0005C4B464B5B205259464B542052504F5940
:1023F0005B0048594C464C5B4C5B585B00465E4A60
:10240000464A5B20524A46525B20525A46525B2053
:10241000525A465A5B00475D4B464B5B20524B4637
:10242000595B20525946595B00475D50464E474C18
:10243000494B4B4A4E4A534B564C584E5A505B549C
:102440005B565A585859565A535A4E594B58495632
:10245000475446504600475C4B464B5B20524B4628
:10246000544657475848594A594D584F5750545158
:102470004B5100475D50464E474C494B4B4A4E4AE4
:10248000534B564C584E5A505B545B565A585859F9
:10249000565A535A4E594B5849564754465046205F
:1024A000525357595D00475C4B464B5B20524B469D
:1024B000544657475848594A594C584E574F54500C
:1024C0004B5020525250595B00485C594957475471
:1024D0004650464D474B494B4B4C4D4D4E4F4F553B
:1024E000515752585359555958575A545B505B4D90
:1024F0005A4B58004A5A5246525B20524B46594654
:1025000000475D4B464B554C584E5A515B535B56FA
:102510005A58585955594600495B4A46525B205211
:102520005A46525B00465E48464D5B205252464D2D
:102530005B20525246575B20525C46575B00485C1A
:102540004B46595B205259464B5B00495B4A465209
:1025500050525B20525A46525000485C59464B5BE1
:1025600020524B46594620524B5B595B004B594F0A
:10257000424F6220525042506220524F42564220F7
:10258000524F625662004B594B46595E004B5954AC
:1025900042546220525542556220524E42554220CA
:1025A000524E625562004A5A52444A522052524494
:1025B0005A5200495B49625B62004E56534B514D83
:1025C000514F5250534F524E514F00495C584D5845
:1025D0005B20525850564E544D514D4F4E4D504C1D
:1025E000534C554D584F5A515B545B565A585800EE
:1025F000485B4C464C5B20524C504E4E504D534D18
:10260000554E5750585358555758555A535B505B71
:102610004E5A4C5800495B5850564E544D514D4FF0
:102620004E4D504C534C554D584F5A515B545B5680
:102630005A585800495C5846585B20525850564EDC
:10264000544D514D4F4E4D504C534C554D584F5A83
:10265000515B545B565A585800495B4C5358535879
:1026600051574F564E544D514D4F4E4D504C534C6B
:10267000554D584F5A515B545B565A5858004D5956
:10268000574655465347524A525B20524F4D564D7E
:1026900000495C584D585D57605661546251624F15
:1026A0006120525850564E544D514D4F4E4D504C46
:1026B000534C554D584F5A515B545B565A5858001D
:1026C000495C4D464D5B20524D51504E524D554D3B
:1026D000574E5851585B004E56514652475346523A
:1026E0004551462052524D525B004D57524653477A
:1026F0005446534552462052534D535E52615062E8
:102700004E6200495A4D464D5B2052574D4D572061
:10271000525153585B004E565246525B004361473C
:102720004D475B205247514A4E4C4D4F4D514E52F2
:1027300051525B20525251554E574D5A4D5C4E5D91
:10274000515D5B00495C4D4D4D5B20524D51504EEB
:10275000524D554D574E5851585B00495C514D4FA5
:102760004E4D504C534C554D584F5A515B545B563F
:102770005A5858595559535850564E544D514D006A
:10278000485B4C4D4C6220524C504E4E504D534D78
:10279000554E5750585358555758555A535B505BE0
:1027A0004E5A4C5800495C584D5862205258505669
:1027B0004E544D514D4F4E4D504C534C554D584F1E
:1027C0005A515B545B565A5858004B584F4D4F5B0B
:1027D00020524F535050524E544D574D004A5B5863
:1027E00050574E544D514D4E4E4D504E52505355E4
:1027F00054575558575858575A545B515B4E5A4D79
:1028000058004D5952465257535A555B575B205208
:102810004F4D564D00495C4D4D4D574E5A505B53F0
:102820005B555A58572052584D585B004A5A4C4DE8
:10283000525B2052584D525B00475D4A4D4E5B2023
:1028400052524D4E5B2052524D565B20525A4D56BD
:102850005B004A5B4D4D585B2052584D4D5B004A22
:102860005A4C4D525B2052584D525B505F4E614C5A
:10287000624B62004A5B584D4D5B20524D4D584DA6
:1028800020524D5B585B004B5954425243514450C7
:10289000465048514A524B534D534F51512052527A
:1028A00043514551475249534A544C544E53504F4B
:1028B00052535454565458535A525B515D515F52BF
:1028C00061205251535355004E5652425262004BB2
:1028D0005950425243534454465448534A524B5120
:1028E0004D514F5351205252435345534752495132
:1028F0004A504C504E5150555251545056505851C8
:102900005A525B535D535F526120525353515500ED
:10291000465E495549534A504C4F4E4F50505453C0
:10292000565458545A535B51205249534A514C50B3
:102930004E5050515454565558555A545B515B4F54
:10294000004A5A4A464A5B4B5B4B464C464C5B4DF1
:102950005B4D464E464E5B4F5B4F465046505B517B
:102960005B51465246525B535B53465446545B554B
:102970005B55465646565B575B57465846585B591B
:102980005B59465A465A5B0000261F361F391F4CBA
:102990001F591F721FA91FEA1F2B203C2053206ABA
:1029A000207D208A209B20A220AF20B620DB20E6BD
:1029B000200521262135215A218B219821D5210658
:1029C000221F223C22452252225B228622C722DA83
:1029D000220B23322353236C237F23AE23C123C82E
:1029E00023DF23F223FD231624292456247324A64F
:1029F00024C924F4240125182525253E254B255AD4
:102A0000256D2586258D25A625B325BA25CB25F050
:102A1000251526342659267E269126C026D726EA55
:102A200026032716271D2744275B278027A527CAAB
:102A300027DD27022815282C28392852285F2874DA
:102A4000288728C828CF281029412900362F64312B
:102A500011241FBECFEFD1E2DEBFCDBF00E00CBF1F
:102A600014E0A0E0B2E0EAE5FDE700E00BBF02C041
:102A700007900D92A63FB107D9F71BBE15E0A6EF50
:102A8000B4E001C01D92A83AB107E1F71AE2C0E52F
:102A9000DAE204C02297FE010E94703ECC34D107D6
:102AA000C9F70E943C240C94AB3E0C940000A0E0BB
:102AB000B0E0EDE5F5E10C947C3EEC01A880B98036
:102AC000CA80DB80A114B104C104D10441F484E2C2
:102AD000A82E89EDB82E8BE5C82E87E0D82EC6012A
:102AE000B5012DE133EF41E050E00E94473E27EA77
:102AF00031E440E050E00E94D23D7B018C01C601F0
:102B0000B5012DE133EF41E050E00E94473ECA019C
:102B1000B9012CEE34EF4FEF5FEF0E94D23D6E0D06
:102B20007F1D801F911F97FF04C06150704080403F
:102B30009048688379838A839B839B013F77C9018F
:102B4000CDB7DEB7EAE00C94983E0E945715089581
:102B500081EA92E00E9457150895A0E0B0E08093CA
:102B6000A1029093A202A093A302B093A40208959D
:102B7000FB01DC0105900D920020E1F70895FB01B7
:102B8000DC010D900020E9F7119701900D920020D3
:102B9000E1F70895FB01DC0101900D920020E1F7BF
:102BA0000895FB01DC014150504030F08D910190BF
:102BB000801919F40020B9F7881B990B08952F92FA
:102BC0003F925F926F927F928F929F92AF92BF924D
:102BD000CF92DF92EF92FF920F931F93DF93CF93E9
:102BE000CDB7DEB72A970FB6F894DEBF0FBECDBFC4
:102BF0006B017C013A014901502E4115510509F440
:102C00005FC02115310509F45BC0AA24BB241E0155
:102C10000894211C311C81010A0D1B1DC701B6013E
:102C20002AE030E040E050E00E94253E605DD8019F
:102C30006C930894A11CB11CC701B6012AE030E0D6
:102C400040E050E00E94253EC901DA016C017D019F
:102C5000C114D104E104F10421F0BAE0AB16B104CF
:102C6000D1F69501852D90E0A816B90610F000E088
:102C700002C0052D0A1940E050E0E0E3CE010196C4
:102C80000DC0015006C021503040FC01E20FF31F7F
:102C9000E081D301ED933D014F5F5F4F08948108C0
:102CA00091088114910449F02115310519F400238C
:102CB00041F703C0002339F3E4CFF301108202C0CF
:102CC00040E050E0CA012A960FB6F894DEBF0FBE6E
:102CD000CDBFCF91DF911F910F91FF90EF90DF90CB
:102CE000CF90BF90AF909F908F907F906F905F90AC
:102CF0003F902F9008952F923F924F925F926F9244
:102D00007F928F929F92AF92BF92CF92DF92EF927B
:102D1000FF920F931F93CF93DF935B016C014901E7
:102D20002115310509F48AC00115110509F486C081
:102D3000242E86E0841710F496E0292EE8012197CE
:102D400009F47AC0C601B50120E030E040E050E06F
:102D50000E941C3C882344F4D7FAD094D7F8D0942E
:102D60008DE2F401808321970F2EF0E0EF2EF0E04A
:102D7000FF2EF0E00F2FFFE31F2FF02D81E0482EF4
:102D8000512C612C712C332415C0C801B70120E0EF
:102D900030E040E251E40E94203C7B018C01C30101
:102DA000B2012AE030E040E050E00E94D23D2B0129
:102DB0003C013394321448F3209799F0C601B501D1
:102DC000A80197010E94B83B5B016C010E948D3CF9
:102DD000A4019E0100E00E94DF15880E991EC81B09
:102DE000D90B222049F1209739F18EE2F401819329
:102DF0004F01219709F1C601B5010E948D3C0E9447
:102E0000B93C9B01AC01C601B5010E94B73B7B01F7
:102E10008C01C301B2010E94B93C9B01AC01C80105
:102E2000B7010E946F3D0E948D3CA4019E01022DBE
:102E30000E94DF15880E991EF4011082DF91CF9158
:102E40001F910F91FF90EF90DF90CF90BF90AF90C8
:102E50009F908F907F906F905F904F903F902F90BA
:102E600008958F929F92AF92BF92CF92DF92EF928E
:102E70000F931F93DF93CF93CDB7DEB7C658D040E3
:102E80000FB6F894DEBF0FBECDBF19821A821B8227
:102E90001C828FEF8D831E8257E0A52EB12CAC0EC5
:102EA000BD1EC50160E072E00E94CA154BE0842E91
:102EB00042E0942EC501B4010E94BF15C5016DE02A
:102EC00072E00E94BF15C50165E070E04AE050E085
:102ED0000C811D812E81C980DA80EB800E94232A1B
:102EE000C50164E172E00E94CA15C50160E372E0A9
:102EF0000E94BF15C501B4010E94BF15C5016DE355
:102F000072E00E94BF15C50160E472E00E94BF1527
:102F1000C50165E070E045E150E00C811D812E8126
:102F2000C980DA80EB800E94232A19821A821B82D0
:102F300060E070E080E00E94C92ACA57DF4F0FB6F8
:102F4000F894DEBF0FBECDBFCF91DF911F910F91DF
:102F5000EF90DF90CF90BF90AF909F908F900895AB
:102F600080E060E040E00E9450318EEE69EE49EE74
:102F70000E945A3183E492E064EB70E044E250E056
:102F80002CE030E00E94463787E492E064EB70E08A
:102F900048E450E02AE030E00E9446378CE492E0BA
:102FA00064EB70E04BE650E02CE030E00E944637E6
:102FB0008FE492E064EB70E041E950E02CE030E017
:102FC0000E944637089580EE66E249E20E94503141
:102FD00080EE66E249E20E945A318EE890E064E1B8
:102FE00070E049E050E029E030E00E94F6366AE502
:102FF00070E080E090E00E94953A80E060E040E080
:103000000E9450318EE890E064E170E049E050E0C9
:1030100029E030E00E94F6360895AF92BF92CF9239
:10302000DF92EF92FF920F931F93DF93CF93CDB771
:10303000DEB727970FB6F894DEBF0FBECDBF5B019A
:103040006C0120E030E040E251E40E946F3D20E05E
:1030500030E040E253E40E946F3D20E030E040E782
:1030600051E40E94203C0E94883C7B018C0180E05E
:1030700060E040E00E945A3180E060E040E00E9461
:1030800050316091B5027091B6028091B702909173
:10309000B80220E030E040E253E40E94B83B0E94D6
:1030A000883CDC01CB0166EE70E046E050E026E0B3
:1030B00030E00E94F63680E06FEF4FEF0E945A3109
:1030C00080E06FEF4FEF0E945031C70180569F4F55
:1030D00066EE70E046E050E026E030E00E94F63612
:1030E000B701882777FD8095982F0E94BB3C60939D
:1030F000B5027093B6028093B7029093B802209104
:10310000FE043091FF0440910005509101050E949A
:103110006B3D18160CF09CC080E060E040E00E941F
:103120005A3180E060E040E00E9450316091FE043E
:103130007091FF04809100059091010520E030E03E
:1031400040E253E40E94B83B20E030E04CE052E41F
:103150000E94B73B0E94883CDC01CB0161EC70E02F
:103160004DE250E02BE030E00E94B1346091FE046B
:103170007091FF04809100059091010520E030E0FE
:1031800040E253E40E94B83B0E94883CDC01CB0142
:1031900062ED70E042E050E025E030E00E94F6365B
:1031A0008FEF6FEF40E00E945A318FEF6FEF40E0FA
:1031B0000E9450316091B5027091B6028091B702C1
:1031C0009091B8026093FE047093FF048093000511
:1031D0009093010520E030E040E253E40E94B83BC8
:1031E0000E94883CDC01CB0162ED70E042E050E0DF
:1031F00025E030E00E94F636C601B50142E07E01CE
:103200000894E11CF11C970107E010E00E947B1676
:103210006091FE047091FF0480910005909101057A
:1032200020E030E040E253E40E94B83B20E030E090
:1032300040EF51E40E94B73B0E94883C9B01AC01E7
:10324000C701B90148EC50E02AE030E00E9446375F
:103250006091B5027091B6028091B7029091B80268
:103260002091FA043091FB044091FC045091FD043C
:103270000E941C3C88230CF096C080E060E040E097
:103280000E945A3180E060E040E00E94503160913D
:10329000FA047091FB048091FC049091FD0420E0FD
:1032A00030E040E253E40E94B83B20E030E040EAE6
:1032B00050E40E94B73B0E94883CDC01CB0161ECEA
:1032C00070E04DE250E02BE030E00E94B1346091BC
:1032D000FA047091FB048091FC049091FD0420E0BD
:1032E00030E040E253E40E94B83B0E94883CDC019D
:1032F000CB0162ED70E042E050E025E030E00E945A
:10330000F6368FEF6FEF40E00E945A318FEF6FEF8C
:1033100040E00E9450316091B5027091B6028091F8
:10332000B7029091B8026093FA047093FB04809303
:10333000FC049093FD0420E030E040E253E40E945E
:10334000B83B0E94883CDC01CB0162ED70E042E0BA
:1033500050E025E030E00E94F636C601B50142E0BB
:103360007E010894E11CF11C970107E010E00E9427
:103370007B166091FA047091FB048091FC0490919B
:10338000FD0420E030E040E253E40E94B83B0E949C
:10339000883C9B01AC01C701B90148EC50E02AE030
:1033A00030E00E94463727960FB6F894DEBF0FBE76
:1033B000CDBFCF91DF911F910F91FF90EF90DF90E4
:1033C000CF90BF90AF9008952F923F924F925F920F
:1033D0006F927F928F929F92AF92BF92CF92DF9225
:1033E000EF92FF920F931F93DF93CF93CDB7DEB78A
:1033F0002F970FB6F894DEBF0FBECDBF1B012C0177
:1034000039014A01E886F9860A871B87AC86BD86A2
:10341000CE86DF866091C9027091CA02882777FD47
:103420008095982F0E94BB3C9B01AC01C401B30165
:103430000E946B3D88234CF08FEF66E646E60E94C3
:1034400050318FEF66E646E623C06091C10270916D
:10345000C202882777FD8095982F0E94BB3C9B0174
:10346000AC01C401B3010E946B3D88234CF08FEF87
:103470006FEF43E30E9450318FEF6FEF43E308C0DB
:1034800089E961EE49E90E94503189E961EE49E933
:103490000E945A31C401B30120E030E04CEA52E40A
:1034A0000E946F3D5B016C016091B9027091BA029C
:1034B000882777FD8095982F0E94BB3C9B01AC012B
:1034C000C601B5010E94203C0E94883C9B01AC01D2
:1034D0008BED90E06BE170E0A90124E130E00E9407
:1034E000B13480E060E040E00E9450316091B90268
:1034F0007091BA02882777FD8095982F0E94BB3C77
:103500007B018C01C601B501A80197010E94203CF6
:1035100020E030E04BE553E40E94B83B0E94883C39
:103520005B016C01C401B30120E030E04CEA52ECD5
:103530000E946F3DA80197010E94203C20E030E0EE
:103540004CEA52E40E94B83B0E94883C9B01AC01CB
:10355000C5016BE170E0A90124E130E00E94B134C3
:103560006091CB027091CC02882777FD8095982FCF
:103570000E94BB3C9B01AC01C201B1010E946B3DAA
:1035800088234CF08FEF66E646E60E9450318FEFBD
:1035900066E646E623C06091C3027091C4028827A4
:1035A00077FD8095982F0E94BB3C9B01AC01C20126
:1035B000B1010E946B3D88234CF08FEF6FEF43E326
:1035C0000E9450318FEF6FEF43E308C089E961EE4D
:1035D00049E90E94503189E961EE49E90E945A3176
:1035E000C201B10120E030E04CEA52E40E946F3D9C
:1035F0005B016C016091BB027091BC02882777FD72
:103600008095982F0E94BB3C9B01AC01C601B5017F
:103610000E94203C0E94883C9B01AC018BED90E015
:103620006FE370E0A90124E130E00E94B13480E052
:1036300060E040E00E9450316091BB027091BC029A
:10364000882777FD8095982F0E94BB3C7B018C01D9
:10365000C601B501A80197010E94203C20E030E09E
:103660004BE553E40E94B83B0E94883C5B016C012F
:10367000C201B10120E030E04CEA52EC0E946F3D03
:10368000A80197010E94203C20E030E04CEA52E47F
:103690000E94B83B0E94883C9B01AC01C5016FE3CE
:1036A00070E0A90124E130E00E94B1346091CD02C4
:1036B0007091CE02882777FD8095982F0E94BB3CA1
:1036C0009B01AC01688579858A859B850E946B3D4D
:1036D00088234CF08FEF66E646E60E9450318FEF6C
:1036E00066E646E625C06091C5027091C60288274D
:1036F00077FD8095982F0E94BB3C9B01AC016885AB
:1037000079858A859B850E946B3D88234CF08FEFDD
:103710006FEF43E30E9450318FEF6FEF43E308C038
:1037200089E961EE49E90E94503189E961EE49E990
:103730000E945A31688579858A859B8520E030E032
:103740004CEA52E40E946F3D5B016C016091BD0246
:103750007091BE02882777FD8095982F0E94BB3C10
:103760009B01AC01C601B5010E94203C0E94883C2F
:103770009B01AC018BED90E063E670E0A90124E1D0
:1037800030E00E94B13480E060E040E00E945031BF
:103790006091BD027091BE02882777FD8095982FB9
:1037A0000E94BB3C7B018C01C601B501A8019701B9
:1037B0000E94203C20E030E04BE553E40E94B83BFF
:1037C0000E94883C5B016C01688579858A859B85B0
:1037D00020E030E04CEA52EC0E946F3DA8019701D6
:1037E0000E94203C20E030E04CEA52E40E94B83BCA
:1037F0000E94883C9B01AC01C50163E670E0A90111
:1038000024E130E00E94B1346091CF027091D00287
:10381000882777FD8095982F0E94BB3C9B01AC01C7
:103820006C857D858E859F850E946B3D88234CF03D
:103830008FEF66E646E60E9450318FEF66E646E679
:1038400025C06091C7027091C802882777FD8095D6
:10385000982F0E94BB3C9B01AC016C857D858E85B9
:103860009F850E946B3D88234CF08FEF6FEF43E301
:103870000E9450318FEF6FEF43E308C089E961EE9A
:1038800049E90E94503189E961EE49E90E945A31C3
:103890006C857D858E859F8520E030E04CEA52E482
:1038A0000E946F3D5B016C016091BF027091C0028C
:1038B000882777FD8095982F0E94BB3C9B01AC0127
:1038C000C601B5010E94203C0E94883C9B01AC01CE
:1038D0008BED90E068E870E0A90124E130E00E94FF
:1038E000B13480E060E040E00E9450316091BF025E
:1038F0007091C002882777FD8095982F0E94BB3C6D
:103900007B018C01C601B501A80197010E94203CF2
:1039100020E030E04BE553E40E94B83B0E94883C35
:103920005B016C016C857D858E859F8520E030E094
:103930004CEA52EC0E946F3DA80197010E94203C86
:1039400020E030E04CEA52E40E94B83B0E94883C00
:103950009B01AC01C50168E870E0A90124E130E0F9
:103960000E94B13480E060E040E00E94503181E389
:103970006FE44FE40E945A31C401B30142E07E017A
:103980000894E11CF11C970107E010E00E947B16EF
:10399000C70163EE70E044E250E02AE030E00E94AC
:1039A0004637C201B10142E097010E947B16C70170
:1039B00063EE70E048E450E02AE030E00E944637D1
:1039C000688579858A859B8542E097010E947B16F0
:1039D000C70163EE70E04CE650E02AE030E00E9460
:1039E00046376C857D858E859F8542E097010E94D4
:1039F0007B16C70163EE70E042E950E02AE030E058
:103A00000E9446372F960FB6F894DEBF0FBECDBF8B
:103A1000CF91DF911F910F91FF90EF90DF90CF90AA
:103A2000BF90AF909F908F907F906F905F904F90DE
:103A30003F902F9008952F923F924F925F926F92F6
:103A40007F928F929F92AF92BF92CF92DF92EF922E
:103A5000FF920F931F93DF93CF9300D00F92CDB7B8
:103A6000DEB75B016C0129833A834B835C838091D1
:103A7000160590911705892BB9F480E060E040E0CD
:103A80000E94033582E592E00E94C72500E010E025
:103A9000EE24FF240E9444240E94B01781E090E0AD
:103AA0009093170580931605C601B5010E94883CC6
:103AB0002091C1023091C2026217730714F00E9474
:103AC000E317C601B50120E030E040E050E00E947D
:103AD0001C3C1816ACF00F2EF0E06F2EF0E07F2E9D
:103AE000FCEB8F2EF2E49F2EF02D0F2EF0E02F2E08
:103AF000F0E03F2EF0EC4F2EF1E45F2EF02DE1C010
:103B0000C601B50120E030E040E050E00E946B3D8E
:103B10001816E4F5C601B50120E030E040E251E4BA
:103B20000E941C3C882394F5C601B50120E030E0DA
:103B300040E151E40E946F3D0E94883C7B018C0172
:103B4000EAE5F0E0E61BF70BEE0FFF1FEE0FFF1F9D
:103B5000E45CFC4F608171818281938120E030E0E0
:103B600040E252EC0E946F3D20E030E04EEA52E429
:103B70000E94B83B1B012C01EE0CFF1CEE0CFF1C3D
:103B800080E493E0E80EF91EF7016AC0C601B501B2
:103B900020E030E040E251E40E941C3C8823A9F47C
:103BA0000F2EF0E06F2EF0E07F2EFCEB8F2EF2E474
:103BB0009F2EF02D0F2EF0E02F2EF0E03F2EFEEA8C
:103BC0004F2EF2E45F2EF02D7CC0C601B50120E03F
:103BD00030E040E251E40E946B3D18160CF053C0F7
:103BE000C601B50120E030E040EA51E40E941C3CEF
:103BF00088230CF048C0C601B50120E030E040E267
:103C000051E40E94B73B20E030E040E151E40E94E3
:103C10006F3D0E94883C7B018C01FB01EE0FFF1F72
:103C2000EE0FFF1FE05CFC4F608171818281938108
:103C300020E030E040E252E40E946F3D20E030E0BE
:103C40004EEA52E40E94B83B1B012C01EAE5F0E089
:103C5000EE19FF09EE0FFF1FEE0FFF1FE45CFC4F94
:103C6000608171818281938120E030E040E252ECFA
:103C70000E946F3D20E030E04AEB52E40E94B83BE6
:103C80003B014C011EC0C601B50120E030E040EA16
:103C900051E40E946B3D8823A4F00F2EF0E06F2EBC
:103CA000F0E07F2EFAEB8F2EF2E49F2EF02D0F2EF8
:103CB000F0E02F2EF0E03F2EFEEF4F2EF2E45F2ECD
:103CC000F02D69817A818B819C81A60195010E94EA
:103CD000B73B0E94883CCB0177FF03C0909581954C
:103CE0009F4F03970CF4EDC080EE66E249E20E941C
:103CF0005A31C201B1010E94883C5B016C01C401D0
:103D0000B3010E94883C7B018C0187E590E06DE562
:103D100070E0A50197010E94393288E590E06DE5D9
:103D200070E0A50197010E94393286E590E06DE5CB
:103D300070E0A50197010E94393287E590E06EE5B9
:103D400070E0A50197010E94393287E590E06CE5AB
:103D500070E0A50197010E943932C201B101A401AE
:103D600093010E94B83B20E030E040E050E40E9424
:103D70006B3D88230CF4A5C080E060E040E00E9429
:103D80005A31609106057091070580910805909160
:103D900009050E94883C6B017C01609102057091CD
:103DA000030580910405909105050E94883C8B01D4
:103DB0009C0187E590E06CE570E0A60198010E9407
:103DC0003932609106057091070580910805909140
:103DD00009050E94883C6B017C016091020570918D
:103DE000030580910405909105050E94883C8B0194
:103DF0009C0187E590E06EE570E0A60198010E94C5
:103E000039326091060570910705809108059091FF
:103E100009050E94883C6B017C016091020570914C
:103E2000030580910405909105050E94883C8B0153
:103E30009C0186E590E06DE570E0A60198010E9486
:103E400039326091060570910705809108059091BF
:103E500009050E94883C6B017C016091020570910C
:103E6000030580910405909105050E94883C8B0113
:103E70009C0188E590E06DE570E0A60198010E9444
:103E8000393260910605709107058091080590917F
:103E900009050E94883C6B017C01609102057091CC
:103EA000030580910405909105050E94883C8B01D3
:103EB0009C0187E590E06DE570E0A60198010E9405
:103EC000393220920605309207054092080550923B
:103ED0000905609202057092030580920405909294
:103EE00005050F900F900F900F90CF91DF911F91CC
:103EF0000F91FF90EF90DF90CF90BF90AF909F9089
:103F00008F907F906F905F904F903F902F9008958B
:103F10002F923F924F925F926F927F928F929F92D9
:103F2000AF92BF92CF92DF92EF92FF920F931F93C7
:103F3000DF93CF9300D00F92CDB7DEB75B016C015A
:103F400029833A834B835C838091160590911705F2
:103F5000892BB9F480E060E040E00E9403358EE5F3
:103F600092E00E94C72500E010E0EE24FF240E94AA
:103F700044240E94B01781E090E09093170580934D
:103F80001605C601B5010E94883C2091C3023091FC
:103F9000C4026217730714F00E94E317C601B5014B
:103FA00020E030E040EF52E40E941C3C18165CF028
:103FB0000F2EF0E06F2EF0E07F2EF8EF8F2EF2E460
:103FC0009F2EF02DC0C0C601B50120E030E040EFCB
:103FD00052E40E946B3D18160CF049C0C601B501B1
:103FE00020E030E044E353E40E941C3C88230CF0C2
:103FF0003EC0C601B50120E030E040EF52E40E942F
:10400000B73B20E030E040EC5FE30E946F3D0E9450
:10401000883C7B018C01FB01EE0FFF1FEE0FFF1FA1
:10402000E05CFC4F608171818281938120E030E00F
:1040300040EF51EC0E946F3D20E030E04EEA52E448
:104040000E94B83B1B012C01EAE5F0E0EE19FF09E4
:10405000EE0FFF1FEE0FFF1FE45CFC4F60817181CC
:104060008281938120E030E040EF51E4D2C0C6016C
:10407000B50120E030E044E353E40E941C3C882377
:10408000A9F40F2EF0E06F2EF0E07F2EFCEB8F2EC8
:10409000F2E49F2EF02D0F2EF0E02F2EF0E03F2EB9
:1040A000F4E64F2EF2E45F2EF02DDCC0C601B50120
:1040B00020E030E044E353E40E946B3D18167CF5A9
:1040C000C601B50120E030E040E753E40E941C3C0B
:1040D00088232CF5C601B50120E030E044E353E429
:1040E0000E94B73B20E030E040EC5FE30E946F3D70
:1040F0000E94883C7B018C01EAE5F0E0E61BF70BAF
:10410000EE0FFF1FEE0FFF1FE45CFC4F608171811B
:104110008281938120E030E040EF51EC5FC0C60126
:10412000B50120E030E040E753E40E941C3C8823C6
:10413000A9F40F2EF0E06F2EF0E07F2EF0E88F2E26
:10414000F2E49F2EF02D0F2EF0E02F2EF0E03F2E08
:10415000FEEA4F2EF2E45F2EF02D84C0C601B501B9
:1041600020E030E040E753E40E946B3D18160CF06D
:104170005BC0C601B50120E030E046E953E40E948F
:104180001C3C88230CF050C0C601B50120E030E093
:1041900040E753E40E94B73B20E030E040EC5FEBA7
:1041A0000E946F3D20E030E044EB52E40E94B83BB7
:1041B0000E94883C7B018C01EAE5F0E0E61BF70BEE
:1041C000EE0FFF1FEE0FFF1FE45CFC4F608171815B
:1041D0008281938120E030E040EF51E40E946F3D06
:1041E00020E030E04EEA52E40E94B83B1B012C0173
:1041F000EE0CFF1CEE0CFF1C80E493E0E80EF91EB1
:10420000F701608171818281938120E030E040EF8D
:1042100051EC0E946F3D20E030E04CEB52E40E94F4
:10422000B83B3B014C011EC0C601B50120E030E0A7
:1042300046E953E40E946B3D1816A4F40F2EF0E0FB
:104240006F2EF0E07F2EFCEB8F2EF2E49F2EF02DF0
:104250000F2EF0E02F2EF0E03F2EFAEE4F2EF2E47C
:104260005F2EF02D69817A818B819C81A601950159
:104270000E94B73B0E94883CCB0177FF03C090951A
:1042800081959F4F03970CF4DEC080EE66E249E211
:104290000E945A31C201B1010E94883C5B016C014D
:1042A000C401B3010E94883C7B018C0187E590E04A
:1042B0006DE570E0A50197010E94393288E590E034
:1042C0006DE570E0A50197010E94393286E590E026
:1042D0006DE570E0A50197010E94393287E590E015
:1042E0006EE570E0A50197010E94393287E590E004
:1042F0006CE570E0A50197010E94393280E060E032
:1043000040E00E945A316091060570910705809146
:104310000805909109050E94883C6B017C01609121
:1043200002057091030580910405909105050E9496
:10433000883C8B019C0187E590E06CE570E0A6016C
:1043400098010E94393260910605709107058091AD
:104350000805909109050E94883C6B017C016091E1
:1043600002057091030580910405909105050E9456
:10437000883C8B019C0187E590E06EE570E0A6012A
:1043800098010E943932609106057091070580916D
:104390000805909109050E94883C6B017C016091A1
:1043A00002057091030580910405909105050E9416
:1043B000883C8B019C0186E590E06DE570E0A601EC
:1043C00098010E943932609106057091070580912D
:1043D0000805909109050E94883C6B017C01609161
:1043E00002057091030580910405909105050E94D6
:1043F000883C8B019C0188E590E06DE570E0A601AA
:1044000098010E94393260910605709107058091EC
:104410000805909109050E94883C6B017C01609120
:1044200002057091030580910405909105050E9495
:10443000883C8B019C0187E590E06DE570E0A6016A
:1044400098010E9439322092060530920705409269
:10445000080550920905609202057092030580924A
:104460000405909205050F900F900F900F90CF913B
:10447000DF911F910F91FF90EF90DF90CF90BF9051
:10448000AF909F908F907F906F905F904F903F90F4
:104490002F9008952F923F924F925F926F927F924A
:1044A0008F929F92AF92BF92CF92DF92EF92FF9244
:1044B0000F931F93CF93DF930F2EF0E02F2EF0E09A
:1044C0003F2EF8EC4F2EF2E45F2EF02D0F2EF0E091
:1044D0006F2EF0E07F2EF0E08F2EF0E09F2EF02D7B
:1044E00060C1E090A502F090A6020091A702109191
:1044F000A80262E070E080E090E00E948F3B0E94A2
:10450000BB3C9B01AC01C801B7010E94B83B7B01D9
:104510008C016093A5027093A6028093A7029093EA
:10452000A8026091BB027091BC02882777FD80953C
:10453000982F0E94BB3C9B01AC01C801B7010E94AF
:104540006B3D181644F42092A5023092A6024092C8
:10455000A7025092A802E090F604F090F7040091B0
:10456000F8041091F90462E070E080E090E00E94AD
:104570008F3B0E94BB3C9B01AC01C801B7010E946C
:10458000B83B7B018C016093F6047093F704809331
:10459000F8049093F9046091B9027091BA028827E7
:1045A00077FD8095982F0E94BB3C9B01AC01C80110
:1045B000B7010E946B3D181644F46092F6047092A5
:1045C000F7048092F8049092F904E090A902F09028
:1045D000AA020091AB021091AC0263E070E080E0AF
:1045E00090E00E948F3B0E94BB3C9B01AC01C80144
:1045F000B7010E94B83B7B018C016093A9027093C4
:10460000AA028093AB029093AC026091BD027091BC
:10461000BE02882777FD8095982F0E94BB3C9B01A6
:10462000AC01C801B7010E946B3D181644F46092BA
:10463000A9027092AA028092AB029092AC02E09022
:10464000AD02F090AE020091AF021091B00263E0B3
:1046500070E080E090E00E948F3B0E94BB3C9B0199
:10466000AC01C801B7010E94B83B7B018C0160938B
:10467000AD027093AE028093AF029093B00260914E
:10468000BF027091C002882777FD8095982F0E9405
:10469000BB3C9B01AC01C801B7010E946B3D1816E1
:1046A00044F46092AD027092AE028092AF0290929A
:1046B000B0026091B1027091B2028091B302909108
:1046C000B4022AE037ED43E25CE30E94B83B60931A
:1046D000B1027093B2028093B3029093B4026092DD
:1046E0000A0570920B0580920C0590920D05609260
:1046F0000E0570920F058092100590921105809121
:10470000D1029091D2028130910579F46091A50295
:104710007091A6028091A7029091A80220E030E05B
:1047200040E050E00E94881F10C0029771F4609131
:10473000F6047091F7048091F8049091F90420E058
:1047400030E040E050E00E941B1D6091A502709196
:10475000A6028091A7029091A8022091F6043091C0
:10476000F7044091F8045091F904E090A902F09008
:10477000AA020091AB021091AC02A090AD02B090E1
:10478000AE02C090AF02D090B0020E94E4196091D6
:10479000B1027091B2028091B3029091B4020E9472
:1047A0000D1882E195E00E942938882309F499CEFA
:1047B00042C020911F0530912005C901875B9040C0
:1047C00089389105E0F480912105909122058A3382
:1047D0009105DCF58231910544F01093D2020093EB
:1047E000D1021092170510921605CD9744F0D09380
:1047F000D202C093D10210921705109216052750CD
:1048000030402F383105D8F4809121059091220550
:1048100086399105A4F4079794F08091D102909184
:10482000D20201969093D2028093D1021092170582
:104830001092160504C0C1E0D0E002E010E00E9432
:104840005937882309F0B5CF04C08D359105BCF6E2
:10485000CCCFDF91CF911F910F91FF90EF90DF9020
:10486000CF90BF90AF909F908F907F906F905F9010
:104870004F903F902F9008950E94A83A0E943117C0
:104880000E944A22FDCF08952F923F924F925F924D
:104890006F927F928F929F92AF92BF92CF92DF9250
:1048A000EF92FF920F931F93DF93CF93CDB7DEB7B5
:1048B000C351D2400FB6F894DEBF0FBECDBF922ECB
:1048C000832E342E252ECF5EDD4F6883C151D2401A
:1048D000CE5EDD4F7883C251D240CD5EDD4F8883FE
:1048E000C351D240F894CE010196422F532F632D2D
:1048F000722D24E030E00E942329B980AA248A8105
:10490000A80EB11CDB80CC248C81C80ED11CB60152
:1049100080E090E0950140E050E00E94D23D2B0104
:104920003C010894A108B108C801B701A50196018E
:104930000E94F92A492D4C5F81E0491508F080E07A
:10494000582F580D81E0581508F080E0682F630D4E
:1049500081E0631508F080E0782F720D81E0721518
:1049600008F080E0CF5EDD4F2881C151D240280F92
:1049700081E0CF5EDD4F3881C151D240231708F06E
:1049800080E0CE5EDD4F9881C251D240980F81E029
:10499000CE5EDD4F3881C251D240931708F080E0DF
:1049A000CD5EDD4F3881C351D240830FC42EA52E7A
:1049B000962E872E322E292ED82E8E010F5F1F4F56
:1049C000C80120E132E00E942329EE24FF2463C0C5
:1049D000F801EE0DFF1D808180934605E2E0F0E0D6
:1049E000EC0FFD1FEE0DFF1D808180934505E3E078
:1049F000F0E0EC0FFD1FEE0DFF1D8081809344055C
:104A00000E94DA2A83E090E0E80EF91E90E1E916B0
:104A100092E0F906D8F16C2D605F91E06C1508F01A
:104A200090E08A2D8E5F21E08A1508F020E0592F52
:104A3000580F91E0581708F090E0922B990D81E003
:104A4000991508F080E0482F480D81E0481508F0DE
:104A500080E0382F330D81E0331508F080E0282FF7
:104A6000220D81E0221508F080E08D0DC62EA52EC6
:104A7000992E842E1901D82EC801462F692D782D24
:104A800020E132E00E942329EE24FF24089441080B
:104A9000510861087108411451046104710409F05E
:104AA00097CF7894CD5EDD4F0FB6F894DEBF0FBE82
:104AB000CDBFCF91DF911F910F91FF90EF90DF90CD
:104AC000CF90BF90AF909F908F907F906F905F90AE
:104AD0004F903F902F900895AF92BF92CF92DF9268
:104AE000EF92FF920F931F93DF93CF93CDB7DEB773
:104AF00060970FB6F894DEBF0FBECDBF6C0190EE8D
:104B0000E92E9BEFF92E90E2092F112D5E010894FA
:104B1000A11CB11CC501B801A70120E130E00E9431
:104B20002329C601B5014CE050E00E94D115009741
:104B300029F42D853E854F85588916C080EEE816EC
:104B40008DEFF80680E2080780E0180749F080E161
:104B500090E0A0E0B0E0E80EF91E0A1F1B1FDACFBC
:104B600020E030E040E050E0B901CA0160960FB6A5
:104B7000F894DEBF0FBECDBFCF91DF911F910F9193
:104B8000FF90EF90DF90CF90BF90AF900895AF92DD
:104B9000BF92CF92DF92EF92FF920F931F930E94EA
:104BA0006C255B016C019B01A60160E070E080E078
:104BB00090E01F910F91FF90EF90DF90CF90BF900A
:104BC000AF9008952F923F924F925F926F927F9293
:104BD0008F929F92AF92BF92CF92DF92EF92FF920D
:104BE0000F931F93DF93CF93CDB7DEB7EC970FB63C
:104BF000F894DEBF0FBECDBF9AAF89AF5CAF4BAFAD
:104C0000DB012D913D914D915C9113972DAB3EAB06
:104C10004FAB58AF50962D913D914D915C9153976C
:104C200029AB3AAB4BAB5CAB8DA99EA9AFA9B8AD94
:104C3000821B930BA40BB50B8DA79EA7AFA7B8AB98
:104C4000DB011C962D913D914D915C911F9729A7F9
:104C50003AA74BA75CA754962D913D914D915C913D
:104C600057972DA33EA34FA358A789A59AA5ABA5F7
:104C7000BCA5821B930BA40BB50B89A39AA3ABA372
:104C8000BCA3DB0118962D913D914D915C911B9732
:104C90002D8F3E8F4F8F58A314962D913D914D919E
:104CA0005C911797298F3A8F4B8F5C8F8DA19EA1B6
:104CB000AFA1B8A5821B930BA40BB50B8D8B9E8B5C
:104CC000AF8BB88F2D8D3E8D4F8D58A189A99AA994
:104CD000ABA9BCA9281B390B4A0B5B0B6D897E89DC
:104CE0008F89988D0E94D23D7B018C0169A17AA1A8
:104CF0008BA19CA12DA53EA54FA558A90E94D23DF0
:104D0000E60EF71E081F191FABADBCAD5896ED920D
:104D1000FD920D931C935B97E114F10401051105BD
:104D200019F42FEF3FEFB7C1A9ADBAAD2D913D9169
:104D30004D915C911397298B3A8B4B8B5C8B5096E2
:104D40006D907D908D909C90539759016A01A618A3
:104D5000B708C808D90818962D913D914D915C91DE
:104D60001B972D873E874F87588B19012A012618DC
:104D7000370848085908C201B1012D893E894F8979
:104D8000588D0E94D23D7B018C01C601B50129A13D
:104D90003AA14BA15CA10E94D23DE60EF71E081F6E
:104DA000191FEBADFCADE082F1820283138329A9C8
:104DB0003AA94BA95CA98D8D9E8DAF8DB8A1281BFA
:104DC000390B4A0B5B0B29873A874B875C87CA01F3
:104DD000B901A60195010E94D23D7B018C01C2015F
:104DE000B1012DA53EA54FA558A90E94D23DE60EC2
:104DF000F71E081F191FABADBCAD1496ED92FD92C6
:104E00000D931C931797C401B3012DA93EA94FA977
:104E100058AD0E94D23D7B018C0169897A898B89CA
:104E20009C8929A93AA94BA95CA90E94D23DE61AFE
:104E3000F70A080B190BC801B70129A53AA54BA51C
:104E40005CA50E94D23D5B016C016D857E858F85DE
:104E5000988929A93AA94BA95CA90E94D23D7B0156
:104E60008C01C401B3012D8D3E8D4F8D58A10E9440
:104E7000D23DE61AF70A080B190BC801B701298DB4
:104E80003A8D4B8D5C8D0E94D23DA60EB71EC81E7A
:104E9000D91E69897A898B899C892D8D3E8D4F8D8C
:104EA00058A10E94D23D7B018C016D857E858F8546
:104EB00098892DA93EA94FA958AD0E94D23DE61A66
:104EC000F70A080B190BC801B7012DA13EA14FA18C
:104ED00058A50E94D23DA60EB71EC81ED91EEBAD26
:104EE000FCADA086B186C286D386A9ADBAAD1496B4
:104EF0002D913D914D915C9117972D833E834F836A
:104F0000588754966D907D908D909C90579759013D
:104F10006A01A618B708C808D9081C962D913D91BA
:104F20004D915C911F9729833A834B835C831901D0
:104F30002A012618370848085908C201B1012D89ED
:104F40003E894F89588D0E94D23D7B018C01C6015C
:104F5000B50129A13AA14BA15CA10E94D23DE60E68
:104F6000F71E081F191FEBADFCADE486F58606871A
:104F70001787C601B50129853A854B855C850E9456
:104F8000D23D7B018C01C201B1012DA53EA54FA5EB
:104F900058A90E94D23DE60EF71E081F191FABAD9F
:104FA000BCAD5096ED92FD920D931C935397C401A6
:104FB000B3012DA93EA94FA958AD0E94D23D7B0156
:104FC0008C016D817E818F81988529A93AA94BA991
:104FD0005CA90E94D23DE61AF70A080B190BC8011A
:104FE000B70129A53AA54BA55CA50E94D23D5B015E
:104FF0006C0169817A818B819C8129A93AA94BA98D
:105000005CA90E94D23D7B018C01C401B3012D8DAE
:105010003E8D4F8D58A10E94D23DE61AF70A080B2B
:10502000190BC801B701298D3A8D4B8D5C8D0E94FB
:10503000D23DA60EB71EC81ED91E6D817E818F81FE
:1050400098852D8D3E8D4F8D58A10E94D23D7B01BC
:105050008C0169817A818B819C812DA93EA94FA900
:1050600058AD0E94D23DE61AF70A080B190BC80189
:10507000B7012DA13EA14FA158A50E94D23DA60E79
:10508000B71EC81ED91EEBADFCADA48AB58AC68A70
:10509000D78A20E030E0C901EC960FB6F894DEBF65
:1050A0000FBECDBFCF91DF911F910F91FF90EF9079
:1050B000DF90CF90BF90AF909F908F907F906F9038
:1050C0005F904F903F902F9008952F923F924F9274
:1050D0005F926F927F928F929F92AF92BF92CF9288
:1050E000DF92EF92FF920F931F93CF93DF931C01F8
:1050F0002B01EA01688C798C8A8C9B8C6114710479
:105100008104910411F48FEF5AC0FB016081718119
:1051100082819381288139814A815B810E94D23DBD
:105120007B018C01F201A480B580C680D7802C81E0
:105130003D814E815F81C601B5010E94D23DE60EE0
:10514000F71E081F191F688579858A859B856E0D56
:105150007F1D801F911FA40193010E94473EF10112
:105160002083318342835383F20160817181828184
:1051700093812C853D854E855F850E94D23D7B01C4
:105180008C01288939894A895B89C601B5010E9449
:10519000D23DE60EF71E081F191F6C897D898E8986
:1051A0009F896E0D7F1D801F911FA40193010E9496
:1051B000473EF101248335834683578380E0DF91A6
:1051C000CF911F910F91FF90EF90DF90CF90BF9004
:1051D000AF909F908F907F906F905F904F903F9097
:1051E0002F9008952398259A249A229A219A209AFA
:1051F0002D98000000002D9A289A2C9A8CE58CBDE1
:1052000081E08DBD08952C9884E88EBD0DB407FE15
:10521000FDCF1EBC0DB407FEFDCF1EBC0DB407FEB6
:10522000FDCF1EBC0DB407FEFDCF80E090E02FEF58
:105230002EBD0DB407FEFDCF019632E080319307FD
:10524000B9F72C9A08958F929F92AF92BF92CF9206
:10525000DF92EF92FF920F931F93CF93DF934C0156
:105260007A018B01E901CB01BA0120E132E040E093
:1052700050E00E94253E59016A01C601B50120E1B6
:1052800032E040E050E00E94D23DE61AF70A080BF7
:10529000190B0E9403292C9888E68EBD0DB407FED9
:1052A000FDCFD601C50146E0B695A79597958795A0
:1052B0004A95D1F78EBD0DB407FEFDCFBB27A12FB8
:1052C000902F8F2D2A2D220F220F282B2EBD0DB4AB
:1052D00007FEFDCFEEBC0DB407FEFDCF8FEF8EBDF8
:1052E0000DB407FEFDCF8EB58FEF8EBD0DB407FE5A
:1052F000FDCF8EB58FEF8EBD0DB407FEFDCF8EB501
:105300008FEF8EBD0DB407FEFDCF8EB520E030E0EF
:105310009FEF0CC09EBD0DB407FEFDCF8EB5F4010E
:10532000E20FF31F808300002F5F3F4F2C173D07D4
:1053300088F32C9ADF91CF911F910F91FF90EF90FE
:10534000DF90CF90BF90AF909F908F9008954F9235
:105350005F926F927F928F929F92AF92BF92CF9205
:10536000DF92EF92FF920F931F93DF93CF9300D0C2
:1053700000D0CDB7DEB72B013A01602F0983712F22
:105380001A832B83CC82DD82EE82082F10E000523C
:105390001040822F0E94C92A680133E0CC0CDD1C2A
:1053A0003A95E1F7C01AD10A86E39CE1C80ED91EEE
:1053B00088249924F601849130E0932F5C018201C6
:1053C000EE24FF24C50180789070AA0CBB1C892BA9
:1053D00021F069817A818B8103C06C817D818E810E
:1053E0000E94C92AC801B3010E946C2B0894E11CD9
:1053F000F11C0F5F1F4FF5E0EF16F10419F7089449
:10540000811C911C0894C11CD11C0894611C711C46
:1054100087E08816910471F626960FB6F894DEBFE1
:105420000FBECDBFCF91DF911F910F91FF90EF90F5
:10543000DF90CF90BF90AF909F908F907F906F90B4
:105440005F904F9008956F927F928F929F92AF924C
:10545000BF92CF92DF92EF920F931F93DF93CF9380
:1054600000D000D0CDB7DEB74C015B013A01098313
:105470001A832B83CC82DD82EE8211C00894811CBA
:10548000911CB501A30109811A812B81CC80DD809B
:10549000EE800E94A72986E090E0A80EB91EF401D4
:1054A0008081882359F726960FB6F894DEBF0FBE89
:1054B000CDBFCF91DF911F910F91EF90DF90CF90F3
:1054C000BF90AF909F908F907F906F900895DF93E3
:1054D000CF930F92CDB7DEB78983EBE0F1E0808107
:1054E0008F77808380818B7F8083808180618083C0
:1054F00080818F7D808318B8898182958695877099
:10550000880F880F82B98981880F880F880F809350
:1055100005018081806280838081846080838081B6
:10552000806880830F90CF91DF910895DF93CF93B0
:105530000F920F92CDB7DEB789839A83EBE0F1E04B
:1055400080818068808380818B7F808380818F7D54
:1055500080838981880F880F880F80930501898156
:1055600086958695869582B992B18A818295880FB3
:10557000880F807C892B82B98A8188B9808180627A
:1055800080838081846080830F900F90CF91DF9122
:105590000895DF93CF9300D0CDB7DEB76093440575
:1055A00070934505809346050F900F900F90CF9113
:1055B000DF910895EBE0F1E080818B7F8083808133
:1055C0008068808380818061808380818F7D8083FB
:1055D00080914605809305018091450582B98091AF
:1055E000440588B980818062808380818460808363
:1055F0000895CF92DF92EF92FF920F931F93CF9374
:10560000DF936A017901141615060CF05CC01216BE
:1056100013060CF058C097FF04C0C80ED91E80E0D6
:1056200090E077FF04C0E60EF71E60E070E08C01AA
:1056300021E08034920714F00FE311E0EB01603FAA
:10564000710514F0CFEED0E0C8018C0D9D1D805483
:10565000914034F02FE3C22E21E0D22EC01AD10A9D
:10566000CE018E0D9F1D803F91052CF09FEEE92EFF
:10567000F12CEC1AFD0A85E30E94672AC8010E94FA
:10568000962A86E30E94672AC601800F911F0E9416
:10569000962A87E30E94672AEC0EFD1E9C2F88271E
:1056A0008E299F290E94962A80E20E94672ACE01B5
:1056B0000E94962A81E20E94672AC8010E94962AC7
:1056C00082E20E94672ADF91CF911F910F91FF9094
:1056D000EF90DF90CF9008950F931F93CF93DF93B8
:1056E0008C01EB0181E000341807B4F5603F7105CF
:1056F0009CF517FD31C077FD2FC080E20E94672A1C
:10570000CE0190700E94962A81E20E94672AC80109
:1057100091700E94962A82E20E94672A80910B0172
:105720008B7F80930B0180910B018F7D80930B0108
:1057300080914605809305018091450582B980914D
:10574000440588B980910B01806280930B018091A0
:105750000B01846080930B01DF91CF911F910F911A
:105760000895AF92BF92CF92DF92EF92FF920F9384
:105770001F93FC0181E0E034F8070CF0C2C2603FE7
:1057800071050CF0BEC2141615060CF0BAC2121642
:1057900013060CF0B6C25A01CC24B7FCC094DC2C22
:1057A000CF01AA2797FDA095BA2F8A0D9B1DAC1D8E
:1057B000BD1D80549140A040B0404CF08FE391E07B
:1057C0008E1B9F0B5C01CC24B7FCC094DC2C7901B0
:1057D0000027F7FC0095102FCB01AA2797FDA09575
:1057E000BA2F8E0D9F1DA01FB11F803F9105A105EF
:1057F000B1054CF08FEE90E0861B970B7C010027E3
:10580000F7FC0095102FCF01A50197010E94F92AFE
:1058100080910B018B7F80930B01809146058093D3
:1058200005018091450582B98091440588B9C80178
:10583000B701A60195010E94D23D615F7F4F8F4F56
:105840009F4F9B01AC01E4E055954795379527950F
:10585000EA95D1F76F50704080409040677070704B
:1058600080709070673071058105910509F453C10E
:10587000633071058105910509F4D1C1643071056A
:105880008105910594F4613071058105910509F454
:1058900008C262307105810591050CF0E1C1611506
:1058A00071058105910571F027C26530710581058B
:1058B000910509F472C166307105810591050CF0FE
:1058C0004BC18CC180E280930901809309018093D0
:1058D0000901809309018093090180930901809354
:1058E0000901809309018093090180930901809344
:1058F0000901809309018093090180930901809334
:1059000009018093090180E28093090180930901D4
:105910008093090180930901809309018093090113
:105920008093090180930901809309018093090103
:1059300080930901809309018093090180930901F3
:10594000809309018093090180E28093090180938B
:1059500009018093090180930901809309018093D3
:1059600009018093090180930901809309018093C3
:1059700009018093090180930901809309018093B3
:105980000901809309018093090180E28093090154
:105990008093090180930901809309018093090193
:1059A0008093090180930901809309018093090183
:1059B0008093090180930901809309018093090173
:1059C00080930901809309018093090180E280930B
:1059D0000901809309018093090180930901809353
:1059E0000901809309018093090180930901809343
:1059F0000901809309018093090180930901809333
:105A0000090180930901809309018093090180E2D3
:105A10008093090180930901809309018093090112
:105A20008093090180930901809309018093090102
:105A300080930901809309018093090180930901F2
:105A400080930901809309018093090180930901E2
:105A500080E280930901809309018093090180937A
:105A600009018093090180930901809309018093C2
:105A700009018093090180930901809309018093B2
:105A800009018093090180930901809309018093A2
:105A9000090180E280930901809309018093090143
:105AA0008093090180930901809309018093090182
:105AB0008093090180930901809309018093090172
:105AC0008093090180930901809309018093090162
:105AD0008093090180E280930901809309018093FA
:105AE0000901809309018093090180930901809342
:105AF0000901809309018093090180930901809332
:105B00000901809309018093090180930901809321
:105B100009018093090180E28093090180930901C2
:105B20008093090180930901809309018093090101
:105B300080930901809309018093090180930901F1
:105B400080930901809309018093090180930901E1
:105B5000809309018093090180E280930901809379
:105B600009018093090180930901809309018093C1
:105B700009018093090180930901809309018093B1
:105B800009018093090180930901809309018093A1
:105B90000901809309018093090180E28093090142
:105BA0008093090180930901809309018093090181
:105BB0008093090180930901809309018093090171
:105BC0008093090180930901809309018093090161
:105BD00080930901809309018093090180E28093F9
:105BE0000901809309018093090180930901809341
:105BF0000901809309018093090180930901809331
:105C00000901809309018093090180930901809320
:105C1000090180930901809309018093090180E2C1
:105C20008093090180930901809309018093090100
:105C300080930901809309018093090180930901F0
:105C400080930901809309018093090180930901E0
:105C500080930901809309018093090180930901D0
:105C600080E2809309018093090180930901809368
:105C700009018093090180930901809309018093B0
:105C800009018093090180930901809309018093A0
:105C90000901809309018093090180930901809390
:105CA000090180E280930901809309018093090131
:105CB0008093090180930901809309018093090170
:105CC0008093090180930901809309018093090160
:105CD0008093090180930901809309018093090150
:105CE0008093090121503040404050401216130665
:105CF000140615060CF4E6CD80910B0184608093A8
:105D00000B011F910F91FF90EF90DF90CF90BF900C
:105D1000AF90089580E20E94672A80E090E00E94A0
:105D2000962A81E20E94672A80E090E00E94962AEB
:105D300082E20E94672A80910B018B7F80930B0186
:105D400080914605809305018091450582B9809137
:105D5000440588B920E639E081C080E280930901DA
:105D600080930901809309018093090180930901BF
