:100000000C945B000C9483000C9483000C94B90353
:100010000C9483000C94A7030C9483000C9483002D
:100020000C9483000C9483000C9483000C94830044
:100030000C9483000C9483000C9483000C94830034
:100040000C9431080C9483000C9483000C9483006E
:100050000C9483000C9483000C9483000C94830014
:100060000C9483000C948300000024272A000025B0
:10007000282B000023262904040404040404040299
:100080000202020202030303030303010204081035
:100090002040800102040810200102040810200002
:1000A0000000070002010000030406000000000039
:1000B00000000000AD0611241FBECFEFD4E0DEBF6C
:1000C000CDBF11E0A0E0B1E0ECE4F8E102C00590A2
:1000D0000D92A831B107D9F711E0A8E1B1E001C054
:1000E0001D92A43AB107E1F710E0C6EBD0E004C0DE
:1000F0002297FE010E94200CC43BD107C9F70E9441
:100100002A080C94240C0C94000020E001972FEF97
:100110008F3F9207D9F70895FC0160935C014093EB
:10012000180110821182128213820895FC016093DB
:100130005C0140931801108211821282138208958B
:1001400060931801089560935C01089540911B012C
:10015000442319F42FEF3FEF13C090911C01ECE101
:10016000F1E0242F30E02E0F3F1F02C081818193E8
:10017000E217F307D9F7415040931B01292F30E0D4
:10018000C901089580911B010895EF92FF921F937A
:10019000CF93DF93FC01F62E80819181A281B38100
:1001A0000097A105B10509F445C0F89460E080917D
:1001B00018010E94A1098091190190911A01880FDC
:1001C000991F20E001972FEF8F3F9207D9F711E099
:1001D000C8E0D0E0EF2CFF24812F90E08E219F21FA
:1001E000892B11F061E001C060E0809118010E944C
:1001F000A1098091190190911A01880F991F20E09F
:1002000001972FEF8F3F9207D9F7110F219721F711
:1002100061E0809118010E94A109789480911901F0
:1002200090911A01880F991F20E001972FEF8F3FBF
:100230009207D9F7DF91CF911F91FF90EF9008952A
:100240000E94C50008952F923F924F925F926F9245
:100250007F928F929F92AF92BF92CF92DF92EF9256
:10026000FF920F931F93DF93CF93CDB7DEB7A09785
:100270000FB6F894DEBF0FBECDBF1C016A017B0133
:10028000411551056105710521F460E30E94C50027
:100290004FC0882499245401422E55246624772483
:1002A00001E010E00C0F1D1F080D191DC701B6015C
:1002B000A30192010E94E10BF80160830894811C64
:1002C000911CA11CB11CC701B601A30192010E949F
:1002D000E10BC901DA016C017D01C114D104E10413
:1002E000F104F1F651E0E52EF12CEC0EFD1EE80CC8
:1002F000F91C3E010894611C711CD501C4010197D1
:10030000A109B1096C01C818D9080FC0F601EE0D9A
:10031000FF1D60816A3010F4605D01C0695CC1013D
:100320000E94C5000894E108F1086E147F0471F77B
:10033000A0960FB6F894DEBF0FBECDBFCF91DF9170
:100340001F910F91FF90EF90DF90CF90BF90AF90F3
:100350009F908F907F906F905F904F903F902F90E5
:1003600008952AE00E9423010895AB0160E070E047
:100370000E94B10108950F931F938C016DE00E94BC
:10038000C5006AE0C8010E94C5001F910F91089541
:100390000F931F938C010E94B101C8010E94BB0101
:1003A0001F910F9108950F931F938C010E94C50018
:1003B000C8010E94BB011F910F9108950F931F93D5
:1003C0008C010E94C500C8010E94BB011F910F91C2
:1003D0000895EF92FF920F931F93CF93DF93EC0159
:1003E0007A018B0177FF0BC06DE20E94C50010956A
:1003F0000095F094E094E11CF11C011D111D2AE010
:10040000B801A701CE010E942301DF91CF911F9176
:100410000F91FF90EF9008950F931F938C010E940E
:10042000E901C8010E94BB011F910F910895AB0122
:10043000662757FD6095762F0E94E90108950F9376
:100440001F938C01AB01662757FD6095762F0E94A4
:10045000E901C8010E94BB011F910F910895211568
:10046000310521F4642F0E94C50008952A3031051A
:1004700019F40E94E90108950E94230108950F9341
:100480001F938C010E942F02C8010E94BB011F9183
:100490000F9108950F931F93CF93DF938C01EB017E
:1004A00004C02196C8010E94C50068816623C9F76F
:1004B000DF91CF911F910F9108950F931F938C019E
:1004C0000E944A02C8010E94BB011F910F9108952A
:1004D000CF92DF92EF92FF920F931F938C016A01EC
:1004E0007B0161E0809118010E94830961E08091A5
:1004F00018010E94A10960E080915C010E948309BB
:1005000061E080915C010E94A109F801C082D18262
:10051000E282F382F0E0CF16FBE4DF06F0E0EF06C4
:10052000F0E0FF0609F466C081E0C8168BE4D80647
:1005300080E0E80680E0F806FCF4E0ECCE16E2E1AC
:10054000DE06E0E0EE06E0E0FE0609F459C0F0E861
:10055000CF16F5E2DF06F0E0EF06F0E0FF0609F463
:100560004CC080E6C81689E0D80680E0E80680E046
:10057000F80609F04BC047C0E0E0CE16E6E9DE061B
:10058000E0E0EE06E0E0FE0679F1F1E0CF16F6E9F4
:10059000DF06F0E0EF06F0E0FF0654F482E1C81653
:1005A0008AE7D80680E0E80680E0F80679F51FC003
:1005B000E0E0CE16E1EEDE06E0E0EE06E0E0FE066C
:1005C00061F0F0E0CF16F2ECDF06F1E0EF06F0E0CC
:1005D000FF06E1F484E090E002C08EE090E09093AA
:1005E0001A018093190116C088E190E0F8CF8FE1DD
:1005F00090E0F5CF86E390E0F2CF81E790E0EFCF97
:1006000088EE90E0ECCF86ED91E0E9CF10921A01F0
:100610001092190190915C01983090F480916D00D6
:1006200021E030E002C0220F331F9A95E2F7822BBF
:1006300080936D008091680084608093680017C08B
:100640009E30A8F48091680081608093680040919A
:100650006B00292F30E02850304081E090E002C04C
:10066000880F991F2A95E2F7482B40936B008091E1
:10067000190190911A01880F991F20E001972FEF1F
:100680008F3F9207D9F71F910F91FF90EF90DF9066
:10069000CF900895EF92FF920F931F93CF93DF9324
:1006A00080915C010E94EC09892B09F049C080917E
:1006B000190190911A01089720E001972FEF8F3FC1
:1006C0009207D9F710E0C0E0D0E000E0F1E0EF2EB3
:1006D000F12C8091190190911A010397880F991FAD
:1006E000202F01972FEF8F3F9207D9F780915C0160
:1006F0000E94EC09892B41F0C7010C2E02C0880F23
:10070000991F0A94E2F7182B2196C830D10509F7F2
:100710008091190190911A01880F991F20E001978B
:100720002FEF8F3F9207D9F780911B01803440F45F
:10073000E82FF0E0E45EFE4F10838F5F80931B0193
:10074000DF91CF911F910F91FF90EF9008951F922D
:100750000F920FB60F9211248F9380915C01883015
:1007600010F40E944A038F910F900FBE0F901F90BC
:1007700018951F920F920FB60F9211248F938091AC
:100780005C018850863010F40E944A038F910F90CC
:100790000FBE0F901F9018950895EF92FF920F9340
:1007A0001F932AE731E040E050E00E94C20B28EEA0
:1007B00033E040E050E00E94030C79018A018CEFA5
:1007C0009FEFAFEFBFEFE80EF91E0A1F1B1FB70127
:1007D000C8011F910F91FF90EF9008959B01AC010C
:1007E000693C7105810591050CF45BC0DC01CB010E
:1007F000895C9040A040B04083379105A105B105C8
:1008000068F4CA01B90125E230E040E050E00E94FE
:10081000C20B6A557D4E8F4F9F4F47C0DA01C90109
:100820008C539140A040B040823A9105A105B1059A
:1008300068F4CA01B9012CE130E040E050E00E94C8
:10084000C20B6652744E8F4F9F4F2FC0DA01C90101
:100850008E5D9140A040B04089539140A040B0408F
:1008600090F4CA01B901E5E0660F771F881F991F50
:10087000EA95D1F7620F731F841F951F6951724F5C
:100880008F4F9F4F12C0273183E0380780E0480721
:1008900080E058072CF06FE077E280E090E005C040
:1008A00006C060E070E080E090E09B01482FB90155
:1008B000842F089524E630E040E050E00E94C20B0F
:1008C0009B01AC01243C62E2360760E0460760E031
:1008D00056070CF4B6C1213087E7380781E0480796
:1008E00080E058072CF080E090E0A0E0B0E0ADC1DF
:1008F000DA01C90186529C46A140B0408B5D9A4006
:10090000A040B04088F4CA01B9012AE030E040E0DC
:1009100050E00E94C20B6A5D7F478F40904024E503
:100920003FEF4FEF5FEF87C1DA01C9018B509E4562
:10093000A140B0408B519E40A040B04088F4CA0115
:10094000B9012AE030E040E050E00E94C20B6A5555
:10095000764E8F4090402EE13FEF4FEF5FEF6BC13F
:10096000DA01C90186589C44A140B04085589141A4
:10097000A040B04088F4CA01B9012AE030E040E06C
:1009800050E00E94C20B645870478041904028EEAE
:100990003EEF4FEF5FEF4FC1DA01C901845295433B
:1009A000A140B04082569741A040B04088F4CA01AF
:1009B000B9012AE030E040E050E00E94C20B6055EF
:1009C00071428141904021EB3EEF4FEF5FEF33C129
:1009D000DA01C90180599441A140B0408459904244
:1009E000A040B04088F4CA01B9012AE030E040E0FC
:1009F00050E00E94C20B6854714F814190402CE737
:100A00003EEF4FEF5FEF17C1DA01C9018750944FF6
:100A1000A040B04089589042A040B04088F4CA013C
:100A2000B9012AE030E040E050E00E94C20B6A5C6D
:100A30007748824190402BE53EEF4FEF5FEFFBC0E0
:100A4000DA01C9018F5E9F4CA040B04088519442AA
:100A5000A040B04088F4CA01B9012AE030E040E08B
:100A600050E00E94C20B665F7B4A8241904024E5C1
:100A70003EEF4FEF5FEFDFC0DA01C9018C5B9A4AAE
:100A8000A040B04083539542A040B04088F4CA01D2
:100A9000B9012AE030E040E050E00E94C20B6E5CF9
:100AA0007A41824190402BE63EEF4FEF5FEFC3C0AB
:100AB000DA01C90188579E48A040B04084549C4147
:100AC000A040B04088F4CA01B9012AE030E040E01B
:100AD00050E00E94C20B62597D4F8041904022E954
:100AE0003EEF4FEF5FEFA7C0DA01C9018E5D974778
:100AF000A040B0408A599641A040B04088F4CA0155
:100B0000B9012AE030E040E050E00E94C20B60579B
:100B100079498F4090402FEB3EEF4FEF5FEF8BC056
:100B2000DA01C901815E9046A040B0408D5F9641D8
:100B3000A040B04088F4CA01B9012AE030E040E0AA
:100B400050E00E94C20B6C5972468140904022EFE7
:100B50003EEF4FEF5FEF6FC0DA01C90181529E4453
:100B6000A040B040805C9241A040B04088F4CA01EF
:100B7000B9012AE030E040E050E00E94C20B665527
:100B80007D4F8B40904024E23FEF4FEF5FEF53C02B
:100B9000DA01C9018C5E9D43A040B040855390416D
:100BA000A040B04088F4CA01B9012AE030E040E03A
:100BB00050E00E94C20B6E5E75428A40904021E573
:100BC0003FEF4FEF5FEF37C0DA01C9018D5590431A
:100BD000A040B0408F589D40A040B04088F4CA016A
:100BE000B9012AE030E040E050E00E94C20B6852B8
:100BF00070478840904027E73FEF4FEF5FEF1BC003
:100C0000DA01C9018E579342A040B0408F5D9C40ED
:100C1000A040B040A8F4CA01B9012AE030E040E0A9
:100C200050E00E94C20B605F7E458640904022EA01
:100C30003FEF4FEF5FEF0E94030CC901DA0105C0DF
:100C400007C08FE097E2A0E0B0E0BC012A2F9B2F05
:100C5000822F08959C011816190684F4809165016D
:100C60009091660182179307DCF43093660120931C
:100C70006501109268011092670112C0009781F01F
:100C80008091630190916401281739074CF43093E7
:100C900064012093630110926A0110926901089522
:100CA0008091670190916801449744F01092680127
:100CB000109267011092660110926501809169019E
:100CC00090916A01449744F010926A011092690170
:100CD00010926401109263010895CF93DF93C1E0F5
:100CE000D0E00BC02AE030E040E050E00E94030C6E
:100CF000C901DA01BC01CD0121966A307105810577
:100D0000910584F797FD2196CE01DF91CF9108954B
:100D1000EF92FF920F931F93F1E0EF2EF12C012D34
:100D2000112D0FC02AE030E040E050E00E94030C9B
:100D3000C901DA01BC01CD010894E11CF11C011DBF
:100D4000111D6A3071058105910564F7B701C8016D
:100D50001F910F91FF90EF90089542E063E08DE5C1
:100D600091E00E9496000895CF93DF93853091051E
:100D700029F4C0910801D09109010AC0833091057E
:100D800019F0C0E0D2E004C0C0910A01D0910B017B
:100D90000E941109C81BD90BBE01882777FD8095D9
:100DA000982F0E94D30A20E030E04EE153E40E94E5
:100DB000380A20E030E048EC52E40E945F0B0E94C9
:100DC000A00ACB01DF91CF91089561E080910F01DE
:100DD0000E94A10988E995E00E94C60860E0809120
:100DE0000F010E94A10988E995E00E94C6080895B4
:100DF00061E080910D010E94A10968EB7BE080E039
:100E000090E00E949C0860E080910D010E94A10981
:100E10000895EF92FF920F931F93DDC08DE591E04F
:100E20000E94A6008234910509F5609173017091CA
:100E30007401882777FD8095982F2AE731E040E0FC
:100E400050E00E94C20B28EE33E040E050E00E94E8
:100E5000030C245030404040504030939101209387
:100E60009001B9018DE591E00E9417028DE591E0B6
:100E70000E94A6008F34910591F460911501709144
:100E80001601882777FD8095982F0E94EE037093B6
:100E90009301609392018DE591E00E9417028DE528
:100EA00091E00E94A6008634910509F069C0609126
:100EB000730170917401882777FD8095982F2AE738
:100EC00031E040E050E00E94C20B28EE33E040E009
:100ED00050E00E94030C79018A018CEF9FEFAFEF85
:100EE000BFEFE80EF91E0A1F1B1FF0929101E0925E
:100EF00090016091150170911601882777FD80950A
:100F0000982F0E94EE037093930160939201609179
:100F1000110170911201882777FD8095982F0E940A
:100F20005A0470939501609394016091130170913C
:100F30001401882777FD8095982F0E945A0470939A
:100F4000970160939601B7018DE591E00E94170229
:100F500060919201709193018DE591E00E941702DA
:100F600060919401709195018DE591E00E941702C6
:100F700060919601709197018DE591E00E941702B2
:100F80008DE591E00E94A6008835910521F58091BC
:100F90000401909105010E94B406909399018093F9
:100FA000980180910601909107010E94B4069093E8
:100FB0009B0180939A0160919801709199018DE550
:100FC00091E00E94170260919A0170919B018DE55A
:100FD00091E00E9417028DE591E00E94A600813405
:100FE000910509F01BCF1F910F91FF90EF9008958D
:100FF00040E855E260E070E08DE591E00E94680213
:101000008DE591E00E94A60085359105C9F761E064
:1010100080910F010E948309809106010E941109AD
:101020009C01895C90408755924028F430930901D7
:101030002093080106C080E092E09093090180931C
:101040000801809104010E94110990930B01809383
:101050000A0108950E94D4080E94F8070E94090717
:10106000FDCF1F920F920FB60F9211242F938F93E3
:101070009F93AF93BF9380919C0190919D01A0910C
:101080009E01B0919F018050904CAF4FBF4F809315
:101090009C0190939D01A0939E01B0939F0127C056
:1010A00080919C0190919D01A0919E01B0919F0122
:1010B00080589E43A040B04080939C0190939D0136
:1010C000A0939E01B0939F018091A0019091A101F6
:1010D000A091A201B091A3010196A11DB11D809321
:1010E000A0019093A101A093A201B093A3018091CC
:1010F0009C0190919D01A0919E01B0919F0181580A
:101100009E43A040B04060F6BF91AF919F918F91F8
:101110002F910F900FBE0F901F9018958FB7F894D6
:101120002091A0013091A1014091A2015091A30111
:101130008FBFB901CA010895EF92FF920F931F93D9
:101140007B018C018FB7F8944091A0015091A101CF
:101150006091A2017091A3018FBF2FB7F894809185
:10116000A0019091A101A091A201B091A3012FBF74
:10117000841B950BA60BB70B8E159F05A007B10717
:1011800060F31F910F91FF90EF900895019759F030
:10119000FC01EE0FFF1FEE0FFF1F32978FB7F89481
:1011A0003197F1F78FBF0895789484B5826084BD3C
:1011B00084B5816084BD85B5826085BD85B581605B
:1011C00085BDEEE6F0E0808181608083E1E8F0E0BB
:1011D000808182608083808181608083E0E8F0E0AC
:1011E000808181608083E1EBF0E080818460808396
:1011F000E0EBF0E0808181608083EAE7F0E08081CD
:10120000846080838081826080838081816080832C
:101210008081806880831092C100089580931701B7
:1012200008958F70909117019295990F990F907C66
:10123000982B90937C0080917A00806480937A0050
:1012400080917A0086FDFCCF209178004091790052
:10125000942F80E030E0282B392BC90108951F938B
:10126000CF93DF93182FEB0161E00E948309E12FF8
:10127000F0E0E156FF4F8491833051F4809180007B
:10128000806880938000D0938900C093880037C025
:10129000843051F480918000806280938000D093EC
:1012A0008B00C0938A002BC0813029F484B58068FC
:1012B00084BDC7BD24C0823029F484B5806284BD5A
:1012C000C8BD1DC0863041F48091B0008068809315
:1012D000B000C093B30013C0873041F48091B000D8
:1012E00080628093B000C093B40009C0C038D105BB
:1012F00014F460E001C061E0812F0E94A109DF9138
:10130000CF911F910895282F30E0C90185579F4F35
:10131000FC01949129583F4FF9018491882381F071
:10132000E82FF0E0E859FF4FE491F0E0662329F45C
:10133000808190958923808308958081892B808383
:101340000895482F50E0CA0181569F4FFC01249117
:10135000CA0185579F4FFC01949149585F4FFA018C
:1013600034913323C1F1222331F1233021F48091D0
:1013700080008F7705C0243031F4809180008F7D0C
:101380008093800018C0213019F484B58F7704C091
:10139000223021F484B58F7D84BD0DC0263021F428
:1013A0008091B0008F7705C0273029F48091B0007C
:1013B0008F7D8093B000E32FF0E0E359FF4FE4917D
:1013C000F0E0662329F48081909589238083089535
:1013D0008081892B80830895482F50E0CA0181566F
:1013E0009F4FFC012491CA0185579F4FFC019491A6
:1013F00049585F4FFA013491332319F420E030E06B
:1014000035C0222331F1233021F4809180008F7781
:1014100005C0243031F4809180008F7D809380005E
:1014200018C0213019F484B58F7704C0223021F41C
:1014300084B58F7D84BD0DC0263021F48091B0002D
:101440008F7705C0273029F48091B0008F7D80937D
:10145000B000E32FF0E0EE58FF4FE491F0E0808120
:1014600020E030E0892311F021E030E0C901089547
:101470000CD0EBC0E3D040F0DAD030F021F45F3F85
:1014800019F0CCC0511115C1CFC0F0D098F39923F9
:10149000C9F35523B1F3951B550BBB27AA27621738
:1014A0007307840738F09F5F5F4F220F331F441F7D
:1014B000AA1FA9F333D00E2E3AF0E0E830D09150B5
:1014C0005040E695001CCAF729D0FE2F27D0660FA2
:1014D000771F881FBB1F261737074807AB07B0E8E1
:1014E00009F0BB0B802DBF01FF2793585F4F2AF0F7
:1014F0009E3F510568F092C0DCC05F3FECF3983E20
:10150000DCF3869577956795B795F7959F5FC9F753
:10151000880F911D9695879597F90895E1E0660FDC
:10152000771F881FBB1F621773078407BA0720F055
:10153000621B730B840BBA0BEE1F88F7E0950895BE
:1015400004D06894B111B5C0089598D088F09F5721
:1015500090F0B92F9927B751A0F0D1F0660F771FFF
:10156000881F991F1AF0BA95C9F712C0B13081F0DF
:101570009FD0B1E008959CC0672F782F8827B85F6F
:1015800039F0B93FCCF3869577956795B395D9F740
:101590003EF490958095709561957F4F8F4F9F4F4A
:1015A0000895E89409C097FB3EF490958095709556
:1015B00061957F4F8F4F9F4F9923A9F0F92F96E99F
:1015C000BB279395F695879577956795B795F11114
:1015D000F8CFFAF4BB0F11F460FF1BC06F5F7F4FB1
:1015E0008F4F9F4F16C0882311F096E911C07723C3
:1015F00021F09EE8872F762F05C0662371F096E8CC
:10160000862F70E060E02AF09A95660F771F881F9A
:10161000DAF7880F9695879597F9089597F99F6758
:1016200080E870E060E008959FEF80EC089500246A
:101630000A941616170618060906089500240A9437
:1016400012161306140605060895092E0394000CBD
:1016500011F4882352F0BB0F40F4BF2B11F460FF4C
:1016600004C06F5F7F4F8F4F9F4F089557FD905875
:10167000440F551F59F05F3F71F04795880F97FB56
:10168000991F61F09F3F79F0879508951216130610
:101690001406551FF2CF4695F1DF08C0161617063F
:1016A0001806991FF1CF8695710561050894089574
:1016B000E894BB2766277727CB0197F908950BD0CD
:1016C000C4CFB5DF28F0BADF18F0952309F0A6CF14
:1016D000ABCF1124EECFCADFA0F3959FD1F3950FC6
:1016E00050E0551F629FF001729FBB27F00DB11DA6
:1016F000639FAA27F00DB11DAA1F649F6627B00D36
:10170000A11D661F829F2227B00DA11D621F739F1E
:10171000B00DA11D621F839FA00D611D221F749F2C
:101720003327A00D611D231F849F600D211D822F73
:10173000762F6A2F11249F5750408AF0E1F08823BA
:101740004AF0EE0FFF1FBB1F661F771F881F9150C7
:101750005040A9F79E3F510570F060CFAACF5F3F80
:10176000ECF3983EDCF3869577956795B795F795FA
:10177000E7959F5FC1F7FE2B880F911D9695879582
:1017800097F90895629FD001739FF001829FE00D49
:10179000F11D649FE00DF11D929FF00D839FF00DF0
:1017A000749FF00D659FF00D9927729FB00DE11D9C
:1017B000F91F639FB00DE11DF91FBD01CF01112479
:1017C0000895A1E21A2EAA1BBB1BFD010DC0AA1F82
:1017D000BB1FEE1FFF1FA217B307E407F50720F09A
:1017E000A21BB30BE40BF50B661F771F881F991F15
:1017F0001A9469F760957095809590959B01AC015E
:10180000BD01CF01089597FB092E05260ED057FD87
:1018100004D0D7DF0AD0001C38F45095409530959D
:1018200021953F4F4F4F5F4F0895F6F79095809564
:10183000709561957F4F8F4F9F4F0895EE0FFF1F5B
:0C1840000590F491E02D0994F894FFCF7E
:10184C000400050004000500000200024F0B000913
:08185C0000020003000100017D
:00000001FF
