:100000000C9435000C945B000C945B000C945B002A
:100010000C945B000C945B000C945B000C945B00F4
:100020000C945B000C945B000C945B000C945B00E4
:100030000C945B000C945B000C945B000C945B00D4
:100040000C94D8010C945B000C9400030C945B009E
:100050000C945B000C945B000C945B000C945B00B4
:100060000C945B000C945B00D70111241FBECFEFF2
:10007000D4E0DEBFCDBF11E0A0E0B1E0E8EFF8E0F2
:1000800002C005900D92A832B107D9F711E0A8E29D
:10009000B1E001C01D92A23CB107E1F710E0CAE651
:1000A000D0E004C02297FE010E947804C836D10730
:1000B000C9F70C94FC000C9400000F931F9309E304
:1000C00011E040E855E260E070E0C8010E940901DB
:1000D00062E071E0C8010E941C0120E030E04DE0C8
:1000E00050E060E070E0C8010E94A80160E177E2A2
:1000F00080E090E00E9415021F910F910895EF9209
:10010000FF920F931F9309E311E066E071E0C801CD
:100110000E941C016091000170910101C8010E94C0
:10012000C3018EE0E82E81E0F82EB701C8010E94DD
:100130001C0120E030E04DE050E060E070E0C801DC
:100140000E94A80168EE73E080E090E00E94150232
:1001500063E171E0C8010E941C0166E070E0C80123
:100160000E94C30120E030E04DE050E060E070E02C
:10017000C8010E94A80168E171E0C8010E941C0149
:1001800020E030E04DE050E060E070E0C8010E9407
:10019000A80168EE73E080E090E00E9415026FE134
:1001A00071E0C8010E941C01609100017091010181
:1001B000C8010E94C301B701C8010E941C0120E0D0
:1001C00030E04DE050E060E070E0C8010E94A8011E
:1001D000809100019091010101969093010180931B
:1001E000000160E177E280E090E00E9415021F913B
:1001F0000F91FF90EF900895CFEFD4E0DEBFCDBF19
:100200000E9444020E945D000E947F00FDCF08957D
:100210000895CB01BA010E94860208950E94C70288
:10022000992708950E94D80208950E94F702089520
:10023000862F0E943E030895CB010E944503089536
:10024000862F0E943E0308950F931F938C016DE04B
:100250000E9418016AE0C8010E9418011F910F91C5
:1002600008950F931F938C010E941801C8010E94EA
:1002700024011F910F9108950F931F938C010E94E9
:100280001C01C8010E9424011F910F9108950F9332
:100290001F938C010E942001C8010E9424011F911C
:1002A0000F910895CB01BA013327442755270E94A7
:1002B000520308952AE00E94520108950F931F935C
:1002C0008C010E945A01C8010E9424011F910F91C4
:1002D0000895AB01662777270E945A0108950F936E
:1002E0001F938C010E946901C8010E9424011F9183
:1002F0000F910895EF92FF920F931F93CF93DF9387
:10030000EC017A018B0177FF0BC06DE20E941801AE
:1003100010950095F094E094E11CF11C011D111D55
:100320002AE0B801A701CE010E945201DF91CF91CE
:100330001F910F91FF90EF9008950F931F938C01E1
:100340000E947A01C8010E9424011F910F91089513
:100350002115310521F4642F0E94180108952A30D7
:10036000310519F40E947A0108950E9452010895FE
:100370000F931F938C010E94A801C8010E942401C1
:100380001F910F910895AB01662757FD6095762F59
:100390000E947A0108950F931F938C010E94C3015C
:1003A000C8010E9424011F910F9108950895089596
:1003B0001F920F920FB60F9211248F939F93AF93BA
:1003C000BF9380913E0190913F01A0914001B09177
:1003D00041010196A11DB11D80933E0190933F0103
:1003E000A0934001B0934101BF91AF919F918F9134
:1003F0000F900FBE0F901F90189560913E01709165
:100400003F01809140019091410127E0660F771FE5
:10041000881F991F2A95D1F72DE730E040E050E082
:100420000E942504CA01B9010895AF92BF92CF92EC
:10043000DF92EF92FF920F931F935B016C010E947A
:10044000FD017B018C010E94FD016E197F09800B6B
:10045000910B6A157B058C059D05A8F31F910F91E3
:10046000FF90EF90DF90CF90BF90AF9008950197ED
:1004700051F0880F991F880F991F02972FB7F89492
:100480000197F1F72FBF0895789410923E011092D2
:100490003F01109240011092410184B5826084BDF9
:1004A00084B5816084BD85B5826085BD85B5816078
:1004B00085BDEEE6F0E0808181608083E1E8F0E0D8
:1004C000808182608083808181608083E0E8F0E0C9
:1004D000808181608083E1EBF0E0808184608083B3
:1004E000E0EBF0E0808181608083EAE7F0E08081EA
:1004F000846080838081826080838081816080834A
:100500008081806880831092C1000895EF92FF92ED
:100510000F931F937B018C0122E030E040E050E01C
:100520000E944704205C3D4B404F5F4FCA01B90118
:10053000A80197010E94470421503040404050409C
:10054000BB2757FDBA95A52F942F832F2F5F3F4FC1
:100550004F4F5F4F8093C50021502093C400E1ECC2
:10056000F0E08081806180838081886080838081E9
:10057000806880831F910F91FF90EF900895982FCE
:100580008091C00085FFFCCF9093C60008958091B4
:100590003C0190913D0120913A0130913B01821B39
:1005A000930B80589F4F60E870E00E9412040895FA
:1005B00040913A0150913B0180913C0190913D0165
:1005C0008417950719F48FEF9FEF0895FA01EE5BFA
:1005D000FE4F2081CA01019660E870E00E9412047B
:1005E00090933B0180933A01822F9927089580913F
:1005F0003A0190913B0190933D0180933C01089515
:100600001F920F920FB60F9211242F933F934F9387
:100610005F936F937F938F939F93AF93BF93EF936A
:10062000FF934091C600E0913C01F0913D01CF0164
:10063000019660E870E00E9412049C0180913A01EA
:1006400090913B012817390739F0EE5BFE4F40834C
:1006500030933D0120933C01FF91EF91BF91AF9109
:100660009F918F917F916F915F914F913F912F91CA
:100670000F900FBE0F901F90189508950E94BF0213
:1006800008958AE00E943E030895CF93DF93EC0122
:1006900003C021960E943E0388818823D1F7DF9111
:1006A000CF9108952F923F924F925F926F927F92D7
:1006B0008F929F92AF92BF92CF92DF92EF92FF9272
:1006C0000F931F93CF93DF93CDB7DEB7A0970FB6ED
:1006D000F894DEBF0FBECDBF6B017C0119012A016A
:1006E000611571058105910521F480E30E943E03A7
:1006F0004BC06624772443015E010894A11CB11C01
:100700008501060D171DC701B601A20191010E94C6
:100710002504F80160830894611C711C811C911CE4
:10072000C701B601A20191010E94250469017A0165
:10073000211531054105510519F773010894E108A8
:10074000F108EA0CFB1CAA24BB24650111C0F701C7
:1007500080818A3010F4805D01C0895C0E943E0374
:100760000894A108B108C108D1080894E108F1086B
:1007700088279927DC0186199709A809B909A816BD
:10078000B906CA06DB0619F7A0960FB6F894DEBFC5
:100790000FBECDBFDF91CF911F910F91FF90EF90D2
:1007A000DF90CF90BF90AF909F908F907F906F9091
:1007B0005F904F903F902F900895EF92FF920F938C
:1007C0001F937B018C0197FF0BC08DE20E943E03BB
:1007D00010950095F094E094E11CF11C011D111D91
:1007E0002AE030E040E050E0C801B7010E94520327
:1007F0001F910F91FF90EF90089520E130E040E0CD
:1008000050E00E945203089528E030E040E050E0BC
:100810000E945203089522E030E040E050E00E9440
:100820005203089597FB092E07260AD077FD04D0BE
:1008300049D006D000201AF4709561957F4F089535
:10084000F6F7909581959F4F0895A1E21A2EAA1B65
:10085000BB1BFD010DC0AA1FBB1FEE1FFF1FA21770
:10086000B307E407F50720F0A21BB30BE40BF50B6D
:10087000661F771F881F991F1A9469F760957095F6
:10088000809590959B01AC01BD01CF01089597FB28
:10089000092E05260ED057FD04D0D7DF0AD0001C44
:1008A00038F450954095309521953F4F4F4F5F4F0D
:1008B0000895F6F790958095709561957F4F8F4FCD
:1008C0009F4F0895AA1BBB1B51E107C0AA1FBB1F66
:1008D000A617B70710F0A61BB70B881F991F5A95CC
:1008E000A9F780959095BC01CD010895EE0FFF1FEB
:0808F0000590F491E02D09943C
:1008F8000100495041004F5057204C4F47002E549B
:1009080058540057524620003132333435360043AC
:080918004C46204C4F47000043
:00000001FF
