:100000000C945B000C9481000C9481000C94810092
:100010000C9481000C9481000C9481000C9481005C
:100020000C9481000C9481000C9481000C9481004C
:100030000C9481000C9481000C9481000C9481003C
:100040000C948B0D0C9481000C94DA0F0C948100AD
:100050000C9481000C9481000C9481000C9481001C
:100060000C9481000C9481008A0D000000070002AE
:10007000010000030406000000000000000001026F
:100080000408102040800102040810200102040826
:100090001020040404040404040402020202020204
:1000A0000303030303030000232629000025282B54
:1000B000000024272A0011241FBECFEFD4E0DEBFAA
:1000C000CDBF11E0A0E0B1E0E0EFF4E202C00590A6
:1000D0000D92A83AB107D9F712E0A8EAB1E001C041
:1000E0001D92AB36B107E1F710E0CAE6D0E004C0DC
:1000F0002297FE010E947412C836D107C9F70C94EA
:10010000AF0C0C94000061E0809106010E94AE0EDD
:1001100040E855E260E070E082EE91E00E94BC0CA5
:1001200020E030E04EEF50E060E070E082EE91E0E1
:100130000E945B0D20E030E040E850E060E070E0BD
:1001400082EE91E00E945B0D68E171E082EE91E049
:100150000E94CF0C20E030E04EEF50E060E070E015
:1001600082EE91E00E945B0D20E030E040EC50E038
:1001700060E070E082EE91E00E945B0D61E271E070
:1001800082EE91E00E94CF0C68EE73E080E090E098
:100190000E94C80D20E030E04CE750E060E070E0E5
:1001A00082EE91E00E945B0D20E030E04DE950E0EE
:1001B00060E070E082EE91E00E945B0D68EE73E01B
:1001C00080E090E00E94C80D809114010E943C0ED6
:1001D0009C01895C90408755924028F4309313012C
:1001E0002093120106C080E092E090931301809367
:1001F0001201809116010E943C0E90931101809390
:10020000100160E080910C010E94AE0E60E08091D0
:100210000A010E94AE0E20E030E04EEF50E060E0B8
:1002200070E082EE91E00E945B0D20E030E041E062
:1002300050E060E070E082EE91E00E945B0D089576
:10024000CF93DF938530910529F4C0911201D091AD
:1002500013010AC08330910519F0C0E0D2E004C058
:10026000C0911001D09111010E943C0EC81BD90B06
:10027000BE01882777FD8095982F0E944F1120E0BE
:1002800030E04EE153E40E94EC1020E030E048EC16
:1002900052E40E94A7110E943211DC01CB01DF91D0
:1002A000CF9108959C011816190684F48091DD0100
:1002B0009091DE0182179307DCF43093DE012093E6
:1002C000DD011092DC011092DB0112C0892B81F05C
:1002D0008091DF019091E001281739074CF43093A9
:1002E000E0012093DF011092DA011092D901089504
:1002F0008091DB019091DC01449744F01092DC0185
:100300001092DB011092DE011092DD018091D90183
:100310009091DA01449744F01092DA011092D901D9
:100320001092E0011092DF010895EF92FF920F9377
:100330001F93CF93DF93EC0197FF0BC060E170E058
:100340000E940E127B018B01085F1F4FC1E0D0E0BD
:1003500036C069E271E082EE91E00E94CF0CCE01DE
:1003600060E170E00E940E128B01C1E0D0E00BC092
:1003700020E030E04FEF50E060E070E082EE91E08E
:100380000E945B0D21960C171D0794F7C1E0D0E089
:1003900007C062E371E082EE91E00E94CF0C2196EB
:1003A00088E090E0801B910B8C179D0794F729C083
:1003B00062E371E082EE91E00E94CF0C21960C176F
:1003C0001D07B4F7C1E0D0E00BC020E030E04FEFF4
:1003D00050E060E070E082EE91E00E945B0D2196BB
:1003E000882799278E199F098C179D0774F7C8E0F5
:1003F000D0E062E371E082EE91E00E94CF0C2197A1
:10040000C1F720E030E04EEF50E060E070E082EEB7
:1004100091E00E945B0D20E030E040E850E060E0B9
:1004200070E082EE91E00E945B0D8091DF0190917F
:10043000E001815F9F4FBCF520E030E04EEF50E0DF
:1004400060E070E082EE91E00E945B0D8091DF0140
:100450009091E0018031910554F024E095958795C5
:100460002A95E1F768E870E0681B790B06C060E147
:1004700070E00E940E1268577F4FCB01AC016627D7
:1004800057FD6095762F20E030E082EE91E00E94EB
:100490005B0D20E030E04FEF50E060E070E082EE76
:1004A00091E00E945B0D8091DD019091DE0140970B
:1004B0004CF120E030E04EEF50E060E070E082EE82
:1004C00091E00E945B0D8091DD019091DE0160E181
:1004D00070E00E940E12AB0148575F4F662757FD30
:1004E0006095762F20E030E082EE91E00E945B0D77
:1004F00020E030E04FEF50E060E070E082EE91E00D
:100500000E945B0DDF91CF911F910F91FF90EF90B3
:100510000895CF92DF92EF92FF920F931F938C0179
:100520006B0132EEE32E31E0F32E20E030E04EEFAF
:1005300050E060E070E0C7010E945B0D20E030E019
:1005400041E050E060E070E0C7010E945B0D20E0F8
:1005500030E04EEF50E060E070E0C7010E945B0DBC
:1005600020E030E040E850E060E070E0C7010E9429
:100570005B0DB801C7010E94CF0C20E030E04EEFC8
:1005800050E060E070E0C7010E945B0D20E030E0C9
:1005900040EC50E060E070E0C7010E945B0DB601E6
:1005A000C7010E94CF0C68EE73E080E090E00E94EB
:1005B000C80D20E030E04EEF50E060E070E0C70191
:1005C0000E945B0D20E030E041E050E060E070E030
:1005D000C7010E945B0D1F910F91FF90EF90DF907C
:1005E000CF900895EF92FF920F931F93CF93DF93D5
:1005F00064E371E080E491E00E94890280910C0143
:100600000E94CC0E892B09F0F3C0F8CF0E94B00DE8
:100610006093D5017093D6018093D7019093D80150
:1006200062E370E080E090E00E94C80D8091C90113
:100630009091CA01892BB1F520E030E04EEF50E0F7
:1006400060E070E082EE91E00E945B0D20E030E01F
:1006500040EC50E060E070E082EE91E00E945B0DC3
:1006600068E471E082EE91E00E94CF0C80910A0173
:100670000E94CC0E892BB1F480910A010E94CC0E0D
:10068000892BD1F381E090E09093CA018093C90156
:100690000E94B00D6093CD017093CE018093CF0185
:1006A0009093D0018091C9019091CA01019709F0FE
:1006B00049C00E94B00D2091CD013091CE014091F2
:1006C000CF015091D001621B730B840B950B60938B
:1006D000D1017093D2018093D3019093D401809182
:1006E0000A010E94CC0E892B69F50E94B00DEB0126
:1006F00023C00E94B00D9E01442737FD4095542F22
:10070000621B730B840B950B6858734180409040BB
:1007100068F01092D1011092D2011092D301109280
:10072000D4011092CA011092C90106C082E090E083
:100730009093CA018093C90180910A010E94CC0E56
:10074000892BB9F28091C9019091CA01029709F0F1
:1007500049C080910A010E94CC0E892B09F042C049
:100760000E94B00DEB0180910A010E94CC0E892BF2
:10077000D1F30E94B00D9E01442737FD4095542FC0
:10078000621B730B840B950B68587341804090403B
:1007900068F01092D1011092D2011092D301109200
:1007A000D4011092CA011092C9011CC0E090CD0181
:1007B000F090CE010091CF011091D0010E94B00DB8
:1007C000E60EF71E081F191FE092D101F092D20128
:1007D0000093D3011093D40181E090E09093CA017B
:1007E0008093C90162E370E080E090E00E94C80D50
:1007F00080910C010E94CC0E019709F407CFDF9184
:10080000CF911F910F91FF90EF900895EF92FF927B
:100810000F931F937B018C0124E630E040E050E011
:100820000E94EF119B01AC01243C62E2360760E0BC
:10083000460760E056070CF4B3C1213087E738075C
:1008400081E0480780E058072CF020E030E040E0ED
:1008500050E0AAC1DA01C90186529C46A140B040CD
:100860008B5D9A40A040B04088F4C801B70128EEE3
:1008700033E040E050E00E94EF116A5D7F478F4017
:10088000904024E53FEF4FEF5FEF1BC0DA01C90155
:100890008B509E45A140B0408B519E40A040B0403F
:1008A00098F4C801B70128EE33E040E050E00E9420
:1008B000EF116A55764E8F4090402EE13FEF4FEF9B
:1008C0005FEF0E94431270C1DA01C90186589C444F
:1008D000A140B04085589141A040B04088F4C80183
:1008E000B70128EE33E040E050E00E94EF11645879
:1008F00070478041904028EE3EEF4FEF5FEFE1CF31
:10090000DA01C90184529543A140B0408256974113
:10091000A040B04088F4C801B70128EE33E040E0C1
:1009200050E00E94EF11605571428141904021EBEF
:100930003EEF4FEF5FEFC5CFDA01C9018059944117
:10094000A140B04084599042A040B04088F4C80112
:10095000B70128EE33E040E050E00E94EF11685408
:10096000714F814190402CE73EEF4FEF5FEFA9CFF1
:10097000DA01C9018750944FA040B0408958904295
:10098000A040B04088F4C801B70128EE33E040E051
:1009900050E00E94EF116A5C7748824190402BE55D
:1009A0003EEF4FEF5FEF8DCFDA01C9018F5E9F4CB5
:1009B000A040B04088519442A040B04088F4C801A3
:1009C000B70128EE33E040E050E00E94EF11665F8F
:1009D0007B4A8241904024E53EEF4FEF5FEF71CFBD
:1009E000DA01C9018C5B9A4AA040B040835395421A
:1009F000A040B04088F4C801B70128EE33E040E0E1
:100A000050E00E94EF116E5C7A41824190402BE6EB
:100A10003EEF4FEF5FEF55CFDA01C90188579E488F
:100A2000A040B04084549C41A040B04088F4C8012C
:100A3000B70128EE33E040E050E00E94EF11625928
:100A40007D4F8041904022E93EEF4FEF5FEF39CF7D
:100A5000DA01C9018E5D9747A040B0408A5996419E
:100A6000A040B04088F4C801B70128EE33E040E070
:100A700050E00E94EF11605779498F4090402FEB72
:100A80003EEF4FEF5FEF1DCFDA01C901815E904667
:100A9000A040B0408D5F9641A040B04088F4C801AE
:100AA000B70128EE33E040E050E00E94EF116C59AE
:100AB00072468140904022EF3EEF4FEF5FEF01CF53
:100AC000DA01C90181529E44A040B040805C92414D
:100AD000A040B04088F4C801B70128EE33E040E000
:100AE00050E00E94EF1166557D4F8B40904024E20C
:100AF0003FEF4FEF5FEFE5CEDA01C9018C5E9D431A
:100B0000A040B04085539041A040B04088F4C80157
:100B1000B70128EE33E040E050E00E94EF116E5E36
:100B200075428A40904021E53FEF4FEF5FEFC9CE1D
:100B3000DA01C9018D559043A040B0408F589D40C7
:100B4000A040B04088F4C801B70128EE33E040E08F
:100B500050E00E94EF11685270478840904027E7AC
:100B60003FEF4FEF5FEFADCEDA01C9018E579342F1
:100B7000A040B0408F5D9C40A040B040A8F4C801A8
:100B8000B70128EE33E040E050E00E94EF11605FD3
:100B90007E458640904022EA3FEF4FEF5FEF91CED7
:100BA0002FE037E240E050E0CA01B9011F910F91F8
:100BB000FF90EF9008950F931F93CF93DF93EC0175
:100BC00097FD03C068E571E002C06AE571E082EE5E
:100BD00091E00E94CF0CCE0164E670E00E940E12FC
:100BE0008C01C436D10534F0CE0164E670E00E9479
:100BF0000E1208C0CE0164E670E00E940E127095DD
:100C000061957F4F82EE91E00E94760DC8010996B2
:100C1000439718F06CE571E002C06EE571E082EE7A
:100C200091E00E94CF0CB80117FF03C07095619549
:100C30007F4F82EE91E00E94760DDF91CF911F9160
:100C40000F910895EF92FF920F931F938091BC0133
:100C5000813031F480910C010E94CC0E892BD1F3AC
:100C600081E08093BC0180911601909117010E9450
:100C700020017C0180911401909115010E942001B6
:100C80008C018091DB019091DC0101969093DC0155
:100C90008093DB018091D9019091DA0101969093C4
:100CA000DA018093D901C8010E94520120E030E0AE
:100CB0004EEF50E060E070E082EE91E00E945B0D4C
:100CC00020E030E040E850E060E070E082EE91E04B
:100CD0000E945B0D6CE370E080E090E00E94C80D24
:100CE000C8010E94950120E030E04EEF50E060E046
:100CF00070E082EE91E00E945B0D20E030E040EC7D
:100D000050E060E070E082EE91E00E945B0D6CE3E9
:100D100070E080E090E00E94C80D61E671E082EE34
:100D200091E00E94CF0CC7010E94DB0564E671E0F0
:100D300082EE91E00E94CF0CC8010E94DB051F915A
:100D40000F91FF90EF900895CF93DF93EC010A97F6
:100D500034F469E671E082EE91E00E94CF0CBE01AE
:100D600082EE91E00E94760DDF91CF910895AF92CF
:100D7000BF92CF92DF92EF92FF920F931F9352EEAA
:100D8000C52E51E0D52E20E030E04EEF50E060E07F
:100D900070E0C6010E945B0D20E030E040EC50E0C6
:100DA00060E070E0C6010E945B0DE090D101F09020
:100DB000D2010091D3011091D4016BE671E0C6011C
:100DC0000E94CF0CC801B70120E83EEE46E350E098
:100DD0000E942112DA01C9010E94A40640E7A42E54
:100DE00041E0B42EB501C6010E94CF0CC801B70185
:100DF00020E83EEE46E350E00E94211220E63AEE63
:100E000040E050E00E942112DA01C9010E94A406CC
:100E1000B501C6010E94CF0CC801B70120E63AEE29
:100E200040E050E00E94211228EE33E040E050E024
:100E30000E942112DA01C9010E94A4066CE571E04A
:100E4000C6010E94CF0CC801B70128EE33E040E094
:100E500050E00E9421122AE030E040E050E00E9481
:100E60002112DA01C9010E94A4061F910F91FF907F
:100E7000EF90DF90CF90BF90AF900895AF92BF9268
:100E8000CF92DF92EF92FF920F931F9372EEC72ED5
:100E900071E0D72E20E030E04EEF50E060E070E0EF
:100EA000C6010E945B0D20E030E040E850E060E0C9
:100EB00070E0C6010E945B0DE090D501F090D60174
:100EC0000091D7011091D80162E771E0C6010E943C
:100ED000CF0CC801B70120E83EEE46E350E00E9487
:100EE0002112DA01C9010E94A40660E7A62E61E082
:100EF000B62EB501C6010E94CF0CC801B70120E88B
:100F00003EEE46E350E00E94211220E63AEE40E039
:100F100050E00E942112DA01C9010E94A406B50125
:100F2000C6010E94CF0CC801B70120E63AEE40E0AE
:100F300050E00E94211228EE33E040E050E00E9491
:100F40002112DA01C9010E94A4066CE571E0C60114
:100F50000E94CF0CC801B70128EE33E040E050E01A
:100F60000E9421122AE030E040E050E00E9421126D
:100F7000DA01C9010E94A4061F910F91FF90EF9022
:100F8000DF90CF90BF90AF900895CF93DF939B01F8
:100F9000AC01C1E0D0E009C0CA01B9012AE030E0EB
:100FA00040E050E00E94431221962A30310541056D
:100FB000510594F757FD2196CE01DF91CF91089509
:100FC0000F931F9302EE11E020E030E04CE750E079
:100FD00060E070E0C8010E945B0D20E030E040E876
:100FE00050E060E070E0C8010E945B0D20E030E05E
:100FF0004CE750E060E070E0C8010E945B0D20E02B
:1010000030E04DE950E060E070E0C8010E945B0D07
:101010006CE271E080E090E00E94C80D1F910F919A
:1010200008952F923F924F925F926F927F928F928C
:101030009F92AF92BF92CF92DF92EF92FF920F9367
:101040001F93CF93DF93CDB7DEB728970FB6F894F1
:10105000DEBF0FBECDBF3C0118012901C982DA8273
:10106000EB82FC828D829E82AF82B88619A18AA013
:101070009BA0A8A4B9A4CAA4DBA420E030E04EEF52
:1010800050E060E070E082EE91E00E945B0D20E0B5
:1010900030E040E850E060E070E082EE91E00E94D5
:1010A0005B0DB30182EE91E00E94CF0C62E371E030
:1010B00082EE91E00E94CF0C1130C1F42114310472
:1010C0004104510419F467E771E00BC08FE0281662
:1010D00087E2380680E0480680E0580639F46DE77C
:1010E00071E082EE91E00E94CF0C42C0C201B101DA
:1010F0002AE030E040E050E00E944312BA01A9012A
:1011000082EE91E00E942D0D6CE571E082EE91E09F
:101110000E94CF0CC201B1012AE030E040E050E073
:101120000E944312AB01BC0182EE91E00E942D0DA2
:10113000C201B1010E94C5078C010F5F1F4F033030
:1011400011051CF48C010E5F1F4FEE24FF2409C013
:1011500062E371E082EE91E00E94CF0C0894E11C02
:10116000F11C85E090E0801B910BE816F90684F3F2
:1011700064E871E082EE91E00E94CF0C69817A818F
:101180008B819C810E94C5078C010F5F1F4F03302C
:1011900011051CF48C010E5F1F4FEE24FF2409C0C3
:1011A00062E371E082EE91E00E94CF0C0894E11CB2
:1011B000F11C86E090E0801B910BE816F90684F3A1
:1011C00069817A818B819C812AE030E040E050E0A7
:1011D0000E944312BA01A90182EE91E00E942D0DF6
:1011E0006CE571E082EE91E00E94CF0C69817A811A
:1011F0008B819C812AE030E040E050E00E94431265
:10120000AB01BC0182EE91E00E942D0D8D819E818B
:10121000AF81B88582159305A405B5054CF08D8D79
:101220009E8DAF8DB8A1281639064A065B0614F4C8
:101230000E94E00720E030E04EEF50E060E070E018
:1012400082EE91E00E945B0D20E030E040EC50E047
:1012500060E070E082EE91E00E945B0DB40182EEEE
:1012600091E00E94CF0C62E371E082EE91E00E9477
:10127000CF0C98AD9130C1F4A114B104C104D104D4
:1012800019F467E771E00BC0AFE0AA16A7E2BA064F
:10129000A0E0CA06A0E0DA0639F466E871E082EE62
:1012A00091E00E94CF0C42C0C601B5012AE030E0B7
:1012B00040E050E00E944312BA01A90182EE91E0A1
:1012C0000E942D0D6CE571E082EE91E00E94CF0C42
:1012D000C601B5012AE030E040E050E00E94431230
:1012E000AB01BC0182EE91E00E942D0DC601B5015B
:1012F0000E94C5078C010F5F1F4F033011051CF4BE
:101300008C010E5F1F4FEE24FF2409C062E371E0E1
:1013100082EE91E00E94CF0C0894E11CF11C85E064
:1013200090E0801B910BE816F90684F364E871E005
:1013300082EE91E00E94CF0C6CA57DA58EA59FA5A5
:101340000E94C5078C010F5F1F4F033011051CF46D
:101350008C010E5F1F4FEE24FF2409C062E371E091
:1013600082EE91E00E94CF0C0894E11CF11C86E013
:1013700090E0801B910BE816F90684F36CA57DA51F
:101380008EA59FA52AE030E040E050E00E94431285
:10139000BA01A90182EE91E00E942D0D6CE571E089
:1013A00082EE91E00E94CF0C6CA57DA58EA59FA535
:1013B0002AE030E040E050E00E944312AB01BC0163
:1013C00082EE91E00E942D0D88A999A9AAA9BBA936
:1013D0008A159B05AC05BD054CF08CA99DA9AEA94D
:1013E000BFA9A816B906CA06DB0614F40E94E007D6
:1013F00064E670E080E090E00E94C80D28960FB689
:10140000F894DEBF0FBECDBFDF91CF911F910F913A
:10141000FF90EF90DF90CF90BF90AF909F908F9014
:101420007F906F905F904F903F902F9008954F92D4
:101430005F926F927F928F929F92AF92BF92CF9264
:10144000DF92EF92FF920F931F9380910C010E9405
:10145000CC0E892BD1F36CE871E08DE891E00E940D
:101460008902A5C080910A010E94CC0E892B81F4CB
:101470001092AC011092AD011092AE011092AF012A
:101480001092A8011092A9011092AA011092AB012A
:10149000809102010E943C0EAA2797FDA095BA2FC9
:1014A000BC01CD010E9406042B013C018091040186
:1014B0000E943C0EAA2797FDA095BA2FBC01CD0132
:1014C0000E940604AB01BC01C090AC01D090AD01FC
:1014D000E090AE01F090AF014C155D056E057F0503
:1014E00014F06A017B01C092AC01D092AD01E09290
:1014F000AE01F092AF018090A8019090A901A09058
:10150000AA01B090AB01481459046A047B0414F09A
:10151000530142018092A8019092A901A092AA01D0
:10152000B092AB0121E02F931F921F921F921F9246
:1015300088EE93E0A0E0B0E0BF93AF939F938F93CA
:10154000BF92AF929F928F927F926F925F924F92D3
:1015500088E795E0A0E0B0E0BF93AF939F938F93AF
:101560008EE991E09F938F932F931F921F921F926A
:101570001F92EFE08E2EE7E29E2EA12CB12C8A0165
:101580009B0148E755E060E070E08AE991E00E9445
:10159000110864E170E080E090E00E94C80D8DB712
:1015A0009EB74C960FB6F8949EBF0FBE8DBF80912C
:1015B0000C010E94CC0E019709F454CF1F910F919A
:1015C000FF90EF90DF90CF90BF90AF909F908F9063
:1015D0007F906F905F904F90089580910C010E94D2
:1015E000CC0E892BD9F480910C010E94CC0E892B52
:1015F000D1F780910E0190910F018130910519F47E
:1016000082E090E007C0029719F483E090E002C006
:1016100081E090E090930F0180930E0180910E0184
:1016200090910F01019711F40E94220680910E0102
:1016300090910F01039711F40E94F20280910E0124
:1016400090910F01029711F40E94170A08952F92AA
:101650003F924F925F926F927F928F929F92AF9242
:10166000BF92CF92DF92EF92FF920F931F93CF938F
:10167000DF93CDB7DEB728970FB6F894DEBF0FBE65
:10168000CDBF3C0149835A836B837C8318012901B8
:10169000CD82DE82EF82F88619A120E030E04EEFA5
:1016A00050E060E070E082EE91E00E945B0D20E08F
:1016B00030E040E850E060E070E082EE91E00E94AF
:1016C0005B0DB30182EE91E00E94CF0C1130A1F4CA
:1016D000211431044104510409F017C162EA71E098
:1016E00082EE91E00E94CF0C07C066E871E082EEC6
:1016F00091E00E94CF0C48C062E371E082EE91E07D
:101700000E94CF0CC201B1012AE030E040E050E07D
:101710000E944312BA01A90182EE91E00E942D0DB0
:101720006CE571E082EE91E00E94CF0CC201B10144
:101730002AE030E040E050E00E944312AB01BC01DF
:1017400082EE91E00E942D0DC201B1010E94C507F9
:101750008C010F5F1F4F033011051CF48C010E5FCD
:101760001F4FEE24FF2409C062E371E082EE91E096
:101770000E94CF0C0894E11CF11C85E090E0801BD6
:10178000910BE816F90684F364E871E082EE91E0CB
:101790000E94CF0C6D817E818F8198850E94C50744
:1017A0008C010F5F1F4F033011051CF48C010E5F7D
:1017B0001F4FEE24FF2409C062E371E082EE91E046
:1017C0000E94CF0C0894E11CF11C86E090E0801B85
:1017D000910BE816F90684F36D817E818F819885DF
:1017E0002AE030E040E050E00E944312BA01A90133
:1017F00082EE91E00E942D0D6CE571E082EE91E0A9
:101800000E94CF0C6D817E818F8198852AE030E027
:1018100040E050E00E944312AB01BC0182EE91E037
:101820000E942D0D82149304A404B5044CF08D8DF8
:101830009E8DAF8DB8A1281639064A065B0614F4B2
:101840000E94E00720E030E04EEF50E060E070E002
:1018500082EE91E00E945B0D20E030E040EC50E031
:1018600060E070E082EE91E00E945B0D69817A8118
:101870008B819C8120E130E040E050E00E944312E7
:10188000C201B1010E94211269017A0112141304EC
:10189000140415041CF0CC24DD24760101E010E0D2
:1018A0000CC020E030E04FEF50E060E070E082EEEE
:1018B00091E00E945B0D0F5F1F4FC801AA2797FDA3
:1018C000A095BA2F8C159D05AE05BF0550F301E01C
:1018D00010E008C062E371E082EE91E00E94CF0C5C
:1018E0000F5F1F4F9801442737FD4095542F80E12B
:1018F00090E0A0E0B0E08C199D09AE09BF0928175F
:1019000039074A075B0730F30BC09FE0291697E2BF
:10191000390690E0490690E0590609F0EDCEE5CE93
:1019200064E670E080E090E00E94C80D28960FB653
:10193000F894DEBF0FBECDBFDF91CF911F910F9105
:10194000FF90EF90DF90CF90BF90AF909F908F90DF
:101950007F906F905F904F903F902F900895CFEFC2
:10196000D4E0DEBFCDBF0E94F70D0E9483000E942D
:10197000ED0AFDCF08950895CB01BA010E94600FD2
:1019800008950E94A10F992708950E94B20F08950B
:101990000E94D10F0895862F0E9418100895CB0140
:1019A0000E941F100895862F0E94181008950F930B
:1019B0001F938C016DE00E94CB0C6AE0C8010E946D
:1019C000CB0C1F910F9108950F931F938C010E94D0
:1019D000CB0CC8010E94D70C1F910F9108950F9353
:1019E0001F938C010E94CF0CC8010E94D70C1F913D
:1019F0000F9108950F931F938C010E94D30CC8017F
:101A00000E94D70C1F910F910895CB01BA01332783
:101A1000442755270E942C1008952AE00E94050DA6
:101A200008950F931F938C010E940D0DC8010E9411
:101A3000D70C1F910F910895AB01662777270E945D
:101A40000D0D08950F931F938C010E941C0DC8016A
:101A50000E94D70C1F910F910895EF92FF920F9360
:101A60001F93CF93DF93EC017A018B0177FF0BC0BB
:101A70006DE20E94CB0C10950095F094E094E11C6F
:101A8000F11C011D111D2AE0B801A701CE010E9421
:101A9000050DDF91CF911F910F91FF90EF90089569
:101AA0000F931F938C010E942D0DC8010E94D70C2B
:101AB0001F910F9108952115310521F4642F0E9483
:101AC000CB0C08952A30310519F40E942D0D08958C
:101AD0000E94050D08950F931F938C010E945B0DCA
:101AE000C8010E94D70C1F910F910895AB01662782
:101AF00057FD6095762F0E942D0D08950F931F932B
:101B00008C010E94760DC8010E94D70C1F910F9185
:101B10000895089508951F920F920FB60F92112401
:101B20008F939F93AF93BF938091E7019091E801CA
:101B3000A091E901B091EA010196A11DB11D809328
:101B4000E7019093E801A093E901B093EA01BF9106
:101B5000AF919F918F910F900FBE0F901F9018958E
:101B60006091E7017091E8018091E9019091EA01AB
:101B700027E0660F771F881F991F2A95D1F72DE759
:101B800030E040E050E00E942112CA01B9010895FE
:101B9000AF92BF92CF92DF92EF92FF920F931F937B
:101BA0005B016C010E94B00D7B018C010E94B00DA5
:101BB0006E197F09800B910B6A157B058C059D05BD
:101BC000A8F31F910F91FF90EF90DF90CF90BF90FF
:101BD000AF900895019751F0880F991F880F991FB2
:101BE00002972FB7F8940197F1F72FBF08957894D3
:101BF0001092E7011092E8011092E9011092EA01B7
:101C000084B5826084BD84B5816084BD85B5826001
:101C100085BD85B5816085BDEEE6F0E0808181609F
:101C20008083E1E8F0E08081826080838081816050
:101C30008083E0E8F0E0808181608083E1EBF0E088
:101C4000808184608083E0EBF0E08081816080832C
:101C5000EAE7F0E080818460808380818260808315
:101C60008081816080838081806880831092C10040
:101C700008958093A70108959091A7019295990FD7
:101C8000990F907C8F70982B90937C0080917A00B4
:101C9000806480937A0080917A0086FDFCCF209149
:101CA0007800809179009927982F88273327822BF5
:101CB000932B08951F93CF93DF93182FEB0161E0CF
:101CC0000E94AE0EE12FFF27E659FF4F849183302B
:101CD00051F480918000806880938000D0938900C7
:101CE000C093880037C0843051F4809180008062B6
:101CF00080938000D0938B00C0938A002BC08130EA
:101D000029F484B5806884BDC7BD24C0823029F41D
:101D100084B5806284BDC8BD1DC0863041F4809109
:101D2000B00080688093B000C093B30013C08730C8
:101D300041F48091B00080628093B000C093B40001
:101D400009C0C038D10514F460E001C061E0812F02
:101D50000E94150FDF91CF911F910895282F3327EF
:101D6000C90182589F4FFC0194912E563F4FF901B3
:101D70008491882381F0E82FFF27E055FF4FE491FD
:101D8000FF27662329F48081909589238083089515
:101D90008081892B80830895482F5527CA01865951
:101DA0009F4FFC012491CA0182589F4FFC019491DE
:101DB0004E565F4FFA0134913323A1F1222331F1C2
:101DC000233021F4809180008F7705C0243031F4D6
:101DD000809180008F7D8093800018C0213019F49D
:101DE00084B58F7704C0223021F484B58F7D84BD03
:101DF0000DC0263021F48091B0008F7705C02730C8
:101E000029F48091B0008F7D8093B000E32FFF27ED
:101E1000EA55FF4FE491FF278081892319F081E083
:101E200090E0089580E090E00895482F5527CA017A
:101E300086599F4FFC012491CA0182589F4FFC0193
:101E400094914E565F4FFA0134913323C1F122230E
:101E500031F1233021F4809180008F7705C0243048
:101E600031F4809180008F7D8093800018C02130F4
:101E700019F484B58F7704C0223021F484B58F7DA6
:101E800084BD0DC0263021F48091B0008F7705C04D
:101E9000273029F48091B0008F7D8093B000E32F2C
:101EA000FF27E555FF4FE491FF27662329F4808142
:101EB00090958923808308958081892B808308955C
:101EC000EF92FF920F931F937B018C0122E030E091
:101ED00040E050E00E944312205C3D4B404F5F4F7A
:101EE000CA01B901A80197010E9443122150304054
:101EF00040405040BB2757FDBA95A52F942F832F04
:101F00002F5F3F4F4F4F5F4F8093C500215020936D
:101F1000C400E1ECF0E08081806180838081886092
:101F200080838081806880831F910F91FF90EF9064
:101F30000895982F8091C00085FFFCCF9093C60034
:101F400008958091E5019091E6012091E30130919F
:101F5000E401821B930B80589F4F60E870E00E9461
:101F60000E1208954091E3015091E4018091E50142
:101F70009091E6018417950719F48FEF9FEF08956C
:101F8000FA01E551FE4F2081CA01019660E870E038
:101F90000E940E129093E4018093E301822F99270F
:101FA00008958091E3019091E4019093E60180937C
:101FB000E50108951F920F920FB60F9211242F93EF
:101FC0003F934F935F936F937F938F939F93AF93C1
:101FD000BF93EF93FF934091C600E091E501F0912C
:101FE000E601CF01019660E870E00E940E129C01AC
:101FF0008091E3019091E4012817390739F0E55108
:10200000FE4F40833093E6012093E501FF91EF916D
:10201000BF91AF919F918F917F916F915F914F9100
:102020003F912F910F900FBE0F901F90189508951C
:102030000E94990F08958AE00E9418100895CF9386
:10204000DF93EC0103C021960E9418108881882339
:10205000D1F7DF91CF9108952F923F924F925F92E7
:102060006F927F928F929F92AF92BF92CF92DF92A8
:10207000EF92FF920F931F93CF93DF93CDB7DEB70D
:10208000A0970FB6F894DEBF0FBECDBF6B017C01E9
:1020900019012A01611571058105910521F480E37B
:1020A0000E9418104BC06624772443015E010894F7
:1020B000A11CB11C8501060D171DC701B601A201A7
:1020C00091010E942112F80160830894611C711C27
:1020D000811C911CC701B601A20191010E9421122D
:1020E00069017A01211531054105510519F773017F
:1020F0000894E108F108EA0CFB1CAA24BB24650142
:1021000011C0F70180818A3010F4805D01C0895CC4
:102110000E9418100894A108B108C108D1080894B9
:10212000E108F10888279927DC0186199709A80991
:10213000B909A816B906CA06DB0619F7A0960FB6A4
:10214000F894DEBF0FBECDBFDF91CF911F910F91ED
:10215000FF90EF90DF90CF90BF90AF909F908F90C7
:102160007F906F905F904F903F902F900895EF92E7
:10217000FF920F931F937B018C0197FF0BC08DE2A1
:102180000E94181010950095F094E094E11CF11C49
:10219000011D111D2AE030E040E050E0C801B70108
:1021A0000E942C101F910F91FF90EF90089520E155
:1021B00030E040E050E00E942C10089528E030E02C
:1021C00040E050E00E942C10089522E030E040E012
:1021D00050E00E942C1008958CD001D06FC0552380
:1021E00059F0992369F09F575F57951B33F442F4D8
:1021F000903811F4915805C079C091589F3F09F467
:10220000A4C0BB27112462177307840730F4660F3C
:10221000771F881FBB1F915098F311D00F920FD0DA
:102220000F920DD0A0E82617370748071B0609F0C4
:10223000A048BA2F602D7F918F9100240895A0E8C7
:102240000024621773078407B10528F0621B730B23
:10225000840BB1090A2A660F771F881FBB1FA6953A
:1022600081F7089597FB51D09F3738F0FEE9F91BAD
:10227000982F872F762F6B2F05C064C09695879572
:1022800077956795F150D0F73EF4909580957095CD
:1022900061957F4F8F4F9F4F0895E89403C097FB40
:1022A0000EF4F3DFB62F672F782F892F9EE90024D5
:1022B00005C09A95BB0F661F771F881F11249923AD
:1022C000A1F08823B2F79F3F59F0BB0F48F421F4E7
:1022D000002011F460FF04C06F5F7F4F8F4F9F4F4E
:1022E000881F9795879597F908952CC09FEF80ECEC
:1022F0000895052E092607FA440F551F5F3F79F010
:10230000AA27A51708F051E04795880F991F9F3F0E
:1023100031F0BB27B91708F091E0879508959F9198
:102320009F911124E3CF97FB880F991F9F3F31F0B6
:10233000BB27B91708F091E0879508959F919F9169
:102340001124D4CF66277727882799270895D1DFCE
:1023500001D0B4CF992339F0552329F09F575F5707
:10236000950F13F49AF1F1CF91589F3FE1F3629FDB
:10237000A12D0F92BB27639FA00DB11DEE27729F69
:10238000A00DB11DEE1FAF93AA27649FB00DE11DF4
:10239000739FB00DE11DAA1F6627829FB00DE11D3E
:1023A000A61F5527749FE00DA11D551F839FE00DAB
:1023B000A11D561F849FA00D511D852F7A2F6E2FB2
:1023C0001F900F9088231AF4939539F48FCF000C47
:1023D000111CBB1F661F771F881F01280895629F6D
:1023E000D001739FF001829FE00DF11D649FE00D0D
:1023F000F11D929FF00D839FF00D749FF00D659F6E
:10240000F00D9927729FB00DE11DF91F639FB00D6C
:10241000E11DF91FBD01CF011124089597FB092E7D
:1024200007260AD077FD04D049D006D000201AF440
:10243000709561957F4F0895F6F7909581959F4F20
:102440000895A1E21A2EAA1BBB1BFD010DC0AA1FF5
:10245000BB1FEE1FFF1FA217B307E407F50720F00D
:10246000A21BB30BE40BF50B661F771F881F991F88
:102470001A9469F760957095809590959B01AC01D1
:10248000BD01CF01089597FB092E05260ED057FDFB
:1024900004D0D7DF0AD0001C38F450954095309511
:1024A00021953F4F4F4F5F4F0895F6F790958095D8
:1024B000709561957F4F8F4F9F4F0895AA1BBB1B4F
:1024C00051E107C0AA1FBB1FA617B70710F0A61B34
:1024D000B70B881F991F5A95A9F780959095BC0155
:1024E000CD010895EE0FFF1F0590F491E02D0994A2
:1024F00001000300020009000B000D000A000100AA
:10250000000200020500040057656C636F6D6521D1
:10251000002020202042656E002020202020202046
:10252000200020002020206C617074696D657200AD
:1025300072756E74696D65004C543A2030303A30D3
:10254000303A30302E3030002B002D002E002E304F
:1025500000783A0020793A200030004C543A2000AC
:102560003A0052543A20004C4F5720200048494727
:10257000482020002F0048494748200000322054BE
:10258000656D70204D6574657200462031004620EF
:0825900032004C4F57200001FE
:00000001FF
